:100000000C94AD020C94DA130C940E140C9442145C
:100010000C9476140C94AA140C94DD140C941B15F7
:100020000C9411150C944F120C94CE120C9449138D
:100030000C94DE020C94DE020C94DE020C94DE02C0
:100040000C94DE020C94DE020C94DE020C94DE02B0
:100050000C94DE020C94D0160C94DE020C94DE029A
:100060000C94292A0C94E8230C94DE020C94DE02F2
:100070000C94DE020C94DE020C94DE020C94DE0280
:100080000C94DE020C94DE020C94DE020C94DE0270
:100090000C9457240C94DE020C94DE020C94CF0FC7
:1000A0000C94DE020C94DE020C94DE020C94DE0250
:1000B0000C94DE020C94DE020C94DE020C94DE0240
:1000C0000C94DE020C94DE020C94DE020C94C62426
:1000D0000C94DE020C94DE020C9435250C94DE02A6
:1000E0000C94DE02084AD73B3BCE016E84BCBFFDB8
:1000F000C12F3D6C74319ABD56833DDA3D00C77FF8
:1001000011BED9E4BB4C3E916BAAAABE0000008090
:100110003F000C94F2360C94FC060C94B12F6E61E7
:100120006E00696E660000407A10F35A00A0724EAD
:1001300018090010A5D4E80000E87648170000E48C
:100140000B54020000CA9A3B000000E1F5050000D4
:1001500080969800000040420F000000A086010039
:100160000000102700000000E80300000000640009
:10017000000000000A000000000001000000000074
:100180002C76D888DC674F0823DFC1DFAE59E1B198
:10019000B796E5E3E453C63AE651997696E8E6C2A7
:1001A0008426EB898C9B62ED407C6FFCEFBC9C9FAE
:1001B00040F2BAA56FA5F490055A2AF75C936B6CD0
:1001C000F9676DC11BFCE0E40D47FEF520E6B500C4
:1001D000D0ED902E0300943577050080841E080032
:1001E00000204E0A000000C80C333333330F986EE2
:1001F00012831141EF8D2114893BE65516CFFEE69F
:10020000DB18D1844B381BF77C1D901DA4BBE42464
:10021000203284725E228100C9F124ECA1E53D27E1
:100220000A0AC8C80A0AC8C801010101010101017E
:100230000101010101010A0AC8C80A0AC8C801016E
:100240000101010101010101010101012C00000076
:10025000002C000100002C0004A0112C0005C0118E
:1002600032000520102C0003801100010300120051
:100270000104201200010540120001062011230094
:100280000400112300058010230006A0102300079E
:10029000C010030101000003010000000001010083
:1002A00000000100000029000300002900020000F6
:1002B00029000100002900000000200000000020AB
:1002C00000010000200002000020000300002000C8
:1002D00004000020000500002000060000200007A8
:1002E000000026000700002600060000260005008A
:1002F0000026000400002600030000260002000083
:10030000260001000026000000002900070000323E
:10031000000200003200010000320000000009016C
:100320000700000901060000090105C012090104C7
:10033000A012090103801209010200000901010055
:100340000009010000002300030000230002000058
:10035000230001000023000000002F000010002FE8
:10036000000111002F000212002F000313002F00C4
:100370000414002F000515002F000616002F00079B
:100380001700060100180006010119000601021AF3
:10039000000601031B000601041C000601051D00E8
:1003A0000601061E000601071F002C000000002C9D
:1003B000000100002C0004A0112C0005C011320027
:1003C0000520102C0003801100010300120001041D
:1003D0002012000105401200010620112300040034
:1003E000112300058010230006A010230007C01071
:1003F00003010100000301000000000101000000F2
:10040000010000002900030000290002000029006B
:100410000100002900000000200000000020000171
:100420000000200002000020000300002000040063
:10043000002000050000200006000020000700004A
:100440002600070000260006000026000500002602
:100450000004000026000300002600020000260021
:100460000100002600000000290007000032000201
:100470000000320001000032000000000901070006
:10048000000901060000090105C012090104A012BB
:10049000090103801209010200000901010000099D
:1004A00001000000230003000023000200002300DD
:1004B00001000023000000002F000010002F0001A9
:1004C00011002F000212002F000313002F0004144C
:1004D000002F000515002F000616002F000717003B
:1004E000060100180006010119000601021A0006A3
:1004F00001031B000601041C000601051D00060186
:10050000061E000601071F006364696E6F70737535
:1005100078585B65666745464700616E006E6669A0
:100520006E69747900CDCCCC3D0AD7233C17B7D186
:100530003877CC2B329595E6241FB14F0A00002066
:10054000410000C84200401C4620BCBE4CCA1B0EE5
:100550005AAEC59D7400B12FF23611241FBECFEFE5
:10056000D1E2DEBFCDBF00E00CBF13E0A0E0B2E0FF
:10057000EEEEFDE800E00BBF02C007900D92A43F35
:10058000B107D9F724E0A4EFB3E001C01D92A73E64
:10059000B207E1F712E0CDEAD2E000E006C0219711
:1005A0000109802FFE010E94083FCB3AD10780E06D
:1005B0000807A9F70E9415310C94F5460C94D8163B
:1005C000CF92DF92EF92FF92CF9370E0682B722B65
:1005D00020917A00211106C020917A002068422BD8
:1005E00040937A0020917A0070937B0060937C00A6
:1005F00020917A00206420937A0020917A0026FDD1
:10060000FCCF609178007091790071FD7C6F8E3124
:10061000910514F4885001C08251E82FF0E0E05EAB
:10062000FD4FC491072E000C880B990B0E94994036
:1006300020E030E44CE955E40E9454416B017C0118
:100640006C2F70E080E090E00E94994020E030E064
:1006500040E054E40E9454419B01AC01C701B60143
:100660000E94EF3F0E94C1410E946140072E000C92
:10067000880B990BCF91FF90EF90DF90CF9008956A
:1006800008950895CF92DF92EF92FF920F931F93F8
:10069000CF93DF93EC018B017A012A813B812617EE
:1006A000370798F5CB0108962817390770F5C880E9
:1006B000D9809B838A832AE0AC01249FC001259FB7
:1006C000900D11240E94450499838883960140E08F
:1006D00050E08C819D8148175907A0F4A881B98109
:1006E000C9018C199D09A80FB91F109731F08AE034
:1006F000F90101900D928A95E1F74F5F5F4F265FF8
:100700003F4FE7CFC6010E9447042C813D818AE01C
:10071000829FB001839F700D112440E050E02017AC
:100720003107A0F4A881B981CA01860F971FA80FCD
:10073000B91F109731F08AE0F70101900D928A9568
:10074000E1F72F5F3F4F465F5F4FE9CF1D830C837B
:10075000DF91CF911F910F91FF90EF90DF90CF909D
:100760000895CF93DF93EC011982188288E090E01E
:100770009B838A831D821C8280E590E00E94450451
:1007800099838883DF91CF910895EF92FF920F9321
:100790001F93CF93DF93CDB7DEB72A970FB6F894A8
:1007A000DEBF0FBECDBFE982FA820B831C832D838F
:1007B0003E834F83588769877A87FC01248135817E
:1007C000B9016F5F7F4F2617370730F4AE014F5FD7
:1007D0005F4F0E94420306C06217730718F4FC01C2
:1007E000758364832A960FB6F894DEBF0FBECDBF23
:1007F000DF91CF911F910F91FF90EF900895CF93CC
:10080000DF93CDB7DEB72C970FB6F894DEBF0FBEDF
:10081000CDBF3C872B8749835A836B837C8326E03B
:10082000FE013B96DE01159601900D922A95E1F7A7
:10083000FC0124813581B9016F5F7F4F261737078F
:1008400030F4AE014F5F5F4F0E94420306C0621753
:10085000730718F4FC01758364832C960FB6F89423
:10086000DEBF0FBECDBFDF91CF910895FC0181E0C7
:1008700090E02081222311F080E090E0089521E0B3
:10088000FC0120830895089508950C9412420C945D
:10089000AA42009711F481E090E00C9412420C946B
:1008A000AA420F931F93CF93DF93EC018B010E9419
:1008B000972F85E2F801DE0101900D928A95E1F70C
:1008C000DF91CF911F910F910895FF920F931F9386
:1008D000CF93DF93CDB7DEB7A5970FB6F894DEBF01
:1008E0000FBECDBF8C01F62E0E94972F42E06F2DD8
:1008F000CE0101960E94FA1C85E2FE013196D801D4
:1009000001900D928A95E1F7CE0101960E94871C15
:10091000A5960FB6F894DEBF0FBECDBFDF91CF9185
:100920001F910F91FF9008950F931F93CF93DF9323
:10093000EC018B010E94972F8AE2F801DE01019001
:100940000D928A95E1F7DF91CF911F910F91089554
:10095000FC0187A10895FC0185A108950F931F93C1
:10096000CF93DF93EC0162E00E94D91CCE010E947C
:10097000B11C61E0CE010E94D91C2FEF89EF90E0FD
:10098000215080409040E1F700C0000062E0CE01BD
:100990000E94D91C15E1CE010E94EB1E882341F074
:1009A0002AE02A95F1F700C01150A9F710E01BC00A
:1009B0000EE2CE010E94EB1E182F811107C08AE0C3
:1009C0008A95F1F700C00150A1F7F0CF0EE2CE01F9
:1009D0000E94EB1E882339F09AE09A95F1F700C047
:1009E0000150A9F7E3CF812FDF91CF911F910F9194
:1009F00008952F923F924F925F926F927F928F92C3
:100A00009F92AF92BF92CF92DF92EF92FF920F939D
:100A10001F93CF93DF9300D01F921F92CDB7DEB705
:100A20008C01CE0101967C0185E0F70111928A9537
:100A3000E9F7C8010E94AE0481110AC0FFEF27EA5E
:100A400081E6F15020408040E1F700C0000069C01D
:100A500062E0C8010E94D91C1E0196E0290E311CDB
:100A600087E0C82ED12C0E941D2E2B013C01C8010D
:100A70000E94EB1E811114C00E941D2E4B015C01CF
:100A800084189508A608B708D501C40184199509EA
:100A9000A609B7098A359105A105B10540F341C002
:100AA0000E941D2E2B013C01C8010E94EB1E8823D1
:100AB00079F00E941D2E4B015C0184189508A60850
:100AC000B708EAE58E169104A104B10468F329C0C1
:100AD000F4E18F169104A104B10460F081E090E08C
:100AE0000C2C01C0880F0A94EAF78095F7019081D9
:100AF00089238083F1E0CF1AD10808F0B4CF8FEFBB
:100B0000E81AF80AE214F30409F0AACF8981F8017F
:100B100085A38A8186A38B8187A38C8180A78D8101
:100B200081A70F900F900F900F900F90DF91CF91B2
:100B30001F910F91FF90EF90DF90CF90BF90AF90FB
:100B40009F908F907F906F905F904F903F902F90ED
:100B50000895FC0195A186A1980F87A1980F80A503
:100B6000980F81E021A5921380E00895CF93DF9341
:100B7000EC0180EA8A8381EB8B8382EC8C8383EDAA
:100B80008D8384EE8E8385EF8F83188681E089873D
:100B90001A861E861D862FEF37E1388B2F8720E0BF
:100BA00038E13A8B298B2FEF3FE13C8B2B8B8D8BE0
:100BB0008091DB049091DC04892B41F586E191E082
:100BC0000E944504FC01E95FFE4F20EC30E03183D8
:100BD0002083329621EC30E031832083329622EC60
:100BE00030E031832083329625EC30E0318320835E
:100BF000329624EC30E031832083329626EC30E0CC
:100C0000318320839093DC048093DB048091DB04A8
:100C10009091DC04998F888FDF91CF910895CF92C6
:100C2000DF92EF92FF920F931F93CF93DF937C019C
:100C3000162FD42EC22E8AE790E00E944504EC01C4
:100C40002C2D4D2D612F0E942727F701D183C083C2
:100C500060E0CE01DF91CF911F910F91FF90EF9057
:100C6000DF90CF900C94F225FC01778B668B089572
:100C7000DF92EF92FF920F931F93CF93DF938C013C
:100C8000D62EEA01790160E0FC01808191810E9409
:100C90004D266D2DF801808191810E94A12620971B
:100CA00061F0EC0EFD1ECE15DF0539F06991F801FB
:100CB000808191810E94A126F6CF60E0F8018081B9
:100CC0009181DF91CF911F910F91FF90EF90DF9075
:100CD0000C946426FF920F931F93CF93DF93EC0144
:100CE0008B0160E0888199810E944D26602F888168
:100CF00099810E94A12660E0888199810E94A126A5
:100D0000F82E00271C70012B31F060E0888199815A
:100D10000E94A126F82E60E0888199810E946426B5
:100D20008F2DDF91CF911F910F91FF900895EF923A
:100D3000FF921F93CF93DF931F92CDB7DEB764303E
:100D4000C0F4FC0122856217A1F0162F7C01628796
:100D50006FE170E00E946A068C7F682F612B6983C7
:100D600021E030E0AE014F5F5F4F6FE5C7010E94A9
:100D700038060F90DF91CF911F91FF90EF9008956B
:100D8000EF92FF920F931F93CF93DF931F92CDB7F4
:100D9000DEB77C018B014983CB0188279370692FD3
:100DA000C7010E949706602F606421E030E0AE0129
:100DB0004F5F5F4FC7010E9438060F90DF91CF91C0
:100DC0001F910F91FF90EF900895CF93DF93EC0167
:100DD000462F40686BE170E00E94C0069E014CEF18
:100DE00056E062E08DE0DF91CF910C94B31040E0CB
:100DF0006BE170E00C94C006CF93DF936115710531
:100E000079F0EB0140E06CE170E0CE010E94C00699
:100E1000EE89FF89309721F083E0DF91CF9119941B
:100E2000DF91CF9108950F931F93CF93DF938C01A0
:100E3000EB01CB0188279370692FC8010E949706A8
:100E4000BE016F71C801DF91CF911F910F910C947A
:100E50006A066DE170E00E94130782FB882780F923
:100E6000089569E171E00C9413070F931F93CF93DA
:100E7000DF93EC018A01462F64E17AE00E94C0060C
:100E8000402F66E17AE0CE010E94C006412F67E163
:100E90007AE0CE010E94C0066AE07BE0CE010E94AB
:100EA000130780FDF9CFDF91CF911F910F91089526
:100EB000EF92FF920F931F93CF93DF931F92CDB7C3
:100EC000DEB77C018B014983CB0188279370692FA2
:100ED000C7010E949706602F606821E030E0AE01F4
:100EE0004F5F5F4FC7010E9438060F90DF91CF918F
:100EF0001F910F91FF90EF900895EF92FF920F9343
:100F00001F93CF93DF931F92CDB7DEB77C018B0188
:100F10004983CB0188279370692FC7010E949706E8
:100F2000602F606A21E030E0AE014F5F5F4FC70184
:100F30000E9438060F90DF91CF911F910F91FF9083
:100F4000EF9008951F93CF93DF93EC01462F64E158
:100F50007AE00E94C00641E062E17AE0CE010E94A0
:100F6000580740E54A95F1F76AE07BE0CE010E9420
:100F7000130780FDF9CF41E062E17AE0CE010E94E3
:100F80007D0769E17AE0CE010E941307182F68E11E
:100F90007AE0CE010E941307212F30E0322F222762
:100FA000A901482BCA01DF91CF911F91089561E1FA
:100FB00070E00E94A20792FB882780F90895CF93E2
:100FC000DF93EC0120E030E040E050E06FEF0E9462
:100FD00038066DE170E0CE010E9413078823C9F343
:100FE000DF91CF910895CF92DF92EF92FF920F930E
:100FF0001F93CF93DF937C016B018A0160E0FC01BA
:10100000808191810E944D266AE3F7018081918160
:101010000E94A126E6010C0D1D1DF7018081918122
:1010200060E0C017D10721F00E94A1268993F5CF77
:10103000DF91CF911F910F91FF90EF90DF90CF90B4
:101040000C9464269F92AF92BF92CF92DF92EF9260
:10105000FF920F931F93CF93DF93EC016B017A0103
:1010600069E171E00E941307882309F46DC04B8584
:1010700060E070E0CE010E94C0064C8561E070E047
:10108000CE010E94C0066AE370E0CE010E946A06AB
:1010900090E09C878B876AE370E0CE010E946A062D
:1010A0002B853C85382B3C872B876AE370E0CE018B
:1010B0000E946A06082F6AE370E0CE010E946A0669
:1010C000982E6AE370E0CE010E946A06A82E6AE3B9
:1010D00070E0CE010E946A06A7FE10C0C70101970A
:1010E00010E01929045011098017910708F48C01A8
:1010F000A701B601CE010E94F30702C000E010E094
:101100004B855C854115510541F44FEF6CE070E073
:10111000CE010E94C00647E10AC041506CE070E079
:10112000CE010E94C0068B859C850197492F6DE0FA
:1011300070E0CE010E94C00640E46EE170E0CE0196
:101140000E945807C80102C080E090E0DF91CF9173
:101150001F910F91FF90EF90DF90CF90BF90AF90D5
:101160009F900895CF92DF92EF92FF920F931F937B
:10117000CF93DF938C016B017A0160E0FC018081E9
:1011800091810E944D266AE7F801808191810E9439
:10119000A12660E0F801808191810E94A126E601EC
:1011A000EC0CFD1CF80180819181CE15DF0521F04A
:1011B00069910E94A126F6CF60E0DF91CF911F9147
:1011C0000F91FF90EF90DF90CF900C946426EF92F8
:1011D000FF920F931F93CF93DF93EC017B018A0162
:1011E00040E062E070E00E94C00648E163E070E029
:1011F000CE010E94C006402F66E070E0CE010E9442
:10120000C006C801985E492F67E070E0CE010E94D9
:10121000C006A801B701CE010E94B20848E06FE104
:1012200070E0CE010E94580748E06FE170E0CE0107
:101230000E947D074AE06CE170E0CE010E947D07CC
:1012400048E06FE170E0CE01DF91CF911F910F91E7
:10125000FF90EF900C945807CF93DF93EC0161154A
:10126000710511F0788B6F874E8569E070E0CE01D3
:101270000E94C0064F8568E070E0CE010E94C00663
:1012800048896BE070E0CE010E94C0064F856AE09D
:1012900070E0CE01DF91CF910C94C0060F931F93A5
:1012A000CF938C016BE070E00E941307C82F6AE0B7
:1012B00070E0C8010E9413072C2F30E0322F222744
:1012C000A901482BCA01CF911F910F910895CF9387
:1012D000DF93EC018F85988901969A8B898B611534
:1012E000710539F0680F791F7C8B6B8B611570422B
:1012F00020F02FEF3FE13C8B2B8B492F65E070E016
:10130000CE010E94C0064B8964E070E0CE010E94CD
:10131000C0064C8967E070E0CE010E94C0064B8990
:1013200066E070E0CE01DF91CF910C94C0060F9380
:101330001F93CF938C0167E070E00E941307C82FC2
:1013400066E070E0C8010E9413072C2F30E0322FB6
:101350002227A901482BCA01CF911F910F9108950F
:10136000CF93DF93EC014A8161E077E00E94C006F1
:101370004B8160E077E0CE010E94C0064C8163E0C3
:1013800077E0CE010E94C0064D8162E077E0CE0199
:101390000E94C0064E8165E077E0CE010E94C00643
:1013A0004F8164E077E0CE01DF91CF910C94C006CD
:1013B0000F931F93CF93DF938C01EB0161E077E0F4
:1013C0000E941307888360E077E0C8010E9413073A
:1013D000898363E077E0C8010E9413078A8362E093
:1013E00077E0C8010E9413078B8365E077E0C801AE
:1013F0000E9413078C8364E077E0C8010E94130702
:101400008D83DF91CF911F910F91089543EA68E199
:1014100071E00C94C0060F931F93CF93DF93EC0100
:1014200040E064E070E00E94C00648E165E070E0E2
:10143000CE010E94C0064FE167E070E0CE010E943D
:10144000C0064FE167E070E0CE010E94C00640E0B8
:1014500068E070E0CE010E94C00640E069E070E004
:10146000CE010E94C00640E06CE070E0CE010E9418
:10147000C00640E06DE070E0CE010E94C0064FEF74
:101480006AE070E0CE010E94C00647E16BE070E0C8
:10149000CE010E94C0068D89882309F451C065E001
:1014A00070E0CE010E941307182F64E070E0CE01B7
:1014B0000E941307212F30E0322F2227282B01E032
:1014C0002115384109F000E069E070E0CE010E948A
:1014D0001307182F68E070E0CE010E941307212F38
:1014E00030E0322F2227282B232B09F40F5F6DE0E9
:1014F00070E0CE010E941307182F6CE070E0CE015F
:101500000E941307212F30E0322F2227282B232B74
:1015100009F40F5F6BE070E0CE010E941307182FF3
:101520006AE070E0CE010E941307212F30E0322FD5
:101530002227282B2F3F374119F481E0033009F08F
:1015400080E0DF91CF911F910F9108950F93CF937A
:10155000DF93EC01888199810E940D27811107C0DA
:1015600005E324E343E362E3CE010E940F06CE01CC
:101570000E94DF071C861B86CE010E940B0A88236F
:1015800091F08091D502882371F08FE093E09F93D2
:101590008F93898D8F93888D8F930E94B0230F90A6
:1015A0000F900F900F90CE010E94060ACE010E946C
:1015B000B00940E060E071E0CE010E94C00640E06A
:1015C00061E071E0CE010E94C00640E062E071E09F
:1015D000CE010E94C00640E063E071E0CE010E94AF
:1015E000C00640E064E071E0CE010E94C00640E029
:1015F00065E071E0CE010E94C00640E066E071E067
:10160000CE010E94C00640E067E071E0CE010E947A
:10161000C00640E065E173E0CE010E94C0064DE0E7
:1016200060E076E0CE010E94C00643E362E076E02F
:10163000CE010E94C00642E166E076E0CE010E9443
:10164000C0064CE067E076E0CE010E94C00645E1AE
:1016500064E076E0CE010E94C0064EEE6AE076E0DD
:10166000CE010E94C00645E06BE076E0CE010E940C
:10167000C00640E051E060E070E0CE010E94350716
:1016800040E06CE170E0CE010E94C00642E150E013
:1016900062E170E0CE010E94350740E86EE170E043
:1016A000CE010E94C00644E06FE170E0CE01DF9100
:1016B000CF910F910C945807EF92FF920F931F93C5
:1016C000CF93DF938C0160E00E949706C0E0D0E0EA
:1016D00080E2E82E83E0F82EBE01C8010E941307C5
:1016E0001F928F93DF93CF93FF92EF92F801818D3A
:1016F0008F93808D8F930E94B02321968DB79EB7D4
:1017000008960FB6F8949EBF0FBE8DBFC032D105AC
:1017100019F7DF91CF911F910F91FF90EF900895EE
:101720000F931F93CF93DF93CDB7DEB7A4970FB678
:10173000F894DEBF0FBECDBF8C0186E0FE01379668
:10174000DE01539601900D928A95E1F786E0FE0145
:101750003196DE011D9601900D928A95E1F786E0A3
:10176000FE017396D80101900D928A95E1F786E00B
:10177000FE013D96D801169601900D928A95E1F7EB
:10178000F8011586148686E0FE017F96DE01179625
:1017900001900D928A95E1F786E0FE017996DE01CF
:1017A000119601900D928A95E1F787E0E8EEF2E05C
:1017B000D8011E9601900D928A95E1F785EDF8010A
:1017C000858B11A610A688E090E093A782A715A6A6
:1017D00014A60E944504F80191A780A786E0FE01A7
:1017E0003796D801569601900D928A95E1F786E0DA
:1017F000FE013196D8015C9601900D928A95E1F731
:10180000F80112A213A214A215A217A216A217A6DB
:1018100010AA11AA12AAA4960FB6F894DEBF0FBEA2
:10182000CDBFDF91CF911F910F910895CF92DF929D
:10183000EF92FF920F931F93CF93DF93FB012481CD
:1018400035812E5231092F3A354010F080E05FC0CB
:10185000EC018091DB049091DC04892B41F586E159
:1018600091E00E944504FC01E95FFE4F20EC30E06E
:1018700031832083329621EC30E03183208332960D
:1018800022EC30E031832083329625EC30E0318346
:101890002083329624EC30E031832083329626EC8C
:1018A00030E0318320839093DC048093DB04F0905C
:1018B000DB04E090DC0488E090E00E9445046C01C9
:1018C0008EE090E00E9445048C01C6010E9447040E
:1018D0008EE0FE01D80101900D928A95E1F780918A
:1018E000D502882381F01F921F9281E393E09F939A
:1018F0008F93EF92FF920E94B0230F900F900F9062
:101900000F900F900F90C8010E94470481E0DF9173
:10191000CF911F910F91FF90EF90DF90CF9008959E
:1019200008950F931F93CF93DF93EC01062F142F8D
:101930000E949F0D1D8684E08E8781E08F87198A23
:10194000188A1A8A0B871C87DF91CF911F910F91FC
:1019500008951F93CF93DF93EC018D8540E2849F20
:10196000900111249E8544E0949FC0011124822B94
:101970001A89182B6B85CE010E94A60D60E0CE015E
:101980000E94CC0D612FCE010E94CC0DCE010E9491
:10199000C80D6B85CE010E94A60D61E0CE010E94AC
:1019A000CC0D6F856295660F607ECE010E94CC0DD6
:1019B000CE010E94C80D6B85CE010E94A60D62E08B
:1019C000CE010E94CC0D6889CE010E94CC0DCE01C3
:1019D000DF91CF911F910C94C80DCF93DF93EC0151
:1019E000862F6D85962F9F7920E2829FB00111246A
:1019F000692B6D876B85CE010E94A60D60E0CE013C
:101A00000E94CC0D6D85CE010E94CC0DCE01DF91E0
:101A1000CF910C94C80DFC01858508950895FC01B3
:101A2000868508950895FC01878508950895FC0131
:101A30008089918908950895FC01828908958F9283
:101A40009F92AF92BF92EF92FF920F931F93CF930B
:101A5000DF9300D000D0CDB7DEB77C0106E010E008
:101A60009E012F5F3F4F43E0FC0163850E94710F91
:101A700069817A81762767277627F70172836183E8
:101A80008B819C81982789279827968385830D8150
:101A90001E8110270127102714830383072E000CB3
:101AA000880B990B0E9499404B015C01B801110F02
:101AB000880B990B0E949940A50194010E94903FC8
:101AC00020E030E044E353E40E9454412BED3FE03A
:101AD00049E450E40E94EF3F20E030E044E353E467
:101AE0000E94113FF701678370878187928726964E
:101AF0000FB6F894DEBF0FBECDBFDF91CF911F911F
:101B00000F91FF90EF90BF90AF909F908F900895AE
:101B10000F931F93CF93DF93EC018B01CB010E94B6
:101B20001F0D8AE0F8013196DE0101900D928A9531
:101B3000E1F7CE01DF91CF911F910F9108950895A4
:101B40006093B80008951092B80008951092BC00F8
:101B500084EA8093BC008091BC0087FFFCCF809119
:101B6000B900887F883011F081E008956093BB0050
:101B700084E88093BC008091BC0087FFFCCF8091FB
:101B8000B900887F883111F0803471F780E00895C2
:101B900084E98093BC0008956093BB0084E880933F
:101BA000BC008091BC0087FFFCCF9091B900987F6A
:101BB00081E0983209F480E00895CF92DF92EF92AD
:101BC000FF921F93CF93DF936C01EB017B01E40E37
:101BD000F51E11E0CE15DF0531F06991C6010E94B6
:101BE000CC0D1823F7CF812FDF91CF911F91FF905C
:101BF000EF90DF90CF900895BF92CF92DF92EF9257
:101C0000FF920F931F93CF93DF936C01B42E052F98
:101C100079010E94A60D182F882311F011E011C040
:101C2000CB2DD02FEC0EFD1ECE15DF0539F06991BE
:101C3000C6010E94CC0D8823B9F3F0CF84E98093CC
:101C4000BC00812FDF91CF911F910F91FF90EF90FA
:101C5000DF90CF90BF900895AF92BF92CF92DF9266
:101C6000EF92FF920F931F93CF93DF937C01C42FCA
:101C7000590168010E94A60D182F882311F011E068
:101C800014C06C2FC7010E94CC0DE501CA0CDB1CEF
:101C9000CC15DD0539F06991C7010E94CC0D882370
:101CA000B9F3EDCF84E98093BC00812FDF91CF9110
:101CB0001F910F91FF90EF90DF90CF90BF90AF906A
:101CC0000895CF92DF92EF92FF920F931F93CF93DD
:101CD000DF931F921F92CDB7DEB76C0119821A8273
:101CE000E12CF12C00E010E0602FC6010E94A60D4F
:101CF00081111AC0E1E0F0E0EC0FFD1FEE0DFF1DB9
:101D00000083EA94EF2869F49A8189810F900F90FB
:101D1000DF91CF911F910F91FF90EF90DF90CF90C7
:101D20000895EE24E394F12C0F5F1F4F011581E01D
:101D30001807D1F6E9CFAF92BF92CF92DF92EF9220
:101D4000FF920F931F93CF93DF931F921F92CDB7F4
:101D5000DEB78C016B01DC0113961C921E92129768
:101D600080E090E00E941242F80191838083198202
:101D70001A82A12CB12CE12CF12C6E2DC6010E94EF
:101D8000A60D811134C0E1E0F0E0EC0FFD1FEA0D7B
:101D9000FB1DE082AA94AB2839F5D8018D919C9166
:101DA0000097F9F0A980BA80F801628173816F5FB2
:101DB0007F4F73836283660F771F0E943343D8017E
:101DC00011969C938E93009761F01296ED91FC9181
:101DD0001397E150F048EE0FFF1FE80FF91FA082A4
:101DE000B182A12CB12C03C0AA24A394B12CBFEFC3
:101DF000EB1AFB0AE114E1E0FE0609F0BECFC801D0
:101E00000F900F90DF91CF911F910F91FF90EF9066
:101E1000DF90CF90BF90AF90089584EC8093BC008A
:101E20008091BC0087FFFCCF8091BB00089584E8BF
:101E30008093BC008091BC0087FFFCCF8091BB00E9
:101E40000895CF93DF93EC0161600E94A60D81118C
:101E500007C0CE010E94170F94E99093BC0001C007
:101E600080E0DF91CF9108958F929F92AF92BF92C1
:101E7000CF92DF92FF920F931F93CF93DF936C016A
:101E80005A01890161600E94A60DF82E81111AC0C5
:101E90004501E8012197C4018A199B098C179D0708
:101EA00038F4C6010E940D0FF40181934F01F3CF66
:101EB000CA0DDB1DC6010E94170F888384E9809339
:101EC000BC0002C0FF24F3948F2DDF91CF911F91AE
:101ED0000F91FF90DF90CF90BF90AF909F908F9029
:101EE0000895AF92BF92CF92DF92FF920F931F930C
:101EF000CF93DF93EC01F62EB42E69010E94A60D5C
:101F0000882319F0FF24F39426C06B2DCE010E9484
:101F1000CC0D6F2D6160CE010E94A60DF82E8111AF
:101F2000F1CF560101501109C5018C199D09801787
:101F3000910738F4CE010E940D0FF50181935F01E6
:101F4000F3CF0C0D1D1DCE010E94170FF8018083E9
:101F500084E98093BC008F2DDF91CF911F910F9169
:101F6000FF90DF90CF90BF90AF9008959093F703CC
:101F70008093F6037093F5036093F4030895F89447
:101F8000880F8093BA0085EC8093BC007894089504
:101F9000F8941092BC001092BA00789408951F92A1
:101FA0000F920FB60F9211240BB60F922F933F93FF
:101FB0004F935F936F937F938F939F93AF93BF9351
:101FC000EF93FF938091B900887F803859F028F40F
:101FD000811115C01092BC0012C0883A59F0883B9C
:101FE00049F00DC08091BB00E091F603F091F7033A
:101FF000199505C0E091F403F091F503199585EC6E
:102000008093BC00FF91EF91BF91AF919F918F9111
:102010007F916F915F914F913F912F910F900BBEE8
:102020000F900FBE0F901F901895CF93DF93EB0189
:10203000DA0190912102981709F48EC0891760F097
:1020400090912C02891302C0E4E001C0EFEF90915F
:102050003702891312C014C090911602891302C06E
:10206000E2E001C0EFEF90910B02891301C0E1E0C3
:1020700090910002891709F471C0EF3F11F42DC04F
:10208000E5E08BE0E89FF0011124E050FE4F8181F4
:1020900011968C9311978481958115969C938E93BC
:1020A0001497868116968C931697878117968C9332
:1020B0001797808518968C931897818519968C931D
:1020C000199782851A968C931A9782819381139619
:1020D0009C938E93129782E043C090918802891757
:1020E00021F1891728F0AFE8B2E0EFEF9AE014C0D1
:1020F000EFEF9AE027E09150299FD0011124AE5BC9
:10210000BD4F3C91831301C0E92F9111F4CF0AC058
:102110002C91821729F017969F5F9531C9F702C05D
:10212000E92FF9CFEF3F11F415C0EAE087E0E89F0F
:10213000F0011124EE5BFD4F8181898382818A83C6
:10214000858196819E838D83838194819C838B83FB
:1021500081E006C080E004C0E3E093CFE0E091CFEF
:10216000DF91CF910895CF92DF92FF920F931F934B
:10217000CF93DF93CDB7DEB762970FB6F894DEBF8B
:102180000FBECDBF182F062F6A01AE014F5F5F4F04
:10219000BE01645F7F4F0E941510813021F08230B4
:1021A00009F447C078C08D85813049F1A8F08230AC
:1021B000C1F58091680084608093680020916D0073
:1021C00081E090E00E8402C0880F991F0A94E2F724
:1021D000822B80936D0025C0809168008160809380
:1021E000680020916B0081E090E00E8402C0880FAF
:1021F000991F0A94E2F7822B80936B0012C08091A2
:10220000680082608093680020916C0081E090E01B
:102210000E8402C0880F991F0A94E2F7822B8093E4
:102220006C00EF85F889D182C082E989FA89008340
:102230002FC0F894013049F020F0023021F0053031
:1022400029F4F88403C0F98401C0FA848A818823C0
:1022500041F0813059F480916A008F2980936A009F
:1022600005C0809169008F29809369002DB381E0BA
:1022700090E00B8402C0880F991F0A94E2F7822B2A
:102280008DBBEB81FC81D182C082ED81FE81F08229
:10229000789481E01CC00430C9F425E0129FC0018D
:1022A0001124FC01E25BFD4F2491FC01E45BFD4F36
:1022B000A591B49112963C91129781E090E001C0F3
:1022C000880F2A95EAF7832B12968C9380E062960A
:1022D0000FB6F894DEBF0FBECDBFDF91CF911F9137
:1022E0000F91FF90DF90CF900895CF93DF93CDB7FC
:1022F000DEB762970FB6F894DEBF0FBECDBFAE015A
:102300004F5F5F4FBE01645F7F4F0E9415108130A9
:1023100019F08230C9F153C08D85813029F198F0D0
:10232000823091F520916D0081E090E00E8402C032
:10233000880F991F0A94E2F78095822380936D009D
:1023400080916D0021C020916B0081E090E00E84AF
:1023500002C0880F991F0A94E2F780958223809328
:102360006B0080916B0010C020916C0081E090E0C8
:102370000E8402C0880F991F0A94E2F78095822389
:1023800080936C0080916C009DB321E030E0A90146
:102390000B8402C0440F551F0A94E2F7842F8095E6
:1023A00089238DBB8DB30B8402C0220F331F0A9487
:1023B000E2F790E02823392381E0232B09F080E025
:1023C00062960FB6F894DEBF0FBECDBFDF91CF91FE
:1023D0000895EF920F93CF93DF931F92CDB7DEB79F
:1023E000FC01DA01922F802FE982633061F128F439
:1023F000613049F0623089F04CC0643071F1653071
:1024000009F441C046C02C9130E002C035952795B3
:102410009A95E2F720FF3DC036C06C9121E030E094
:10242000092E02C0220F331F0A94E2F770E0A901BF
:10243000462357239A0102C0359527959A95E2F7CE
:10244000232B39F520C02C9130E002C0359527951B
:102450009A95E2F720FF17C015C06C9121E030E09B
:10246000092E02C0220F331F0A94E2F770E0A9017F
:10247000462357239A0102C0359527959A95E2F78E
:10248000232B09F499810F90DF91CF910F91EF9059
:1024900019940F90DF91CF910F91EF9008951F92B3
:1024A0000F920FB60F9211240BB60F92EF920F936B
:1024B0002F933F934F935F936F937F938F939F934C
:1024C000AF93BF93EF93FF93CF93DF931F92CDB75B
:1024D000DEB793B18091FA038927898383B1809312
:1024E000FA0320E030E0898190E0022E02C0959549
:1024F00087950A94E2F780FF33C067E0629FD001BE
:10250000639FB00D1124AF5BBB4F1396ED91FC910F
:102510001497808191814091450250914602E41BBD
:10252000F50BF595E7956E9FA0016F9F500D112457
:10253000FA01EE5BFD4F008145E0049FF00111249C
:10254000E45BFD4F459154911596ED91FC911697E2
:102550006081009759F0E090FA030E94E91106C0EB
:102560002F5F3F4F2830310509F0BDCF0F90DF912D
:10257000CF91FF91EF91BF91AF919F918F917F91FB
:102580006F915F914F913F912F910F91EF900F902D
:102590000BBE0F900FBE0F901F9018951F920F92B9
:1025A0000FB60F9211240BB60F92EF920F932F9349
:1025B0003F934F935F936F937F938F939F93AF93CB
:1025C000BF93EF93FF93CF93DF931F92CDB7DEB707
:1025D000909103018091F9038927898380910301F8
:1025E0008093F903898180FD07C0898181FF39C00B
:1025F00081E090E021E003C080E090E020E037E05F
:10260000389FD001399FB00D1124A550BC4F1396AF
:10261000ED91FC91149780819181409145025091F8
:102620004602E41BF50BF595E7953E9FA0013F9F01
:10263000500D1124FA01EE5BFD4F008135E0039F40
:10264000F0011124E45BFD4F459154911596ED91F5
:10265000FC9116976081009721F0E090F9030E94A9
:10266000E9110F90DF91CF91FF91EF91BF91AF9161
:102670009F918F917F916F915F914F913F912F919A
:102680000F91EF900F900BBE0F900FBE0F901F9009
:1026900018951F920F920FB60F9211240BB60F923E
:1026A000AF92BF92CF92DF92EF92FF920F931F9360
:1026B0002F933F934F935F936F937F938F939F934A
:1026C000AF93BF93EF93FF93CF93DF931F92CDB759
:1026D000DEB7909106018091F80389278983809164
:1026E00006018093F80339E0A32E34E0B32EC12C09
:1026F000D12C17E045E0F42E898190E00C2C02C02B
:10270000959587950A94E2F780FF2BC0D501139623
:10271000ED91FC9114978081918120914502309137
:102720004602E21BF30BF595E7951E9F90011F9F54
:10273000300D1124F901EE5BFD4F0081F09EF00198
:102740001124E45BFD4F45915491009751F0E090C6
:10275000F8031596ED91FC9116972C2D60810E943F
:10276000E911BFEFCB1ADB0A87E0A80EB11CA8E085
:10277000CA16D10409F0C0CF0F90DF91CF91FF911D
:10278000EF91BF91AF919F918F917F916F915F91E9
:102790004F913F912F911F910F91FF90EF90DF90FC
:1027A000CF90BF90AF900F900BBE0F900FBE0F90C9
:1027B0001F9018951F920F920FB60F9211240BB60F
:1027C0000F922F933F934F935F936F937F938F93CA
:1027D0009F93AF93BF93EF93FF93F894A0E0B2E081
:1027E000D996ED91FC91DA970190F081E02DD79682
:1027F0008C9119957894FF91EF91BF91AF919F9132
:102800008F917F916F915F914F913F912F910F9099
:102810000BBE0F900FBE0F901F9018951F920F9236
:102820000FB60F9211240BB60F922F933F934F9335
:102830005F936F937F938F939F93AF93BF93EF9328
:10284000FF93F894A0E0B2E09E96ED91FC919F97E3
:102850000190F081E02D9C968C9119957894FF91D0
:10286000EF91BF91AF919F918F917F916F915F9108
:102870004F913F912F910F900BBE0F900FBE0F9075
:102880001F9018951F920F920FB60F9211240BB63E
:102890000F922F933F934F935F936F937F938F93F9
:1028A0009F93AF93BF93EF93FF93F894A0E0B2E0B0
:1028B0009396ED91FC9194970190F081E02D919683
:1028C0008C9119957894FF91EF91BF91AF919F9161
:1028D0008F917F916F915F914F913F912F910F90C9
:1028E0000BBE0F900FBE0F901F9018951F920F9266
:1028F0000FB60F9211240BB60F922F933F934F9365
:102900005F936F937F938F939F93AF93BF93EF9357
:10291000FF93F894A0E0B2E05896ED91FC9159979E
:102920000190F081E02D56968C9119957894FF9145
:10293000EF91BF91AF919F918F917F916F915F9137
:102940004F913F912F910F900BBE0F900FBE0F90A4
:102950001F9018951F920F920FB60F9211240BB66D
:102960000F922F933F934F935F936F937F938F9328
:102970009F93AF93BF93EF93FF93F894A0E0B2E0DF
:102980001296ED91FC9113970190F081E02D8C91BE
:1029900019957894FF91EF91BF91AF919F918F918D
:1029A0007F916F915F914F913F912F910F900BBE4F
:1029B0000F900FBE0F901F9018951F920F920FB699
:1029C0000F9211240BB60F922F933F934F935F9367
:1029D0006F937F938F939F93AF93BF93EF93FF93E7
:1029E000F894A0E0B2E01D96ED91FC911E97019045
:1029F000F081E02D1B968C9119957894FF91EF91C1
:102A0000BF91AF919F918F917F916F915F914F9106
:102A10003F912F910F900BBE0F900FBE0F901F9004
:102A200018951F920F920FB60F9211240F900FBEA0
:102A30000F901F9018951F920F920FB60F921124AE
:102A40000F900FBE0F901F9018950F931F93CF9369
:102A5000DF93EC01CB01088119817B836A830E949B
:102A6000450499838883D801CD01801B910B2C816B
:102A70003D818217930750F4E881F981E80FF91F2F
:102A8000309711F08C9180831196EECFC801DF91C1
:102A9000CF911F910F910C944704CF93DF93EC01DA
:102AA00019A218A288E090E09BA38AA31DA21CA2F1
:102AB0000E94450499A388A3CE0187960E94900B9B
:102AC0008091DB049091DC04892B41F586E191E053
:102AD0000E944504FC01E95FFE4F20EC30E03183A9
:102AE0002083329621EC30E031832083329622EC31
:102AF00030E031832083329625EC30E0318320832F
:102B0000329624EC30E031832083329626EC30E09C
:102B1000318320839093DC048093DB04CA59DF4F18
:102B20008091DB049091DC0499838883DF91CF91BD
:102B300008950895FC01DB018C9111969C911197E9
:102B400012962C91129713963C91848B958B268B21
:102B5000378B4091D5024423C1F03F932F939F932D
:102B60008F938DE393E09F938F93EA59FF4F818179
:102B70008F9380818F930E94B0238DB79EB7089664
:102B80000FB6F8949EBF0FBE8DBF0895FB01408124
:102B9000518162817381FC01408F518F628F738FED
:102BA0000895FC01878590E00895FB012081FC01D8
:102BB000278708950895CF93DF93EC01815B9F4FA2
:102BC0000E94A330CE018096DF91CF910C94A33068
:102BD000EF92FF920F931F93CF93DF93CDB7DEB7A2
:102BE00027970FB6F894DEBF0FBECDBF8C017B01D7
:102BF0008091D5028823B1F01F9283E28F9386E4FF
:102C000093E09F938F93F801EA59FF4F81818F934F
:102C100080818F930E94B0230F900F900F900F90A0
:102C20000F900F908091D5028823B1F01F9283E21C
:102C30008F9389E593E09F938F93F801EA59FF4FB3
:102C400081818F9380818F930E94B0230F900F908A
:102C50000F900F900F900F908091D5028823C1F0B4
:102C6000F70181818F9380818F9389E693E09F9311
:102C70008F93F801EA59FF4F81818F9380818F9361
:102C80000E94B0230F900F900F900F900F900F9015
:102C9000F7014081518124813581240F351FF801CE
:102CA00060A171A1C80180960E94A8308091D502D0
:102CB0008823B1F01F9283E28F938BE793E09F9379
:102CC0008F93F801EA59FF4F81818F9380818F9311
:102CD0000E94B0230F900F900F900F900F900F90C5
:102CE0001A82198288E090E09C838B831E821D8269
:102CF0000E9445049A8389838B819C81839730F459
:102D000063E270E0CE0101960E94251583E2F8018E
:102D10003496DE01119601900D928A95E1F780912B
:102D2000D5028823B9F0F80185A18F9384A18F93F0
:102D30008CE893E09F938F93EA59FF4F81818F93A3
:102D400080818F930E94B0230F900F900F900F906F
:102D50000F900F90BE016F5F7F4FC80187960E9452
:102D6000160CCE0101960E94A33027960FB6F89458
:102D7000DEBF0FBECDBFDF91CF911F910F91FF90AE
:102D8000EF900895F8948091D204982F789456B5D6
:102D900052955F70907F92958F708295850F089500
:102DA0008F938091D20483958093D2048F9118954C
:102DB00000001895CF93C82F8091DB049091DC041C
:102DC000892B41F586E191E00E944504FC01E95F11
:102DD000FE4F20EC30E031832083329621EC30E04E
:102DE00031832083329622EC30E031832083329687
:102DF00025EC30E031832083329624EC30E03183BF
:102E00002083329626EC30E0318320839093DC04DB
:102E10008093DB041F92CF9386E993E09F938F9377
:102E20008091DC048F938091DB048F930E94B02308
:102E30000F900F900F900F900F900F90CF910895DB
:102E40000F931F93CF93DF93EC018B010E949F0D93
:102E50001C821B821E821D8218861F821A8619867A
:102E60001C861B861E861D86188A1F86198A1A8A4A
:102E70001A830983DF91CF911F910F9108950F93CA
:102E80001F93CF93DF93EC01062F142F0E949F0D09
:102E90001C821B821E821D8218861F821A8619863A
:102EA0001C861B861E861D86188A1F86198A1A8A0A
:102EB00009831A83DF91CF911F910F910895CF93CA
:102EC000DF93EC0169810E94A60D6BE6CE010E94A2
:102ED000CC0D60E0CE010E94CC0DCE01DF91CF91F0
:102EE0000C94C80DCF93DF93EC0169810E94A60D6D
:102EF0006BE6CE010E94CC0D6A81CE010E94210FAB
:102F0000682F6064CE010E94CC0DCE01DF91CF917D
:102F10000C94C80D0F931F93CF93DF938C01EB019B
:102F20006981CE010E94A60D6BE3CE010E94CC0DFB
:102F30006A81CE010E94A60DCE010E940D0F8C83E6
:102F4000CE010E940D0F8B83CE010E940D0F8E8348
:102F5000CE010E940D0F8D83CE010E940D0F888738
:102F6000CE010E940D0F8F83CE010E940D0F8A8724
:102F7000CE010E940D0F8987CE010E940D0F8C8714
:102F8000CE010E940D0F8B87CE010E940D0F8E8700
:102F9000CE010E940D0F8D87CE010E940D0F888BF0
:102FA000CE010E94170F8F878EE0FE013396D80165
:102FB00001900D928A95E1F7C801DF91CF911F91A1
:102FC0000F910895DF92EF92FF920F931F93CF938B
:102FD000DF93CDB7DEB72E970FB6F894DEBF0FBEE6
:102FE000CDBF8C017B01D42ECE0101960E948A17A1
:102FF000F70163817481072E000C880B990B0E94E6
:10300000994020E030E040E858E30E945441F80144
:103010006083718382839383F70165817681072EB4
:10302000000C880B990B0E94994020E030E040E8AA
:1030300058E30E945441F801648375838683978323
:10304000F70167817085072E000C880B990B0E9491
:10305000994020E030E040E858E30E945441F801F4
:103060006087718782879387F70163857485072E50
:10307000000C880B990B0E9499402DEC3CEC4CE124
:1030800052E40E94544120E03FEF4FE757E40E9492
:10309000EF3FF801608B718B828B938BF701658515
:1030A0007685072E000C880B990B0E9499402DEC19
:1030B0003CEC4CE152E40E94544120E03FEF4FE7EA
:1030C00057E40E94EF3FF801648B758B868B978BDA
:1030D000F70167857089072E000C880B990B0E94F9
:1030E00099402DEC3CEC4CE152E40E94544120E02C
:1030F0003FEF4FE757E40E94EF3FF801608F718F79
:10310000828F938FF70161857285072E000C880BE3
:10311000990B0E94994020E030E04AEA53E40E9473
:10312000EF3F28EB3EE142E152E40E94113FF1E023
:10313000DF1651F0DF16A0F022E0D21216C023E312
:1031400033E948E853E40AC026E636E646EE5FE394
:103150000E94544120E030E040E052E40E94113FE0
:10316000F8016487758786879787C8012E960FB602
:10317000F894DEBF0FBECDBFDF91CF911F910F91AD
:10318000FF90EF90DF900895CF93DF93EC01660FEF
:10319000660F660F698B69810E94A60D6CE1CE01F6
:1031A0000E94CC0D6989CE010E94CC0DCE01DF9129
:1031B000CF910C94C80DFC0181890895CF93DF93C2
:1031C000EC01660F660F660F6A8B69810E94A60D7F
:1031D0006BE1CE010E94CC0D6A89CE010E94CC0D1C
:1031E000CE01DF91CF910C94C80DFC018289089526
:1031F0000F931F9389019A010095109520953095A2
:10320000602B712B822B932B1F910F9108956223BA
:10321000732384239523089508958F929F92AF92EC
:10322000BF92CF92DF92EF92FF920F931F93CF93B3
:10323000DF931F921F92CDB7DEB76C018B01FB01AC
:1032400001900020E9F7CF01019742E150E069E0E9
:1032500070E0801B910B0E94822F882339F14DEB87
:1032600053E0BE016F5F7F4FC8010E94B92A0597E6
:10327000E9F409811A81780156014801F8E08F0EBE
:10328000911CF701819191917F010E941D44F501EC
:1032900081935F01E814F904A1F7F8018085918515
:1032A0000E941D440E947031F60164830F900F90BC
:1032B000DF91CF911F910F91FF90EF90DF90CF9012
:1032C000BF90AF909F908F9008950F931F93CF93CF
:1032D000DF9300D01F921F92CDB7DEB78C01FC01A7
:1032E00001900020E9F7CF01019742E150E067E04B
:1032F00070E0801B910B0E94822F811104C060E05E
:1033000070E0CB010CC0B801CE0101960E940D19EE
:103310008D810E94703160957095809590950F9089
:103320000F900F900F900F90DF91CF911F910F9101
:1033300008950F931F93CF93DF9300D01F921F9296
:10334000CDB7DEB78C01FC0101900020E9F7CF0179
:10335000019742E150E067E070E0801B910B0E9412
:10336000822F882341F0B801CE0101960E940D19E9
:103370008D810E94703160E070E0CB010F900F9062
:103380000F900F900F90DF91CF911F910F910895A3
:103390001F93CF93DF931F921F92CDB7DEB74EEBF3
:1033A00053E0BE016F5F7F4F0E94B92A029711F070
:1033B00080E011C0E981FA81828193810E941D44DD
:1033C000182F42E150E069E070E090E00E94822F07
:1033D000882371F3812F0F900F90DF91CF911F9170
:1033E0000895EF92FF920F931F93CF93DF9300D036
:1033F0001F921F92CDB7DEB78C01FC010190002017
:10340000E9F7CF01019742E150E069E070E0801BED
:10341000910B0E94822F882339F1B801CE010196C9
:103420000E940D198E010F5F1F4F7E01F5E0EF0E18
:10343000F11CF80181918F0190E00E941D444FEF33
:1034400050E060E070E00E94822F882369F0E0166F
:10345000F10679F78D8190E00E941D4440E250E032
:1034600061E070E00E94822F0F900F900F900F90FC
:103470000F90DF91CF911F910F91FF90EF900895E2
:10348000AF92BF92CF92DF92EF92FF920F931F9372
:10349000CF93DF9300D000D0CDB7DEB78C010E9470
:1034A000F119811115C069817A818B819C812696E1
:1034B0000FB6F894DEBF0FBECDBFDF91CF911F9145
:1034C0000F91FF90EF90DF90CF90BF90AF90089555
:1034D0005E0185E0A80EB11C40EC53E0B501C801C7
:1034E0000E94B92A0497F9F60D811E816801FE0138
:1034F00031967F01EA15FB0549F0F6018191919122
:103500006F010E941D44F7018193F3CF011511054E
:1035100051F2C8010E944F04C6CF1F927F931F92A1
:103520006F931F925F931F924F9322EC33E03F9370
:103530002F939F938F930E9423468DB79EB70C962F
:103540000FB6F8949EBF0FBE8DBF0895EF92FF9205
:103550000F931F93CF93DF93CDB7DEB72E970FB6A0
:10356000F894DEBF0FBECDBF4EEC53E0BE01635FEB
:103570007F4F0E94B92A0697E1F47E0187E0E80EAA
:10358000F11C00E010E0ED85FE85E00FF11F808169
:1035900091810E943A2BF70181937F010E5F1F4FAB
:1035A0000C30110581F78D859E85009711F00E94E2
:1035B0004F0486E0FE013796DE01119601900D92D0
:1035C0008A95E1F729813A814B815C816D817E8109
:1035D00080E090E02E960FB6F894DEBF0FBECDBF10
:1035E000DF91CF911F910F91FF90EF900895CF93AE
:1035F000DF9300D000D0CDB7DEB729833A834B8369
:103600005C836D831F927F932D811F922F932C815A
:103610001F922F932B811F922F932A811F922F93FA
:1036200029811F922F9321ED33E03F932F939F9396
:103630008F930E9423460FB6F894DEBF0FBECDBF16
:1036400026960FB6F894DEBF0FBECDBFDF91CF91A7
:103650000895CF92DF92EF92FF921F93CF93DF9363
:10366000CDB7DEB72B970FB6F894DEBF0FBECDBF38
:103670007C010E94FC310E94F119811105C0C884AF
:10368000D984EA84FB8430C04EE2B701CE010196B2
:103690000E94612C8D819E81049711F410E009C075
:1036A000C884D984EA84FB84CE0101960E94A331A8
:1036B0001BC0E12EF12C8D819E81E816F90680F762
:1036C00089819A8127E0129F800D911D11240E940B
:1036D000FC310E941D44E8E0F0E0EC0FFD1FEE0D10
:1036E000FF1D80831F5FE5CFC701B6012B960FB684
:1036F000F894DEBF0FBECDBFDF91CF911F91FF9039
:10370000EF90DF90CF900895EF92FF921F93CF93A9
:10371000DF93CDB7DEB763970FB6F894DEBF0FBE69
:10372000CDBF4EE2BC01CE0101960E94612C8D817D
:103730009E810697E1F410E0E12EF12C8D819E81AF
:10374000E816F906A0F489819A8127E0129F800D7E
:10375000911D11240E94FC310E941D44EEE0F0E016
:10376000EC0FFD1FEE0DFF1D80831F5FE5CF86E090
:10377000FE013E96DE01189601900D928A95E1F7C2
:10378000CE0101960E94A331288539854A855B8543
:103790006C857D8580E090E063960FB6F894DEBF7F
:1037A0000FBECDBFDF91CF911F91FF90EF90089595
:1037B000EF92FF920F931F93CF93DF93EC01142F9F
:1037C000052FF62EE72E1982188288E090E09B8361
:1037D0008A831D821C820E9445049983888364E049
:1037E00070E0CE010E94C9311F92EF921F92FF92AA
:1037F0001F920F931F921F9382EC93E09F938F93DE
:1038000089818F9388818F930E9423468DB79EB7BD
:103810000C960FB6F8949EBF0FBE8DBFCE01DF9100
:10382000CF911F910F91FF90EF9008950F931F93E9
:10383000CF93DF9300D000D0CDB7DEB78C012983C2
:103840003A834B835C836D837E83FC0111821082FB
:1038500088E090E093838283158214820E9445045D
:10386000F8019183808366E070E0C8010E94C9314D
:103870008E811F928F938D811F928F938C811F92C7
:103880008F938B811F928F938A811F928F9389814F
:103890001F928F9381ED93E09F938F93F801818125
:1038A0008F9380818F930E9423460FB6F894DEBFDA
:1038B0000FBECDBFC80126960FB6F894DEBF0FBE6F
:1038C000CDBFDF91CF911F910F9108950C944D15AD
:1038D0000F931F93CF93DF9300D01F92CDB7DEB726
:1038E0008C01CA010E94401A69837A838B839C836E
:1038F000BE016F5F7F4FC8010E949A150F900F9015
:103900000F900F90DF91CF911F910F91089508951F
:10391000DC011296ED91FC911397408121E030E09B
:10392000C90118960C9002C0880F991F0A94E2F7FB
:10393000842B80830895DC011296ED91FC911397FE
:1039400018963C91208181E090E001C0880F3A9563
:10395000EAF7662311F0822B02C0809582238083D0
:103960000895DC011296ED91FC911397408121E0BE
:1039700030E0B90118960C9002C0660F771F0A94C8
:10398000E2F7CB018095842380830895DC011296B1
:10399000ED91FC911397408121E030E0C901189628
:1039A0000C9002C0880F991F0A94E2F78427808345
:1039B0000895DC01ED91FC91119718965C916130AE
:1039C00051F4208181E090E001C0880F5A95EAF718
:1039D000822B80830895408121E030E001C0220FD6
:1039E0005A95EAF7209524232083623011F40C9431
:1039F000881C0895DC018FEF9FEF17969C938E93A0
:103A000016971B961C921E921A971D961C921E9238
:103A10001C971F961C921E921E9751961C921E92E6
:103A2000509753961C921E92529755961C921E9236
:103A3000549757961C921E92569759961C921E9216
:103A400058975B961C921E925A975D961C921E92F6
:103A50005C97673408F092C025E0629FC001112492
:103A6000FC01E655FC4F2591349115963C932E931D
:103A70001497F90131961196FC93EE932E5F3F4F08
:103A800013963C932E931297FC01E455FC4FE4915E
:103A90001896EC931897FC01E355FC4F859194918F
:103AA00093969C938E93929794966C93949794FF8D
:103AB0004EC080789370880F892F881F990B91953D
:103AC0008230D9F419968C931997880F991FFC01AD
:103AD000EA52FD4F8081918157969C938E93569721
:103AE0009C012F5F3F4F59963C932E935897029617
:103AF0005B969C938E935A973DC08823D9F123E01F
:103B000019962C931997880F991FFC01EA52FD4FC3
:103B1000808191811B969C938E931A979C012F5FB5
:103B20003F4F1D963C932E931C972F5F3F4F53960C
:103B30003C932E9352972E5F3F4F1F963C932E93AC
:103B40001E97069655969C938E93549713C084FFA8
:103B500011C024E019962C931997FC01EF70FF27F0
:103B6000EE0FFF1FE151FD4F8081918117969C93CD
:103B70008E931697642FCD010C94D91C08958F92C3
:103B80009F92AF92BF92CF92DF92EF92FF921F93DC
:103B9000CF93DF93EC018985833009F077C0122F32
:103BA000CB01BA010E9497409B01AC0160E070E03C
:103BB00080E89FE30E94EF3F2DEB37E346E853E3B5
:103BC0000E94EF3F0E9468406B017C017F8F6E8FE7
:103BD00080E090E00E9497404B015C01612F70E013
:103BE00080E090E00E94974020E030E048EC52E412
:103BF0000E94EF3FA50194010E9454419B01AC013A
:103C0000C501B4010E94103F0E94684079A368A3D7
:103C1000EC89FD89D182C0828AA19BA180769927F7
:103C200025E0969587952A95E1F7AA85BB85813091
:103C3000910579F040F0029791F43696F98BE88B74
:103C40008C918C600BC03296F98BE88B8C91806CD8
:103C500005C03496F98BE88B8C9180638C93E8894E
:103C6000F98988A199A191838083EA85FB85808168
:103C700082608083EC85FD85808188618083EC850E
:103C8000FD8580818160808381E001C080E0DF91DB
:103C9000CF911F91FF90EF90DF90CF90BF90AF90AA
:103CA0009F908F900895CF92DF92EF92FF921F9393
:103CB000CF93DF93FC012185233051F5162FEC01C2
:103CC000668D778D80E090E00E9497406B017C01CB
:103CD000612F70E080E090E00E94974020E030E0AB
:103CE00048EC52E40E94EF3FA70196010E94544124
:103CF0009B01AC01C701B6010E94103F0E946840C1
:103D000079A368A3E889F9897183608381E001C0A0
:103D100080E0DF91CF911F91FF90EF90DF90CF90E7
:103D200008958F929F92AF92BF92CF92DF92EF92BF
:103D3000FF92CF93DF93FC012185233009F03FC030
:103D40007B01EC01868D978D60A171A10E94F43EEC
:103D500080E090E00E9497404B015C01B70180E059
:103D600090E00E9497409B01AC0160E070E080E829
:103D70009FE30E94EF3F2DEB37E346E853E30E94B9
:103D8000EF3F0E9468406B017C017F8F6E8F80E067
:103D900090E00E949740A50194010E94EF3F0E948D
:103DA000684079A368A3EC89FD89D182C082E88943
:103DB000F98988A199A19183808381E001C080E085
:103DC000DF91CF91FF90EF90DF90CF90BF90AF90B9
:103DD0009F908F900895DC011496ED91FC911597BA
:103DE000208130E0F90118960C9002C0F595E79516
:103DF0000A94E2F7CF0181700895FC0131853323E5
:103E000041F1868197818F3FFFEF9F0721F170E09D
:103E1000722B862B972B20917A00211106C02091BE
:103E20007A002068422B40937A0020917A00909388
:103E30007B0080937C0080917A00806480937A007C
:103E400080917A0086FDFCCF809178009091790076
:103E500008958FEF9FEF0895FC0184A10895CF92FC
:103E6000DF92EF92FF92CF93DF93EC016E8D7F8D07
:103E700080E090E00E9497406B017C0168A179A1ED
:103E800080E090E00E9497409B01AC01C701B60121
:103E90000E94103F20E030E048EC52E40E94544180
:103EA000A70196010E94EF3F0E946840862FDF9194
:103EB000CF91FF90EF90DF90CF900895FC01808527
:103EC0000895FC01848195810895CB01BA010E9477
:103ED00097409B01AC0160E070E080E89FE30E94A6
:103EE000EF3F2DEB37E346E853E30E94EF3F0E949C
:103EF0006840CB0108950F931F93CF93DF93EC019C
:103F0000CB01088119817B836A830E9445049983D0
:103F10008883D801CD01801B910B2C813D818217B4
:103F2000930750F4E881F981E80FF91F309711F0F9
:103F30008C9180831196EECFC801DF91CF911F91B4
:103F40000F910C944704EF92FF920F931F93CF931E
:103F5000DF93EC018B017A018A819B818617970799
:103F600040F4685F7F4F8617970718F4CE010E94D0
:103F70007B1F8C819D818017910758F4E881F9811E
:103F8000E80FF91F309719F0D7012C912083019683
:103F9000F2CF1D830C83DF91CF911F910F91FF9082
:103FA000EF900895CF93DF93EC011B821A8288E093
:103FB00090E09D838C831F821E820E9445049B8318
:103FC0008A83DF91CF910895FC01828193810C94C3
:103FD0004704CF92DF92EF92FF92CF93DF93EC01F1
:103FE000862F69017A010E9411329983888320E02B
:103FF000B701A6010E943B2260E0888199810E945E
:10400000AA2260E0888199810E94BA2281E02881F9
:104010003981232B09F480E0DF91CF91FF90EF905D
:10402000DF90CF900895AF92BF92CF92DF92EF9240
:10403000FF920F931F93CF93DF931F92CDB7DEB7FD
:104040008C017B01FC011182108288E090E0938357
:104050008283158214820E944504F8019183808333
:10406000F701228133815901FFEFAF1ABF0AF7012F
:10407000C680D780F1E0CF1AD108C20ED31ECA1471
:10408000DB0409F443C0F50121915F012983F801A4
:10409000208131817C01E21AF30A84819581BC017F
:1040A0006F5F7F4F8617970738F4AE014F5F5F4F02
:1040B000C8010E94A31F06C06817790718F4F80109
:1040C00075836483F8012481358121503109F80119
:1040D00080819181E216F30658F4FC01E20FF31F90
:1040E00021503109DC01A20FB31F8C918083EFCFE7
:1040F0002981FC01EE0DFF1D2083FFEFEF1AFF0A5F
:10410000F801808191818E0D9F1DB9CFC8010F905C
:10411000DF91CF911F910F91FF90EF90DF90CF90A3
:10412000BF90AF900895FF920F931F93CF93DF93AB
:104130008C01F62E85E290E00E944504EC0141E0FE
:104140006F2D0E94FA1CF801D287C18720E048EE4B
:1041500053E060E070E0CE010E94BF1D811103C0FA
:10416000F80112861186DF91CF911F910F91FF9078
:104170000895FB01A081B181FD01AD01465F5F4F54
:1041800080E0218190E1299F9001112492819F700C
:10419000292B822732964E175F0799F71B962C9191
:1041A0001B97E0E12E9F90011124332790E041E01E
:1041B00050E02817390711F040E050E01C968C9130
:1041C0008F70482B81E0452B09F480E00895DB01D6
:1041D000ED91FC9111972081223079F414962D9164
:1041E0003C911597E20FF31F31974081433029F43A
:1041F0002E30310511F40C94B92080E00895CF934E
:10420000DF93EC0189859A85009749F126E448EE11
:1042100053E060E070E00E94BF1D2FEF84E39CE05C
:10422000215080409040E1F700C0000026E448EBB8
:104230005BE060E070E089859A850E94BF1D2FEFEA
:1042400084E39CE0215080409040E1F700C00000F2
:1042500060E089859A85DF91CF910C94531EDF91A0
:10426000CF910895CF93DF93EC0189859A850097CC
:1042700049F126E448EB5BE060E070E00E94BF1D7E
:104280002FEF84E39CE0215080409040E1F700C094
:10429000000026E448EE53E060E070E089859A85EE
:1042A0000E94BF1D2FEF84E39CE02150804090408E
:1042B000E1F700C0000060E089859A85DF91CF9129
:1042C0000C94531EDF91CF910895CF93DF93FC019F
:1042D000818592850097C1F0EF0126E448EB5BE011
:1042E00060E070E00E94BF1D2FEF89E698E1215049
:1042F00080409040E1F700C0000060E089859A8529
:10430000DF91CF910C94531EDF91CF910895CF92FE
:10431000DF92FF920F931F93CF93DF93CDB7DEB75A
:1043200029970FB6F894DEBF0FBECDBF8C0119865A
:104330001A82198288E090E09C838B831E821D8202
:104340000E9445049A8389838091CA049091CB048A
:1043500001969093CB048093CA04883B9B40A1F4C0
:10436000BE016F5F7F4FC80102960E94C5328FEF7A
:1043700093EDE0E381509040E040E1F700C00000A1
:104380001092CB041092CA04F801808191810E949E
:10439000252381110AC0BE016F5F7F4FC8010E94B3
:1043A000E720F82E811129C053C0F8018081918146
:1043B0000E9433238987823071F7BE01675F7F4F88
:1043C000CE0101960E942C33F801808191810E94D8
:1043D0002523882369F0F801808191810E9433238D
:1043E0008887BE01685F7F4FCE0101960E942C3303
:1043F0008D819E810E9740F3CECFC80102964D81EC
:104400005E81F8012681378142175307A1F4A98103
:10441000BA8120E030E042175307B1F07D91F801F6
:10442000C280D380F601E20FF31F6081761303C0D0
:104430002F5F3F4FF0CFBE016F5F7F4F0E94C532AD
:10444000C8010E94FF2004C0C8010E946521F12C10
:1044500089819A810E9447048F2D29960FB6F8947E
:10446000DEBF0FBECDBFDF91CF911F910F91FF90A7
:10447000DF90CF900895EF92FF921F93CF93DF9339
:10448000EC01122FFC01E35FFE4F0190F081E02D63
:104490001082FC01E15FFE4FE080F180CB01BA01A8
:1044A0000E9497409B01AC0160E074E284E799E4CC
:1044B0000E94EF3F20E030E040E85FE30E94103FC1
:1044C0000E94C1410E946840F7016083FE01E75FDE
:1044D000FE4F0190F081E02D88E18083FE01E55FD1
:1044E000FE4F0190F081E02D86E08083FE01ED5EBD
:1044F000FE4F108340E051E06FEF70E0CE010E946C
:104500006145FE01ED5FFE4FD183C0833296D183BA
:10451000C083339781E08083CC5EDE4F198218829E
:10452000DF91CF911F91FF90EF900895CF93DF938C
:10453000FC01E95FFE4FA081B181EC01CF5EDE4F4F
:104540002C9127FF04C0E881F9812081F9CFDF9108
:10455000CF910895FC01E75FFE4F0190F081E02DBF
:104560008081662321F080688083789408958F7716
:10457000808308959395FC0160830895CF93DF9322
:10458000FC01EB5FFE4F208131812F5F3F4FAC017B
:1045900041505F4F4217530718F03183208302C008
:1045A00091838083A081B181EC01CD5FDE4F2881B2
:1045B0003981A217B30739F41197A817B90728F45E
:1045C0005183408304C06C9302C0B183A083DF9108
:1045D000CF910895FC01ED5FFE4F20813181260FC0
:1045E000311D318320830895FC01EF5FFE4F60830E
:1045F00038960190F081E02D8081806880837894E6
:1046000008958C5E9E4FFC017183608308958C5EDB
:104610009E4FDC01ED91FC91309709F019940895BB
:104620008F5F9E4FFC0180810895DC01AD5FBE4F1E
:10463000FC01EB5FFE4F81E04D915C912081318167
:104640004217530709F480E00895895F9E4FDC010B
:10465000ED91FC918081881F8827881F089593958C
:10466000FC0180810895FC01E95FFE4F0190F0811B
:10467000E02D208127FFFDCFFC01EF5EFE4F019072
:10468000F081E02D80810895EF92FF920F931F93A8
:10469000CF93DF937C01EB01042F10E0C7010E9450
:1046A000332391E0910F80130AC0C90FD11D1882E6
:1046B000DF91CF911F910F91FF90EF900895FE0130
:1046C000E10FF11D8083192FE9CFCF93DF93DC0138
:1046D000AE5FBE4F1C92FC01ED5FFE4F2081318129
:1046E0002F5F3F4FAC0141505F4F4217530718F007
:1046F0003183208302C0918380830190F081E02D7B
:10470000EC01CB5FDE4F88819981E817F90711F042
:1047100081E08C938081DF91CF9108958D5E9E4FD3
:10472000FC0180810895CF93DF9320E0DC01A95F35
:10473000BE4FEC01CF5EDE4FFB01E20FF11D308179
:10474000332359F0ED91FC911197408145FFFDCF46
:10475000E881F98130832F5FEFCFDF91CF9108950A
:10476000CF93DF93CDB7DEB7DA950FB6F894DEBFFF
:104770000FBECDBFAE01465F5E4FC85FDE4F6881A2
:104780007981C850D140CE0101960E945246BE01A7
:104790006F5F7F4FCA5FDE4F88819981C650D140DD
:1047A0000E949323D3950FB6F894DEBF0FBECDBF02
:1047B000DF91CF91089523EE33E03F932F939F93A2
:1047C0008F930E94B0230F900F900F900F90089539
:1047D0001F920F920FB60F9211240BB60F921F93D8
:1047E0002F933F934F935F936F937F938F939F93F9
:1047F000AF93BF93CF93DF93EF93FF938091DB044D
:104800009091DC04892B41F586E191E00E944504FA
:10481000FC01E95FFE4F20EC30E0318320833296CB
:1048200021EC30E031832083329622EC30E031837A
:104830002083329625EC30E031832083329624ECBD
:1048400030E031832083329626EC30E031832083C0
:104850009093DC048093DB04C091DB04D091DC04F2
:104860001091C600612FCE010E94BE22FE01F39579
:104870008081811119C0CE010E940723FF91EF9121
:10488000DF91CF91BF91AF919F918F917F916F9168
:104890005F914F913F912F911F910F900BBE0F9001
:1048A0000FBE0F901F9018951093C600E4CF1F9273
:1048B0000F920FB60F9211240BB60F921F932F93E6
:1048C0003F934F935F936F937F938F939F93AF9398
:1048D000BF93CF93DF93EF93FF938091DD0490918B
:1048E000DE04892B41F586E191E00E944504FC013C
:1048F000E95FFE4F28EC30E031832083329629ECCB
:1049000030E03183208332962AEC30E031832083FB
:1049100032962DEC30E03183208332962CEC30E05F
:104920003183208332962EEC30E0318320839093C4
:10493000DE048093DD04C091DD04D091DE0410918B
:10494000CE00612FCE010E94BE22FE01F395808130
:10495000811119C0CE010E940723FF91EF91DF91D1
:10496000CF91BF91AF919F918F917F916F915F9107
:104970004F913F912F911F910F900BBE0F900FBE43
:104980000F901F9018951093CE00E4CF1F920F92B6
:104990000FB60F9211240BB60F921F932F933F93D4
:1049A0004F935F936F937F938F939F93AF93BF9337
:1049B000CF93DF93EF93FF938091DF049091E00416
:1049C000892B41F586E191E00E944504FC01E95FF5
:1049D000FE4F20ED30E031832083329621ED30E030
:1049E00031832083329622ED30E03183208332966A
:1049F00025ED30E031832083329624ED30E03183A1
:104A00002083329626ED30E0318320839093E004BA
:104A10008093DF04C091DF04D091E0041091D600B0
:104A2000612FCE010E94BE22FE01F395808181118B
:104A300019C0CE010E940723FF91EF91DF91CF9122
:104A4000BF91AF919F918F917F916F915F914F91A6
:104A50003F912F911F910F900BBE0F900FBE0F90A3
:104A60001F9018951093D600E4CF1F920F920FB6A7
:104A70000F9211240BB60F921F932F933F934F93D6
:104A80005F936F937F938F939F93AF93BF93CF93D6
:104A9000DF93EF93FF938091E1049091E204892BDF
:104AA00041F586E191E00E944504FC01E95FFE4F7B
:104AB00020E331E031832083329621E331E03183FA
:104AC0002083329622E331E031832083329625E33E
:104AD00031E031832083329624E331E03183208337
:104AE000329626E331E0318320839093E204809371
:104AF000E104C091E104D091E20410913601612FEC
:104B0000CE010E94BE22FE01F3958081811119C061
:104B1000CE010E940723FF91EF91DF91CF91BF91CA
:104B2000AF919F918F917F916F915F914F913F9145
:104B30002F911F910F900BBE0F900FBE0F901F90E3
:104B4000189510933601E4CF0895CF92DF92EF923B
:104B5000FF920F931F93CF93DF938C01FC01E080B2
:104B6000F1807383628385E2F82FF69FC001F79F7F
:104B7000900D11240E944504F80191838083E70180
:104B8000C12CD12CF80184819581C816D906B8F4BE
:104B9000A081B181CE018E199F09A80FB91F10976E
:104BA00031F085E2FE0101900D928A95E1F7CE0188
:104BB0000E94871CFFEFCF1ADF0AA596E3CFC7013B
:104BC000DF91CF911F910F91FF90EF90DF90CF90E9
:104BD0000C9447048CB580648CBD08958CB58F7B94
:104BE0008CBD0895FC01EA58FF4F60838CB58C7F23
:104BF0008CBD8DB58E7F8DBD8DB5208122FB992713
:104C000090F9982B9DBD9CB580818370892B8CBDBC
:104C100008958A589F4FFC0180810895FC01E9584E
:104C2000FF4F60839CB59F7D9CBD2CB5908130E289
:104C3000939FC0011124822B8CBD089589589F4FEA
:104C4000FC0180810895FC01E858FF4F60839CB50A
:104C5000977F9CBD2CB5908138E0939FC0011124B3
:104C6000822B8CBD089588589F4FFC018081089548
:104C7000FC01E758FF4F60839CB59B7F9CBD2CB522
:104C8000908134E0939FC0011124822B8CBD089544
:104C900087589F4FFC0180810895262F30E02F5FB9
:104CA0003F4FFC01ED58FF4F4081518142175307A0
:104CB00050F034978081918125E2629F800D911D93
:104CC00011240C94B11C0895262F30E02F5F3F4F24
:104CD000FC01ED58FF4F408151814217530750F0BE
:104CE00034978081918125E2629F800D911D11246E
:104CF0000C94881C08956EBD0DB407FEFDCF089579
:104D0000CF92DF92EF92FF920F931F93CF938C017C
:104D10007B016A01C0E08C2F90E08C159D0548F462
:104D2000F701E80FF91F6081C8010E947B26CF5F61
:104D3000F2CFCF911F910F91FF90EF90DF90CF9026
:104D400008956EBD0DB407FEFDCF8EB508959F92F8
:104D5000AF92BF92CF92DF92EF92FF920F931F9389
:104D6000CF93DF938C015B017A016901912C892D2E
:104D700090E08C159D0568F4E501C80FD91FF70177
:104D8000E80FF91F6081C8010E94A12688839394CF
:104D9000EECFDF91CF911F910F91FF90EF90DF90B9
:104DA000CF90BF90AF909F90089560E00C94A126A3
:104DB000AF92BF92CF92DF92EF92FF921F93CF9369
:104DC000DF937C016B015A0110E0812F90E08A157E
:104DD0009B0548F4E601C80FD91FC7010E94D526DC
:104DE00088831F5FF2CFDF91CF911F91FF90EF90EB
:104DF000DF90CF90BF90AF9008950C94A12670E003
:104E00006F5F7F4FFC01ED58FF4F81E020813181C2
:104E10002617370708F480E008958CB586FB8827AD
:104E200080F9089581599F4FFC0180819181F5E2BD
:104E30006F9F800D911D11240C942C1F0F930FEF69
:104E40002FEF4FEF6FEF0E947D330F910895AF92D8
:104E5000BF92CF92DF92EF92FF920F931F93CF9367
:104E6000DF93CDB7DEB7CA57D1090FB6F894DEBFCE
:104E70000FBECDBF7C01162FD42EC22EB02E0FEF49
:104E80002FEF4FEF6FEF0E947D330B2D2C2D4D2D0B
:104E9000612FCE0101960E947D3385E2FE0131969D
:104EA000D70101900D928A95E1F785E2FE01B69651
:104EB000D701959601900D928A95E1F7D701A65BEF
:104EC000BF4F85E2FE01E55BFF4F01900D928A9591
:104ED000E1F7870101591F4FE6966EAD7FADE6976A
:104EE000D80112968D919C9113978617970718F405
:104EF000C8010E94A525E6968EAD9FADE697F80104
:104F0000448155818417950708F4AC0180E090E056
:104F100020E030E024173507A1F0F801A081B1812D
:104F2000A80FB91FE296EEADFFADE297E80FF91FAB
:104F300065E201900D926A95E1F72F5F3F4F8596EC
:104F4000E9CFD80114962D913C911597E6968EAD38
:104F50009FADE6972817390780F585E2829FB0015B
:104F6000839F700D112440E050E0E6968EAD9FAD1A
:104F7000E6972817390708F5E296EEADFFADE29700
:104F8000CB01840F951FE80FF91FD801CD90DC905D
:104F9000D601A80FB91F109729F085E201900D9254
:104FA0008A95E1F7F8018481958101969583848340
:104FB0002F5F3F4F4B5D5F4FD8CFE6966EAD7FAD15
:104FC000E697D80114968D919C91159768177907EB
:104FD00018F4C8010E9441335701B6E7AB0EB11C6B
:104FE000EB968CAD9DADAEADBFADEB97F50180837B
:104FF0009183A283B38300E010E0C12CD12CE6960C
:105000008EAD9FADE697C816D90670F4E2968EADC8
:105010009FADE297800F911F0E94871CFFEFCF1A70
:10502000DF0A0B5D1F4FEBCFE2968EAD9FADE2978F
:105030000E944704CE01855B9F4F0E94871CCE01D2
:1050400086960E94871CCE0101960E94871CF7015C
:10505000E758FF4F6081C7010E943826F701E858E2
:10506000FF4F6081C7010E942326D5016C91C701C3
:105070000E94F225F701E958FF4F6081C7010E94A5
:105080000E268CB580618CBDC7010E94EA25C658EA
:10509000DF4F0FB6F894DEBF0FBECDBFDF91CF91CB
:1050A0001F910F91FF90EF90DF90CF90BF90AF9046
:1050B0000895FC01F3958FEF86838783808781872E
:1050C0000895EF92FF920F931F93CF93DF93CDB785
:1050D000DEB72A970FB6F894DEBF0FBECDBFE982C8
:1050E000FA820B831C832D833E834F835887698705
:1050F0007A87DC01B3952AE0FE01319601900D928A
:105100002A95E1F71CBC14B81DBCFC01EE5FFE4FF4
:10511000E080F180AC01495F5E4F21E030E0B901F1
:10512000DA010C9002C0660F771F0A94E2F74F5F16
:105130005F4F8901DA010C9002C0000F111F0A9421
:10514000E2F7602BAC01475F5E4F8901DA010C90FA
:1051500002C0000F111F0A94E2F7A801462B4095E8
:10516000D7014C930190F081E02D4081DC01AA5FD2
:10517000BE4F0C9002C0220F331F0A94E2F7242B7B
:1051800020832CB52F7E2CBD2CB520642CBDFC01BA
:10519000E65FFE4F118210822A960FB6F894DEBFAA
:1051A0000FBECDBFDF91CF911F910F91FF90EF9078
:1051B00008956F927F928F92AF92CF92EF92FF926B
:1051C0000F931F93CF93DF93CDB7DEB764970FB6DE
:1051D000F894DEBF0FBECDBF0B871C872D873E879F
:1051E0004F87588B698B7A8B8B8B9C8B8091CC04EF
:1051F0009091CD04892B29F58AE0FE013B96DE01D2
:10520000119601900D928A95E1F781E191E00E945B
:1052100045043C011F92812C84E0A82EC12CE9801A
:10522000FA800B811C812D813E814F8158856985D3
:105230007A85C3010E9461287092CD046092CC04EB
:105240000F908091CC049091CD0464960FB6F894A1
:10525000DEBF0FBECDBFDF91CF911F910F91FF90A9
:10526000EF90CF90AF908F907F906F9008958CB516
:10527000662321F080688CBD789408958F778CBD6B
:1052800008956EBD0DB407FEFDCF0895CF92DF9255
:10529000EF92FF920F931F93CF938C017B016A01D2
:1052A000C0E08C2F90E08C159D0548F4F701E80FC5
:1052B000F91F6081C8010E944129CF5FF2CFCF91D1
:1052C0001F910F91FF90EF90DF90CF9008950DB454
:1052D00007FEFDCF8EB50895AF92BF92CF92DF92B9
:1052E000EF92FF921F93CF93DF937C016B015A01E2
:1052F00010E0812F90E08A159B0548F4E601C80F65
:10530000D91FC7010E94672988831F5FF2CFDF91F1
:10531000CF911F91FF90EF90DF90CF90BF90AF9013
:105320000895FC01F3950190F081E02D2081FC01AE
:10533000E75FFE4F808130E0082E02C0359527954B
:105340000A94E2F72170332791E0292702C03595AE
:1053500027958A95E2F781E0232B09F480E00895F0
:105360002CB520682CBD7894FC01E65FFE4F71835C
:1053700060830895865F9E4FDC01ED91FC9130972C
:1053800011F0862F19940895CF93DF93FC01E25F0B
:10539000FE4F208131812F5F3F4FAC0141505F4F65
:1053A0004217530718F03183208302C09183808312
:1053B000A081B181EC01C45FDE4F28813981A21741
:1053C000B30739F41197A817B90728F4518340831C
:1053D00004C06C9302C0B183A083DF91CF91089584
:1053E000CF93DF93DC01A05FBE4F1C92FC01E45F12
:1053F000FE4F208131812F5F3F4FAC0141505F4F05
:105400004217530718F03183208302C091838083B1
:105410000190F081E02DEC01C25FDE4F888199811F
:10542000E817F90711F081E08C938081DF91CF912B
:105430000895DC01A45FBE4FFC01E25FFE4F81E0F6
:105440004D915C91208131814217530709F480E02E
:1054500008951F920F920FB60F9211240BB60F9260
:105460000F931F932F933F934F935F936F937F936C
:105470008F939F93AF93BF93EF93FF93CF93DF935C
:10548000CDB7DEB72A97DEBFCDBF8FEF8F8388877A
:1054900089878A8709811A812B813C814D815E81B0
:1054A0006FEF7FEF9FEF0E94D9288C018EB5898323
:1054B0006981C8010E94C4296981C8010E94BA2972
:1054C0002A960FB6F894DEBF0FBECDBFDF91CF9105
:1054D000FF91EF91BF91AF919F918F917F916F91CC
:1054E0005F914F913F912F911F910F910F900BBEA4
:1054F0000F900FBE0F901F901895CF93DF93EC0184
:10550000A881B9812C912B3241F091E080E02D32BD
:1055100009F090E0292F382F02C021E030E0FD0192
:10552000E20FF31F9F012A1B3B0B919190539A307E
:10553000C8F381E04C815D814217530709F080E098
:10554000DF91CF910895DC01ED91FC9111971496B4
:105550002D913C9115972E0F3F1F80E090E0E217B0
:10556000F30729F041914613FACF0196F8CF089539
:1055700008955F926F927F928F929F92AF92BF92A7
:10558000CF92DF92EF92FF920F931F93CF93DF930F
:10559000EC017B013A01FC0101900020E9F7CF0109
:1055A0008C1B9D0B0E9449046C01BE010E94684542
:1055B00082E090E00E941242F70191838083B30160
:1055C000C6010E9442458C01512CC52DD0E0011529
:1055D0001105B1F14E01880C991CF701A080B18032
:1055E000A80CB91CF80101900020E9F7CF01801B3D
:1055F000910B0E941242F50191838083F701808113
:105600009181FC01E80DF91DB801808191810E9412
:105610006845B30180E090E00E9442458C01BE01E4
:105620006E5F7F4F660F771FF701808191810E9427
:105630003343F70191838083892B51F05394C5CF75
:10564000C114D10419F0C6010E944F04CE0102C05A
:105650008DEA9EEDDF91CF911F910F91FF90EF901A
:10566000DF90CF90BF90AF909F908F907F906F9082
:105670005F9008950F931F93CF93DF93FC010190E8
:105680000020E9F7E350E81323C08C01FC01C0813E
:105690008C2F0C2E000C990B0E942445813491050F
:1056A00024F0C753C295C07F01C0CF70F801D181EB
:1056B0008D2F0D2E000C990B0E94244581349105ED
:1056C0001CF089EC8D0F02C08D2F8F708C2B01C0C8
:1056D00080E0DF91CF911F910F910895AF92BF921B
:1056E000CF92DF92EF92FF920F931F93CF93DF93AE
:1056F0001F92CDB7DEB75C016B0100E010E0F60150
:10570000848195810817190780F4E080F180E00E0C
:10571000F11EF7018081082E000C990B0E941C4598
:10572000F70180830F5F1F4FEACF8E010F5F1F4F7E
:105730002FEF3FEF40E050E0B601C5010E94F0348A
:10574000C5010F90DF91CF911F910F91FF90EF90C6
:10575000DF90CF90BF90AF900895AF92BF92CF925D
:10576000DF92EF92FF920F931F93CF93DF931F92DD
:10577000CDB7DEB75C016B0100E010E0F60184817B
:1057800095810817190780F4E080F180E00EF11E82
:10579000F7018081082E000C990B0E942445F70127
:1057A00080830F5F1F4FEACF8E010F5F1F4F2FEFD8
:1057B0003FEF40E050E0B601C5010E94F034C50162
:1057C0000F90DF91CF911F910F91FF90EF90DF909D
:1057D000CF90BF90AF900895CF93DF93EC01688195
:1057E00079818C819D81860F971FAB0148175907DE
:1057F00049F0FA012191AF012032C1F3FB0121935D
:10580000BF01F4CFCE010E941E36688179818C8160
:105810009D81860F971FAB014817590749F0FA0180
:105820002191AF012930C1F3FB012193BF01F4CFD6
:10583000CE01DF91CF910C941E36CF92DF92EF9282
:10584000FF920F931F93CF93DF931F92CDB7DEB7D5
:105850006C017B01FB010081118184819581080F1E
:10586000191F01501109F801808180528F3580F095
:10587000C8010E946A34882359F0F70124813581D8
:10588000C90101978217930760F795838483E9CF55
:10589000C7010E9450368E010F5F1F4F2FEF3FEF61
:1058A00040E050E0BC01C6010E94F034C6010F90F8
:1058B000DF91CF911F910F91FF90EF90DF90CF90EC
:1058C00008957F928F929F92AF92BF92CF92DF9274
:1058D000EF92FF920F931F93CF93DF93CDB7DEB775
:1058E00028970FB6F894DEBF0FBECDBF6C015B01E9
:1058F000742EDC0111961C921E9288E090E01396A3
:105900009C938E93129715961C921E92149788E37F
:1059100090E00E944504F60191838083D50114969E
:105920008D919C91159700E010E08017910729F464
:105930000FEF1FEFE12CF12C4BC0D501ED91FC9145
:10594000E00FF11F20817216A9F30F5F1F4FEDCFFB
:1059500048018E189F088E159F0520F480E090E086
:105960000E948F2FD50114968D919C9115978E19B9
:105970009F09A4018815990508F4AC01F50160811F
:1059800071816E0D7F1D9E01285F3F4FCE010196F4
:105990000E949936D60114966D917C9115976F5F90
:1059A0007F4FAE014F5F5F4FC6010E945D35CE0154
:1059B00001960E9492347801BFEFEB1AFB0AF501C1
:1059C0008481958187010817190758F00FEF1FEFA1
:1059D000F501848195810F3FFFEF1F0709F0B8CFD4
:1059E0000BC0D501ED91FC91E00FF11F20817216E3
:1059F00079F30F5F1F4FE7CF8701009510958E1544
:105A00009F0520F480E090E00E948F2FF5018481B3
:105A100095818E199F09A8018017910708F4AC01A0
:105A2000D5016D917C916E0D7F1D9E01285F3F4FCA
:105A3000CE0101960E949936F601648175816F5FEF
:105A40007F4FAE014F5F5F4FC6010E945D35CE01B3
:105A500001960E949234C60128960FB6F894DEBFD4
:105A60000FBECDBFDF91CF911F910F91FF90EF90AF
:105A7000DF90CF90BF90AF909F908F907F900895D0
:105A80000F931F93CF93DF93EC01CB010881198112
:105A90007B836A830E94450499838883D801CD0162
:105AA000801B910B2C813D818217930750F4E88174
:105AB000F981E80FF91F309711F08C9180831196CE
:105AC000EECFC801DF91CF911F910F910C94470445
:105AD000CF93DF93EC01198E188E88E090E09B8FB6
