:100000000C94AB020C941F110C9453110C94871197
:100010000C94BB110C94EF110C9422120C946012EE
:100020000C9456120C94940F0C9413100C948E1084
:100030000C94DC020C94DC020C94DC020C94DC02C8
:100040000C94DC020C94DC020C94DC020C94DC02B8
:100050000C94DC020C94DC130C94DC020C94DC0297
:100060000C94FF260C94CA200C94DC020C94DC0245
:100070000C94DC020C94DC020C94DC020C94DC0288
:100080000C94DC020C94DC020C94DC020C94DC0278
:100090000C9439210C94DC020C94DC020C94140DA9
:1000A0000C94DC020C94DC020C94DC020C94DC0258
:1000B0000C94DC020C94DC020C94DC020C94DC0248
:1000C0000C94DC020C94DC020C94DC020C94A8214D
:1000D0000C94DC020C94DC020C9417220C94DC02CD
:1000E0000C94DC02084AD73B3BCE016E84BCBFFDBA
:1000F000C12F3D6C74319ABD56833DDA3D00C77FF8
:1001000011BED9E4BB4C3E916BAAAABE0000008090
:100110003F000C941B340C94892C6E616E00696E48
:10012000660000407A10F35A00A0724E18090010C1
:10013000A5D4E80000E87648170000E40B5402005C
:1001400000CA9A3B000000E1F50500008096980087
:10015000000040420F000000A086010000001027B0
:1001600000000000E8030000000064000000000040
:100170000A00000000000100000000002C76D88872
:10018000DC674F0823DFC1DFAE59E1B1B796E5E385
:10019000E453C63AE651997696E8E6C28426EB899E
:1001A0008C9B62ED407C6FFCEFBC9C9F40F2BAA53B
:1001B0006FA5F490055A2AF75C936B6CF9676DC1D3
:1001C0001BFCE0E40D47FEF520E6B500D0ED902ED7
:1001D0000300943577050080841E080000204E0A35
:1001E000000000C80C333333330F986E1283114173
:1001F000EF8D2114893BE65516CFFEE6DB18D1843E
:100200004B381BF77C1D901DA4BBE4242032847264
:100210005E228100C9F124ECA1E53D270A0AC8C885
:100220000A0AC8C80101010101010101010101011E
:1002300001010A0AC8C80A0AC8C80101010101016E
:1002400001010101010101012C000004002C000149
:1002500004002C0004002D2C0005002E32000500A7
:10026000212C0003002C00010300300001040031A8
:1002700000010500320001060029230004002823A4
:1002800000050024230006002523000700260301A3
:100290000107000301000700000101060000010042
:1002A00006002900030500290002050029000100BD
:1002B00000290000000020000000002000010000D4
:1002C00020000200002000030000200004000020A5
:1002D00000050000200006000020000700002600A6
:1002E0000700002600060000260005000026000486
:1002F0000000260003000026000200002600010086
:100300000026000000002900070000320002000063
:10031000320001000032000000000901070000095E
:100320000106000009010500360901040035090134
:100330000300340901020000090101000009010065
:10034000000023000300002300020000230001003E
:100350000023000000002F000080002F0001880013
:100360002F000290002F000398002F0004A0002F00
:100370000005A8002F0006B0002F0007B8000601F6
:1003800000C000060101C800060102D000060103FA
:10039000D800060104E000060105E800060106F0A9
:1003A00000060107F8002C000004002C00010400E6
:1003B0002C0004002D2C0005002E32000500212CFD
:1003C0000003002C00010300300001040031000193
:1003D000050032000106002923000400282300053F
:1003E000002423000600252300070026030101073F
:1003F00000030100070000010106000001000600E3
:100400002900030500290002050029000100002938
:10041000000000002000000000200001000020007B
:10042000020000200003000020000400002000055E
:100430000000200006000020000700002600070042
:10044000002600060000260005000026000400002B
:1004500026000300002600020000260001000026FE
:1004600000000000290007000032000200003200F6
:100470000100003200000000090107000009010628
:1004800000000901050036090104003509010300D7
:100490003409010200000901010000090100000007
:1004A00023000300002300020000230001000023BA
:1004B000000000002F000080002F000188002F00A6
:1004C0000290002F000398002F0004A0002F0005C9
:1004D000A8002F0006B0002F0007B800060100C0DA
:1004E00000060101C800060102D000060103D80081
:1004F000060104E000060105E800060106F000061A
:100500000107F8006364696E6F70737578585B65F6
:10051000666745464700616E006E66696E6974796C
:1005200000CDCCCC3D0AD7233C17B7D13877CC2BA4
:10053000329595E6241FB14F0A000020410000C803
:100540004200401C4620BCBE4CCA1B0E5AAEC59D84
:100550007400892C1B3411241FBECFEFD1E2DEBF03
:10056000CDBF00E00CBF13E0A0E0B2E0E0E4F8E8AB
:1005700000E00BBF02C007900D92A43DB107D9F770
:1005800024E0A4EDB3E001C01D92A83CB207E1F75E
:1005900012E0CBEAD2E000E006C021970109802FEB
:1005A000FE010E94313CC93AD10780E00807A9F753
:1005B0000E94A12E0C941E440C94E413CF92DF925F
:1005C000EF92FF92CF9370E0682B722B20917A000C
:1005D000211106C020917A002068422B40937A00B6
:1005E00020917A0070937B0060937C0020917A00C8
:1005F000206420937A0020917A0026FDFCCF609140
:1006000078007091790071FD7C6F8E31910514F442
:10061000885001C08251E82FF0E0E45EFD4FC491A4
:10062000072E000C880B990B0E94C23D20E030E49D
:100630004CE955E40E947D3E6B017C016C2F70E01B
:1006400080E090E00E94C23D20E030E040E054E4D1
:100650000E947D3E9B01AC01C701B6010E94183D7E
:100660000E94EA3E0E948A3D072E000C880B990BDF
:10067000CF91FF90EF90DF90CF9008950895089567
:10068000CF92DF92EF92FF920F931F93CF93DF935E
:10069000EC018B017A012A813B812617370798F5F7
:1006A000CB0108962817390770F5C880D9809B833D
:1006B0008A832AE0AC01249FC001259F900D11245C
:1006C0000E94430499838883960140E050E08C8126
:1006D0009D8148175907A0F4A881B981C9018C19D7
:1006E0009D09A80FB91F109731F08AE0F901019018
:1006F0000D928A95E1F74F5F5F4F265F3F4FE7CF3F
:10070000C6010E9445042C813D818AE0829FB00190
:10071000839F700D112440E050E020173107A0F4B2
:10072000A881B981CA01860F971FA80FB91F10971A
:1007300031F08AE0F70101900D928A95E1F72F5F81
:100740003F4F465F5F4FE9CF1D830C83DF91CF9111
:100750001F910F91FF90EF90DF90CF900895CF936E
:10076000DF93EC011982188288E090E09B838A83F2
:100770001D821C8280E590E00E9443049983888357
:10078000DF91CF910895EF92FF920F931F93CF9334
:10079000DF93CDB7DEB72A970FB6F894DEBF0FBE52
:1007A000CDBFE982FA820B831C832D833E834F8366
:1007B000588769877A87FC0124813581B9016F5F89
:1007C0007F4F2617370730F4AE014F5F5F4F0E940F
:1007D000400306C06217730718F4FC017583648335
:1007E0002A960FB6F894DEBF0FBECDBFDF91CF9132
:1007F0001F910F91FF90EF900895CF93DF93CDB7A6
:10080000DEB72C970FB6F894DEBF0FBECDBF3C8786
:100810002B8749835A836B837C8326E0FE013B96BA
:10082000DE01159601900D922A95E1F7FC012481D5
:100830003581B9016F5F7F4F2617370730F4AE015E
:100840004F5F5F4F0E94400306C06217730718F4A2
:10085000FC01758364832C960FB6F894DEBF0FBE3F
:10086000CDBFDF91CF910895FC0181E090E0208120
:10087000222311F080E090E0089521E0FC01208324
:100880000895089508950C943B3F0C94D33F00972E
:1008900011F481E090E00C943B3F0C94D33F0F9314
:1008A0001F93CF93DF93EC018B010E946D2C85E2A7
:1008B000F801DE0101900D928A95E1F7DF91CF9169
:1008C0001F910F910895FF920F931F93CF93DF9382
:1008D000CDB7DEB7A5970FB6F894DEBF0FBECDBF7C
:1008E0008C01F62E0E946D2C42E06F2DCE010196F8
:1008F0000E94C01985E2FE013196D80101900D9247
:100900008A95E1F7CE0101960E944D19A5960FB682
:10091000F894DEBF0FBECDBFDF91CF911F910F9135
:10092000FF9008950F931F93CF93DF93EC018B01FA
:100930000E946D2C8AE2F801DE0101900D928A95E9
:10094000E1F7DF91CF911F910F910895FC0187A1ED
:100950000895FC0185A108950F931F93CF93DF9312
:10096000EC0162E00E949F19CE010E94771961E0BC
:10097000CE010E949F192FEF89EF90E02150804017
:100980009040E1F700C0000062E0CE010E949F1994
:1009900015E1CE010E94CD1B882341F02AE02A9563
:1009A000F1F700C01150A9F710E01BC00EE2CE0114
:1009B0000E94CD1B182F811107C08AE08A95F1F79C
:1009C00000C00150A1F7F0CF0EE2CE010E94CD1B76
:1009D000882339F09AE09A95F1F700C00150A9F701
:1009E000E3CF812FDF91CF911F910F9108952F9227
:1009F0003F924F925F926F927F928F929F92AF92AF
:100A0000BF92CF92DF92EF92FF920F931F93CF93FB
:100A1000DF93CDB7DEB727970FB6F894DEBF0FBED2
:100A2000CDBF8C018091BE049091BF04892B41F50C
:100A300086E191E00E944304FC01E95FFE4F28EC4F
:100A400030E031832083329629EC30E031832083FB
:100A500032962AEC30E03183208332962DEC30E060
:100A60003183208332962CEC30E031832083329620
:100A70002EEC30E0318320839093BF048093BE043A
:100A80002090BE043090BF04CE0101964C0185E059
:100A9000F40111928A95E9F7C8010E94AC04811112
:100AA0000AC0FFEF27EA81E6F15020408040E1F7DD
:100AB00000C000009AC062E0C8010E949F19FE01B8
:100AC0003696FF83EE8387E0A82EB12C0E94F32A8E
:100AD0002B013C01C8010E94CD1B811116C00E9450
:100AE000F32A6B017C01C418D508E608F708D70182
:100AF000C60184199509A609B7098A359105A1058A
:100B0000B10540F38EE093E019C00E94F32A2B0157
:100B10003C01C8010E94CD1B8823D9F00E94F32A12
:100B20006B017C01C418D508E608F708FAE5CF1672
:100B3000D104E104F10468F38FE193E09F938F9374
:100B40003F922F920E9492200F900F900F900F9043
:100B50004CC0FF92EF92DF92CF928CE293E09F9392
:100B60008F933F922F920E9492200FB6F894DEBF8F
:100B70000FBECDBF94E1C916D104E104F10460F0C9
:100B800081E090E00A2C01C0880F0A94EAF7809572
:100B9000F401908189238083F1E0AF1AB10808F055
:100BA00095CFF40181914F011F928F9383E393E0DE
:100BB0009F938F933F922F920E9492200F900F90BD
:100BC0000F900F900F900F908E819F81881699063D
:100BD00009F079CF8981F80185A38A8186A38B8169
:100BE00087A38C8180A78D8181A727960FB6F89463
:100BF000DEBF0FBECDBFDF91CF911F910F91FF9050
:100C0000EF90DF90CF90BF90AF909F908F907F90AC
:100C10006F905F904F903F902F900895FC0195A1A9
:100C200086A1980F87A1980F80A5980F81E021A534
:100C3000921380E00895FC0180EA828381EB838334
:100C400082EC848383ED858384EE868385EF8783BE
:100C5000108681E081871286168615868FEF99E1CE
:100C6000908B878780E09AE1928B818B8FEF9FE159
:100C7000948B838B0895CF92DF92EF92FF920F9324
:100C80001F93CF93DF937C01162FD42EC22E8AE7B9
:100C900090E00E944304EC012C2D4D2D612F0E9409
:100CA000FD23F701D183C083DF91CF911F910F9175
:100CB000FF90EF90DF90CF900895DF92EF92FF9238
:100CC0000F931F93CF93DF938C01D62EEA01790106
:100CD00060E0FC01808191810E942F236D2DF8013D
:100CE000808191810E948323209761F0EC0EFD1E8C
:100CF000CE15DF0539F06991F801808191810E945C
:100D00008323F6CF60E0F80180819181DF91CF915C
:100D10001F910F91FF90EF90DF900C944623EF927C
:100D2000FF921F93CF93DF931F92CDB7DEB77C0165
:100D3000162F672F49830E94AE06612F606421E061
:100D400030E0AE014F5F5F4FC7010E945D060F901C
:100D5000DF91CF911F91FF90EF900895462F64305F
:100D600048F4FC012285621729F062876FE170EB7D
:100D70000C948F0608950F931F93CF93DF93EC018C
:100D8000062F60E0888199810E942F23602F88813F
:100D900099810E94832360E0888199810E94832346
:100DA000182F07FF06C060E0888199810E94832385
:100DB000182F60E0888199810E944623812FDF915E
:100DC000CF911F910F9108951F93CF93DF93EC0163
:100DD000162F672F0E94AE06612FCE01DF91CF91B3
:100DE0001F910C94BB061F93CF93DF93EC01462F0A
:100DF00064E172EB0E948F0641E062E172EBCE018A
:100E00000E948F0640E54A95F1F76AE073EBCE0148
:100E10000E94E40680FDF9CF40E062E172EBCE0172
:100E20000E948F0669E172EBCE010E94E406182F42
:100E300068E172EBCE010E94E406212F30E0322FF0
:100E40002227A901482BCA01DF91CF911F91089554
:100E50000F931F93CF93DF93EC018A01462F64E138
:100E600072EB0E948F06402F68E172EBCE010E9468
:100E70008F06412F69E172EBCE010E948F066AE076
:100E800073EBCE010E94E40680FF04C080E58A95E2
:100E9000F1F7F5CFDF91CF911F910F910895EF9268
:100EA000FF921F93CF93DF931F92CDB7DEB77C01E4
:100EB000162F498360E00E94AE06612F606821E032
:100EC00030E0AE014F5F5F4FC7010E945D060F909B
:100ED000DF91CF911F91FF90EF900895EF92FF92D5
:100EE0001F93CF93DF931F92CDB7DEB77C01162FF0
:100EF000498360E00E94AE06612F606A21E030E025
:100F0000AE014F5F5F4FC7010E945D060F90DF91FA
:100F1000CF911F91FF90EF900895CF93DF93EC0155
:100F200020E030E040E050E06FEF0E945D066DE1B0
:100F300070EBCE010E94E4068823C9F3DF91CF91C4
:100F400008950F93CF93DF93EC01888199810E94DC
:100F5000EF23811107C005E324E343E362E3CE01FD
:100F60000E943B06CE01DF91CF910F910C948D072B
:100F7000CF93DF93EC016115710511F0788B6F87CA
:100F80004E8569E070EBCE010E948F064F8568E0C8
:100F900070EBCE010E948F0648896BE070EBCE01AA
:100FA0000E948F064F856AE070EBCE01DF91CF91F2
:100FB0000C948F060F931F93CF938C016BE070EB13
:100FC0000E94E406C82F6AE070EBC8010E94E406A4
:100FD0002C2F30E0322F2227A901482BCA01CF91B4
:100FE0001F910F9108950F931F93CF93DF93EC01FF
:100FF000CB01088119817B836A830E944304998312
:101000008883D801CD01801B910B2C813D818217F3
:10101000930750F4E881F981E80FF91F309711F038
:101020008C9180831196EECFC801DF91CF911F91F3
:101030000F910C944504CF92DF92EF92FF920F93A1
:101040001F93CF93DF93CDB7DEB7A4970FB6F89475
:10105000DEBF0FBECDBF8C0186E0FE017396DE01C0
:10106000179601900D928A95E1F786E0FE013D9674
:10107000DE01119601900D928A95E1F787E0EBED84
:10108000F2E0D80101900D928A95E1F785EDF82EF6
:10109000F801F782178A168A98E0C92ED12CD18ED2
:1010A000C08E138E128E88E090E00E944304F801F7
:1010B000978B868B86E0FE013796D80118960190B3
:1010C0000D928A95E1F786E0FE013196D8011E96D1
:1010D00001900D928A95E1F7F801158A148A158E10
:1010E000168E178E10A286E0FE017F96DE015396C3
:1010F00001900D928A95E1F786E0FE017996DE0176
:101100001D9601900D928A95E1F787E0EBEDF2E0F4
:10111000D8019D9601900D928A95E1F7F801F4AA05
:101120007801F7E4EF0EF11CF70111821082D382EF
:10113000C2821582148288E090E00E944304F70185
:101140009183808386E0FE017396D801D596019045
:101150000D928A95E1F786E0FE013D96D801DB9677
:1011600001900D928A95E1F7F801EF5BFF4F108235
:101170001182128213823496118210823996108263
:10118000118212821382A4960FB6F894DEBF0FBEAE
:10119000CDBFDF91CF911F910F91FF90EF90DF9026
:1011A000CF900895CF92DF92EF92FF920F931F930B
:1011B000CF93DF93CDB7DEB727970FB6F894DEBF96
:1011C0000FBECDBFDB0114962D913C9115972E5289
:1011D00031092F3A354010F080E0D8C07B018C01F6
:1011E0008091BC049091BD04892B41F586E191E08A
:1011F0000E944304FC01E95FFE4F20EC30E03183A4
:101200002083329621EC30E031832083329622EC29
:1012100030E031832083329625EC30E03183208327
:10122000329624EC30E031832083329626EC30E095
:10123000318320839093BD048093BC04D090BC0480
:10124000C090BD04C8014696E816F90609F469C0C5
:10125000F70164817581D80158962D913C91599779
:101260002617370710F40E94F307F7018481958150
:10127000D8015A962D913C915B978217930708F4F9
:101280009C0180E090E02817390781F0D701ED91AB
:10129000FC91E80FF91F4081D8015696ED91FC9121
:1012A0005797E80FF91F40830196EDCFF801828D23
:1012B000938DD70114962D913C9115978217930722
:1012C00008F5F7012481358182179307D8F4A081AE
:1012D000B181A80FB91FF80126893789F901E80FF4
:1012E000F91F309711F02C912083D8015A962D9137
:1012F0003C915B972F5F3F4F5B963C932E935A97A1
:101300000196DFCFF70184819581D8015A962D91FE
:101310003C915B978217930720F45B969C938E9386
:101320005A971A82198288E090E09C838B831E82F0
:101330001D820E9443049A8389838B819C818D97AF
:1013400030F46DE270E0CE0101960E94F307A981AE
:10135000BA818DE2F80101900D928A95E1F78E81B4
:101360008F938D818F9388E393E09F938F93CF9298
:10137000DF920E94922089819A810E9445040F90F9
:101380000F900F900F900F900F9081E027960FB65F
:10139000F894DEBF0FBECDBFDF91CF911F910F91AB
:1013A000FF90EF90DF90CF90089508950F931F93D3
:1013B000CF93DF93EC01062F142F0E94E40A1D86C1
:1013C00084E08E8781E08F87198A188A1A8A0B87B2
:1013D0001C87DF91CF911F910F9108951F93CF9399
:1013E000DF93EC018D8540E2849F900111249E855E
:1013F00044E0949FC0011124822B1A89182B6B851D
:10140000CE010E94EB0A60E0CE010E94110B612F19
:10141000CE010E94110BCE010E940D0B6B85CE01F7
:101420000E94EB0A61E0CE010E94110B6F8562956C
:10143000660F607ECE010E94110BCE010E940D0B43
:101440006B85CE010E94EB0A62E0CE010E94110B77
:101450006889CE010E94110BCE01DF91CF911F91BF
:101460000C940D0BCF93DF93EC01862F6D85962F97
:101470009F7920E2829FB0011124692B6D876B85D3
:10148000CE010E94EB0A60E0CE010E94110B6D8537
:10149000CE010E94110BCE01DF91CF910C940D0B68
:1014A000FC01858508950895FC01868508950895B9
:1014B000FC01878508950895FC018089918908952C
:1014C0000895FC01828908958F929F92AF92BF92F6
:1014D000EF92FF920F931F93CF93DF9300D000D032
:1014E000CDB7DEB77C0106E010E09E012F5F3F4FD5
:1014F00043E0FC0163850E94B60C69817A817627FE
:1015000067277627F701728361838B819C819827F7
:1015100089279827968385830D811E8110270127AF
:10152000102714830383072E000C880B990B0E944D
:10153000C23D4B015C01B801110F880B990B0E9451
:10154000C23DA50194010E94B93C20E030E044E393
:1015500053E40E947D3E2BED3FE049E450E40E94BD
:10156000183D20E030E044E353E40E943A3CF701A8
:10157000678370878187928726960FB6F894DEBFBF
:101580000FBECDBFDF91CF911F910F91FF90EF90D4
:10159000BF90AF909F908F9008950F931F93CF931C
:1015A000DF93EC018B01CB010E94640A8AE0F80111
:1015B0003196DE0101900D928A95E1F7CE01DF911F
:1015C000CF911F910F91089508956093B8000895E9
:1015D0001092B80008951092BC0084EA8093BC0079
:1015E0008091BC0087FFFCCF8091B900887F883054
:1015F00011F081E008956093BB0084E88093BC0003
:101600008091BC0087FFFCCF8091B900887F883132
:1016100011F0803471F780E0089584E98093BC0074
:1016200008956093BB0084E88093BC008091BC0067
:1016300087FFFCCF9091B900987F81E0983209F440
:1016400080E00895CF92DF92EF92FF921F93CF93A5
:10165000DF936C01EB017B01E40EF51E11E0CE156A
:10166000DF0531F06991C6010E94110B1823F7CFF5
:10167000812FDF91CF911F91FF90EF90DF90CF905E
:101680000895BF92CF92DF92EF92FF920F931F9334
:10169000CF93DF936C01B42E052F79010E94EB0AE2
:1016A000182F882311F011E011C0CB2DD02FEC0E94
:1016B000FD1ECE15DF0539F06991C6010E94110BA0
:1016C0008823B9F3F0CF84E98093BC00812FDF91A8
:1016D000CF911F910F91FF90EF90DF90CF90BF902F
:1016E0000895AF92BF92CF92DF92EF92FF920F9345
:1016F0001F93CF93DF937C01C42F590168010E948F
:10170000EB0A182F882311F011E014C06C2FC701C9
:101710000E94110BE501CA0CDB1CCC15DD0539F06C
:101720006991C7010E94110B8823B9F3EDCF84E9B9
:101730008093BC00812FDF91CF911F910F91FF907B
:10174000EF90DF90CF90BF90AF900895CF92DF924F
:10175000EF92FF920F931F93CF93DF931F921F92ED
:10176000CDB7DEB76C0119821A82E12CF12C00E0B2
:1017700010E0602FC6010E94EB0A81111AC0E1E05F
:10178000F0E0EC0FFD1FEE0DFF1D0083EA94EF2843
:1017900069F49A8189810F900F90DF91CF911F9109
:1017A0000F91FF90EF90DF90CF900895EE24E39497
:1017B000F12C0F5F1F4F011581E01807D1F6E9CF1B
:1017C000AF92BF92CF92DF92EF92FF920F931F934F
:1017D000CF93DF931F921F92CDB7DEB78C016B01C1
:1017E000DC0113961C921E92129780E090E00E94FA
:1017F0003B3FF8019183808319821A82A12CB12C7E
:10180000E12CF12C6E2DC6010E94EB0A811134C02F
:10181000E1E0F0E0EC0FFD1FEA0DFB1DE082AA9471
:10182000AB2839F5D8018D919C910097F9F0A980EA
:10183000BA80F801628173816F5F7F4F7383628327
:10184000660F771F0E945C40D80111969C938E937F
:10185000009761F01296ED91FC911397E150F048DA
:10186000EE0FFF1FE80FF91FA082B182A12CB12C4F
:1018700003C0AA24A394B12CBFEFEB1AFB0AE11416
:10188000E1E0FE0609F0BECFC8010F900F90DF9196
:10189000CF911F910F91FF90EF90DF90CF90BF906D
:1018A000AF90089584EC8093BC008091BC0087FFCA
:1018B000FCCF8091BB00089584E88093BC008091A8
:1018C000BC0087FFFCCF8091BB000895CF93DF93CE
:1018D000EC0161600E94EB0A811107C0CE010E94F9
:1018E0005C0C94E99093BC0001C080E0DF91CF9143
:1018F00008958F929F92AF92BF92CF92DF92FF9204
:101900000F931F93CF93DF936C015A01890161609C
:101910000E94EB0AF82E81111AC04501E8012197B7
:10192000C4018A199B098C179D0738F4C6010E94CF
:10193000520CF40181934F01F3CFCA0DDB1DC60198
:101940000E945C0C888384E98093BC0002C0FF2461
:10195000F3948F2DDF91CF911F910F91FF90DF9026
:10196000CF90BF90AF909F908F900895AF92BF920D
:10197000CF92DF92FF920F931F93CF93DF93EC01EF
:10198000F62EB42E69010E94EB0A882319F0FF2479
:10199000F39426C06B2DCE010E94110B6F2D616058
:1019A000CE010E94EB0AF82E8111F1CF56010150B1
:1019B0001109C5018C199D098017910738F4CE01D2
:1019C0000E94520CF50181935F01F3CF0C0D1D1D98
:1019D000CE010E945C0CF801808384E98093BC00F6
:1019E0008F2DDF91CF911F910F91FF90DF90CF90BE
:1019F000BF90AF9008959093D7038093D6037093D0
:101A0000D5036093D4030895F894880F8093BA00A7
:101A100085EC8093BC0078940895F8941092BC00F3
:101A20001092BA00789408951F920F920FB60F92F9
:101A300011240BB60F922F933F934F935F936F93A5
:101A40007F938F939F93AF93BF93EF93FF93809177
:101A5000B900887F803859F028F4811115C01092A0
:101A6000BC0012C0883A59F0883B49F00DC0809103
:101A7000BB00E091D603F091D703199505C0E09122
:101A8000D403F091D503199585EC8093BC00FF91A8
:101A9000EF91BF91AF919F918F917F916F915F91E6
:101AA0004F913F912F910F900BBE0F900FBE0F9053
:101AB0001F901895CF93DF93EB01DA0190912102EB
:101AC000981709F48EC0891760F090912C02891341
:101AD00002C0E4E001C0EFEF90913702891312C019
:101AE00014C090911602891302C0E2E001C0EFEF2A
:101AF00090910B02891301C0E1E0909100028917D7
:101B000009F471C0EF3F11F42DC0E5E08BE0E89FD0
:101B1000F0011124E050FE4F818111968C931197B2
:101B20008481958115969C938E9314978681169641
:101B30008C931697878117968C93179780851896A4
:101B40008C931897818519968C93199782851A968C
:101B50008C931A978281938113969C938E931297FC
:101B600082E043C090918802891721F1891728F0FB
:101B7000AFE8B2E0EFEF9AE014C0EFEF9AE027E0B1
:101B80009150299FD0011124AE5BBD4F3C9183132E
:101B900001C0E92F9111F4CF0AC02C91821729F0CE
:101BA00017969F5F9531C9F702C0E92FF9CFEF3F34
:101BB00011F415C0EAE087E0E89FF0011124EE5B24
:101BC000FD4F8181898382818A83858196819E836D
:101BD0008D83838194819C838B8381E006C080E028
:101BE00004C0E3E093CFE0E091CFDF91CF9108957F
:101BF000CF92DF92FF920F931F93CF93DF93CDB7D6
:101C0000DEB762970FB6F894DEBF0FBECDBF182FB8
:101C1000062F6A01AE014F5F5F4FBE01645F7F4FC9
:101C20000E945A0D813021F0823009F447C078C0FB
:101C30008D85813049F1A8F08230C1F5809168002E
:101C400084608093680020916D0081E090E00E84B4
:101C500002C0880F991F0A94E2F7822B80936D00CF
:101C600025C08091680081608093680020916B009E
:101C700081E090E00E8402C0880F991F0A94E2F779
:101C8000822B80936B0012C08091680082608093E9
:101C9000680020916C0081E090E00E8402C0880F03
:101CA000991F0A94E2F7822B80936C00EF85F889E4
:101CB000D182C082E989FA89008330C0F89401306A
:101CC00049F020F0023021F0053029F4F88403C0F7
:101CD000F98401C0FA848A81882341F0813059F463
:101CE00080916A008F2980936A0005C08091690005
:101CF0008F29809369002DB381E090E00B8402C0AE
:101D0000880F991F0A94E2F7822B8DBBEB81FC812F
:101D1000D182C082ED81FE81F082789481E01CC086
:101D20000430C9F425E0129FC0011124FC01E65BD8
:101D3000FD4F2491FC01E85BFD4FA591B4911296F3
:101D40003C91129781E090E001C0880F2A95EAF754
:101D5000832B12968C9380E062960FB6F894DEBFC8
:101D60000FBECDBFDF91CF911F910F91FF90DF90FC
:101D7000CF900895CF93DF93CDB7DEB762970FB6BC
:101D8000F894DEBF0FBECDBFAE014F5F5F4FBE0107
:101D9000645F7F4F0E945A0D813019F08230C9F183
:101DA00053C08D85813029F198F0823091F52091D2
:101DB0006D0081E090E00E8402C0880F991F0A94A4
:101DC000E2F78095822380936D0080916D0021C0A1
:101DD00020916B0081E090E00E8402C0880F991F73
:101DE0000A94E2F78095822380936B0080916B00C8
:101DF00010C020916C0081E090E00E8402C0880F3A
:101E0000991F0A94E2F78095822380936C00809159
:101E10006C009DB321E030E0A9010B8402C0440FA7
:101E2000551F0A94E2F7842F809589238DBB8DB3CB
:101E30000B8402C0220F331F0A94E2F790E028239C
:101E4000392381E0232B09F080E062960FB6F894E5
:101E5000DEBF0FBECDBFDF91CF910895EF920F93FC
:101E6000CF93DF931F92CDB7DEB7FC01DA01922F3B
:101E7000802FE982633061F128F4613049F06230EB
:101E800089F04CC0643071F1653009F441C046C03E
:101E90002C9130E002C0359527959A95E2F720FF06
:101EA0003DC036C06C9121E030E0092E02C0220F07
:101EB000331F0A94E2F770E0A901462357239A01E1
:101EC00002C0359527959A95E2F7232B39F520C066
:101ED0002C9130E002C0359527959A95E2F720FFC6
:101EE00017C015C06C9121E030E0092E02C0220F0E
:101EF000331F0A94E2F770E0A901462357239A01A1
:101F000002C0359527959A95E2F7232B09F499811C
:101F10000F90DF91CF910F91EF9019940F90DF9177
:101F2000CF910F91EF9008951F920F920FB60F92DD
:101F300011240BB60F92EF920F932F933F934F9371
:101F40005F936F937F938F939F93AF93BF93EF9321
:101F5000FF93CF93DF931F92CDB7DEB793B18091FC
:101F6000DA038927898383B18093DA0320E030E0A4
:101F7000898190E0022E02C0959587950A94E2F738
:101F800080FF33C067E0629FD001639FB00D1124D2
:101F9000AF5DBB4F1396ED91FC91149780819181B9
:101FA0004091450250914602E41BF50BF595E795EB
:101FB0006E9FA0016F9F500D1124FA01EE5BFD4F43
:101FC000008145E0049FF0011124E85BFD4F45913D
:101FD00054911596ED91FC9116976081009759F0F8
:101FE000E090DA030E942E0F06C02F5F3F4F28308B
:101FF000310509F0BDCF0F90DF91CF91FF91EF91A7
:10200000BF91AF919F918F917F916F915F914F9110
:102010003F912F910F91EF900F900BBE0F900FBE3D
:102020000F901F9018951F920F920FB60F921124C8
:102030000BB60F92EF920F932F933F934F935F93B3
:102040006F937F938F939F93AF93BF93EF93FF9380
:10205000CF93DF931F92CDB7DEB7909103018091AC
:10206000D90389278983809103018093D9038981CA
:1020700080FD07C0898181FF39C081E090E021E0C7
:1020800003C080E090E020E037E0389FD001399F26
:10209000B00D1124A552BC4F1396ED91FC911497ED
:1020A000808191814091450250914602E41BF50BDD
:1020B000F595E7953E9FA0013F9F500D1124FA0131
:1020C000EE5BFD4F008135E0039FF0011124E85BDA
:1020D000FD4F459154911596ED91FC9116976081B5
:1020E000009721F0E090D9030E942E0F0F90DF910E
:1020F000CF91FF91EF91BF91AF919F918F917F9180
:102100006F915F914F913F912F910F91EF900F90B1
:102110000BBE0F900FBE0F901F9018951F920F923D
:102120000FB60F9211240BB60F92AF92BF92CF92BF
:10213000DF92EF92FF920F931F932F933F934F9352
:102140005F936F937F938F939F93AF93BF93EF931F
:10215000FF93CF93DF931F92CDB7DEB79091060127
:102160008091D80389278983809106018093D803C1
:1021700039EEA32E33E0B32EC12CD12C17E045E06D
:10218000F42E898190E00C2C02C0959587950A94D5
:10219000E2F780FF2BC0D5011396ED91FC911497C7
:1021A000808191812091450230914602E21BF30B20
:1021B000F595E7951E9F90011F9F300D1124F901A1
:1021C000EE5BFD4F0081F09EF0011124E85BFD4FB6
:1021D00045915491009751F0E090D8031596ED91F8
:1021E000FC9116972C2D60810E942E0FBFEFCB1A09
:1021F000DB0A87E0A80EB11CA8E0CA16D10409F0DA
:10220000C0CF0F90DF91CF91FF91EF91BF91AF9130
:102210009F918F917F916F915F914F913F912F91FE
:102220001F910F91FF90EF90DF90CF90BF90AF90F4
:102230000F900BBE0F900FBE0F901F9018951F921E
:102240000F920FB60F9211240BB60F922F933F935C
:102250004F935F936F937F938F939F93AF93BF93AE
:10226000EF93FF93F894A0E0B2E0D996ED91FC9142
:10227000DA970190F081E02DD7968C91199578949A
:10228000FF91EF91BF91AF919F918F917F916F914E
:102290005F914F913F912F910F900BBE0F900FBE0A
:1022A0000F901F9018951F920F920FB60F92112446
:1022B0000BB60F922F933F934F935F936F937F9340
:1022C0008F939F93AF93BF93EF93FF93F894A0E006
:1022D000B2E09E96ED91FC919F970190F081E02DE8
:1022E0009C968C9119957894FF91EF91BF91AF9145
:1022F0009F918F917F916F915F914F913F912F911E
:102300000F900BBE0F900FBE0F901F9018951F924D
:102310000F920FB60F9211240BB60F922F933F938B
:102320004F935F936F937F938F939F93AF93BF93DD
:10233000EF93FF93F894A0E0B2E09396ED91FC91B7
:1023400094970190F081E02D91968C911995789455
:10235000FF91EF91BF91AF919F918F917F916F917D
:102360005F914F913F912F910F900BBE0F900FBE39
:102370000F901F9018951F920F920FB60F92112475
:102380000BB60F922F933F934F935F936F937F936F
:102390008F939F93AF93BF93EF93FF93F894A0E035
:1023A000B2E05896ED91FC9159970190F081E02DA3
:1023B00056968C9119957894FF91EF91BF91AF91BA
:1023C0009F918F917F916F915F914F913F912F914D
:1023D0000F900BBE0F900FBE0F901F9018951F927D
:1023E0000F920FB60F9211240BB60F922F933F93BB
:1023F0004F935F936F937F938F939F93AF93BF930D
:10240000EF93FF93F894A0E0B2E01296ED91FC9167
:1024100013970190F081E02D8C9119957894FF919C
:10242000EF91BF91AF919F918F917F916F915F914C
:102430004F913F912F910F900BBE0F900FBE0F90B9
:102440001F9018951F920F920FB60F9211240BB682
:102450000F922F933F934F935F936F937F938F933D
:102460009F93AF93BF93EF93FF93F894A0E0B2E0F4
:102470001D96ED91FC911E970190F081E02D1B9629
:102480008C9119957894FF91EF91BF91AF919F91A5
:102490008F917F916F915F914F913F912F910F900D
:1024A0000BBE0F900FBE0F901F9018951F920F92AA
:1024B0000FB60F9211240F900FBE0F901F9018951A
:1024C0001F920F920FB60F9211240F900FBE0F9014
:1024D0001F9018950F931F93CF93DF93EC01CB01BF
:1024E000088119817B836A830E94430499838883CE
:1024F000D801CD01801B910B2C813D818217930760
:1025000050F4E881F981E80FF91F309711F08C91B0
:1025100080831196EECFC801DF91CF911F910F916B
:102520000C944504CF93DF93EC0119A218A288E024
:1025300090E09BA38AA31DA21CA20E94430499A31E
:1025400088A3CE018796DF91CF910C941B08089544
:10255000CF93DF93FB014081518162817381FC0144
:10256000448B558B668B778B2091AA042223E1F054
:10257000EC0180E00E947B2D2F892F932E892F93D1
:102580002D892F932C892F9324E433E03F932F93AD
:102590009F938F930E9492208DB79EB708960FB697
:1025A000F8949EBF0FBE8DBFDF91CF910895FB01C0
:1025B0004081518162817381FC01408F518F628F14
:1025C000738F0895FC01878590E00895FB012081B9
:1025D000FC01278708950895CF93DF93EC0182597A
:1025E0009F4F0E942F2ECE01CD960E942F2ECE01FE
:1025F0008096DF91CF910C942F2EEF92FF920F9344
:102600001F93CF93DF93CDB7DEB727970FB6F8941C
:10261000DEBF0FBECDBF8C017B018091AA04882351
:10262000A1F080E00E947B2D1F9223E22F932DE4E6
:1026300033E03F932F939F938F930E9492200F90AC
:102640000F900F900F900F900F908091AA04882305
:10265000A1F080E00E947B2D1F9223E22F9320E6C1
:1026600033E03F932F939F938F930E9492200F907C
:102670000F900F900F900F900F908091AA048823D5
:10268000B1F080E00E947B2DF70121812F93208102
:102690002F9320E733E03F932F939F938F930E94D4
:1026A00092200F900F900F900F900F900F90F701C6
:1026B0004081518124813581240F351FF80160A1AB
:1026C00071A1C80180960E94342E8091AA048823AB
:1026D000A1F080E00E947B2D1F9223E22F9322E83D
:1026E00033E03F932F939F938F930E9492200F90FC
:1026F0000F900F900F900F900F901A82198288E020
:1027000090E09C838B831E821D820E9443049A83E7
:1027100089838B819C81839730F463E270E0CE01E2
:1027200001960E946A1283E2F8013496DE01119646
:1027300001900D928A95E1F78091AA048823B1F067
:1027400080E00E947B2DF80125A12F9324A12F93D7
:1027500023E933E03F932F939F938F930E9492201E
:102760000F900F900F900F900F900F90BE016F5F22
:102770007F4FC80187960E94D208CE0101960E9421
:102780002F2E27960FB6F894DEBF0FBECDBFDF9178
:10279000CF911F910F91FF90EF900895F894809141
:1027A000B304982F789456B552955F70907F9295A8
:1027B0008F708295850F08958F938091B3048395D0
:1027C0008093B3048F911895000018950F931F9371
:1027D000CF93DF93EC018B010E94E40A1C821B82E1
:1027E0001E821D8218861F821A8619861C861B86E9
:1027F0001E861D86188A1F86198A1A8A1A830983DB
:10280000DF91CF911F910F9108950F931F93CF9355
:10281000DF93EC01062F142F0E94E40A1C821B8216
:102820001E821D8218861F821A8619861C861B86A8
:102830001E861D86188A1F86198A1A8A09831A839A
:10284000DF91CF911F910F910895CF93DF93EC010A
:1028500069810E94EB0A6BE6CE010E94110B60E0D9
:10286000CE010E94110BCE01DF91CF910C940D0B84
:10287000CF93DF93EC0169810E94EB0A6BE6CE01F6
:102880000E94110B6A81CE010E94660C682F606461
:10289000CE010E94110BCE01DF91CF910C940D0B54
:1028A0000F931F93CF93DF938C01EB016981CE01CE
:1028B0000E94EB0A6BE3CE010E94110B6A81CE01EC
:1028C0000E94EB0ACE010E94520C8C83CE010E9422
:1028D000520C8B83CE010E94520C8E83CE010E943B
:1028E000520C8D83CE010E94520C8887CE010E942B
:1028F000520C8F83CE010E94520C8A87CE010E9417
:10290000520C8987CE010E94520C8C87CE010E9406
:10291000520C8B87CE010E94520C8E87CE010E94F2
:10292000520C8D87CE010E94520C888BCE010E94E2
:102930005C0C8F878EE0FE013396D80101900D92DA
:102940008A95E1F7C801DF91CF911F910F9108950A
:10295000DF92EF92FF920F931F93CF93DF93CDB748
:10296000DEB72E970FB6F894DEBF0FBECDBF8C0139
:102970007B01D42ECE0101960E945014F701638191
:102980007481072E000C880B990B0E94C23D20E039
:1029900030E040E858E30E947D3EF8016083718397
:1029A00082839383F70165817681072E000C880B63
:1029B000990B0E94C23D20E030E040E858E30E94BD
:1029C0007D3EF8016483758386839783F701678171
:1029D0007085072E000C880B990B0E94C23D20E0E9
:1029E00030E040E858E30E947D3EF801608771873F
:1029F00082879387F70163857485072E000C880B07
:102A0000990B0E94C23D2DEC3CEC4CE152E40E943B
:102A10007D3E20E03FEF4FE757E40E94183DF8016C
:102A2000608B718B828B938BF70165857685072E82
:102A3000000C880B990B0E94C23D2DEC3CEC4CE144
:102A400052E40E947D3E20E03FEF4FE757E40E94B2
:102A5000183DF801648B758B868B978BF701678522
:102A60007089072E000C880B990B0E94C23D2DEC3B
:102A70003CEC4CE152E40E947D3E20E03FEF4FE70A
:102A800057E40E94183DF801608F718F828F938FF9
:102A9000F70161857285072E000C880B990B0E9447
:102AA000C23D20E030E04AEA53E40E94183D28EBA2
:102AB0003EE142E152E40E943A3CF1E0DF1651F07F
:102AC000DF16A0F022E0D21216C023E333E948E873
:102AD00053E40AC026E636E646EE5FE30E947D3EFA
:102AE00020E030E040E052E40E943A3CF801648784
:102AF000758786879787C8012E960FB6F894DEBF34
:102B00000FBECDBFDF91CF911F910F91FF90EF903E
:102B1000DF900895CF93DF93EC01660F660F660F89
:102B2000698B69810E94EB0A6CE1CE010E94110B56
:102B30006989CE010E94110BCE01DF91CF910C94D7
:102B40000D0BFC0181890895CF93DF93EC01660F93
:102B5000660F660F6A8B69810E94EB0A6BE1CE01FA
:102B60000E94110B6A89CE010E94110BCE01DF91E8
:102B7000CF910C940D0BFC01828908950F931F9344
:102B800089019A010095109520953095602B712B45
:102B9000822B932B1F910F9108956223732384231B
:102BA0009523089508958F929F92AF92BF92CF92EE
:102BB000DF92EF92FF920F931F93CF93DF931F92B9
:102BC0001F92CDB7DEB76C018B01FB010190002095
:102BD000E9F7CF01019742E150E069E070E0801B26
:102BE000910B0E94582C882339F14DE953E0BE0126
:102BF0006F5F7F4FC8010E948F270597E9F4098115
:102C00001A81780156014801F8E08F0E911CF701F6
:102C1000819191917F010E944641F50181935F016D
:102C2000E814F904A1F7F801808591850E944641D6
:102C30000E944D2FF60164830F900F90DF91CF918A
:102C40001F910F91FF90EF90DF90CF90BF90AF90CA
:102C50009F908F9008950F931F93CF93DF9300D091
:102C60001F921F92CDB7DEB78C01FC0101900020AE
:102C7000E9F7CF01019742E150E067E070E0801B87
:102C8000910B0E94582C811104C060E070E0CB01D0
:102C90000CC0B801CE0101960E94D3158D810E940F
:102CA0004D2F60957095809590950F900F900F9097
:102CB0000F900F90DF91CF911F910F9108950F9377
:102CC0001F93CF93DF9300D01F921F92CDB7DEB733
:102CD0008C01FC0101900020E9F7CF01019742E14E
:102CE00050E067E070E0801B910B0E94582C882315
:102CF00041F0B801CE0101960E94D3158D810E944A
:102D00004D2F60E070E0CB010F900F900F900F906F
:102D10000F90DF91CF911F910F9108951F93CF9343
:102D2000DF931F921F92CDB7DEB74EE953E0BE018D
:102D30006F5F7F4F0E948F27029711F080E011C0D4
:102D4000E981FA81828193810E944641182F42E1F4
:102D500050E069E070E090E00E94582C882371F305
:102D6000812F0F900F90DF91CF911F910895EF92D7
:102D7000FF920F931F93CF93DF9300D01F921F9268
:102D8000CDB7DEB78C01FC0101900020E9F7CF013F
:102D9000019742E150E069E070E0801B910B0E94D6
:102DA000582C882339F1B801CE0101960E94D31521
:102DB0008E010F5F1F4F7E01F5E0EF0EF11CF80151
:102DC00081918F0190E00E9446414FEF50E060E01A
:102DD00070E00E94582C882369F0E016F10679F71C
:102DE0008D8190E00E94464140E250E061E070E059
:102DF0000E94582C0F900F900F900F900F90DF9122
:102E0000CF911F910F91FF90EF900895AF92BF92D5
:102E1000CF92DF92EF92FF920F931F93CF93DF93A6
:102E200000D000D0CDB7DEB78C010E94B71681115B
:102E300015C069817A818B819C8126960FB6F894A2
:102E4000DEBF0FBECDBFDF91CF911F910F91FF90DD
:102E5000EF90DF90CF90BF90AF9008955E0185E036
:102E6000A80EB11C40EA53E0B501C8010E948F27AB
:102E70000497F9F60D811E816801FE0131967F01EC
:102E8000EA15FB0549F0F601819191916F010E94CD
:102E90004641F7018193F3CF0115110551F2C801A5
:102EA0000E944D04C6CF1F927F931F926F931F9273
:102EB0005F931F924F9322EA33E03F932F939F93A8
:102EC0008F930E944C438DB79EB70C960FB6F89423
:102ED0009EBF0FBE8DBF0895EF92FF920F931F9379
:102EE000CF93DF93CDB7DEB72E970FB6F894DEBF42
:102EF0000FBECDBF4EEA53E0BE01635F7F4F0E941D
:102F00008F270697E1F47E0187E0E80EF11C00E0D0
:102F100010E0ED85FE85E00FF11F808191810E9418
:102F20001028F70181937F010E5F1F4F0C301105B0
:102F300081F78D859E85009711F00E944D0486E0F3
:102F4000FE013796DE01119601900D928A95E1F708
:102F500029813A814B815C816D817E8180E090E0A6
:102F60002E960FB6F894DEBF0FBECDBFDF91CF9186
:102F70001F910F91FF90EF900895CF93DF9300D0B2
:102F800000D0CDB7DEB729833A834B835C836D8352
:102F90001F927F932D811F922F932C811F922F932D
:102FA0002B811F922F932A811F922F9329811F9289
:102FB0002F9321EB33E03F932F939F938F930E94A6
:102FC0004C430FB6F894DEBF0FBECDBF26960FB6AA
:102FD000F894DEBF0FBECDBFDF91CF910895CF92A1
:102FE000DF92EF92FF921F93CF93DF93CDB7DEB7BF
:102FF0002B970FB6F894DEBF0FBECDBF7C010E94A9
:10300000D92F0E94B716811105C0C884D984EA84DB
:10301000FB8430C04EE2B701CE0101960E943729F1
:103020008D819E81049711F410E009C0C884D98471
:10303000EA84FB84CE0101960E94802F1BC0E12E02
:10304000F12C8D819E81E816F90680F789819A819D
:1030500027E0129F800D911D11240E94D92F0E94FC
:103060004641E8E0F0E0EC0FFD1FEE0DFF1D808310
:103070001F5FE5CFC701B6012B960FB6F894DEBFF0
:103080000FBECDBFDF91CF911F91FF90EF90DF90EA
:10309000CF900895EF92FF921F93CF93DF93CDB718
:1030A000DEB763970FB6F894DEBF0FBECDBF4EE21A
:1030B000BC01CE0101960E9437298D819E81069721
:1030C000E1F410E0E12EF12C8D819E81E816F906E5
:1030D000A0F489819A8127E0129F800D911D11240F
:1030E0000E94D92F0E944641EEE0F0E0EC0FFD1F58
:1030F000EE0DFF1D80831F5FE5CF86E0FE013E964B
:10310000DE01189601900D928A95E1F7CE010196A5
:103110000E94802F288539854A855B856C857D8551
:1031200080E090E063960FB6F894DEBF0FBECDBF8F
:10313000DF91CF911F91FF90EF900895EF92FF9252
:103140000F931F93CF93DF93EC01142F052FF62ECF
:10315000E72E1982188288E090E09B838A831D8283
:103160001C820E9443049983888364E070E0CE014E
:103170000E94A62F1F92EF921F92FF921F920F9311
:103180001F921F9382EA93E09F938F9389818F937D
:1031900088818F930E944C438DB79EB70C960FB6D3
:1031A000F8949EBF0FBE8DBFCE01DF91CF911F91CE
:1031B0000F91FF90EF9008950F931F93CF93DF939C
:1031C00000D000D0CDB7DEB78C0129833A834B8382
:1031D0005C836D837E83FC011182108288E090E025
:1031E00093838283158214820E944304F8019183A1
:1031F000808366E070E0C8010E94A62F8E811F9236
:103200008F938D811F928F938C811F928F938B81CF
:103210001F928F938A811F928F9389811F928F9320
:1032200081EB93E09F938F93F80181818F9380814D
:103230008F930E944C430FB6F894DEBF0FBECDBFF4
:10324000C80126960FB6F894DEBF0FBECDBFDF9142
:10325000CF911F910F9108950C9492120F931F9389
:10326000CF93DF9300D01F92CDB7DEB78C01CA0198
:103270000E94061769837A838B839C83BE016F5FEC
:103280007F4FC8010E94A8120F900F900F900F90CF
:10329000DF91CF911F910F9108950895DC0112964F
:1032A000ED91FC911397408121E030E0C90118961F
:1032B0000C9002C0880F991F0A94E2F7842B808338
:1032C0000895DC011296ED91FC91139718963C91AC
:1032D000208181E090E001C0880F3A95EAF76623EB
:1032E00011F0822B02C08095822380830895DC0137
:1032F0001296ED91FC911397408121E030E0B901E5
:1033000018960C9002C0660F771F0A94E2F7CB0163
:103310008095842380830895DC011296ED91FC91C1
:103320001397408121E030E0C90118960C9002C04B
:10333000880F991F0A94E2F7842780830895DC019F
:10334000ED91FC91119718965C91613051F42081B8
:1033500081E090E001C0880F5A95EAF7822B8083C4
:103360000895408121E030E001C0220F5A95EAF72C
:10337000209524232083623011F40C944E19089573
:103380000F931F93CF93DF93CDB7DEB7AC970FB6F4
:10339000F894DEBF0FBECDBF2FEF3FEFDC011796D5
:1033A0003C932E9316972FEF30E01B963C932E9371
:1033B0001A971D963C932E931C971F963C932E9321
:1033C0001E9751963C932E93509753963C932E9371
:1033D000529755963C932E93549757963C932E9321
:1033E000569759963C932E9358975B963C932E9301
:1033F0005A975D963C932E935C97673408F099C07A
:103400002CE0E2EEF2E0DE01919601900D922A9519
:10341000E1F720E2EEEEF2E0DE01119601900D926E
:103420002A95E1F7B5E06B9F90011124F901EA5567
:10343000FC4FA591B491FC01B583A4838D010F5F6E
:103440001F4F118300831296B383A283F901E855BD
:10345000FC4FE491DC011896EC9327553C4FF901A1
:10346000A591B491FC01B3A3A2A364A3F901659152
:103470007491F90175FF33C02591349153E0DC015B
:1034800019965C931997F901EE27FC71EF2FFF272E
:10349000E69521E030E02C0F3D1FE20FF31F20A145
:1034A00031A11B963C932E931A97B9016F5F7F4F02
:1034B0001D967C936E931C976F5F7F4F53967C9302
:1034C0006E9352976E5F7F4F1F967C936E931E97FD
:1034D0002A5F3F4F55963C932E9354971DC05491AD
:1034E00057FF1AC054E0DC0119965C931997259197
:1034F0003491F901E877FF27F695E795F695E7957A
:1035000021E030E02C0F3D1FE20FF31F20813181BD
:1035100017963C932E931697642FAC960FB6F8949B
:10352000DEBF0FBECDBFDF91CF911F910F910C94E5
:103530009F19AC960FB6F894DEBF0FBECDBFDF91DA
:10354000CF911F910F9108958F929F92AF92BF924A
:10355000CF92DF92EF92FF921F93CF93DF93EC0114
:103560008985833009F074C0122FCB01BA010E9403
:10357000C03D9B01AC0160E070E080E89FE30E94E9
:10358000183D2DEB37E346E853E30E94183D0E94B7
:10359000913D6B017C017F8F6E8F80E090E00E94F7
:1035A000C03D4B015C01612F70E080E090E00E9423
:1035B000C03D20E030E048EC52E40E94183DA501F7
:1035C00094010E947D3E9B01AC01C501B4010E94A3
:1035D000393C0E94913D79A368A3EC89FD89D18291
:1035E000C0828AA19BA188279370892F9927AA85D9
:1035F000BB858130910579F040F0029791F43696C1
:10360000F98BE88B8C918C600BC03296F98BE88B30
:103610008C91806C05C03496F98BE88B8C9180631B
:103620008C93E889F98988A199A191838083EA859F
:10363000FB85808182608083EC85FD858081886147
:103640008083EC85FD8580818160808381E001C07D
:1036500080E0DF91CF911F91FF90EF90DF90CF90AE
:10366000BF90AF909F908F900895CF92DF92EF928E
:10367000FF921F93CF93DF93FC012185233051F5F7
:10368000162FEC01668D778D80E090E00E94C03DA2
:103690006B017C01612F70E080E090E00E94C03DF2
:1036A00020E030E048EC52E40E94183DA70196016A
:1036B0000E947D3E9B01AC01C701B6010E94393CCE
:1036C0000E94913D79A368A3E889F9897183608399
:1036D00081E001C080E0DF91CF911F91FF90EF90DA
:1036E000DF90CF9008958F929F92AF92BF92CF922A
:1036F000DF92EF92FF92CF93DF93FC01218523307D
:1037000009F03FC07B01EC01868D978D60A171A10E
:103710000E941D3C80E090E00E94C03D4B015C0196
:10372000B70180E090E00E94C03D9B01AC0160E0E9
:1037300070E080E89FE30E94183D2DEB37E346E8F8
:1037400053E30E94183D0E94913D6B017C017F8FE5
:103750006E8F80E090E00E94C03DA50194010E9420
:10376000183D0E94913D79A368A3EC89FD89D1821F
:10377000C082E889F98988A199A19183808381E039
:1037800001C080E0DF91CF91FF90EF90DF90CF906C
:10379000BF90AF909F908F900895DC011496ED91AB
:1037A000FC911597208130E0F90118960C9002C029
:1037B000F595E7950A94E2F7CF0181700895FC0131
:1037C0003185332341F1868197818F3FFFEF9F073A
:1037D00021F170E0722B862B972B20917A0021111A
:1037E00006C020917A002068422B40937A002091F5
:1037F0007A0090937B0080937C0080917A008064B3
:1038000080937A0080917A0086FDFCCF80917800C9
:103810009091790008958FEF9FEF0895FC0184A1A6
:103820000895CF92DF92EF92FF92CF93DF93EC0156
:103830006E8D7F8D80E090E00E94C03D6B017C0129
:1038400068A179A180E090E00E94C03D9B01AC019D
:10385000C701B6010E94393C20E030E048EC52E458
:103860000E947D3EA70196010E94183D0E94913D55
:10387000862FDF91CF91FF90EF90DF90CF9008954A
:10388000FC0180850895FC01848195810895CB0118
:10389000BA010E94C03D9B01AC0160E070E080E88D
:1038A0009FE30E94183D2DEB37E346E853E30E9467
:1038B000183D0E94913DCB0108950F931F93CF9324
:1038C000DF93EC01CB01088119817B836A830E941D
:1038D000430499838883D801CD01801B910B2C81EF
:1038E0003D818217930750F4E881F981E80FF91FB1
:1038F000309711F08C9180831196EECFC801DF9143
:10390000CF911F910F910C944504EF92FF920F936A
:103910001F93CF93DF93EC018B017A018A819B8106
:103920008617970740F4685F7F4F8617970718F44C
:10393000CE010E945D1C8C819D818017910758F4F7
:10394000E881F981E80FF91F309719F0D7012C9120
:1039500020830196F2CF1D830C83DF91CF911F91BD
:103960000F91FF90EF900895CF93DF93EC011B82AE
:103970001A8288E090E09D838C831F821E820E94C1
:1039800043049B838A83DF91CF910895FC01828158
:1039900093810C944504CF92DF92EF92FF92CF93E4
:1039A000DF93EC01862F69017A010E947B2D9983B8
:1039B000888320E0B701A6010E941D1F60E0888176
:1039C00099810E948C1F60E0888199810E949C1FD0
:1039D00081E028813981232B09F480E0DF91CF91A8
:1039E000FF90EF90DF90CF900895AF92BF92CF926B
:1039F000DF92EF92FF920F931F93CF93DF931F926B
:103A0000CDB7DEB78C017B01FC011182108288E00A
:103A100090E093838283158214820E944304F8010C
:103A200091838083F701228133815901FFEFAF1A1F
:103A3000BF0AF701C680D780F1E0CF1AD108C20EC5
:103A4000D31ECA14DB0409F443C0F50121915F01C0
:103A50002983F801208131817C01E21AF30A8481F3
:103A60009581BC016F5F7F4F8617970738F4AE01D1
:103A70004F5F5F4FC8010E94851C06C06817790719
:103A800018F4F80175836483F8012481358121508D
:103A90003109F80180819181E216F30658F4FC01A6
:103AA000E20FF31F21503109DC01A20FB31F8C91EB
:103AB0008083EFCF2981FC01EE0DFF1D2083FFEFF6
:103AC000EF1AFF0AF801808191818E0D9F1DB9CFF9
:103AD000C8010F90DF91CF911F910F91FF90EF9050
:103AE000DF90CF90BF90AF900895FF920F931F93F8
:103AF000CF93DF938C01F62E85E290E00E94430481
:103B0000EC0141E06F2D0E94C019F801D287C187F6
:103B100020E048EE53E060E070E0CE010E94A41A7D
:103B2000811103C0F80112861186DF91CF911F9198
:103B30000F91FF900895FB01A081B181FD01AD01BE
:103B4000465F5F4F80E0218190E1299F9001112421
:103B500092819F70292B822732964E175F0799F723
:103B60001B962C911B97E0E12E9F90011124332787
:103B700090E041E050E02817390711F040E050E0B4
:103B80001C968C918F70482B81E0452B09F480E0C6
:103B90000895DB01ED91FC9111972081223079F499
:103BA00014962D913C911597E20FF31F31974081A8
:103BB000433029F42E30310511F40C949B1D80E024
:103BC0000895CF93DF93EC0189859A85009749F199
:103BD00026E448EE53E060E070E00E94A41A2FEF64
:103BE00084E39CE0215080409040E1F700C0000059
:103BF00026E448EB5BE060E070E089859A850E94EE
:103C0000A41A2FEF84E39CE0215080409040E1F71C
:103C100000C0000060E089859A85DF91CF910C9407
:103C2000351BDF91CF910895CF93DF93EC01898508
:103C30009A85009749F126E448EB5BE060E070E08C
:103C40000E94A41A2FEF84E39CE021508040904012
:103C5000E1F700C0000026E448EE53E060E070E0C9
:103C600089859A850E94A41A2FEF84E39CE0215055
:103C700080409040E1F700C0000060E089859A85AF
:103C8000DF91CF910C94351BDF91CF910895CF93A5
:103C9000DF93FC01818592850097C1F0EF0126E456
:103CA00048EB5BE060E070E00E94A41A2FEF89E629
:103CB00098E1215080409040E1F700C0000060E0B2
:103CC00089859A85DF91CF910C94351BDF91CF9137
:103CD0000895CF92DF92FF920F931F93CF93DF93BC
:103CE000CDB7DEB729970FB6F894DEBF0FBECDBFB4
:103CF0008C0119861A82198288E090E09C838B835C
:103D00001E821D820E9443049A8389838091AB04A2
:103D10009091AC0401969093AC048093AB04883BE3
:103D20009B40A1F4BE016F5F7F4FC80102960E94C5
:103D3000EE2F8FEF93EDE0E381509040E040E1F70C
:103D400000C000001092AC041092AB04F801808116
:103D500091810E94072081110AC0BE016F5F7F4FD1
:103D6000C8010E94C91DF82E811129C053C0F80155
:103D7000808191810E9415208987823071F7BE0170
:103D8000675F7F4FCE0101960E945530F801808118
:103D900091810E940720882369F0F8018081918138
:103DA0000E9415208887BE01685F7F4FCE01019673
:103DB0000E9455308D819E810E9740F3CECFC80171
:103DC00002964D815E81F8012681378142175307A3
:103DD000A1F4A981BA8120E030E042175307B1F085
:103DE0007D91F801C280D380F601E20FF31F60815C
:103DF000761303C02F5F3F4FF0CFBE016F5F7F4F41
:103E00000E94EE2FC8010E94E11D04C0C8010E945B
:103E1000471EF12C89819A810E9445048F2D299695
:103E20000FB6F894DEBF0FBECDBFDF91CF911F91CB
:103E30000F91FF90DF90CF900895EF92FF921F9324
:103E4000CF93DF93EC01122FFC01E35FFE4F019053
:103E5000F081E02D1082FC01E15FFE4FE080F180F7
:103E6000CB01BA010E94C03D9B01AC0160E074E24D
:103E700084E799E40E94183D20E030E040E85FE3E9
:103E80000E94393C0E94EA3E0E94913DF701608306
:103E9000FE01E75FFE4F0190F081E02D88E1808315
:103EA000FE01E55FFE4F0190F081E02D86E080830A
:103EB000FE01ED5EFE4F108340E051E06FEF70E0D9
:103EC000CE010E948A42FE01ED5FFE4FD183C08386
:103ED0003296D183C083339781E08083CC5EDE4FFE
:103EE00019821882DF91CF911F91FF90EF90089572
:103EF000CF93DF93FC01E95FFE4FA081B181EC011C
:103F0000CF5EDE4F2C9127FF04C0E881F98120812C
:103F1000F9CFDF91CF910895FC01E75FFE4F01904B
:103F2000F081E02D8081662321F080688083789481
:103F300008958F77808308959395FC016083089599
:103F4000CF93DF93FC01EB5FFE4F208131812F5F28
:103F50003F4FAC0141505F4F4217530718F0318378
:103F6000208302C091838083A081B181EC01CD5F69
:103F7000DE4F28813981A217B30739F41197A817AA
:103F8000B90728F45183408304C06C9302C0B18305
:103F9000A083DF91CF910895FC01ED5FFE4F20815A
:103FA0003181260F311D318320830895FC01EF5F9D
:103FB000FE4F608338960190F081E02D808180680B
:103FC0008083789408958C5E9E4FFC01718360839A
:103FD00008958C5E9E4FDC01ED91FC91309709F0C5
:103FE000199408958F5F9E4FFC0180810895DC0134
:103FF000AD5FBE4FFC01EB5FFE4F81E04D915C91E8
:10400000208131814217530709F480E00895895FC8
:104010009E4FDC01ED91FC918081881F8827881FCD
:1040200008959395FC0180810895FC01E95FFE4F9E
:104030000190F081E02D208127FFFDCFFC01EF5E94
:10404000FE4F0190F081E02D80810895EF92FF9264
:104050000F931F93CF93DF937C01EB01042F10E0AC
:10406000C7010E94152091E0910F80130AC0C90F6B
:10407000D11D1882DF91CF911F910F91FF90EF908A
:104080000895FE01E10FF11D8083192FE9CFCF9331
:10409000DF93DC01AE5FBE4F1C92FC01ED5FFE4F73
:1040A000208131812F5F3F4FAC0141505F4F42175C
:1040B000530718F03183208302C0918380830190DD
:1040C000F081E02DEC01CB5FDE4F88819981E8170C
:1040D000F90711F081E08C938081DF91CF910895F1
:1040E0008D5E9E4FFC0180810895CF93DF9320E089
:1040F000DC01A95FBE4FEC01CF5EDE4FFB01E20F9A
:10410000F11D3081332359F0ED91FC9111974081DD
:1041100045FFFDCFE881F98130832F5FEFCFDF913D
:10412000CF910895CF93DF93CDB7DEB7DA950FB671
:10413000F894DEBF0FBECDBFAE01465F5E4FC85FD5
:10414000DE4F68817981C850D140CE0101960E942E
:104150007B43BE016F5F7F4FCA5FDE4F88819981CD
:10416000C650D1400E947520D3950FB6F894DEBF9B
:104170000FBECDBFDF91CF91089523EC33E03F9385
:104180002F939F938F930E9492200F900F900F90E8
:104190000F9008951F920F920FB60F9211240BB635
:1041A0000F921F932F933F934F935F936F937F9340
:1041B0008F939F93AF93BF93CF93DF93EF93FF932F
:1041C0008091BC049091BD04892B41F586E191E07A
:1041D0000E944304FC01E95FFE4F20EC30E0318394
:1041E0002083329621EC30E031832083329622EC1A
:1041F00030E031832083329625EC30E03183208318
:10420000329624EC30E031832083329626EC30E085
:10421000318320839093BD048093BC04C091BC047F
:10422000D091BD041091C600612FCE010E94A01F45
:10423000FE01F3958081811119C0CE010E94E91F12
:10424000FF91EF91DF91CF91BF91AF919F918F91AE
:104250007F916F915F914F913F912F911F910F909F
:104260000BBE0F900FBE0F901F9018951093C600B5
:10427000E4CF1F920F920FB60F9211240BB60F923C
:104280001F932F933F934F935F936F937F938F93DE
:104290009F93AF93BF93CF93DF93EF93FF9380915F
:1042A000BE049091BF04892B41F586E191E00E9404
:1042B0004304FC01E95FFE4F28EC30E031832083AA
:1042C000329629EC30E03183208332962AEC30E0BC
:1042D0003183208332962DEC30E031832083329677
:1042E0002CEC30E03183208332962EEC30E03183A9
:1042F00020839093BF048093BE04C091BE04D091EC
:10430000BF041091CE00612FCE010E94A01FFE01BC
:10431000F3958081811119C0CE010E94E91FFF91A0
:10432000EF91DF91CF91BF91AF919F918F917F914D
:104330006F915F914F913F912F911F910F900BBE05
:104340000F900FBE0F901F9018951093CE00E4CFE2
:104350001F920F920FB60F9211240BB60F921F935C
:104360002F933F934F935F936F937F938F939F937D
:10437000AF93BF93CF93DF93EF93FF938091C004EC
:104380009091C104892B41F586E191E00E9443049C
:10439000FC01E95FFE4F20ED30E03183208332964F
:1043A00021ED30E031832083329622ED30E03183FD
:1043B0002083329625ED30E031832083329624ED40
:1043C00030E031832083329626ED30E03183208344
:1043D0009093C1048093C004C091C004D091C104E3
:1043E0001091D600612FCE010E94A01FFE01F3950F
:1043F0008081811119C0CE010E94E91FFF91EF91C8
:10440000DF91CF91BF91AF919F918F917F916F91EC
:104410005F914F913F912F911F910F900BBE0F9085
:104420000FBE0F901F9018951093D600E4CF1F92E7
:104430000F920FB60F9211240BB60F921F932F936A
:104440003F934F935F936F937F938F939F93AF931C
:10445000BF93CF93DF93EF93FF938091C20490912A
:10446000C304892B41F586E191E00E944304FC01DD
:10447000E95FFE4F20E331E031832083329621E370
:1044800031E031832083329622E331E0318320838F
:10449000329625E331E031832083329624E331E004
:1044A00031832083329626E331E031832083909359
:1044B000C3048093C204C091C204D091C30410917C
:1044C0003601612FCE010E94A01FFE01F39580816D
:1044D000811119C0CE010E94E91FFF91EF91DF9178
:1044E000CF91BF91AF919F918F917F916F915F918C
:1044F0004F913F912F911F910F900BBE0F900FBEC8
:104500000F901F90189510933601E4CF0895CF9225
:10451000DF92EF92FF920F931F93CF93DF938C0163
:10452000FC01E080F1807383628385E2F82FF69FBF
:10453000C001F79F900D11240E944304F80191835C
:104540008083E701C12CD12CF80184819581C816A4
:10455000D906B8F4A081B181CE018E199F09A80FA8
:10456000B91F109731F085E2FE0101900D928A95F6
:10457000E1F7CE010E944D19FFEFCF1ADF0AA59691
:10458000E3CFC701DF91CF911F910F91FF90EF9083
:10459000DF90CF900C9445048CB580648CBD089559
:1045A0008CB58F7B8CBD0895FC01EA58FF4F60836A
:1045B0008CB58C7F8CBD8DB58E7F8DBD8DB52081EA
:1045C00022FB992790F9982B9DBD9CB58081837023
:1045D000892B8CBD08958A589F4FFC0180810895D6
:1045E000FC01E958FF4F60839CB59F7D9CBD2CB5B5
:1045F000908130E2939FC0011124822B8CBD0895DD
:1046000089589F4FFC0180810895FC01E858FF4FB5
:1046100060839CB5977F9CBD2CB5908138E0939FBB
:10462000C0011124822B8CBD089588589F4FFC0136
:1046300080810895FC01E758FF4F60839CB59B7F04
:104640009CBD2CB5908134E0939FC0011124822B36
:104650008CBD089587589F4FFC0180810895262FB7
:1046600030E02F5F3F4FFC01ED58FF4F40815181FB
:104670004217530750F034978081918125E2629F61
:10468000800D911D11240C9477190895262F30E088
:104690002F5F3F4FFC01ED58FF4F40815181421782
:1046A000530750F034978081918125E2629F800DFD
:1046B000911D11240C944E1908956EBD0DB407FE82
:1046C000FDCF0895CF92DF92EF92FF920F931F9349
:1046D000CF938C017B016A01C0E08C2F90E08C1598
:1046E0009D0548F4F701E80FF91F6081C8010E9499
:1046F0005D23CF5FF2CFCF911F910F91FF90EF908D
:10470000DF90CF9008956EBD0DB407FEFDCF8EB53E
:1047100008959F92AF92BF92CF92DF92EF92FF9255
:104720000F931F93CF93DF938C015B017A01690193
:10473000912C892D90E08C159D0568F4E501C80F3A
:10474000D91FF701E80FF91F6081C8010E94832378
:1047500088839394EECFDF91CF911F910F91FF90BB
:10476000EF90DF90CF90BF90AF909F90089560E062
:104770000C948323AF92BF92CF92DF92EF92FF927D
:104780001F93CF93DF937C016B015A0110E0812FBF
:1047900090E08A159B0548F4E601C80FD91FC701B0
:1047A0000E94B72388831F5FF2CFDF91CF911F91C3
:1047B000FF90EF90DF90CF90BF90AF9008950C9452
:1047C000832370E06F5F7F4FFC01ED58FF4F81E066
:1047D000208131812617370708F480E008958CB5D1
:1047E00086FB882780F908950F930FEF2FEF4FEF87
:1047F0006FEF0E94A6300F910895AF92BF92CF92B3
:10480000DF92EF92FF920F931F93CF93DF93CDB779
:10481000DEB7CA57D1090FB6F894DEBF0FBECDBFC1
:104820007C01162FD42EC22EB02E0FEF2FEF4FEF9C
:104830006FEF0E94A6300B2D2C2D4D2D612FCE0138
:1048400001960E94A63085E2FE013196D7010190C3
:104850000D928A95E1F785E2FE01B696D70195960D
:1048600001900D928A95E1F7D701A65BBF4F85E2D3
:10487000FE01E55BFF4F01900D928A95E1F78701FC
:1048800001591F4FE6966EAD7FADE697D80112969F
:104890008D919C9113978617970718F4C8010E9471
:1048A0008722E6968EAD9FADE697F801448155814B
:1048B0008417950708F4AC0180E090E020E030E038
:1048C00024173507A1F0F801A081B181A80FB91F05
:1048D000E296EEADFFADE297E80FF91F65E20190B9
:1048E0000D926A95E1F72F5F3F4F8596E9CFD8018A
:1048F00014962D913C911597E6968EAD9FADE69757
:104900002817390780F585E2829FB001839F700DDB
:10491000112440E050E0E6968EAD9FADE697281753
:10492000390708F5E296EEADFFADE297CB01840FB3
:10493000951FE80FF91FD801CD90DC90D601A80F84
:10494000B91F109729F085E201900D928A95E1F741
:10495000F801848195810196958384832F5F3F4F71
:104960004B5D5F4FD8CFE6966EAD7FADE697D80131
:1049700014968D919C9115976817790718F4C801C2
:104980000E946A305701B6E7AB0EB11CEB968CADB6
:104990009DADAEADBFADEB97F50180839183A28352
:1049A000B38300E010E0C12CD12CE6968EAD9FAD14
:1049B000E697C816D90670F4E2968EAD9FADE297E1
:1049C000800F911F0E944D19FFEFCF1ADF0A0B5D78
:1049D0001F4FEBCFE2968EAD9FADE2970E9445044C
:1049E000CE01855B9F4F0E944D19CE0186960E9495
:1049F0004D19CE0101960E944D19F701E758FF4F5E
:104A00006081C7010E941A23F701E858FF4F6081B7
:104A1000C7010E940523D5016C91C7010E94D422D1
:104A2000F701E958FF4F6081C7010E94F0228CB561
:104A300080618CBDC7010E94CC22C658DF4F0FB6E3
:104A4000F894DEBF0FBECDBFDF91CF911F910F91C4
:104A5000FF90EF90DF90CF90BF90AF900895FC0152
:104A6000F3958FEF86838783808781870895EF9200
:104A7000FF920F931F93CF93DF93CDB7DEB72A97A3
:104A80000FB6F894DEBF0FBECDBFE982FA820B836A
:104A90001C832D833E834F83588769877A87DC0187
:104AA000B3952AE0FE01319601900D922A95E1F727
:104AB0001CBC14B81DBCFC01EE5FFE4FE080F18011
:104AC000AC01495F5E4F21E030E0B901DA010C90A2
:104AD00002C0660F771F0A94E2F74F5F5F4F8901AC
:104AE000DA010C9002C0000F111F0A94E2F7602B4C
:104AF000AC01475F5E4F8901DA010C9002C0000FE4
:104B0000111F0A94E2F7A801462B4095D7014C9358
:104B10000190F081E02D4081DC01AA5FBE4F0C9036
:104B200002C0220F331F0A94E2F7242B20832CB5F6
:104B30002F7E2CBD2CB520642CBDFC01E65FFE4F02
:104B4000118210822A960FB6F894DEBF0FBECDBF39
:104B5000DF91CF911F910F91FF90EF9008956F9289
:104B60007F928F92AF92CF92EF92FF920F931F930B
:104B7000CF93DF93CDB7DEB764970FB6F894DEBF5F
:104B80000FBECDBF0B871C872D873E874F87588B65
:104B9000698B7A8B8B8B9C8B8091AD049091AE044A
:104BA000892B29F58AE0FE013B96DE0111960190E2
:104BB0000D928A95E1F781E191E00E9443043C0166
:104BC0001F92812C84E0A82EC12CE980FA800B81F1
:104BD0001C812D813E814F81588569857A85C3016D
:104BE0000E9437257092AE046092AD040F908091C0
:104BF000AD049091AE0464960FB6F894DEBF0FBE7C
:104C0000CDBFDF91CF911F910F91FF90EF90CF908B
:104C1000AF908F907F906F9008958CB5662321F0B0
:104C200080688CBD789408958F778CBD08956EBD93
:104C30000DB407FEFDCF0895CF92DF92EF92FF9261
:104C40000F931F93CF938C017B016A01C0E08C2FDF
:104C500090E08C159D0548F4F701E80FF91F60817D
:104C6000C8010E941726CF5FF2CFCF911F910F91FD
:104C7000FF90EF90DF90CF9008950DB407FEFDCF29
:104C80008EB50895AF92BF92CF92DF92EF92FF92CE
:104C90001F93CF93DF937C016B015A0110E0812FAA
:104CA00090E08A159B0548F4E601C80FD91FC7019B
:104CB0000E943D2688831F5FF2CFDF91CF911F9125
:104CC000FF90EF90DF90CF90BF90AF900895FC01E0
:104CD000F3950190F081E02D2081FC01E75FFE4F0C
:104CE000808130E0082E02C0359527950A94E2F7BE
:104CF0002170332791E0292702C0359527958A95A1
:104D0000E2F781E0232B09F480E008952CB52068B8
:104D10002CBD7894FC01E65FFE4F7183608308959B
:104D2000865F9E4FDC01ED91FC91309711F0862F4C
:104D300019940895CF93DF93FC01E25FFE4F208129
:104D400031812F5F3F4FAC0141505F4F42175307F6
:104D500018F03183208302C091838083A081B181C8
:104D6000EC01C45FDE4F28813981A217B30739F403
:104D70001197A817B90728F45183408304C06C9396
:104D800002C0B183A083DF91CF910895CF93DF93C9
:104D9000DC01A05FBE4F1C92FC01E45FFE4F20814E
:104DA00031812F5F3F4FAC0141505F4F4217530796
:104DB00018F03183208302C0918380830190F081B9
:104DC000E02DEC01C25FDE4F88819981E817F90779
:104DD00011F081E08C938081DF91CF910895DC0107
:104DE000A45FBE4FFC01E25FFE4F81E04D915C91FC
:104DF000208131814217530709F480E008951F9202
:104E00000F920FB60F9211240BB60F920F931F93B0
:104E10002F933F934F935F936F937F938F939F93C2
:104E2000AF93BF93EF93FF93CF93DF93CDB7DEB7ED
:104E30002A97DEBFCDBF8FEF8F83888789878A87C8
:104E400009811A812B813C814D815E816FEF7FEF5B
:104E50009FEF0E94AF258C018EB589836981C801BF
:104E60000E949A266981C8010E9490262A960FB650
:104E7000F894DEBF0FBECDBFDF91CF91FF91EF91D0
:104E8000BF91AF919F918F917F916F915F914F9162
:104E90003F912F911F910F910F900BBE0F900FBE5E
:104EA0000F901F901895CF93DF93EC01A881B981E3
:104EB0002C912B3241F091E080E02D3209F090E00E
:104EC000292F382F02C021E030E0FD01E20FF31F4F
:104ED0009F012A1B3B0B919190539A30C8F381E0BC
:104EE0004C815D814217530709F080E0DF91CF913B
:104EF0000895DC01ED91FC91119714962D913C9150
:104F000015972E0F3F1F80E090E0E217F30729F07E
:104F100041914613FACF0196F8CF089508955F9214
:104F20006F927F928F929F92AF92BF92CF92DF92B9
:104F3000EF92FF920F931F93CF93DF93EC017B01CE
:104F40003A01FC0101900020E9F7CF018C1B9D0B79
:104F50000E9447046C01BE010E94914282E090E0F1
:104F60000E943B3FF70191838083B301C6010E94F9
:104F70006B428C01512CC52DD0E001151105B1F10A
:104F80004E01880C991CF701A080B180A80CB91CB7
:104F9000F80101900020E9F7CF01801B910B0E94DE
:104FA0003B3FF50191838083F70180819181FC0172
:104FB000E80DF91DB801808191810E949142B301F1
:104FC00080E090E00E946B428C01BE016E5F7F4FDB
:104FD000660F771FF701808191810E945C40F70185
:104FE00091838083892B51F05394C5CFC114D10490
:104FF00019F0C6010E944D04CE0102C08DEA9EED5B
:10500000DF91CF911F910F91FF90EF90DF90CF90A4
:10501000BF90AF909F908F907F906F905F9008951A
:105020000F931F93CF93DF93FC0101900020E9F7CA
:10503000E350E81323C08C01FC01C0818C2F0C2E9F
:10504000000C990B0E944D428134910524F0C75306
:10505000C295C07F01C0CF70F801D1818D2F0D2E78
:10506000000C990B0E944D42813491051CF089EC93
:105070008D0F02C08D2F8F708C2B01C080E0DF91CF
:10508000CF911F910F910895AF92BF92CF92DF926F
:10509000EF92FF920F931F93CF93DF931F92CDB7A1
:1050A000DEB75C016B0100E010E0F60184819581C0
:1050B0000817190780F4E080F180E00EF11EF70177
:1050C0008081082E000C990B0E944542F7018083D5
:1050D0000F5F1F4FEACF8E010F5F1F4F2FEF3FEF84
:1050E00040E050E0B601C5010E941932C5010F90A1
:1050F000DF91CF911F910F91FF90EF90DF90CF90B4
:10510000BF90AF900895AF92BF92CF92DF92EF928F
:10511000FF920F931F93CF93DF931F92CDB7DEB70C
:105120005C016B0100E010E0F601848195810817B5
:10513000190780F4E080F180E00EF11EF701808114
:10514000082E000C990B0E944D42F70180830F5FDF
:105150001F4FEACF8E010F5F1F4F2FEF3FEF40E051
:1051600050E0B601C5010E941932C5010F90DF91D0
:10517000CF911F910F91FF90EF90DF90CF90BF9054
:10518000AF900895CF93DF93EC01688179818C8192
:105190009D81860F971FAB014817590749F0FA0107
:1051A0002191AF012032C1F3FB012193BF01F4CF64
:1051B000CE010E944733688179818C819D81860F61
:1051C000971FAB014817590749F0FA012191AF0128
:1051D0002930C1F3FB012193BF01F4CFCE01DF9150
:1051E000CF910C944733CF92DF92EF92FF920F93BF
:1051F0001F93CF93DF931F92CDB7DEB76C017B0176
:10520000FB010081118184819581080F191F0150D4
:105210001109F801808180528F3580F0C8010E9409
:105220009331882359F0F70124813581C901019711
:105230008217930760F795838483E9CFC7010E94A3
:1052400079338E010F5F1F4F2FEF3FEF40E050E0AB
:10525000BC01C6010E941932C6010F90DF91CF91A7
:105260001F910F91FF90EF90DF90CF9008957F9264
:105270008F929F92AF92BF92CF92DF92EF92FF9266
:105280000F931F93CF93DF93CDB7DEB728970FB659
:10529000F894DEBF0FBECDBF6C015B01742EDC0144
:1052A00011961C921E9288E090E013969C938E9328
:1052B000129715961C921E92149788E390E00E9414
:1052C0004304F60191838083D50114968D919C91BE
:1052D000159700E010E08017910729F40FEF1FEFFA
:1052E000E12CF12C4BC0D501ED91FC91E00FF11FA9
:1052F00020817216A9F30F5F1F4FEDCF48018E1862
:105300009F088E159F0520F480E090E00E94652C98
:10531000D50114968D919C9115978E199F09A40122
:105320008815990508F4AC01F501608171816E0D55
:105330007F1D9E01285F3F4FCE0101960E94C23320
:10534000D60114966D917C9115976F5F7F4FAE01DA
:105350004F5F5F4FC6010E948632CE0101960E94C8
:10536000BB317801BFEFEB1AFB0AF501848195810F
:1053700087010817190758F00FEF1FEFF501848117
:1053800095810F3FFFEF1F0709F0B8CF0BC0D50184
:10539000ED91FC91E00FF11F2081721679F30F5F00
:1053A0001F4FE7CF8701009510958E159F0520F4BC
:1053B00080E090E00E94652CF501848195818E1932
:1053C0009F09A8018017910708F4AC01D5016D91E0
:1053D0007C916E0D7F1D9E01285F3F4FCE0101968F
:1053E0000E94C233F601648175816F5F7F4FAE0109
:1053F0004F5F5F4FC6010E948632CE0101960E9428
:10540000BB31C60128960FB6F894DEBF0FBECDBFE4
:10541000DF91CF911F910F91FF90EF90DF90CF9090
:10542000BF90AF909F908F907F9008950F931F93A0
:10543000CF93DF93EC01CB01088119817B836A83D1
:105440000E94430499838883D801CD01801B910B6E
:105450002C813D818217930750F4E881F981E80F90
:10546000F91F309711F08C9180831196EECFC8010F
:10547000DF91CF911F910F910C944504CF93DF934F
:10548000EC01198E188E88E090E09B8F8A8F1D8E1C
:105490001C8E0E944304998F888F198218821B8268
:1054A0001A821C821D821E821F82188619861A8605
:1054B0001B861D861F861E86198A188A1B8A1A8AD1
:1054C0001C8A1D8A1E8A1F8A1C86CE014F960E9446
:1054D0009212CE018C559F4FDF91CF910C94862272
:1054E000CF93DF93EC014F960E94EC12888D998D3B
:1054F000DF91CF910C94450408950F931F93CF93A0
:10550000DF93CDB7DEB727970FB6F894DEBF0FBE97
:10551000CDBF8C01FB014081518124813581240F55
:10552000351FFC01608D718D48960E94342E1A82C1
:10553000198288E090E09C838B831E821D820E94EA
:1055400043049A8389838B819C814F9730F46FE168
:1055500070E0CE0101960E94162AA981BA818FE1DE
:10556000F80101900D928A95E1F7BE016F5F7F4FC0
:10557000C8014F960E94FD1289819A810E944504BC
:1055800027960FB6F894DEBF0FBECDBFDF91CF9147
:105590001F910F91089514BC15BC16BC8FEF87BDE9
:1055A00084B5826084BD85B585BD82E080936E0040
:1055B000789481E08093B50408958091B5048111B9
:1055C00002C00E94CB2A1092B6041092B704109227
:1055D000B8041092B90485B5816085BD089585B57C
:1055E000887F85BD08956091B40470E080E090E00C
:1055F00008950895FC0120813181F901E60FF71F1C
:105600006081D901A40FB51F2C912083FC018081FA
:105610009181FC01E40FF51F608308954F925F9222
:105620006F927F928F929F92AF92BF92CF92DF92B2
:10563000EF92FF920F931F93CF93DF934C017B0167
:105640002B0156944794612C712C00E010E0F4017A
:1056500084819581B7010E941D3C06171707C8F485
:105660005701A60CB71C6501C0E0D0E0F1E0CF1AED
:10567000D108C415D50549F0BE01660D771DA601F8
:10568000C4010E94FA2A2196F1CF0F5F1F4F350106
:10569000DECFDF91CF911F910F91FF90EF90DF90C0
:1056A000CF90BF90AF909F908F907F906F905F90C2
:1056B0004F900895DC01A60FB71F2C91FC01E40F59
:1056C000F51F80818C93208308952F923F924F92F3
:1056D0005F926F927F928F929F92AF92BF92CF9282
:1056E000DF92EF92FF920F931F93CF93DF931C01F2
:1056F000CB012A01BA010E941D3C5B013201769464
:10570000679400E010E0E12CF12CEA14FB04D1F0E6
:105710004201800E911E6401C0E0D0E081E0C81A11
:10572000D108C615D70549F0BE01600F711FA6014B
:10573000C1010E945A2B2196F1CF8FEFE81AF80A87
:105740008401E3CFDF91CF911F910F91FF90EF90F4
:10575000DF90CF90BF90AF909F908F907F906F9091
:105760005F904F903F902F900895DC0120E030E053
:1057700014968D919C9115972817390758F4ED913F
:10578000FC911197E20FF31F9081929590832F5F08
:105790003F4FEECF08959F92AF92BF92CF92DF928C
:1057A000EF92FF920F931F93CF93DF93EC01962E0E
:1057B0007A0100E010E00E151F0509F446C08C8147
:1057C0009D816C012FEFC21AD20A8C159D05A8F598
:1057D0002A813B812C153D0510F5099628173907BC
:1057E000F0F4A880B9809B838A830E944304998344
:1057F0008883D501CD018A199B092C813D818217AF
:10580000930750F4E881F981E80FF91F309711F000
:105810008C9180831196EECFC5010E9445048C8146
:105820009D818C159D0560F4E881F981E80FF91FD1
:10583000309709F090820196F4CFC816D90610F47B
:10584000DD82CC820F5F1F4FB6CFDF91CF911F91CA
:105850000F91FF90EF90DF90CF90BF90AF909F900F
:105860000895DF92EF92FF920F931F93CF93DF93F0
:105870007C01D62EEA018901B9010E945C40FC013D
:105880008081F70180830C0F1D1FEC0FFD1FCF01DE
:105890008E199F098017910710F4D192F8CFDF91EC
:1058A000CF911F910F91FF90EF90DF900895089591
:1058B0009C0181E02617370728F44217530710F49C
:1058C00080E0089508950E9441410E9441410E9454
:1058D00041410E9441410E944141FC018FEF9FEFF5
:1058E000978386838FEF90E093878287958784875D
:1058F00097878687918B808B938B828B958B848BFC
:10590000978B868B918F808F938F828F958F848FCB
:105910000895E9E5F4E01182108213821282158263
:1059200014821782168211861086138612861586B7
:10593000148617861686118A108A138A128A158A87
:10594000148A178A168A118E108E138E128E158E57
:10595000148E178E168E11A210A213A212A215A2D7
:1059600014A217A216A211A610A6109299041092C2
:10597000980410929B0410929A0410929D04109225
:105980009C0410929F0410929E041092A104109205
:10599000A0041092A3041092A20487E0E6E9F2E0CA
:1059A000A1E2B4E001900D928A95E1F787E0EFE87B
:1059B000F2E0A8E2B4E001900D928A95E1F787E069
:1059C000E8E8F2E0AFE2B4E001900D928A95E1F7E9
:1059D00087E0E1E8F2E0A6E3B4E001900D928A9559
:1059E000E1F787E0E7E5F2E0ADE3B4E001900D9286
:1059F0008A95E1F787E0EEE5F2E0A4E4B4E00190F7
:105A00000D928A95E1F787E0E5E6F2E0ABE4B4E0D9
:105A100001900D928A95E1F787E0ECE6F2E0A2E5CD
:105A2000B4E001900D928A95E1F787E0EDE9F2E0AC
:105A3000A9EEB3E001900D928A95E1F787E0E4EAE0
:105A4000F2E0A0EFB3E001900D928A95E1F787E0D4
:105A5000EBEAF2E0A7EFB3E001900D928A95E1F74F
:105A600087E0E2EBF2E0AEEFB3E001900D928A95B1
:105A7000E1F787E0E9EBF2E0A5E0B4E001900D92F8
:105A80008A95E1F787E0E0ECF2E0ACE0B4E0019069
:105A90000D928A95E1F787E0E7ECF2E0A3E1B4E04C
:105AA00001900D928A95E1F787E0EEECF2E0AAE131
:105AB000B4E001900D928A95E1F787E0EAE7F2E021
:105AC000ABEDB3E001900D928A95E1F787E0E3E753
:105AD000F2E0A2EEB3E001900D928A95E1F783B176
