:100000000C94AB020C94DE120C9412130C94461355
:100010000C947A130C94AE130C94E1130C941F14EB
:100020000C9415140C9453110C94D2110C944D1281
:100030000C94DC020C94DC020C94DC020C94DC02C8
:100040000C94DC020C94DC020C94DC020C94DC02B8
:100050000C94DC020C949B150C94DC020C94DC02D6
:100060000C94BE280C9489220C94DC020C94DC02C3
:100070000C94DC020C94DC020C94DC020C94DC0288
:100080000C94DC020C94DC020C94DC020C94DC0278
:100090000C94F8220C94DC020C94DC020C94D30E29
:1000A0000C94DC020C94DC020C94DC020C94DC0258
:1000B0000C94DC020C94DC020C94DC020C94DC0248
:1000C0000C94DC020C94DC020C94DC020C9467238C
:1000D0000C94DC020C94DC020C94D6230C94DC020D
:1000E0000C94DC02084AD73B3BCE016E84BCBFFDBA
:1000F000C12F3D6C74319ABD56833DDA3D00C77FF8
:1001000011BED9E4BB4C3E916BAAAABE0000008090
:100110003F000C94E92E0C940A376E616E00696EF4
:10012000660000407A10F35A00A0724E18090010C1
:10013000A5D4E80000E87648170000E40B5402005C
:1001400000CA9A3B000000E1F50500008096980087
:10015000000040420F000000A086010000001027B0
:1001600000000000E8030000000064000000000040
:100170000A00000000000100000000002C76D88872
:10018000DC674F0823DFC1DFAE59E1B1B796E5E385
:10019000E453C63AE651997696E8E6C28426EB899E
:1001A0008C9B62ED407C6FFCEFBC9C9F40F2BAA53B
:1001B0006FA5F490055A2AF75C936B6CF9676DC1D3
:1001C0001BFCE0E40D47FEF520E6B500D0ED902ED7
:1001D0000300943577050080841E080000204E0A35
:1001E000000000C80C333333330F986E1283114173
:1001F000EF8D2114893BE65516CFFEE6DB18D1843E
:100200004B381BF77C1D901DA4BBE4242032847264
:100210005E228100C9F124ECA1E53D270A0AC8C885
:100220000A0AC8C80101010101010101010101011E
:1002300001010A0AC8C80A0AC8C80101010101016E
:1002400001010101010101012C000004002C000149
:1002500004002C0004002D2C0005002E32000500A7
:10026000212C0003002C00010300300001040031A8
:1002700000010500320001060029230004002823A4
:1002800000050024230006002523000700260301A3
:100290000107000301000700000101060000010042
:1002A00006002900030500290002050029000100BD
:1002B00000290000000020000000002000010000D4
:1002C00020000200002000030000200004000020A5
:1002D00000050000200006000020000700002600A6
:1002E0000700002600060000260005000026000486
:1002F0000000260003000026000200002600010086
:100300000026000000002900070000320002000063
:10031000320001000032000000000901070000095E
:100320000106000009010500360901040035090134
:100330000300340901020000090101000009010065
:10034000000023000300002300020000230001003E
:100350000023000000002F000080002F0001880013
:100360002F000290002F000398002F0004A0002F00
:100370000005A8002F0006B0002F0007B8000601F6
:1003800000C000060101C800060102D000060103FA
:10039000D800060104E000060105E800060106F0A9
:1003A00000060107F8002C000004002C00010400E6
:1003B0002C0004002D2C0005002E32000500212CFD
:1003C0000003002C00010300300001040031000193
:1003D000050032000106002923000400282300053F
:1003E000002423000600252300070026030101073F
:1003F00000030100070000010106000001000600E3
:100400002900030500290002050029000100002938
:10041000000000002000000000200001000020007B
:10042000020000200003000020000400002000055E
:100430000000200006000020000700002600070042
:10044000002600060000260005000026000400002B
:1004500026000300002600020000260001000026FE
:1004600000000000290007000032000200003200F6
:100470000100003200000000090107000009010628
:1004800000000901050036090104003509010300D7
:100490003409010200000901010000090100000007
:1004A00023000300002300020000230001000023BA
:1004B000000000002F000080002F000188002F00A6
:1004C0000290002F000398002F0004A0002F0005C9
:1004D000A8002F0006B0002F0007B800060100C0DA
:1004E00000060101C800060102D000060103D80081
:1004F000060104E000060105E800060106F000061A
:100500000107F8006364696E6F70737578585B65F6
:10051000666745464700616E006E66696E6974796C
:1005200000CDCCCC3D0AD7233C17B7D13877CC2BA4
:10053000329595E6241FB14F0A000020410000C803
:100540004200401C4620BCBE4CCA1B0E5AAEC59D84
:100550007400E92E0A3711241FBECFEFD1E2DEBFAF
:10056000CDBF00E00CBF14E0A0E0B2E0EEE1FEE899
:1005700000E00BBF02C007900D92A830B107D9F779
:1005800024E0A8E0B4E001C01D92AB3FB207E1F760
:1005900012E0CBEAD2E000E006C021970109802FEB
:1005A000FE010E94203FC93AD10780E00807A9F761
:1005B0000E9401310C940D470C94A315CF92DF9249
:1005C000EF92FF92CF9370E0682B722B20917A000C
:1005D000211106C020917A002068422B40937A00B6
:1005E00020917A0070937B0060937C0020917A00C8
:1005F000206420937A0020917A0026FDFCCF609140
:1006000078007091790071FD7C6F8E31910514F442
:10061000885001C08251E82FF0E0E45EFD4FC491A4
:10062000072E000C880B990B0E94B14020E030E4AB
:100630004CE955E40E946C416B017C016C2F70E029
:1006400080E090E00E94B14020E030E040E054E4DF
:100650000E946C419B01AC01C701B6010E9407409A
:100660000E94D9410E947940072E000C880B990BFB
:10067000CF91FF90EF90DF90CF9008950895089567
:10068000CF92DF92EF92FF920F931F93CF93DF935E
:10069000EC018B017A012A813B812617370798F5F7
:1006A000CB0108962817390770F5C880D9809B833D
:1006B0008A832AE0AC01249FC001259F900D11245C
:1006C0000E94430499838883960140E050E08C8126
:1006D0009D8148175907A0F4A881B981C9018C19D7
:1006E0009D09A80FB91F109731F08AE0F901019018
:1006F0000D928A95E1F74F5F5F4F265F3F4FE7CF3F
:10070000C6010E9445042C813D818AE0829FB00190
:10071000839F700D112440E050E020173107A0F4B2
:10072000A881B981CA01860F971FA80FB91F10971A
:1007300031F08AE0F70101900D928A95E1F72F5F81
:100740003F4F465F5F4FE9CF1D830C83DF91CF9111
:100750001F910F91FF90EF90DF90CF900895CF936E
:10076000DF93EC011982188288E090E09B838A83F2
:100770001D821C8280E590E00E9443049983888357
:10078000DF91CF910895EF92FF920F931F93CF9334
:10079000DF93CDB7DEB72A970FB6F894DEBF0FBE52
:1007A000CDBFE982FA820B831C832D833E834F8366
:1007B000588769877A87FC0124813581B9016F5F89
:1007C0007F4F2617370730F4AE014F5F5F4F0E940F
:1007D000400306C06217730718F4FC017583648335
:1007E0002A960FB6F894DEBF0FBECDBFDF91CF9132
:1007F0001F910F91FF90EF900895CF93DF93CDB7A6
:10080000DEB72C970FB6F894DEBF0FBECDBF3C8786
:100810002B8749835A836B837C8326E0FE013B96BA
:10082000DE01159601900D922A95E1F7FC012481D5
:100830003581B9016F5F7F4F2617370730F4AE015E
:100840004F5F5F4F0E94400306C06217730718F4A2
:10085000FC01758364832C960FB6F894DEBF0FBE3F
:10086000CDBFDF91CF910895FC0181E090E0208120
:10087000222311F080E090E0089521E0FC01208324
:100880000895089508950C942A420C94C24200974A
:1008900011F481E090E00C942A420C94C2420F9330
:1008A0001F93CF93DF93EC018B010E942C2E85E2E6
:1008B000F801DE0101900D928A95E1F7DF91CF9169
:1008C0001F910F910895FF920F931F93CF93DF9382
:1008D000CDB7DEB7A5970FB6F894DEBF0FBECDBF7C
:1008E0008C01F62E0E942C2E42E06F2DCE01019637
:1008F0000E947F1B85E2FE013196D80101900D9286
:100900008A95E1F7CE0101960E940C1BA5960FB6C1
:10091000F894DEBF0FBECDBFDF91CF911F910F9135
:10092000FF9008950F931F93CF93DF93EC018B01FA
:100930000E942C2E8AE2F801DE0101900D928A9528
:10094000E1F7DF91CF911F910F910895FC0187A1ED
:100950000895FC0185A108950F931F93CF93DF9312
:10096000EC0162E00E945E1BCE010E94361B61E03A
:10097000CE010E945E1B2FEF89EF90E02150804056
:100980009040E1F700C0000062E0CE010E945E1BD3
:1009900015E1CE010E948C1D882341F02AE02A95A2
:1009A000F1F700C01150A9F710E01BC00EE2CE0114
:1009B0000E948C1D182F811107C08AE08A95F1F7DB
:1009C00000C00150A1F7F0CF0EE2CE010E948C1DB5
:1009D000882339F09AE09A95F1F700C00150A9F701
:1009E000E3CF812FDF91CF911F910F9108952F9227
:1009F0003F924F925F926F927F928F929F92AF92AF
:100A0000BF92CF92DF92EF92FF920F931F93CF93FB
:100A1000DF93CDB7DEB727970FB6F894DEBF0FBED2
:100A2000CDBF8C018091F1049091F204892B41F5A6
:100A300086E191E00E944304FC01E95FFE4F28EC4F
:100A400030E031832083329629EC30E031832083FB
:100A500032962AEC30E03183208332962DEC30E060
:100A60003183208332962CEC30E031832083329620
:100A70002EEC30E0318320839093F2048093F104D4
:100A80002090F1043090F204CE0101964C0185E0F3
:100A9000F40111928A95E9F7C8010E94AC04811112
:100AA0000AC0FFEF27EA81E6F15020408040E1F7DD
:100AB00000C000009AC062E0C8010E945E1BFE01F7
:100AC0003696FF83EE8387E0A82EB12C0E94B22CCD
:100AD0002B013C01C8010E948C1D811116C00E948F
:100AE000B22C6B017C01C418D508E608F708D701C1
:100AF000C60184199509A609B7098A359105A1058A
:100B0000B10540F38FE093E019C00E94B22C2B0195
:100B10003C01C8010E948C1D8823D9F00E94B22C90
:100B20006B017C01C418D508E608F708FAE5CF1672
:100B3000D104E104F10468F380E293E09F938F9382
:100B40003F922F920E9451220F900F900F900F9082
:100B50004CC0FF92EF92DF92CF928DE293E09F9391
:100B60008F933F922F920E9451220FB6F894DEBFCE
:100B70000FBECDBF94E1C916D104E104F10460F0C9
:100B800081E090E00A2C01C0880F0A94EAF7809572
:100B9000F401908189238083F1E0AF1AB10808F055
:100BA00095CFF40181914F011F928F9384E393E0DD
:100BB0009F938F933F922F920E9451220F900F90FC
:100BC0000F900F900F900F908E819F81881699063D
:100BD00009F079CF8981F80185A38A8186A38B8169
:100BE00087A38C8180A78D8181A727960FB6F89463
:100BF000DEBF0FBECDBFDF91CF911F910F91FF9050
:100C0000EF90DF90CF90BF90AF909F908F907F90AC
:100C10006F905F904F903F902F900895FC0195A1A9
:100C200086A1980F87A1980F80A5980F81E021A534
:100C3000921380E008950F931F93CF93DF93EC01FD
:100C40008B0160E0888199810E94EE24602F888169
:100C500099810E944225612F888199810E944225B5
:100C600060E088819981DF91CF911F910F910C9461
:100C70000525FC01148613868FEF99E196878587F9
:100C800080E09AE1908B87878FEF9FE1928B818B39
:100C900008957F928F929F92AF92BF92CF92DF92F0
:100CA000EF92FF920F931F93CF93DF937C01EB01A1
:100CB0006A0160E0FC01838994890E94EE246AE362
:100CC000F701838994890E94422500E010E0F70132
:100CD0008389948960E00C151D0509F449C00E94C0
:100CE0004225782E8C819D815C01FFEFAF1ABF0AEF
:100CF0008A159B05A8F52A813B812A153B0510F52D
:100D0000099628173907F0F4888099809B838A8395
:100D10000E94430499838883D401CD0188199909DD
:100D20002C813D818217930750F4E881F981E80F07
:100D3000F91F309711F08C9180831196EECFC4018A
:100D40000E9445048C819D818A159B0560F4E88191
:100D5000F981E80FF91F309709F070820196F4CFFE
:100D6000A816B90610F4BD82AC820F5F1F4FAFCF3B
:100D7000DF91CF911F910F91FF90EF90DF90CF9077
:100D8000BF90AF909F908F907F900C940525EF922D
:100D9000FF920F931F93CF93DF938C017B0160E051
:100DA000DC0153968D919C9154970E94EE246AE742
:100DB000F801838994890E944225C0E0D0E0D701E0
:100DC00014962D913C911597F80183899489C21747
:100DD000D30748F4ED91FC91EC0FFD1F60810E9458
:100DE00042252196ECCF60E0DF91CF911F910F91CA
:100DF000FF90EF900C940525CF92DF92EF92FF9237
:100E00000F931F93CF93DF937C016B018A0160E006
:100E1000FC01838994890E94EE246AE7F7018389A3
:100E200094890E944225E6010C0D1D1DF70183895E
:100E30009489C017D10721F069910E944225F6CF0D
:100E400060E0DF91CF911F910F91FF90EF90DF90C5
:100E5000CF900C940525FB01448155810C944906E3
:100E6000CF92DF92EF92FF920F931F93CF93DF9376
:100E70007C01162FD42EC22E8AE790E00E944304F4
:100E8000EC012C2D4D2D612F0E94BC25F701D48B38
:100E9000C38BDF91CF911F910F91FF90EF90DF9067
:100EA000CF900895EC016FEF70E043960E941B060F
:100EB0006DE1CE010E94482EFBCFEC018B899C890D
:100EC0000E94AE25811107C005E324E343E362E3FA
:100ED000CE010E943007CE010E945207AB0164E1AF
:100EE00070E00C94832E0C94832E0F931F93CF935A
:100EF000DF93EC018B0163E00E947C2E61E0CE0168
:100F00000E94482EF801808360E0CE010E94482EA6
:100F1000F801818363E0CE010E94482EF8018283AC
:100F200062E0CE010E94482EF801838365E0CE0185
:100F30000E94482EF801848364E0CE010E94482E6E
:100F4000F8018583DF91CF911F910F910895CF9381
:100F5000DF93EC0162E00E947C2E8F81811102C040
:100F600041E001C04DE060E0CE01DF91CF910C94F3
:100F7000712ECF93DF93EC0162E00E947C2E8F8173
:100F8000811102C041E301C043E362E0CE01DF9181
:100F9000CF910C94712ECF93DF93EC0162E00E940D
:100FA0007C2E63966AE47EEECE010E941B066BE403
:100FB00075E0CE010E941B06DF91CF910895CF937B
:100FC000DF93EC0163E00E947C2E62E1CE01DF91B1
:100FD000CF910C94482ECF92DF92EF92FF920F9315
:100FE0001F93CF93DF93EC017B018A0160E00E94A5
:100FF0007C2E6E0183E1C80ED11C6FE1CE010E94F0
:10100000482E83FF11C06CE1CE010E94482E81FF63
:10101000F4CF6FE977E0C6010E941B066FEB77E023
:10102000C6010E941B06E9CF60E0CE010E947C2E23
:101030004F8562E0CE010E94712E488963E0CE01A7
:101040000E94712E4F85400F66E0CE010E94712EE6
:101050008F859889800F911F492F67E0CE010E94EC
:10106000712EA801B701CE010E94FC066FE977E05E
:10107000CE0143960E941B06DF91CF911F910F91E5
:10108000FF90EF90DF90CF9008950F931F93CF9331
:10109000DF93EC018B0160E00E947C2E01151105AD
:1010A00011F01E870D874C8569E0CE010E94712EDC
:1010B0004D8568E0CE010E94712E4E856BE0CE0119
:1010C0000E94712E4D856AE0CE01DF91CF911F9174
:1010D0000F910C94712E0F931F93CF93DF938C017C
:1010E00060E00E947C2E6BE0C8010E94482EC82F51
:1010F000D0E0DC2FCC276AE0C8010E94482E9E0178
:10110000282BC901DF91CF911F910F9108950F9363
:101110001F93CF93DF93EC018B0160E00E947C2E44
:101120008D859E850196988B8F870115110539F065
:10113000080F191F1A8B098B0115104220F02FEF91
:101140003FE13A8B298B492F65E0CE010E94712E39
:10115000498964E0CE010E94712E4A8967E0CE0180
:101160000E94712E498966E0CE01DF91CF911F91D7
:101170000F910C94712E0F931F93CF93DF938C01DB
:1011800060E00E947C2E67E0C8010E94482EC82FB4
:10119000D0E0DC2FCC2766E0C8010E94482E9E01DB
:1011A000282BC901DF91CF911F910F9108950F93C3
:1011B0001F93CF93DF938C0160E00E947C2E6FE041
:1011C000C8010E94482EC82FD0E0DC2FCC276EE04B
:1011D000C8010E94482E9E01282BC901DF91CF91A2
:1011E0001F910F91089561E170E00E94AA2E9C0169
:1011F0002A70332781E0232B09F480E0089561E110
:1012000070E00E94AA2E9C012970332781E0232BD5
:1012100009F480E0089561E170E00E94AA2E9C012B
:101220002570332781E0232B09F480E0089561E1E4
:1012300070E00E94AA2E9C012C70332781E0232BA2
:1012400009F480E0089561E170E00E94AA2E9C01FB
:101250002D70332781E0232B09F480E0089561E1AC
:1012600070E00E94AA2E9C012B70332781E0232B73
:1012700009F480E008950C94AA2E0F931F93CF9346
:10128000DF93EC018B0163E00E947C2EF80140812A
:1012900061E0CE010E94712EF801418160E0CE0133
:1012A0000E94712EF801428163E0CE010E94712EEE
:1012B000F801438162E0CE010E94712EF801448161
:1012C00065E0CE010E94712EF801458164E0CE01F7
:1012D000DF91CF911F910F910C94712E0C943D09C9
:1012E000CF93DF9300D000D0CDB7DEB729833A8308
:1012F0004B835C836D837E83BE016F5F7F4F0E9453
:101300003D0926960FB6F894DEBF0FBECDBFDF9124
:10131000CF9108950F931F93CF93DF9300D000D008
:10132000CDB7DEB78C01CB010E942B1929833A83FC
:101330004B835C836D837E83BE016F5F7F4FC801EB
:101340000E943D0926960FB6F894DEBF0FBECDBFB2
:10135000DF91CF911F910F910895FB016081718101
:101360000C943D090F931F93CF93DF93EC01CB01B6
:10137000088119817B836A830E944304998388834F
:10138000D801CD01801B910B2C813D8182179307E1
:1013900050F4E881F981E80FF91F309711F08C9132
:1013A00080831196EECFC801DF91CF911F910F91ED
:1013B0000C944504CF92DF92EF92FF920F931F930C
:1013C000CF93DF93CDB7DEB7A4970FB6F894DEBF07
:1013D0000FBECDBF8C0186E0FE017396DE0117962D
:1013E00001900D928A95E1F786E0FE013D96DE01BF
:1013F000119601900D928A95E1F787E0ECEDF2E00D
:10140000D80101900D928A95E1F785EDF82EF8014B
:10141000F782178A168A98E0C92ED12CD18EC08EF9
:10142000138E128E88E090E00E944304F801978B9F
:10143000868B86E0FE013796D801189601900D92B2
:101440008A95E1F786E0FE013196D8011E9601905B
:101450000D928A95E1F7F801158A148A158E168E79
:10146000178E10A286E0FE017F96DE015396019052
:101470000D928A95E1F786E0FE017996DE011D96D0
:1014800001900D928A95E1F787E0ECEDF2E0D8014A
:101490009D9601900D928A95E1F7F801F4AA7801E2
:1014A000F7E4EF0EF11CF70111821082D382C282A1
:1014B0001582148288E090E00E944304F701918332
:1014C000808386E0FE017396D801D59601900D9237
:1014D0008A95E1F786E0FE013D96D801DB96019002
:1014E0000D928A95E1F7F801EF5BFF4F10821182B0
:1014F00012821382349611821082399610821182E0
:1015000012821382A4960FB6F894DEBF0FBECDBF31
:10151000DF91CF911F910F91FF90EF90DF90CF90CF
:101520000895CF92DF92EF92FF920F931F93CF9384
:10153000DF93CDB7DEB727970FB6F894DEBF0FBEA7
:10154000CDBFDB0114962D913C9115972E52310998
:101550002F3A354010F080E0D8C07B018C0180919B
:10156000EF049091F004892B41F586E191E00E940F
:101570004304FC01E95FFE4F20EC30E0318320831F
:10158000329621EC30E031832083329622EC30E039
:1015900031832083329625EC30E0318320833296EC
:1015A00024EC30E031832083329626EC30E0318326
:1015B00020839093F0048093EF04D090EF04C090C8
:1015C000F004C8014696E816F90609F469C0F70167
:1015D00064817581D80158962D913C9159972617B1
:1015E000370710F40E94B209F70184819581D80170
:1015F0005A962D913C915B978217930708F49C01B2
:1016000080E090E02817390781F0D701ED91FC9137
:10161000E80FF91F4081D8015696ED91FC9157973C
:10162000E80FF91F40830196EDCFF801828D938D6D
:10163000D70114962D913C9115978217930708F5C1
:10164000F7012481358182179307D8F4A081B181F5
:10165000A80FB91FF80126893789F901E80FF91F8A
:10166000309711F02C912083D8015A962D913C91FE
:101670005B972F5F3F4F5B963C932E935A97019653
:10168000DFCFF70184819581D8015A962D913C9145
:101690005B978217930720F45B969C938E935A97DF
:1016A0001A82198288E090E09C838B831E821D82BF
:1016B0000E9443049A8389838B819C818D9730F4A7
:1016C0006DE270E0CE0101960E94B209A981BA8153
:1016D0008DE2F80101900D928A95E1F78E818F934A
:1016E0008D818F9389E393E09F938F93CF92DF92C5
:1016F0000E94512289819A810E9445040F900F9087
:101700000F900F900F900F9081E027960FB6F894EE
:10171000DEBF0FBECDBFDF91CF911F910F91FF9024
:10172000EF90DF90CF90089508950F931F93CF937C
:10173000DF93EC01062F142F0E94A30C1D8684E07A
:101740008E8781E08F87198A188A1A8A0B871C87EF
:10175000DF91CF911F910F9108951F93CF93DF9346
:10176000EC018D8540E2849F900111249E8544E028
:10177000949FC0011124822B1A89182B6B85CE01EE
:101780000E94AA0C60E0CE010E94D00C612FCE0115
:101790000E94D00CCE010E94CC0C6B85CE010E9421
:1017A000AA0C61E0CE010E94D00C6F856295660F95
:1017B000607ECE010E94D00CCE010E94CC0C6B85C5
:1017C000CE010E94AA0C62E0CE010E94D00C688972
:1017D000CE010E94D00CCE01DF91CF911F910C94CD
:1017E000CC0CCF93DF93EC01862F6D85962F9F79DC
:1017F00020E2829FB0011124692B6D876B85CE0199
:101800000E94AA0C60E0CE010E94D00C6D85CE0132
:101810000E94D00CCE01DF91CF910C94CC0CFC0136
:10182000858508950895FC01868508950895FC0135
:10183000878508950895FC01808991890895089508
:10184000FC01828908958F929F92AF92BF92EF928E
:10185000FF920F931F93CF93DF9300D000D0CDB7AB
:10186000DEB77C0106E010E09E012F5F3F4F43E0B2
:10187000FC0163850E94750E69817A81762767274E
:101880007627F701728361838B819C819827892752
:101890009827968385830D811E81102701271027A5
:1018A00014830383072E000C880B990B0E94B14010
:1018B0004B015C01B801110F880B990B0E94B140DC
:1018C000A50194010E94A83F20E030E044E353E4E6
:1018D0000E946C412BED3FE049E450E40E94074038
:1018E00020E030E044E353E40E94293FF70167839E
:1018F00070878187928726960FB6F894DEBF0FBE59
:10190000CDBFDF91CF911F910F91FF90EF90BF90CE
:10191000AF909F908F9008950F931F93CF93DF9375
:10192000EC018B01CB010E94230C8AE0F801319677
:10193000DE0101900D928A95E1F7CE01DF91CF9102
:101940001F910F91089508956093B8000895109223
:10195000B80008951092BC0084EA8093BC00809186
:10196000BC0087FFFCCF8091B900887F883011F0E0
:1019700081E008956093BB0084E88093BC0080916F
:10198000BC0087FFFCCF8091B900887F883111F0BF
:10199000803471F780E0089584E98093BC00089555
:1019A0006093BB0084E88093BC008091BC0087FFFB
:1019B000FCCF9091B900987F81E0983209F480E0E3
:1019C0000895CF92DF92EF92FF921F93CF93DF9310
:1019D0006C01EB017B01E40EF51E11E0CE15DF0575
:1019E00031F06991C6010E94D00C1823F7CF812FE6
:1019F000DF91CF911F91FF90EF90DF90CF900895EE
:101A0000BF92CF92DF92EF92FF920F931F93CF93EB
:101A1000DF936C01B42E052F79010E94AA0C182FB8
:101A2000882311F011E011C0CB2DD02FEC0EFD1E3C
:101A3000CE15DF0539F06991C6010E94D00C8823CC
:101A4000B9F3F0CF84E98093BC00812FDF91CF916F
:101A50001F910F91FF90EF90DF90CF90BF9008956E
:101A6000AF92BF92CF92DF92EF92FF920F931F93AC
:101A7000CF93DF937C01C42F590168010E94AA0C07
:101A8000182F882311F011E014C06C2FC7010E9499
:101A9000D00CE501CA0CDB1CCC15DD0539F06991D1
:101AA000C7010E94D00C8823B9F3EDCF84E980935D
:101AB000BC00812FDF91CF911F910F91FF90EF908C
:101AC000DF90CF90BF90AF900895CF92DF92EF92CA
:101AD000FF920F931F93CF93DF931F921F92CDB767
:101AE000DEB76C0119821A82E12CF12C00E010E0C3
:101AF000602FC6010E94AA0C81111AC0E1E0F0E03B
:101B0000EC0FFD1FEE0DFF1D0083EA94EF2869F432
:101B10009A8189810F900F90DF91CF911F910F9142
:101B2000FF90EF90DF90CF900895EE24E394F12C96
:101B30000F5F1F4F011581E01807D1F6E9CFAF9273
:101B4000BF92CF92DF92EF92FF920F931F93CF93AA
:101B5000DF931F921F92CDB7DEB78C016B01DC01C2
:101B600013961C921E92129780E090E00E942A42E7
:101B7000F8019183808319821A82A12CB12CE12C67
:101B8000F12C6E2DC6010E94AA0C811134C0E1E037
:101B9000F0E0EC0FFD1FEA0DFB1DE082AA94AB28DC
:101BA00039F5D8018D919C910097F9F0A980BA8000
:101BB000F801628173816F5F7F4F73836283660F69
:101BC000771F0E944B43D80111969C938E930097E8
:101BD00061F01296ED91FC911397E150F048EE0FF1
:101BE000FF1FE80FF91FA082B182A12CB12C03C006
:101BF000AA24A394B12CBFEFEB1AFB0AE114E1E095
:101C0000FE0609F0BECFC8010F900F90DF91CF9173
:101C10001F910F91FF90EF90DF90CF90BF90AF900A
:101C2000089584EC8093BC008091BC0087FFFCCFBA
:101C30008091BB00089584E88093BC008091BC0033
:101C400087FFFCCF8091BB000895CF93DF93EC0119
:101C500061600E94AA0C811107C0CE010E941B0E78
:101C600094E99093BC0001C080E0DF91CF9108958A
:101C70008F929F92AF92BF92CF92DF92FF920F937B
:101C80001F93CF93DF936C015A01890161600E9419
:101C9000AA0CF82E81111AC04501E8012197C40150
:101CA0008A199B098C179D0738F4C6010E94110EF2
:101CB000F40181934F01F3CFCA0DDB1DC6010E94D1
:101CC0001B0E888384E98093BC0002C0FF24F39438
:101CD0008F2DDF91CF911F910F91FF90DF90CF90CB
:101CE000BF90AF909F908F900895AF92BF92CF9288
:101CF000DF92FF920F931F93CF93DF93EC01F62EA9
:101D0000B42E69010E94AA0C882319F0FF24F394D1
:101D100026C06B2DCE010E94D00C6F2D6160CE01CC
:101D20000E94AA0CF82E8111F1CF56010150110921
:101D3000C5018C199D098017910738F4CE010E94C6
:101D4000110EF50181935F01F3CF0C0D1D1DCE0126
:101D50000E941B0EF801808384E98093BC008F2DC4
:101D6000DF91CF911F910F91FF90DF90CF90BF90A7
:101D7000AF90089590930B0480930A047093090424
:101D8000609308040895F894880F8093BA0085EC56
:101D90008093BC0078940895F8941092BC0010923F
:101DA000BA00789408951F920F920FB60F921124E3
:101DB0000BB60F922F933F934F935F936F937F9345
:101DC0008F939F93AF93BF93EF93FF938091B9004D
:101DD000887F803859F028F4811115C01092BC001A
:101DE00012C0883A59F0883B49F00DC08091BB0081
:101DF000E0910A04F0910B04199505C0E0910804E4
:101E0000F0910904199585EC8093BC00FF91EF9146
:101E1000BF91AF919F918F917F916F915F914F9102
:101E20003F912F910F900BBE0F900FBE0F901F9000
:101E30001895CF93DF93EB01DA0190912102981767
:101E400009F48EC0891760F090912C02891302C0AA
:101E5000E4E001C0EFEF90913702891312C014C083
:101E600090911602891302C0E2E001C0EFEF909159
:101E70000B02891301C0E1E090910002891709F477
:101E800071C0EF3F11F42DC0E5E08BE0E89FF00159
:101E90001124E050FE4F818111968C93119784811B
:101EA000958115969C938E931497868116968C93A4
:101EB0001697878117968C931797808518968C9321
:101EC0001897818519968C93199782851A968C9309
:101ED0001A978281938113969C938E93129782E036
:101EE00043C090918802891721F1891728F0AFE843
:101EF000B2E0EFEF9AE014C0EFEF9AE027E09150E4
:101F0000299FD0011124AE5BBD4F3C91831301C0CA
:101F1000E92F9111F4CF0AC02C91821729F017965E
:101F20009F5F9531C9F702C0E92FF9CFEF3F11F458
:101F300015C0EAE087E0E89FF0011124EE5BFD4F59
:101F40008181898382818A83858196819E838D8325
:101F5000838194819C838B8381E006C080E004C0F0
:101F6000E3E093CFE0E091CFDF91CF910895CF925E
:101F7000DF92FF920F931F93CF93DF93CDB7DEB71E
:101F800062970FB6F894DEBF0FBECDBF182F062F95
:101F90006A01AE014F5F5F4FBE01645F7F4F0E94D9
:101FA000190F813021F0823009F447C078C08D8547
:101FB000813049F1A8F08230C1F5809168008460D9
:101FC0008093680020916D0081E090E00E8402C053
:101FD000880F991F0A94E2F7822B80936D0025C029
:101FE0008091680081608093680020916B0081E09F
:101FF00090E00E8402C0880F991F0A94E2F7822BAA
:1020000080936B0012C080916800826080936800AA
:1020100020916C0081E090E00E8402C0880F991F2F
:102020000A94E2F7822B80936C00EF85F889D182C5
:10203000C082E989FA89008330C0F894013049F000
:1020400020F0023021F0053029F4F88403C0F9842F
:1020500001C0FA848A81882341F0813059F480914B
:102060006A008F2980936A0005C0809169008F29DA
:10207000809369002DB381E090E00B8402C0880F4B
:10208000991F0A94E2F7822B8DBBEB81FC81D182F0
:10209000C082ED81FE81F082789481E01CC0043022
:1020A000C9F425E0129FC0011124FC01E65BFD4F3D
:1020B0002491FC01E85BFD4FA591B49112963C91EF
:1020C000129781E090E001C0880F2A95EAF7832BF0
:1020D00012968C9380E062960FB6F894DEBF0FBE26
:1020E000CDBFDF91CF911F910F91FF90DF90CF90E7
:1020F0000895CF93DF93CDB7DEB762970FB6F8940C
:10210000DEBF0FBECDBFAE014F5F5F4FBE01645F4C
:102110007F4F0E94190F813019F08230C9F153C0EE
:102120008D85813029F198F0823091F520916D00F4
:1021300081E090E00E8402C0880F991F0A94E2F7B4
:102140008095822380936D0080916D0021C0209145
:102150006B0081E090E00E8402C0880F991F0A9402
:10216000E2F78095822380936B0080916B0010C012
:1021700020916C0081E090E00E8402C0880F991FCE
:102180000A94E2F78095822380936C0080916C0022
:102190009DB321E030E0A9010B8402C0440F551F1C
:1021A0000A94E2F7842F809589238DBB8DB30B842D
:1021B00002C0220F331F0A94E2F790E0282339234C
:1021C00081E0232B09F080E062960FB6F894DEBF21
:1021D0000FBECDBFDF91CF910895EF920F93CF93B4
:1021E000DF931F92CDB7DEB7FC01DA01922F802F6B
:1021F000E982633061F128F4613049F0623089F09E
:102200004CC0643071F1653009F441C046C02C9176
:1022100030E002C0359527959A95E2F720FF3DC042
:1022200036C06C9121E030E0092E02C0220F331F2E
:102230000A94E2F770E0A901462357239A0102C0ED
:10224000359527959A95E2F7232B39F520C02C91E7
:1022500030E002C0359527959A95E2F720FF17C028
:1022600015C06C9121E030E0092E02C0220F331F0F
:102270000A94E2F770E0A901462357239A0102C0AD
:10228000359527959A95E2F7232B09F499810F90BC
:10229000DF91CF910F91EF9019940F90DF91CF9133
:1022A0000F91EF9008951F920F920FB60F92112485
:1022B0000BB60F92EF920F932F933F934F935F9331
:1022C0006F937F938F939F93AF93BF93EF93FF93FE
:1022D000CF93DF931F92CDB7DEB793B180910E04F9
:1022E0008927898383B180930E0420E030E08981BF
:1022F00090E0022E02C0959587950A94E2F780FF40
:1023000033C067E0629FD001639FB00D1124AB5AC8
:10231000BB4F1396ED91FC91149780819181409170
:10232000450250914602E41BF50BF595E7956E9F2B
:10233000A0016F9F500D1124FA01EE5BFD4F00814B
:1023400045E0049FF0011124E85BFD4F4591549155
:102350001596ED91FC9116976081009759F0E090E9
:102360000E040E94ED1006C02F5F3F4F283031054C
:1023700009F0BDCF0F90DF91CF91FF91EF91BF9109
:10238000AF919F918F917F916F915F914F913F910D
:102390002F910F91EF900F900BBE0F900FBE0F90EB
:1023A0001F9018951F920F920FB60F9211240BB623
:1023B0000F92EF920F932F933F934F935F936F93EF
:1023C0007F938F939F93AF93BF93EF93FF93CF939D
:1023D000DF931F92CDB7DEB79091030180910D047A
:1023E000892789838091030180930D04898180FD71
:1023F00007C0898181FF39C081E090E021E003C0FE
:1024000080E090E020E037E0389FD001399FB00DA8
:102410001124A15FBB4F1396ED91FC91149780811D
:1024200091814091450250914602E41BF50BF595D0
:10243000E7953E9FA0013F9F500D1124FA01EE5BEE
:10244000FD4F008135E0039FF0011124E85BFD4F53
:10245000459154911596ED91FC91169760810097E6
:1024600021F0E0900D040E94ED100F90DF91CF91CC
:10247000FF91EF91BF91AF919F918F917F916F915C
:102480005F914F913F912F910F91EF900F900BBE65
:102490000F900FBE0F901F9018951F920F920FB6BE
:1024A0000F9211240BB60F92AF92BF92CF92DF9290
:1024B000EF92FF920F931F932F933F934F935F934E
:1024C0006F937F938F939F93AF93BF93EF93FF93FC
:1024D000CF93DF931F92CDB7DEB790910601809125
:1024E0000C04892789838091060180930C043DE1C7
:1024F000A32E34E0B32EC12CD12C17E045E0F42EEE
:10250000898190E00C2C02C0959587950A94E2F79A
:1025100080FF2BC0D5011396ED91FC91149780811B
:1025200091812091450230914602E21BF30BF59513
:10253000E7951E9F90011F9F300D1124F901EE5B5E
:10254000FD4F0081F09EF0011124E85BFD4F4591A5
:102550005491009751F0E0900C041596ED91FC9188
:1025600016972C2D60810E94ED10BFEFCB1ADB0A6D
:1025700087E0A80EB11CA8E0CA16D10409F0C0CFAC
:102580000F90DF91CF91FF91EF91BF91AF919F910C
:102590008F917F916F915F914F913F912F911F91FB
:1025A0000F91FF90EF90DF90CF90BF90AF900F9082
:1025B0000BBE0F900FBE0F901F9018951F920F9299
:1025C0000FB60F9211240BB60F922F933F934F9398
:1025D0005F936F937F938F939F93AF93BF93EF938B
:1025E000FF93F894A0E0B2E0D996ED91FC91DA97D0
:1025F0000190F081E02DD7968C9119957894FF91F8
:10260000EF91BF91AF919F918F917F916F915F916A
:102610004F913F912F910F900BBE0F900FBE0F90D7
:102620001F9018951F920F920FB60F9211240BB6A0
:102630000F922F933F934F935F936F937F938F935B
:102640009F93AF93BF93EF93FF93F894A0E0B2E012
:102650009E96ED91FC919F970190F081E02D9C96C4
:102660008C9119957894FF91EF91BF91AF919F91C3
:102670008F917F916F915F914F913F912F910F902B
:102680000BBE0F900FBE0F901F9018951F920F92C8
:102690000FB60F9211240BB60F922F933F934F93C7
:1026A0005F936F937F938F939F93AF93BF93EF93BA
:1026B000FF93F894A0E0B2E09396ED91FC9194978B
:1026C0000190F081E02D91968C9119957894FF916D
:1026D000EF91BF91AF919F918F917F916F915F919A
:1026E0004F913F912F910F900BBE0F900FBE0F9007
:1026F0001F9018951F920F920FB60F9211240BB6D0
:102700000F922F933F934F935F936F937F938F938A
:102710009F93AF93BF93EF93FF93F894A0E0B2E041
:102720005896ED91FC9159970190F081E02D5696C5
:102730008C9119957894FF91EF91BF91AF919F91F2
:102740008F917F916F915F914F913F912F910F905A
:102750000BBE0F900FBE0F901F9018951F920F92F7
:102760000FB60F9211240BB60F922F933F934F93F6
:102770005F936F937F938F939F93AF93BF93EF93E9
:10278000FF93F894A0E0B2E01296ED91FC911397BC
:102790000190F081E02D8C9119957894FF91EF9143
:1027A000BF91AF919F918F917F916F915F914F9169
:1027B0003F912F910F900BBE0F900FBE0F901F9067
:1027C00018951F920F920FB60F9211240BB60F920D
:1027D0002F933F934F935F936F937F938F939F9329
:1027E000AF93BF93EF93FF93F894A0E0B2E01D96F0
:1027F000ED91FC911E970190F081E02D1B968C913C
:1028000019957894FF91EF91BF91AF919F918F911E
:102810007F916F915F914F913F912F910F900BBEE0
:102820000F900FBE0F901F9018951F920F920FB62A
:102830000F9211240F900FBE0F901F9018951F92AA
:102840000F920FB60F9211240F900FBE0F901F9092
:1028500018950F931F93CF93DF93EC01CB01088161
:1028600019817B836A830E94430499838883D801FA
:10287000CD01801B910B2C813D818217930750F471
:10288000E881F981E80FF91F309711F08C9180836E
:102890001196EECFC801DF91CF911F910F910C944B
:1028A0004504CF93DF93EC0119A218A288E090E0D1
:1028B0009BA38AA31DA21CA20E94430499A388A3E0
:1028C000CE018796DF91CF910C94DA090895CF93CA
:1028D000DF93FB014081518162817381FC01448B54
:1028E000558B668B778B2091D5022223E1F0EC018A
:1028F00080E00E94DB2F2F892F932E892F932D8923
:102900002F932C892F9325E433E03F932F939F93AC
:102910008F930E9451228DB79EB708960FB6F894F8
:102920009EBF0FBE8DBFDF91CF910895FB01408107
:10293000518162817381FC01408F518F628F738F4F
:102940000895FC01878590E00895FB012081FC013A
:10295000278708950895CF93DF93EC0182599F4F05
:102960000E948F30CE01CD960E948F30CE0180968E
:10297000DF91CF910C948F30EF92FF920F931F93C2
:10298000CF93DF93CDB7DEB727970FB6F894DEBFAE
:102990000FBECDBF8C017B018091D5028823A1F0B1
:1029A00080E00E94DB2F1F9223E22F932EE433E07E
:1029B0003F932F939F938F930E9451220F900F90DC
:1029C0000F900F900F900F908091D5028823A1F067
:1029D00080E00E94DB2F1F9223E22F9321E633E059
:1029E0003F932F939F938F930E9451220F900F90AC
:1029F0000F900F900F900F908091D5028823B1F027
:102A000080E00E94DB2FF70121812F9320812F93FB
:102A100021E733E03F932F939F938F930E9451229E
:102A20000F900F900F900F900F900F90F701408133
:102A3000518124813581240F351FF80160A171A1D6
:102A4000C80180960E9494308091D5028823A1F01D
:102A500080E00E94DB2F1F9223E22F9323E833E0D4
:102A60003F932F939F938F930E9451220F900F902B
:102A70000F900F900F900F901A82198288E090E0CB
:102A80009C838B831E821D820E9443049A838983C8
:102A90008B819C81839730F463E270E0CE010196D4
:102AA0000E94291483E2F8013496DE011196019008
:102AB0000D928A95E1F78091D5028823B1F080E0EC
:102AC0000E94DB2FF80125A12F9324A12F9324E945
:102AD00033E03F932F939F938F930E9451220F9047
:102AE0000F900F900F900F900F90BE016F5F7F4F70
:102AF000C80187960E94910ACE0101960E948F30EC
:102B000027960FB6F894DEBF0FBECDBFDF91CF91F1
:102B10001F910F91FF90EF900895F8948091E60433
:102B2000982F789456B552955F70907F92958F70DC
:102B30008295850F08958F938091E6048395809305
:102B4000E6048F911895000018950F931F93CF936B
:102B5000DF93EC018B010E94A30C1C821B821E825E
:102B60001D8218861F821A8619861C861B861E8661
:102B70001D86188A1F86198A1A8A1A830983DF918B
:102B8000CF911F910F9108950F931F93CF93DF93D0
:102B9000EC01062F142F0E94A30C1C821B821E82A4
:102BA0001D8218861F821A8619861C861B861E8621
:102BB0001D86188A1F86198A1A8A09831A83DF914B
:102BC000CF911F910F910895CF93DF93EC0169810D
:102BD0000E94AA0C6BE6CE010E94D00C60E0CE01F0
:102BE0000E94D00CCE01DF91CF910C94CC0CCF93EE
:102BF000DF93EC0169810E94AA0C6BE6CE010E9472
:102C0000D00C6A81CE010E94250E682F6064CE012F
:102C10000E94D00CCE01DF91CF910C94CC0C0F937D
:102C20001F93CF93DF938C01EB016981CE010E944A
:102C3000AA0C6BE3CE010E94D00C6A81CE010E94E7
:102C4000AA0CCE010E94110E8C83CE010E94110E9F
:102C50008B83CE010E94110E8E83CE010E94110E35
:102C60008D83CE010E94110E8887CE010E94110E25
:102C70008F83CE010E94110E8A87CE010E94110E11
:102C80008987CE010E94110E8C87CE010E94110E01
:102C90008B87CE010E94110E8E87CE010E94110EED
:102CA0008D87CE010E94110E888BCE010E941B0ED3
:102CB0008F878EE0FE013396D80101900D928A95A0
:102CC000E1F7C801DF91CF911F910F910895DF9235
:102CD000EF92FF920F931F93CF93DF93CDB7DEB7A1
:102CE0002E970FB6F894DEBF0FBECDBF8C017B01CF
:102CF000D42ECE0101960E940F16F70163817481D4
:102D0000072E000C880B990B0E94B14020E030E0A8
:102D100040E858E30E946C41F8016083718382832C
:102D20009383F70165817681072E000C880B990B40
:102D30000E94B14020E030E040E858E30E946C413E
:102D4000F8016483758386839783F70167817085B3
:102D5000072E000C880B990B0E94B14020E030E058
:102D600040E858E30E946C41F801608771878287D0
:102D70009387F70163857485072E000C880B990BE8
:102D80000E94B1402DEC3CEC4CE152E40E946C41BD
:102D900020E03FEF4FE757E40E940740F801608BC7
:102DA000718B828B938BF70165857685072E000CDE
:102DB000880B990B0E94B1402DEC3CEC4CE152E4A5
:102DC0000E946C4120E03FEF4FE757E40E9407402C
:102DD000F801648B758B868B978BF70167857089FB
:102DE000072E000C880B990B0E94B1402DEC3CEC97
:102DF0004CE152E40E946C4120E03FEF4FE757E482
:102E00000E940740F801608F718F828F938FF701C6
:102E100061857285072E000C880B990B0E94B140CA
:102E200020E030E04AEA53E40E94074028EB3EE10C
:102E300042E152E40E94293FF1E0DF1651F0DF1633
:102E4000A0F022E0D21216C023E333E948E853E4AD
:102E50000AC026E636E646EE5FE30E946C4120E0BB
:102E600030E040E052E40E94293FF8016487758712
:102E700086879787C8012E960FB6F894DEBF0FBEDF
:102E8000CDBFDF91CF911F910F91FF90EF90DF9019
:102E90000895CF93DF93EC01660F660F660F698B81
:102EA00069810E94AA0C6CE1CE010E94D00C698954
:102EB000CE010E94D00CCE01DF91CF910C94CC0CAE
:102EC000FC0181890895CF93DF93EC01660F660FB3
:102ED000660F6A8B69810E94AA0C6BE1CE010E9489
:102EE000D00C6A89CE010E94D00CCE01DF91CF9127
:102EF0000C94CC0CFC01828908950F931F938901D7
:102F00009A010095109520953095602B712B822B9E
:102F1000932B1F910F91089562237323842395238C
:102F2000089508958F929F92AF92BF92CF92DF92B1
:102F3000EF92FF920F931F93CF93DF931F921F92F5
:102F4000CDB7DEB76C018B01FB0101900020E9F7E2
:102F5000CF01019742E150E069E070E0801B910BE6
:102F60000E94172E882339F141ED53E0BE016F5FB7
:102F70007F4FC8010E944E290597E9F409811A8103
:102F8000780156014801F8E08F0E911CF7018191FC
:102F900091917F010E943544F50181935F01E8140E
:102FA000F904A1F7F801808591850E9435440E94BB
:102FB0003C32F60164830F900F90DF91CF911F9107
:102FC0000F91FF90EF90DF90CF90BF90AF909F90C8
:102FD0008F9008950F931F93CF93DF9300D01F928C
:102FE0001F92CDB7DEB78C01FC0101900020E9F7FC
:102FF000CF01019742E150E067E070E0801B910B48
:103000000E94172E811104C060E070E0CB010CC05B
:10301000B801CE0101960E9492178D810E943C3228
:1030200060957095809590950F900F900F900F90F0
:103030000F90DF91CF911F910F9108950F931F93E0
:10304000CF93DF9300D01F921F92CDB7DEB78C01D4
:10305000FC0101900020E9F7CF01019742E150E027
:1030600067E070E0801B910B0E94172E882341F0CF
:10307000B801CE0101960E9492178D810E943C32C8
:1030800060E070E0CB010F900F900F900F900F90C9
:10309000DF91CF911F910F9108951F93CF93DF93ED
:1030A0001F921F92CDB7DEB742ED53E0BE016F5FB6
:1030B0007F4F0E944E29029711F080E011C0E981F4
:1030C000FA81828193810E943544182F42E150E0B9
:1030D00069E070E090E00E94172E882371F3812F41
:1030E0000F900F90DF91CF911F910895EF92FF9273
:1030F0000F931F93CF93DF9300D01F921F92CDB7F2
:10310000DEB78C01FC0101900020E9F7CF010197A7
:1031100042E150E069E070E0801B910B0E94172EA5
:10312000882339F1B801CE0101960E9492178E01D1
:103130000F5F1F4F7E01F5E0EF0EF11CF80181914A
:103140008F0190E00E9435444FEF50E060E070E066
:103150000E94172E882369F0E016F10679F78D8119
:1031600090E00E94354440E250E061E070E00E944F
:10317000172E0F900F900F900F900F90DF91CF911F
:103180001F910F91FF90EF900895AF92BF92CF9251
:10319000DF92EF92FF920F931F93CF93DF9300D0B4
:1031A00000D0CDB7DEB78C010E947618811115C012
:1031B00069817A818B819C8126960FB6F894DEBF57
:1031C0000FBECDBFDF91CF911F910F91FF90EF9078
:1031D000DF90CF90BF90AF9008955E0185E0A80E7C
:1031E000B11C44ED53E0B501C8010E944E2904977B
:1031F000F9F60D811E816801FE0131967F01EA1505
:10320000FB0549F0F601819191916F010E943544CF
:10321000F7018193F3CF0115110551F2C8010E9406
:103220004D04C6CF1F927F931F926F931F925F939F
:103230001F924F9326ED33E03F932F939F938F93ED
:103240000E943B468DB79EB70C960FB6F8949EBF72
:103250000FBE8DBF0895EF92FF920F931F93CF93F0
:10326000DF93CDB7DEB72E970FB6F894DEBF0FBE53
:10327000CDBF42EE53E0BE01635F7F4F0E944E29F7
:103280000697E1F47E0187E0E80EF11C00E010E013
:10329000ED85FE85E00FF11F808191810E94CF298D
:1032A000F70181937F010E5F1F4F0C30110581F7ED
:1032B0008D859E85009711F00E944D0486E0FE01E9
:1032C0003796DE01119601900D928A95E1F72981DA
:1032D0003A814B815C816D817E8180E090E02E9609
:1032E0000FB6F894DEBF0FBECDBFDF91CF911F9117
:1032F0000F91FF90EF900895CF93DF9300D000D00F
:10330000CDB7DEB729833A834B835C836D831F92ED
:103310007F932D811F922F932C811F922F932B81AE
:103320001F922F932A811F922F9329811F922F93EF
:1033300025EE33E03F932F939F938F930E943B465C
:103340000FB6F894DEBF0FBECDBF26960FB6F89429
:10335000DEBF0FBECDBFDF91CF910895CF92DF9238
:10336000EF92FF921F93CF93DF93CDB7DEB72B97EA
:103370000FB6F894DEBF0FBECDBF7C010E94C832ED
:103380000E947618811105C0C884D984EA84FB8420
:1033900030C04EE2B701CE0101960E94F62A8D811F
:1033A0009E81049711F410E009C0C884D984EA848E
:1033B000FB84CE0101960E946F321BC0E12EF12CDE
:1033C0008D819E81E816F90680F789819A8127E030
:1033D000129F800D911D11240E94C8320E94354415
:1033E000E8E0F0E0EC0FFD1FEE0DFF1D80831F5F96
:1033F000E5CFC701B6012B960FB6F894DEBF0FBE1E
:10340000CDBFDF91CF911F91FF90EF90DF90CF90D4
:103410000895EF92FF921F93CF93DF93CDB7DEB75E
:1034200063970FB6F894DEBF0FBECDBF4EE2BC016E
:10343000CE0101960E94F62A8D819E810697E1F4C5
:1034400010E0E12EF12C8D819E81E816F906A0F4A2
:1034500089819A8127E0129F800D911D11240E947D
:10346000C8320E943544EEE0F0E0EC0FFD1FEE0D97
:10347000FF1D80831F5FE5CF86E0FE013E96DE01E3
:10348000189601900D928A95E1F7CE0101960E945F
:103490006F32288539854A855B856C857D8580E01E
:1034A00090E063960FB6F894DEBF0FBECDBFDF91FC
:1034B000CF911F91FF90EF900895EF92FF920F939D
:1034C0001F93CF93DF93EC01142F052FF62EE72ED9
:1034D0001982188288E090E09B838A831D821C8277
:1034E0000E9443049983888364E070E0CE010E94C7
:1034F00095321F92EF921F92FF921F920F931F928D
:103500001F9386ED93E09F938F9389818F9388819A
:103510008F930E943B468DB79EB70C960FB6F894DA
:103520009EBF0FBE8DBFCE01DF91CF911F910F9136
:10353000FF90EF9008950F931F93CF93DF9300D0E8
:1035400000D0CDB7DEB78C0129833A834B835C83EF
:103550006D837E83FC011182108288E090E093836A
:103560008283158214820E944304F8019183808330
:1035700066E070E0C8010E9495328E811F928F93A1
:103580008D811F928F938C811F928F938B811F92BD
:103590008F938A811F928F9389811F928F9385EEDB
:1035A00093E09F938F93F80181818F9380818F9314
:1035B0000E943B460FB6F894DEBF0FBECDBFC801D8
:1035C00026960FB6F894DEBF0FBECDBFDF91CF9128
:1035D0001F910F9108950C9451140F931F93CF9343
:1035E000DF9300D01F92CDB7DEB78C01CA010E94D5
:1035F000C51869837A838B839C83BE016F5F7F4F7D
:10360000C8010E9467140F900F900F900F90DF91E8
:10361000CF911F910F9108950895DC011296ED91BD
:10362000FC911397408121E030E0C90118960C907D
:1036300002C0880F991F0A94E2F7842B80830895B3
:10364000DC011296ED91FC91139718963C91208124
:1036500081E090E001C0880F3A95EAF7662311F007
:10366000822B02C08095822380830895DC0112960C
:10367000ED91FC911397408121E030E0B90118965B
:103680000C9002C0660F771F0A94E2F7CB01809579
:10369000842380830895DC011296ED91FC911397A9
:1036A000408121E030E0C90118960C9002C0880FDB
:1036B000991F0A94E2F7842780830895DC01ED9135
:1036C000FC91119718965C91613051F4208181E052
:1036D00090E001C0880F5A95EAF7822B8083089505
:1036E000408121E030E001C0220F5A95EAF7209591
:1036F00024232083623011F40C940D1B08950F9342
:103700001F93CF93DF93CDB7DEB7AC970FB6F89486
:10371000DEBF0FBECDBF2FEF3FEFDC0117963C930E
:103720002E9316972FEF30E01B963C932E931A970B
:103730001D963C932E931C971F963C932E931E9799
:1037400051963C932E93509753963C932E935297B9
:1037500055963C932E93549757963C932E93569799
:1037600059963C932E9358975B963C932E935A9779
:103770005D963C932E935C97673408F099C02CE0DB
:10378000E3EEF2E0DE01919601900D922A95E1F7C9
:1037900020E2EFEEF2E0DE01119601900D922A9503
:1037A000E1F7B5E06B9F90011124F901EA55FC4F58
:1037B000A591B491FC01B583A4838D010F5F1F4FC8
:1037C000118300831296B383A283F901E855FC4F5D
:1037D000E491DC011896EC9327553C4FF901A59133
:1037E000B491FC01B3A3A2A364A3F9016591749100
:1037F000F90175FF33C02591349153E0DC0119962E
:103800005C931997F901EE27FC71EF2FFF27E695DE
:1038100021E030E02C0F3D1FE20FF31F20A131A16A
:103820001B963C932E931A97B9016F5F7F4F1D969D
:103830007C936E931C976F5F7F4F53967C936E9330
:1038400052976E5F7F4F1F967C936E931E972A5FF1
:103850003F4F55963C932E9354971DC0549157FF5C
:103860001AC054E0DC0119965C93199725913491A4
:10387000F901E877FF27F695E795F695E79521E0BA
:1038800030E02C0F3D1FE20FF31F2081318117968E
:103890003C932E931697642FAC960FB6F894DEBF28
:1038A0000FBECDBFDF91CF911F910F910C945E1B86
:1038B000AC960FB6F894DEBF0FBECDBFDF91CF91AF
:1038C0001F910F9108958F929F92AF92BF92CF92C6
:1038D000DF92EF92FF921F93CF93DF93EC018985E4
:1038E000833009F074C0122FCB01BA010E94AF409F
:1038F0009B01AC0160E070E080E89FE30E9407401C
:103900002DEB37E346E853E30E9407400E948040D6
:103910006B017C017F8F6E8F80E090E00E94AF4052
:103920004B015C01612F70E080E090E00E94AF40AD
:1039300020E030E048EC52E40E940740A5019401E9
:103940000E946C419B01AC01C501B4010E94283F5B
:103950000E94804079A368A3EC89FD89D182C0824E
:103960008AA19BA188279370892F9927AA85BB8557
:103970008130910579F040F0029791F43696F98BF9
:10398000E88B8C918C600BC03296F98BE88B8C9114
:10399000806C05C03496F98BE88B8C9180638C9396
:1039A000E889F98988A199A191838083EA85FB85BB
:1039B000808182608083EC85FD8580818861808341
:1039C000EC85FD8580818160808381E001C080E09D
:1039D000DF91CF911F91FF90EF90DF90CF90BF903C
:1039E000AF909F908F900895CF92DF92EF92FF92C9
:1039F0001F93CF93DF93FC012185233051F5162FC0
:103A0000EC01668D778D80E090E00E94AF406B0105
:103A10007C01612F70E080E090E00E94AF4020E0E8
:103A200030E048EC52E40E940740A70196010E9452
:103A30006C419B01AC01C701B6010E94283F0E9466
:103A4000804079A368A3E889F9897183608381E064
:103A500001C080E0DF91CF911F91FF90EF90DF9048
:103A6000CF9008958F929F92AF92BF92CF92DF92A4
:103A7000EF92FF92CF93DF93FC012185233009F071
:103A80003FC07B01EC01868D978D60A171A10E94E2
:103A90000C3F80E090E00E94AF404B015C01B70119
:103AA00080E090E00E94AF409B01AC0160E070E0DC
:103AB00080E89FE30E9407402DEB37E346E853E39D
:103AC0000E9407400E9480406B017C017F8F6E8FB7
:103AD00080E090E00E94AF40A50194010E94074061
:103AE0000E94804079A368A3EC89FD89D182C082BD
:103AF000E889F98988A199A19183808381E001C037
:103B000080E0DF91CF91FF90EF90DF90CF90BF905A
:103B1000AF909F908F900895DC011496ED91FC91E9
:103B20001597208130E0F90118960C9002C0F595A8
:103B3000E7950A94E2F7CF0181700895FC01318581
:103B4000332341F1868197818F3FFFEF9F0721F15A
:103B500070E0722B862B972B20917A00211106C0E2
:103B600020917A002068422B40937A0020917A00BD
:103B700090937B0080937C0080917A008064809396
:103B80007A0080917A0086FDFCCF80917800909138
:103B9000790008958FEF9FEF0895FC0184A10895A7
:103BA000CF92DF92EF92FF92CF93DF93EC016E8D75
:103BB0007F8D80E090E00E94AF406B017C0168A1A6
:103BC00079A180E090E00E94AF409B01AC01C70169
:103BD000B6010E94283F20E030E048EC52E40E9409
:103BE0006C41A70196010E9407400E948040862FE9
:103BF000DF91CF91FF90EF90DF90CF900895FC017F
:103C000080850895FC01848195810895CB01BA01D6
:103C10000E94AF409B01AC0160E070E080E89FE350
:103C20000E9407402DEB37E346E853E30E9407402C
:103C30000E948040CB0108950F931F93CF93DF9391
:103C4000EC01CB01088119817B836A830E944304C4
:103C500099838883D801CD01801B910B2C813D81F4
:103C60008217930750F4E881F981E80FF91F309724
:103C700011F08C9180831196EECFC801DF91CF9126
:103C80001F910F910C944504EF92FF920F931F9395
:103C9000CF93DF93EC018B017A018A819B81861798
:103CA000970740F4685F7F4F8617970718F4CE0197
:103CB0000E941C1E8C819D818017910758F4E88119
:103CC000F981E80FF91F309719F0D7012C91208363
:103CD0000196F2CF1D830C83DF91CF911F910F913D
:103CE000FF90EF900895CF93DF93EC011B821A822F
:103CF00088E090E09D838C831F821E820E94430493
:103D00009B838A83DF91CF910895FC018281938107
:103D10000C944504CF92DF92EF92FF92CF93DF9302
:103D2000EC01862F69017A010E94DB2F9983888339
:103D300020E0B701A6010E94DC2060E08881998123
:103D40000E944B2160E0888199810E945B2181E083
:103D500028813981232B09F480E0DF91CF91FF90F6
:103D6000EF90DF90CF900895AF92BF92CF92DF9205
:103D7000EF92FF920F931F93CF93DF931F92CDB7D4
:103D8000DEB78C017B01FC011182108288E090E09B
:103D900093838283158214820E944304F8019183E5
:103DA0008083F701228133815901FFEFAF1ABF0AE7
:103DB000F701C680D780F1E0CF1AD108C20ED31E1A
:103DC000CA14DB0409F443C0F50121915F01298382
:103DD000F801208131817C01E21AF30A8481958106
:103DE000BC016F5F7F4F8617970738F4AE014F5FB6
:103DF0005F4FC8010E94441E06C06817790718F477
:103E0000F80175836483F8012481358121503109DB
:103E1000F80180819181E216F30658F4FC01E20F6B
:103E2000F31F21503109DC01A20FB31F8C91808355
:103E3000EFCF2981FC01EE0DFF1D2083FFEFEF1A6C
:103E4000FF0AF801808191818E0D9F1DB9CFC801B5
:103E50000F90DF91CF911F910F91FF90EF90DF9026
:103E6000CF90BF90AF900895FF920F931F93CF9381
:103E7000DF938C01F62E85E290E00E944304EC0172
:103E800041E06F2D0E947F1BF801D287C18720E09F
:103E900048EE53E060E070E0CE010E94631C8111A7
:103EA00003C0F80112861186DF91CF911F910F9107
:103EB000FF900895FB01A081B181FD01AD01465F36
:103EC0005F4F80E0218190E1299F90011124928130
:103ED0009F70292B822732964E175F0799F71B9602
:103EE0002C911B97E0E12E9F90011124332790E045
:103EF00041E050E02817390711F040E050E01C96EF
:103F00008C918F70482B81E0452B09F480E0089557
:103F1000DB01ED91FC9111972081223079F4149608
:103F20002D913C911597E20FF31F3197408143305B
:103F300029F42E30310511F40C945A1F80E00895B5
:103F4000CF93DF93EC0189859A85009749F126E4A8
:103F500048EE53E060E070E00E94631C2FEF84E3C2
:103F60009CE0215080409040E1F700C0000026E432
:103F700048EB5BE060E070E089859A850E94631CF5
:103F80002FEF84E39CE0215080409040E1F700C097
:103F9000000060E089859A85DF91CF910C94F41C34
:103FA000DF91CF910895CF93DF93EC0189859A85B6
:103FB000009749F126E448EB5BE060E070E00E9486
:103FC000631C2FEF84E39CE0215080409040E1F798
:103FD00000C0000026E448EE53E060E070E0898510
:103FE0009A850E94631C2FEF84E39CE0215080405F
:103FF0009040E1F700C0000060E089859A85DF917C
:10400000CF910C94F41CDF91CF910895CF93DF935F
:10401000FC01818592850097C1F0EF0126E448EB11
:104020005BE060E070E00E94631C2FEF89E698E19E
:10403000215080409040E1F700C0000060E0898599
:104040009A85DF91CF910C94F41CDF91CF91089564
:10405000CF92DF92FF920F931F93CF93DF93CDB751
:10406000DEB729970FB6F894DEBF0FBECDBF8C0127
:1040700019861A82198288E090E09C838B831E82C5
:104080001D820E9443049A8389838091DE0490916B
:10409000DF0401969093DF048093DE04883B9B400D
:1040A000A1F4BE016F5F7F4FC80102960E94DD320E
:1040B0008FEF93EDE0E381509040E040E1F700C0E6
:1040C00000001092DF041092DE04F80180819181DB
:1040D0000E94C62181110AC0BE016F5F7F4FC801D7
:1040E0000E94881FF82E811129C053C0F8018081D9
:1040F00091810E94D4218987823071F7BE01675F68
:104100007F4FCE0101960E944433F8018081918156
:104110000E94C621882369F0F801808191810E9464
:10412000D4218887BE01685F7F4FCE0101960E942F
:1041300044338D819E810E9740F3CECFC801029605
:104140004D815E81F8012681378142175307A1F422
:10415000A981BA8120E030E042175307B1F07D9188
:10416000F801C280D380F601E20FF31F608176135D
:1041700003C02F5F3F4FF0CFBE016F5F7F4F0E94A4
:10418000DD32C8010E94A01F04C0C8010E940620A1
:10419000F12C89819A810E9445048F2D29960FB6B2
:1041A000F894DEBF0FBECDBFDF91CF911F910F916D
:1041B000FF90DF90CF900895EF92FF921F93CF93DF
:1041C000DF93EC01122FFC01E35FFE4F0190F081C1
:1041D000E02D1082FC01E15FFE4FE080F180CB0119
:1041E000BA010E94AF409B01AC0160E074E284E739
:1041F00099E40E94074020E030E040E85FE30E943D
:10420000283F0E94D9410E948040F7016083FE014F
:10421000E75FFE4F0190F081E02D88E18083FE0191
:10422000E55FFE4F0190F081E02D86E08083FE0186
:10423000ED5EFE4F108340E051E06FEF70E0CE0185
:104240000E947945FE01ED5FFE4FD183C083329617
:10425000D183C083339781E08083CC5EDE4F1982A7
:104260001882DF91CF911F91FF90EF900895CF9327
:10427000DF93FC01E95FFE4FA081B181EC01CF5ECD
:10428000DE4F2C9127FF04C0E881F9812081F9CF0E
:10429000DF91CF910895FC01E75FFE4F0190F0811F
:1042A000E02D8081662321F08068808378940895D2
:1042B0008F77808308959395FC0160830895CF9351
:1042C000DF93FC01EB5FFE4F208131812F5F3F4F79
:1042D000AC0141505F4F4217530718F031832083E0
:1042E00002C091838083A081B181EC01CD5FDE4F5C
:1042F00028813981A217B30739F41197A817B90794
:1043000028F45183408304C06C9302C0B183A0831E
:10431000DF91CF910895FC01ED5FFE4F2081318147
:10432000260F311D318320830895FC01EF5FFE4F7E
:10433000608338960190F081E02D808180688083D1
:10434000789408958C5E9E4FFC017183608308957C
:104350008C5E9E4FDC01ED91FC91309709F0199431
:1043600008958F5F9E4FFC0180810895DC01AD5F51
:10437000BE4FFC01EB5FFE4F81E04D915C912081CF
:1043800031814217530709F480E00895895F9E4FF9
:10439000DC01ED91FC918081881F8827881F08959A
:1043A0009395FC0180810895FC01E95FFE4F019027
:1043B000F081E02D208127FFFDCFFC01EF5EFE4F55
:1043C0000190F081E02D80810895EF92FF920F938C
:1043D0001F93CF93DF937C01EB01042F10E0C70103
:1043E0000E94D42191E0910F80130AC0C90FD11D02
:1043F0001882DF91CF911F910F91FF90EF90089558
:10440000FE01E10FF11D8083192FE9CFCF93DF93D8
:10441000DC01AE5FBE4F1C92FC01ED5FFE4F2081C0
:1044200031812F5F3F4FAC0141505F4F421753071F
:1044300018F03183208302C0918380830190F08142
:10444000E02DEC01CB5FDE4F88819981E817F907F9
:1044500011F081E08C938081DF91CF9108958D5E82
:104460009E4FFC0180810895CF93DF9320E0DC0113
:10447000A95FBE4FEC01CF5EDE4FFB01E20FF11DE5
:104480003081332359F0ED91FC911197408145FF24
:10449000FDCFE881F98130832F5FEFCFDF91CF919E
:1044A0000895CF93DF93CDB7DEB7DA950FB6F894C2
:1044B000DEBF0FBECDBFAE01465F5E4FC85FDE4FB1
:1044C00068817981C850D140CE0101960E946A4628
:1044D000BE016F5F7F4FCA5FDE4F88819981C650F2
:1044E000D1400E943422D3950FB6F894DEBF0FBEA0
:1044F000CDBFDF91CF91089527EF33E03F932F9306
:104500009F938F930E9451220F900F900F900F90C6
:1045100008951F920F920FB60F9211240BB60F92AF
:104520001F932F933F934F935F936F937F938F933B
:104530009F93AF93BF93CF93DF93EF93FF938091BC
:10454000EF049091F004892B41F586E191E00E94FF
:104550004304FC01E95FFE4F20EC30E0318320830F
:10456000329621EC30E031832083329622EC30E029
:1045700031832083329625EC30E0318320833296DC
:1045800024EC30E031832083329626EC30E0318316
:1045900020839093F0048093EF04C091EF04D091B6
:1045A000F0041091C600612FCE010E945F21FE0130
:1045B000F3958081811119C0CE010E94A821FF913D
:1045C000EF91DF91CF91BF91AF919F918F917F91AB
:1045D0006F915F914F913F912F911F910F900BBE63
:1045E0000F900FBE0F901F9018951093C600E4CF48
:1045F0001F920F920FB60F9211240BB60F921F93BA
:104600002F933F934F935F936F937F938F939F93DA
:10461000AF93BF93CF93DF93EF93FF938091F10418
:104620009091F204892B41F586E191E00E944304C8
:10463000FC01E95FFE4F28EC30E0318320833296A5
:1046400029EC30E03183208332962AEC30E031834C
:10465000208332962DEC30E03183208332962CEC8F
:1046600030E03183208332962EEC30E0318320839A
:104670009093F2048093F104C091F104D091F2047C
:104680001091CE00612FCE010E945F21FE01F395B3
:104690008081811119C0CE010E94A821FF91EF9164
:1046A000DF91CF91BF91AF919F918F917F916F914A
:1046B0005F914F913F912F911F910F900BBE0F90E3
:1046C0000FBE0F901F9018951093CE00E4CF1F924D
:1046D0000F920FB60F9211240BB60F921F932F93C8
:1046E0003F934F935F936F937F938F939F93AF937A
:1046F000BF93CF93DF93EF93FF938091F304909157
:10470000F404892B41F586E191E00E944304FC0109
:10471000E95FFE4F20ED30E031832083329621EDBA
:1047200030E031832083329622ED30E031832083E4
:10473000329625ED30E031832083329624ED30E04F
:1047400031832083329626ED30E0318320839093AD
:10475000F4048093F304C091F304D091F404109115
:10476000D600612FCE010E945F21FE01F39580816A
:10477000811119C0CE010E94A821FF91EF91DF9114
:10478000CF91BF91AF919F918F917F916F915F91E9
:104790004F913F912F911F910F900BBE0F900FBE25
:1047A0000F901F9018951093D600E4CF1F920F9290
:1047B0000FB60F9211240BB60F921F932F933F93B6
:1047C0004F935F936F937F938F939F93AF93BF9319
:1047D000CF93DF93EF93FF938091F5049091F604CC
:1047E000892B41F586E191E00E944304FC01E95FD9
:1047F000FE4F20E331E031832083329621E331E024
:1048000031832083329622E331E031832083329654
:1048100025E331E031832083329624E331E0318394
:104820002083329626E331E0318320839093F6048F
:104830008093F504C091F504D091F60410913601EF
:10484000612FCE010E945F21FE01F39580818111CD
:1048500019C0CE010E94A821FF91EF91DF91CF9165
:10486000BF91AF919F918F917F916F915F914F9188
:104870003F912F911F910F900BBE0F900FBE0F9085
:104880001F90189510933601E4CF0895CF92DF92D0
:10489000EF92FF920F931F93CF93DF938C01FC0154
:1048A000E080F1807383628385E2F82FF69FC00178
:1048B000F79F900D11240E944304F8019183808397
:1048C000E701C12CD12CF80184819581C816D90645
:1048D000B8F4A081B181CE018E199F09A80FB91F2C
:1048E000109731F085E2FE0101900D928A95E1F773
:1048F000CE010E940C1BFFEFCF1ADF0AA596E3CF73
:10490000C701DF91CF911F910F91FF90EF90DF9042
:10491000CF900C9445048CB580648CBD08958CB503
:104920008F7B8CBD0895FC01EA58FF4F60838CB5E6
:104930008C7F8CBD8DB58E7F8DBD8DB5208122FB8A
:10494000992790F9982B9DBD9CB580818370892B08
:104950008CBD08958A589F4FFC0180810895FC0109
:10496000E958FF4F60839CB59F7D9CBD2CB590811D
:1049700030E2939FC0011124822B8CBD0895895889
:104980009F4FFC0180810895FC01E858FF4F608330
:104990009CB5977F9CBD2CB5908138E0939FC0015A
:1049A0001124822B8CBD089588589F4FFC01808173
:1049B0000895FC01E758FF4F60839CB59B7F9CBD29
:1049C0002CB5908134E0939FC0011124822B8CBDC3
:1049D000089587589F4FFC0180810895262F30E06D
:1049E0002F5F3F4FFC01ED58FF4F4081518142172F
:1049F000530750F034978081918125E2629F800DAA
:104A0000911D11240C94361B0895262F30E02F5F42
:104A10003F4FFC01ED58FF4F408151814217530732
:104A200050F034978081918125E2629F800D911D25
:104A300011240C940D1B08956EBD0DB407FEFDCF1F
:104A40000895CF92DF92EF92FF920F931F93CF932F
:104A50008C017B016A01C0E08C2F90E08C159D05D4
:104A600048F4F701E80FF91F6081C8010E941C2576
:104A7000CF5FF2CFCF911F910F91FF90EF90DF901A
:104A8000CF9008956EBD0DB407FEFDCF8EB508958D
:104A90009F92AF92BF92CF92DF92EF92FF920F93CD
:104AA0001F93CF93DF938C015B017A016901912CF5
:104AB000892D90E08C159D0568F4E501C80FD91F7C
:104AC000F701E80FF91F6081C8010E944225888321
:104AD0009394EECFDF91CF911F910F91FF90EF90C4
:104AE000DF90CF90BF90AF909F90089560E00C94BE
:104AF0004225AF92BF92CF92DF92EF92FF921F9327
:104B0000CF93DF937C016B015A0110E0812F90E07D
:104B10008A159B0548F4E601C80FD91FC7010E94FA
:104B2000762588831F5FF2CFDF91CF911F91FF9091
:104B3000EF90DF90CF90BF90AF9008950C944225F6
:104B400070E06F5F7F4FFC01ED58FF4F81E02081E7
:104B500031812617370708F480E008958CB586FB6D
:104B6000882780F908950F930FEF2FEF4FEF6FEF26
:104B70000E9495330F910895AF92BF92CF92DF922A
:104B8000EF92FF920F931F93CF93DF93CDB7DEB7D2
:104B9000CA57D1090FB6F894DEBF0FBECDBF7C0156
:104BA000162FD42EC22EB02E0FEF2FEF4FEF6FEF38
:104BB0000E9495330B2D2C2D4D2D612FCE0101968A
:104BC0000E94953385E2FE013196D70101900D9246
:104BD0008A95E1F785E2FE01B696D7019596019098
:104BE0000D928A95E1F7D701A65BBF4F85E2FE01E2
:104BF000E55BFF4F01900D928A95E1F7870101591E
:104C00001F4FE6966EAD7FADE697D80112968D9157
:104C10009C9113978617970718F4C8010E944624A1
:104C2000E6968EAD9FADE697F801448155818417D5
:104C3000950708F4AC0180E090E020E030E0241714
:104C40003507A1F0F801A081B181A80FB91FE29644
:104C5000EEADFFADE297E80FF91F65E201900D920E
:104C60006A95E1F72F5F3F4F8596E9CFD8011496FB
:104C70002D913C911597E6968EAD9FADE69728173E
:104C8000390780F585E2829FB001839F700D112462
:104C900040E050E0E6968EAD9FADE69728173907C5
:104CA00008F5E296EEADFFADE297CB01840F951FBC
:104CB000E80FF91FD801CD90DC90D601A80FB91FDD
:104CC000109729F085E201900D928A95E1F7F8019D
:104CD000848195810196958384832F5F3F4F4B5D3F
:104CE0005F4FD8CFE6966EAD7FADE697D8011496AC
:104CF0008D919C9115976817790718F4C8010E9447
:104D000059335701B6E7AB0EB11CEB968CAD9DAD98
:104D1000AEADBFADEB97F50180839183A283B383E2
:104D200000E010E0C12CD12CE6968EAD9FADE69749
:104D3000C816D90670F4E2968EAD9FADE297800F4B
:104D4000911F0E940C1BFFEFCF1ADF0A0B5D1F4F54
:104D5000EBCFE2968EAD9FADE2970E944504CE0167
:104D6000855B9F4F0E940C1BCE0186960E940C1BF8
:104D7000CE0101960E940C1BF701E758FF4F60819E
:104D8000C7010E94D924F701E858FF4F6081C7018D
:104D90000E94C424D5016C91C7010E949324F7019D
:104DA000E958FF4F6081C7010E94AF248CB5806134
:104DB0008CBDC7010E948B24C658DF4F0FB6F894F4
:104DC000DEBF0FBECDBFDF91CF911F910F91FF903E
:104DD000EF90DF90CF90BF90AF900895FC01F395D6
:104DE0008FEF86838783808781870895EF92FF9274
:104DF0000F931F93CF93DF93CDB7DEB72A970FB6EC
:104E0000F894DEBF0FBECDBFE982FA820B831C830C
:104E10002D833E834F83588769877A87DC01B3955A
:104E20002AE0FE01319601900D922A95E1F71CBC13
:104E300014B81DBCFC01EE5FFE4FE080F180AC01B8
:104E4000495F5E4F21E030E0B901DA010C9002C009
:104E5000660F771F0A94E2F74F5F5F4F8901DA010F
:104E60000C9002C0000F111F0A94E2F7602BAC01F6
:104E7000475F5E4F8901DA010C9002C0000F111FDD
:104E80000A94E2F7A801462B4095D7014C93019074
:104E9000F081E02D4081DC01AA5FBE4F0C9002C082
:104EA000220F331F0A94E2F7242B20832CB52F7E88
:104EB0002CBD2CB520642CBDFC01E65FFE4F118299
:104EC00010822A960FB6F894DEBF0FBECDBFDF91D9
:104ED000CF911F910F91FF90EF9008956F927F9265
:104EE0008F92AF92CF92EF92FF920F931F93CF9337
:104EF000DF93CDB7DEB764970FB6F894DEBF0FBE71
:104F0000CDBF0B871C872D873E874F87588B698BBA
:104F10007A8B8B8B9C8B8091E0049091E104892BA0
:104F200029F58AE0FE013B96DE01119601900D9273
:104F30008A95E1F781E191E00E9443043C011F92D0
:104F4000812C84E0A82EC12CE980FA800B811C8181
:104F50002D813E814F81588569857A85C3010E94E4
:104F6000F6267092E1046092E0040F908091E004D4
:104F70009091E10464960FB6F894DEBF0FBECDBFEA
:104F8000DF91CF911F910F91FF90EF90CF90AF9055
:104F90008F907F906F9008958CB5662321F0806884
:104FA0008CBD789408958F778CBD08956EBD0DB437
:104FB00007FEFDCF0895CF92DF92EF92FF920F93FD
:104FC0001F93CF938C017B016A01C0E08C2F90E08E
:104FD0008C159D0548F4F701E80FF91F6081C801A1
:104FE0000E94D627CF5FF2CFCF911F910F91FF90F4
:104FF000EF90DF90CF9008950DB407FEFDCF8EB5F2
:105000000895AF92BF92CF92DF92EF92FF921F93DB
:10501000CF93DF937C016B015A0110E0812F90E068
:105020008A159B0548F4E601C80FD91FC7010E94E5
:10503000FC2788831F5FF2CFDF91CF911F91FF90F4
:10504000EF90DF90CF90BF90AF900895FC01F39563
:105050000190F081E02D2081FC01E75FFE4F80810F
:1050600030E0082E02C0359527950A94E2F72170AA
:10507000332791E0292702C0359527958A95E2F7D5
:1050800081E0232B09F480E008952CB520682CBD25
:105090007894FC01E65FFE4F718360830895865F1C
:1050A0009E4FDC01ED91FC91309711F0862F199401
:1050B0000895CF93DF93FC01E25FFE4F20813181A1
:1050C0002F5F3F4FAC0141505F4F4217530718F01D
:1050D0003183208302C091838083A081B181EC0160
:1050E000C45FDE4F28813981A217B30739F41197C5
:1050F000A817B90728F45183408304C06C9302C0F9
:10510000B183A083DF91CF910895CF93DF93DC012A
:10511000A05FBE4F1C92FC01E45FFE4F20813181F5
:105120002F5F3F4FAC0141505F4F4217530718F0BC
:105130003183208302C0918380830190F081E02D30
:10514000EC01C25FDE4F88819981E817F90711F001
:1051500081E08C938081DF91CF910895DC01A45F81
:10516000BE4FFC01E25FFE4F81E04D915C912081DA
:1051700031814217530709F480E008951F920F927E
:105180000FB60F9211240BB60F920F931F932F930C
:105190003F934F935F936F937F938F939F93AF93BF
:1051A000BF93EF93FF93CF93DF93CDB7DEB72A97EB
:1051B000DEBFCDBF8FEF8F83888789878A8709817C
:1051C0001A812B813C814D815E816FEF7FEF9FEFD4
:1051D0000E946E278C018EB589836981C8010E9467
:1051E00059286981C8010E944F282A960FB6F89461
:1051F000DEBF0FBECDBFDF91CF91FF91EF91BF9189
:10520000AF919F918F917F916F915F914F913F915E
:105210002F911F910F910F900BBE0F900FBE0F900B
:105220001F901895CF93DF93EC01A881B9812C9141
:105230002B3241F091E080E02D3209F090E0292FEF
:10524000382F02C021E030E0FD01E20FF31F9F0183
:105250002A1B3B0B919190539A30C8F381E04C810B
:105260005D814217530709F080E0DF91CF910895E7
:10527000DC01ED91FC91119714962D913C911597BD
:105280002E0F3F1F80E090E0E217F30729F04191D5
:105290004613FACF0196F8CF089508955F926F9262
:1052A0007F928F929F92AF92BF92CF92DF92EF92B6
:1052B000FF920F931F93CF93DF93EC017B013A0191
:1052C000FC0101900020E9F7CF018C1B9D0B0E948F
:1052D00047046C01BE010E94804582E090E00E947C
:1052E0002A42F70191838083B301C6010E945A4587
:1052F0008C01512CC52DD0E001151105B1F14E01E5
:10530000880C991CF701A080B180A80CB91CF80189
:1053100001900020E9F7CF01801B910B0E942A42E7
:10532000F50191838083F70180819181FC01E80D73
:10533000F91DB801808191810E948045B30180E010
:1053400090E00E945A458C01BE016E5F7F4F660F50
:10535000771FF701808191810E944B43F701918370
:105360008083892B51F05394C5CFC114D10419F017
:10537000C6010E944D04CE0102C08DEA9EEDDF9170
:10538000CF911F910F91FF90EF90DF90CF90BF9042
:10539000AF909F908F907F906F905F9008950F9344
:1053A0001F93CF93DF93FC0101900020E9F7E350B6
:1053B000E81323C08C01FC01C0818C2F0C2E000C43
:1053C000990B0E943C458134910524F0C753C29546
:1053D000C07F01C0CF70F801D1818D2F0D2E000C40
:1053E000990B0E943C45813491051CF089EC8D0F8E
:1053F00002C08D2F8F708C2B01C080E0DF91CF9188
:105400001F910F910895AF92BF92CF92DF92EF92CA
:10541000FF920F931F93CF93DF931F92CDB7DEB709
:105420005C016B0100E010E0F601848195810817B2
:10543000190780F4E080F180E00EF11EF701808111
:10544000082E000C990B0E943445F70180830F5FF2
:105450001F4FEACF8E010F5F1F4F2FEF3FEF40E04E
:1054600050E0B601C5010E940835C5010F90DF91DB
:10547000CF911F910F91FF90EF90DF90CF90BF9051
:10548000AF900895AF92BF92CF92DF92EF92FF92CA
:105490000F931F93CF93DF931F92CDB7DEB75C01BD
:1054A0006B0100E010E0F60184819581081719076F
:1054B00080F4E080F180E00EF11EF7018081082E7B
:1054C000000C990B0E943C45F70180830F5F1F4F32
:1054D000EACF8E010F5F1F4F2FEF3FEF40E050E00C
:1054E000B601C5010E940835C5010F90DF91CF912B
:1054F0001F910F91FF90EF90DF90CF90BF90AF90F2
:105500000895CF93DF93EC01688179818C819D812F
:10551000860F971FAB014817590749F0FA012191EF
:10552000AF012032C1F3FB012193BF01F4CFCE01C3
:105530000E943636688179818C819D81860F971F04
:10554000AB014817590749F0FA012191AF01293001
:10555000C1F3FB012193BF01F4CFCE01DF91CF91C5
:105560000C943636CF92DF92EF92FF920F931F93F7
:10557000CF93DF931F92CDB7DEB76C017B01FB01A8
:105580000081118184819581080F191F0150110933
:10559000F801808180528F3580F0C8010E948234EA
:1055A000882359F0F70124813581C90101978217B9
:1055B000930760F795838483E9CFC7010E9468361B
:1055C0008E010F5F1F4F2FEF3FEF40E050E0BC0117
:1055D000C6010E940835C6010F90DF91CF911F913F
:1055E0000F91FF90EF90DF90CF9008957F928F9270
:1055F0009F92AF92BF92CF92DF92EF92FF920F9362
:105600001F93CF93DF93CDB7DEB728970FB6F894EB
:10561000DEBF0FBECDBF6C015B01742EDC011196A5
:105620001C921E9288E090E013969C938E931297A2
:1056300015961C921E92149788E390E00E944304F2
:10564000F60191838083D50114968D919C911597D5
:1056500000E010E08017910729F40FEF1FEFE12C15
:10566000F12C4BC0D501ED91FC91E00FF11F208191
:105670007216A9F30F5F1F4FEDCF48018E189F08D8
:105680008E159F0520F480E090E00E94242ED50125
:1056900014968D919C9115978E199F09A4018815D8
:1056A000990508F4AC01F501608171816E0D7F1DD3
:1056B0009E01285F3F4FCE0101960E94B136D60170
:1056C00014966D917C9115976F5F7F4FAE014F5F80
:1056D0005F4FC6010E947535CE0101960E94AA3423
:1056E0007801BFEFEB1AFB0AF501848195818701F0
:1056F0000817190758F00FEF1FEFF5018481958106
:105700000F3FFFEF1F0709F0B8CF0BC0D501ED9198
:10571000FC91E00FF11F2081721679F30F5F1F4F8C
:10572000E7CF8701009510958E159F0520F480E046
:1057300090E00E94242EF501848195818E199F09A5
:10574000A8018017910708F4AC01D5016D917C91F7
:105750006E0D7F1D9E01285F3F4FCE0101960E9476
:10576000B136F601648175816F5F7F4FAE014F5F87
:105770005F4FC6010E947535CE0101960E94AA3482
:10578000C60128960FB6F894DEBF0FBECDBFDF91DD
:10579000CF911F910F91FF90EF90DF90CF90BF902E
:1057A000AF909F908F907F9008950F931F93CF930A
:1057B000DF93EC01CB01088119817B836A830E940E
:1057C000430499838883D801CD01801B910B2C81E0
:1057D0003D818217930750F4E881F981E80FF91FA2
:1057E000309711F08C9180831196EECFC801DF9134
:1057F000CF911F910F910C944504CF93DF93EC014F
:10580000198E188E88E090E09B8F8A8F1D8E1C8EDB
:105810000E944304998F888F198218821B821A82F2
:105820001C821D821E821F82188619861A861B867C
:105830001D861F861E86198A188A1B8A1A8A1C8A48
:105840001D8A1E8A1F8A1C86CE014F960E94511403
:10585000CE018C559F4FDF91CF910C944524CF936F
:10586000DF93EC014F960E94AB14888D998DDF91E8
:10587000CF910C94450408950F931F93CF93DF931A
:10588000CDB7DEB727970FB6F894DEBF0FBECDBFFA
:105890008C01FB014081518124813581240F351F0A
:1058A000FC01608D718D48960E9494301A82198295
:1058B00088E090E09C838B831E821D820E944304BB
:1058C0009A8389838B819C814F9730F46FE170E0DC
:1058D000CE0101960E94D52BA981BA818FE1F801F2
:1058E00001900D928A95E1F7BE016F5F7F4FC8016D
:1058F0004F960E94BC1489819A810E944504279684
:105900000FB6F894DEBF0FBECDBFDF91CF911F91D0
:105910000F91089514BC15BC16BC8FEF87BD84B5DC
:10592000826084BD85B585BD82E080936E007894E9
:1059300081E08093E80408958091E804811102C019
:105940000E948A2C1092E9041092EA041092EB044F
:105950001092EC0485B5816085BD089585B5887F7A
:1059600085BD08956091E70470E080E090E00895BF
:105970000895FC0120813181F901E60FF71F608154
:10598000D901A40FB51F2C912083FC018081918146
:10599000FC01E40FF51F608308954F925F926F92B0
:1059A0007F928F929F92AF92BF92CF92DF92EF92AF
:1059B000FF920F931F93CF93DF934C017B012B0139
:1059C00056944794612C712C00E010E0F40184811E
:1059D0009581B7010E940C3F06171707C8F45701BD
:1059E000A60CB71C6501C0E0D0E0F1E0CF1AD108E9
:1059F000C415D50549F0BE01660D771DA601C40189
:105A00000E94B92C2196F1CF0F5F1F4F3501DECFD9
:105A1000DF91CF911F910F91FF90EF90DF90CF908A
:105A2000BF90AF909F908F907F906F905F904F90BE
:105A30000895DC01A60FB71F2C91FC01E40FF51FA0
:105A400080818C93208308952F923F924F925F9292
:105A50006F927F928F929F92AF92BF92CF92DF927E
:105A6000EF92FF920F931F93CF93DF931C01CB0113
:105A70002A01BA010E940C3F5B01320176946794BF
:105A800000E010E0E12CF12CEA14FB04D1F042011B
:105A9000800E911E6401C0E0D0E081E0C81AD108F8
:105AA000C615D70549F0BE01600F711FA601C101DF
:105AB0000E94192D2196F1CF8FEFE81AF80A840180
:105AC000E3CFDF91CF911F910F91FF90EF90DF9087
:105AD000CF90BF90AF909F908F907F906F905F908E
