:100000000C9495020C94000C0C94340C0C94680C19
:100010000C949C0C0C94D00C0C94030D0C94410D7E
:100020000C94370D0C94750A0C94F40A0C946F0B15
:100030000C94C6020C94C6020C94C6020C94C60220
:100040000C94C6020C94C6020C94C6020C94C60210
:100050000C94C6020C94590D0C94C6020C94C60262
:100060000C944E190C940F140C94C6020C94C602F6
:100070000C94C6020C94C6020C94C6020C94C602E0
:100080000C94C6020C94C6020C94C6020C94C602D0
:100090000C947E140C94C6020C94C6020C94F507C2
:1000A0000C94C6020C94C6020C94C6020C94C602B0
:1000B0000C94C6020C94C6020C94C6020C94C602A0
:1000C0000C94C6020C94C6020C94C6020C94ED1457
:1000D0000C94C6020C94C6020C945C150C94C602D7
:1000E0000C94C602084AD73B3BCE016E84BCBFFDD0
:1000F000C12F3D6C74319ABD56833DDA3D00C77FF8
:1001000011BED9E4BB4C3E916BAAAABE0000008090
:100110003F000C94E5210C94F5226E616E00696E2F
:10012000660000407A10F35A00A0724E18090010C1
:10013000A5D4E80000E87648170000E40B5402005C
:1001400000CA9A3B000000E1F50500008096980087
:10015000000040420F000000A086010000001027B0
:1001600000000000E8030000000064000000000040
:100170000A00000000000100000000002C76D88872
:10018000DC674F0823DFC1DFAE59E1B1B796E5E385
:10019000E453C63AE651997696E8E6C28426EB899E
:1001A0008C9B62ED407C6FFCEFBC9C9F40F2BAA53B
:1001B0006FA5F490055A2AF75C936B6CF9676DC1D3
:1001C0001BFCE0E40D47FEF520E6B500D0ED902ED7
:1001D0000300943577050080841E080000204E0A35
:1001E000000000C80C333333330F986E1283114173
:1001F000EF8D2114893BE65516CFFEE6DB18D1843E
:100200004B381BF77C1D901DA4BBE4242032847264
:100210005E228100C9F124ECA1E53D276364696E8B
:100220006F70737578585B65666745464700616E09
:10023000006E66696E69747900CDCCCC3D0AD72317
:100240003C17B7D13877CC2B329595E6241FB14FA8
:100250000A000020410000C84200401C4620BCBEED
:100260004CCA1B0E5AAEC59D742C000004002C0015
:100270000104002C0004002D2C0005002E32000586
:1002800000212C0003002C000103003000010400B9
:100290003100010500320001060029230004002876
:1002A0002300050024230006002523000700260361
:1002B0000101070003010007000001010600000121
:1002C000000600290003050029000205002900019D
:1002D00000002900000000200000000020000100B4
:1002E00000200002000020000300002000040000A5
:1002F0002000050000200006000020000700002666
:100300000007000026000600002600050000260069
:100310000400002600030000260002000026000161
:100320000000260000000029000700003200020043
:100330000032000100003200000000090107000047
:10034000090106000009010500360901040035090C
:100350000103003409010200000901010000090144
:10036000000000230003000023000200002300011E
:10037000000023000000002F000080002F000188F3
:10038000002F000290002F000398002F0004A0000F
:100390002F0005A8002F0006B0002F0007B80006A8
:1003A0000100C000060101C800060102D0000601DC
:1003B00003D800060104E000060105E80006010676
:1003C000F000060107F8002C000004002C000104D6
:1003D000002C0004002D2C0005002E320005002109
:1003E0002C0003002C000103003000010400310048
:1003F0000105003200010600292300040028230023
:100400000500242300060025230007002603010120
:1004100007000301000700000101060000010006BB
:100420000029000305002900020500290001000041
:100430002900000000200000000020000100002032
:100440000002000020000300002000040000200043
:10045000050000200006000020000700002600071D
:10046000000026000600002600050000260004000B
:100470000026000300002600020000260001000004
:1004800026000000002900070000320002000032B0
:10049000000100003200000000090107000009010E
:1004A00006000009010500360901040035090103B1
:1004B00000340901020000090101000009010000E7
:1004C00000230003000023000200002300010000BD
:1004D00023000000002F000080002F000188002F63
:1004E000000290002F000398002F0004A0002F00AE
:1004F00005A8002F0006B0002F0007B80006010075
:10050000C000060101C800060102D000060103D8A0
:1005100000060104E000060105E800060106F000FF
:10052000060107F80000E521F52211241FBECFEFD8
:10053000D1E2DEBFCDBF00E00CBF13E0A0E0B2E02F
:10054000E8EAF4E500E00BBF02C007900D92AC337F
:10055000B107D9F724E0ACE3B3E001C01D92AB32A0
:10056000B207E1F712E0C5E9D2E000E006C021974A
:100570000109802FFE010E941223C339D10780E0B8
:100580000807A9F70E94D7220C94522A0C94610DF7
:10059000FC0181E090E02081222311F080E090E0D6
:1005A000089521E0FC0120830895089508950C9496
:1005B00015260C94AD260F931F93CF93DF93EC0178
:1005C0008B010E94C92185E2F801DE0101900D92A4
:1005D0008A95E1F7DF91CF911F910F910895FF92D6
:1005E0000F931F93CF93DF93CDB7DEB7A5970FB6C9
:1005F000F894DEBF0FBECDBF8C01F62E0E94C9213C
:1006000042E06F2DCE0101960E94AE0F85E2FE0101
:100610003196D80101900D928A95E1F7CE010196AD
:100620000E943B0FA5960FB6F894DEBF0FBECDBF5C
:10063000DF91CF911F910F91FF9008950F931F931A
:10064000CF93DF93EC018B010E94C9218AE2F8016C
:10065000DE0101900D928A95E1F7DF91CF911F9114
:100660000F910895FC0187A10895FC0185A10895CB
:100670000F931F93CF93DF93EC0162E00E948D0FE5
:10068000CE010E94650F61E0CE010E948D0F2FEF19
:1006900089EF90E0215080409040E1F700C00000D9
:1006A00062E0CE010E948D0F15E1CE010E94C611BD
:1006B000882341F02AE02A95F1F700C01150A9F7EC
:1006C00010E01BC00EE2CE010E94C611182F81114E
:1006D00007C08AE08A95F1F700C00150A1F7F0CF7A
:1006E0000EE2CE010E94C611882339F09AE09A9555
:1006F000F1F700C00150A9F7E3CF812FDF91CF912F
:100700001F910F9108952F923F924F925F926F9297
:100710007F928F929F92AF92BF92CF92DF92EF9291
:10072000FF920F931F93CF93DF93CDB7DEB7279739
:100730000FB6F894DEBF0FBECDBF8C0180912104AF
:1007400090912204892B41F586E191E00E94D70225
:10075000FC01E95FFE4F28EC30E0318320833296C4
:1007600029EC30E03183208332962AEC30E031836B
:10077000208332962DEC30E03183208332962CECAE
:1007800030E03183208332962EEC30E031832083B9
:10079000909322048093210420902104309022041D
:1007A000CE0101964C0185E0F40111928A95E9F79A
:1007B000C8010E94380381110AC0FFEF27EA81E6D1
:1007C000F15020408040E1F700C000009AC062E094
:1007D000C8010E948D0FFE013696FF83EE8387E0ED
:1007E000A82EB12C0E94CA192B013C01C8010E94FD
:1007F000C611811116C00E94CA196B017C01C41870
:10080000D508E608F708D701C60184199509A60995
:10081000B7098A359105A105B10540F387E093E05A
:1008200019C00E94CA192B013C01C8010E94C611BF
:100830008823D9F00E94CA196B017C01C418D5081D
:10084000E608F708FAE5CF16D104E104F10468F3ED
:1008500088E193E09F938F933F922F920E94D7134A
:100860000F900F900F900F904CC0FF92EF92DF927D
:10087000CF9285E293E09F938F933F922F920E94B5
:10088000D7130FB6F894DEBF0FBECDBF94E1C916E3
:10089000D104E104F10460F081E090E00A2C01C091
:1008A000880F0A94EAF78095F40190818923808368
:1008B000F1E0AF1AB10808F095CFF40181914F0132
:1008C0001F928F938CE293E09F938F933F922F928E
:1008D0000E94D7130F900F900F900F900F900F90D2
:1008E0008E819F818816990609F079CF8981F80158
:1008F00085A38A8186A38B8187A38C8180A78D8124
:1009000081A727960FB6F894DEBF0FBECDBFDF914B
:10091000CF911F910F91FF90EF90DF90CF90BF90FC
:10092000AF909F908F907F906F905F904F903F908F
:100930002F900895FC0195A186A1980F87A1980F8B
:1009400080A5980F81E021A5921380E008950F9370
:100950001F93CF93DF93EC01062F142F1882198277
:100960001A8284E08B8381E08C831E821D821F8229
:10097000CE0108960E94CE0508831983DF91CF919E
:100980001F910F910895FF920F931F93CF93DF93C1
:100990008C01FC018281F0E28F9F90011124F8010B
:1009A0009381F4E09F9FC0011124822BF801F7800E
:1009B000F82AE80128966081CE010E94D50560E002
:1009C000CE010E94FB056F2DCE010E94FB05CE01DA
:1009D0000E94F705F8016081CE010E94D50561E013
:1009E000CE010E94FB05F80164816295660F607E6E
:1009F000CE010E94FB05CE010E94F705F80160813F
:100A0000CE010E94D50562E0CE010E94FB05F801EF
:100A10006581CE010E94FB05CE01DF91CF911F9130
:100A20000F91FF900C94F7050F931F93CF93DF93D3
:100A3000EC01862F6A81962F9F7920E2829FB00178
:100A40001124692B6A838E01085F1F4F6881C801DA
:100A50000E94D50560E0C8010E94FB056A81C801BB
:100A60000E94FB05C801DF91CF911F910F910C945B
:100A7000F705FC01828108950895FC0183810895A2
:100A80000895FC01848108950895FC018581968173
:100A900008950895FC01878108958F929F92AF92E7
:100AA000BF92EF92FF920F931F93CF93DF9300D0EB
:100AB00000D0CDB7DEB77C0106E010E09E012F5FCD
:100AC0003F4F43E0FC01608108960E9497076981CF
:100AD0007A81762767277627F701728761878B816E
:100AE0009C81982789279827968785870D811E8165
:100AF00010270127102714870387072E000C880B67
:100B0000990B0E949C244B015C01B801110F880BCA
:100B1000990B0E949C24A50194010E949A2320E035
:100B200030E044E353E40E9457252BED3FE049E4D5
:100B300050E40E94F92320E030E044E353E40E94B3
:100B40001B23F7016787708B818B928B26960FB6DC
:100B5000F894DEBF0FBECDBFDF91CF911F910F91F3
:100B6000FF90EF90BF90AF909F908F9008950F935C
:100B70001F93CF93DF93EC018B01CB010E944D05B6
:100B80008AE0F8013996DE0101900D928A95E1F72D
:100B9000CE01DF91CF911F910F9108950895609339
:100BA000B80008951092B80008951092BC0084EA2D
:100BB0008093BC008091BC0087FFFCCF8091B9007E
:100BC000887F883011F081E008956093BB0084E84D
:100BD0008093BC008091BC0087FFFCCF8091B9005E
:100BE000887F883111F0803471F780E0089584E9BE
:100BF0008093BC0008956093BB0084E88093BC00A0
:100C00008091BC0087FFFCCF9091B900987F81E074
:100C1000983209F480E00895CF92DF92EF92FF922C
:100C20001F93CF93DF936C01EB017B01E40EF51E64
:100C300011E0CE15DF0531F06991C6010E94FB0578
:100C40001823F7CF812FDF91CF911F91FF90EF9065
:100C5000DF90CF900895BF92CF92DF92EF92FF92F4
:100C60000F931F93CF93DF936C01B42E052F79015F
:100C70000E94D505182F882311F011E011C0CB2D4B
:100C8000D02FEC0EFD1ECE15DF0539F06991C6019F
:100C90000E94FB058823B9F3F0CF84E98093BC0060
:100CA000812FDF91CF911F910F91FF90EF90DF90F7
:100CB000CF90BF900895AF92BF92CF92DF92EF9204
:100CC000FF920F931F93CF93DF937C01C42F5901A1
:100CD00068010E94D505182F882311F011E014C077
:100CE0006C2FC7010E94FB05E501CA0CDB1CCC156B
:100CF000DD0539F06991C7010E94FB058823B9F32E
:100D0000EDCF84E98093BC00812FDF91CF911F91BB
:100D10000F91FF90EF90DF90CF90BF90AF9008952C
:100D2000CF92DF92EF92FF920F931F93CF93DF93B7
:100D30001F921F92CDB7DEB76C0119821A82E12C87
:100D4000F12C00E010E0602FC6010E94D505811152
:100D50001AC0E1E0F0E0EC0FFD1FEE0DFF1D008377
:100D6000EA94EF2869F49A8189810F900F90DF91BE
:100D7000CF911F910F91FF90EF90DF90CF9008954A
:100D8000EE24E394F12C0F5F1F4F011581E018074B
:100D9000D1F6E9CF6F927F928F929F92AF92BF92DE
:100DA000CF92DF92EF92FF920F931F93CF93DF9337
:100DB0001F921F92CDB7DEB74C0180E090E00E94F9
:100DC00015267C0119821A82A12CB12C00E010E0BA
:100DD000C12CD12C6C2DC4010E94D505811129C0D4
:100DE000E1E0F0E0EC0FFD1FE00FF11FC0820130E9
:100DF0001105D1F4E114F104D1F069807A808FEF0C
:100E0000A81AB80A8501000F111FB801C7010E9476
:100E100036277C01009759F002501109FC01E00FC0
:100E2000F11F6082718203C001E010E002C000E0A7
:100E300010E08FEFC81AD80AC11481E0D80651F625
:100E4000B701C5010F900F90DF91CF911F910F91C6
:100E5000FF90EF90DF90CF90BF90AF909F908F90DA
:100E60007F906F90089584EC8093BC008091BC00CB
:100E700087FFFCCF8091BB00089584E88093BC007D
:100E80008091BC0087FFFCCF8091BB000895CF9379
:100E9000DF93EC0161600E94D505811107C0CE018E
:100EA0000E943D0794E99093BC0001C080E0DF916F
:100EB000CF9108958F929F92AF92BF92CF92DF927F
:100EC000FF920F931F93CF93DF936C015A01890117
:100ED00061600E94D505F82E81111AC04501E80114
:100EE0002197C4018A199B098C179D0738F4C60104
:100EF0000E943307F40181934F01F3CFCA0DDB1D2C
:100F0000C6010E943D07888384E98093BC0002C02B
:100F1000FF24F3948F2DDF91CF911F910F91FF90BC
:100F2000DF90CF90BF90AF909F908F900895AF9239
:100F3000BF92CF92DF92FF920F931F93CF93DF93D5
:100F4000EC01F62EB42E69010E94D505882319F014
:100F5000FF24F39426C06B2DCE010E94FB056F2D5C
:100F60006160CE010E94D505F82E8111F1CF5601A6
:100F700001501109C5018C199D098017910738F49A
:100F8000CE010E943307F50181935F01F3CF0C0D71
:100F90001D1DCE010E943D07F801808384E98093E6
:100FA000BC008F2DDF91CF911F910F91FF90DF90AB
:100FB000CF90BF90AF90089590933F0380933E03EE
:100FC00070933D0360933C030895F894880F8093D9
:100FD000BA0085EC8093BC0078940895F894109240
:100FE000BC001092BA00789408951F920F920FB629
:100FF0000F9211240BB60F922F933F934F935F9351
:101000006F937F938F939F93AF93BF93EF93FF93D0
:101010008091B900887F803859F028F4811115C07B
:101020001092BC0012C0883A59F0883B49F00DC0BC
:101030008091BB00E0913E03F0913F03199505C0FC
:10104000E0913C03F0913D03199585EC8093BC0041
:10105000FF91EF91BF91AF919F918F917F916F9190
:101060005F914F913F912F910F900BBE0F900FBE4C
:101070000F901F901895CF93DF93EB01DA019091B9
:101080002102981709F48EC0891760F090912C0204
:10109000891302C0E4E001C0EFEF90913702891399
:1010A00012C014C090911602891302C0E2E001C080
:1010B000EFEF90910B02891301C0E1E090910002E3
:1010C000891709F471C0EF3F11F42DC0E5E08BE002
:1010D000E89FF0011124E050FE4F818111968C931E
:1010E00011978481958115969C938E931497868190
:1010F00016968C931697878117968C9317978085F1
:1011000018968C931897818519968C9319978285D8
:101110001A968C931A978281938113969C938E933F
:10112000129782E043C090918802891721F18917B4
:1011300028F0AFE8B2E0EFEF9AE014C0EFEF9AE0EA
:1011400027E09150299FD0011124AE5BBD4F3C9107
:10115000831301C0E92F9111F4CF0AC02C9182179B
:1011600029F017969F5F9531C9F702C0E92FF9CF93
:10117000EF3F11F415C0EAE087E0E89FF001112489
:10118000EE5BFD4F8181898382818A83858196818F
:101190009E838D83838194819C838B8381E006C0B1
:1011A00080E004C0E3E093CFE0E091CFDF91CF9106
:1011B0000895CF92DF92FF920F931F93CF93DF9307
:1011C000CDB7DEB762970FB6F894DEBF0FBECDBFC6
:1011D000182F062F6A01AE014F5F5F4FBE01645F9B
:1011E0007F4F0E943B08813021F0823009F447C0D4
:1011F00078C08D85813049F1A8F08230C1F58091A9
:10120000680084608093680020916D0081E090E028
:101210000E8402C0880F991F0A94E2F7822B8093F4
:101220006D0025C0809168008160809368002091E6
:101230006B0081E090E00E8402C0880F991F0A9431
:10124000E2F7822B80936B0012C08091680082606D
:101250008093680020916C0081E090E00E8402C0D1
:10126000880F991F0A94E2F7822B80936C00EF8518
:10127000F889D182C082E989FA89008330C0F89464
:10128000013049F020F0023021F0053029F4F884D3
:1012900003C0F98401C0FA848A81882341F0813037
:1012A00059F480916A008F2980936A0005C080916B
:1012B00069008F29809369002DB381E090E00B8451
:1012C00002C0880F991F0A94E2F7822B8DBBEB8135
:1012D000FC81D182C082ED81FE81F082789481E030
:1012E0001CC00430C9F425E0129FC0011124FC0188
:1012F000E559FD4F2491FC01E759FD4FA591B491AB
:1013000012963C91129781E090E001C0880F2A95D7
:10131000EAF7832B12968C9380E062960FB6F894CE
:10132000DEBF0FBECDBFDF91CF911F910F91FF9018
:10133000DF90CF900895CF93DF93CDB7DEB762975C
:101340000FB6F894DEBF0FBECDBFAE014F5F5F4F4B
:10135000BE01645F7F4F0E943B08813019F08230EC
:10136000C9F153C08D85813029F198F0823091F513
:1013700020916D0081E090E00E8402C0880F991FDB
:101380000A94E2F78095822380936D0080916D002E
:1013900021C020916B0081E090E00E8402C0880F94
:1013A000991F0A94E2F78095822380936B008091C5
:1013B0006B0010C020916C0081E090E00E8402C0B0
:1013C000880F991F0A94E2F78095822380936C001E
:1013D00080916C009DB321E030E0A9010B8402C034
:1013E000440F551F0A94E2F7842F809589238DBB03
:1013F0008DB30B8402C0220F331F0A94E2F790E0F2
:101400002823392381E0232B09F080E062960FB670
:10141000F894DEBF0FBECDBFDF91CF910895EF925C
:101420000F93CF93DF931F92CDB7DEB7FC01DA01A4
:10143000922F802FE982633061F128F4613049F006
:10144000623089F04CC0643071F1653009F441C0FC
:1014500046C02C9130E002C0359527959A95E2F769
:1014600020FF3DC036C06C9121E030E0092E02C063
:10147000220F331F0A94E2F770E0A9014623572395
:101480009A0102C0359527959A95E2F7232B39F5F5
:1014900020C02C9130E002C0359527959A95E2F74F
:1014A00020FF17C015C06C9121E030E0092E02C06A
:1014B000220F331F0A94E2F770E0A9014623572355
:1014C0009A0102C0359527959A95E2F7232B09F4E6
:1014D00099810F90DF91CF910F91EF9019940F9018
:1014E000DF91CF910F91EF9008951F920F920FB659
:1014F0000F9211240BB60F92EF920F932F933F93FD
:101500004F935F936F937F938F939F93AF93BF930B
:10151000EF93FF93CF93DF931F92CDB7DEB793B1D5
:10152000809142038927898383B18093420320E01D
:1015300030E0898190E0022E02C0959587950A944B
:10154000E2F780FF33C067E0629FD001639FB00D78
:101550001124A757BC4F1396ED91FC9114978081ED
:1015600091814091450250914602E41BF50BF5959F
:10157000E7956E9FA0016F9F500D1124FA01EE5B5D
:10158000FD4F008145E0049FF0011124E759FD4F14
:10159000459154911596ED91FC91169760810097B5
:1015A00059F0E09042030E940F0A06C02F5F3F4FA0
:1015B0002830310509F0BDCF0F90DF91CF91FF9119
:1015C000EF91BF91AF919F918F917F916F915F91BB
:1015D0004F913F912F910F91EF900F900BBE0F9075
:1015E0000FBE0F901F9018951F920F920FB60F927B
:1015F00011240BB60F92EF920F932F933F934F93BB
:101600005F936F937F938F939F93AF93BF93EF936A
:10161000FF93CF93DF931F92CDB7DEB79091030175
:10162000809141038927898380910301809341033D
:10163000898180FD07C0898181FF39C081E090E008
:1016400021E003C080E090E020E037E0389FD00147
:10165000399FB00D1124AD5BBC4F1396ED91FC91F9
:101660001497808191814091450250914602E41B7C
:10167000F50BF595E7953E9FA0013F9F500D112476
:10168000FA01EE5BFD4F008135E0039FF00111246C
:10169000E759FD4F459154911596ED91FC911697A0
:1016A0006081009721F0E09041030E940F0A0F90A3
:1016B000DF91CF91FF91EF91BF91AF919F918F916A
:1016C0007F916F915F914F913F912F910F91EF908B
:1016D0000F900BBE0F900FBE0F901F9018951F928A
:1016E0000F920FB60F9211240BB60F92AF92BF92CA
:1016F000CF92DF92EF92FF920F931F932F933F931E
:101700004F935F936F937F938F939F93AF93BF9309
:10171000EF93FF93CF93DF931F92CDB7DEB79091F6
:101720000601809140038927898380910601809377
:10173000400331E5A32E33E0B32EC12CD12C17E0AA
:1017400045E0F42E898190E00C2C02C09595879598
:101750000A94E2F780FF2BC0D5011396ED91FC911E
:101760001497808191812091450230914602E21BBD
:10177000F30BF595E7951E9F90011F9F300D1124E7
:10178000F901EE5BFD4F0081F09EF0011124E75955
:10179000FD4F45915491009751F0E090400315960C
:1017A000ED91FC9116972C2D60810E940F0ABFEFDE
:1017B000CB1ADB0A87E0A80EB11CA8E0CA16D10438
:1017C00009F0C0CF0F90DF91CF91FF91EF91BF91C2
:1017D000AF919F918F917F916F915F914F913F91C9
:1017E0002F911F910F91FF90EF90DF90CF90BF90BE
:1017F000AF900F900BBE0F900FBE0F901F901895DB
:101800001F920F920FB60F9211240BB60F922F93C7
:101810003F934F935F936F937F938F939F93AF9378
:10182000BF93EF93FF93F894A0E0B2E0D996ED91C7
:10183000FC91DA970190F081E02DD7968C91199563
:101840007894FF91EF91BF91AF919F918F917F918C
:101850006F915F914F913F912F910F900BBE0F9021
:101860000FBE0F901F9018951F920F920FB60F92F8
:1018700011240BB60F922F933F934F935F936F9367
:101880007F938F939F93AF93BF93EF93FF93F894BE
:10189000A0E0B2E09E96ED91FC919F970190F081BF
:1018A000E02D9C968C9119957894FF91EF91BF91C2
:1018B000AF919F918F917F916F915F914F913F91E8
:1018C0002F910F900BBE0F900FBE0F901F90189589
:1018D0001F920F920FB60F9211240BB60F922F93F7
:1018E0003F934F935F936F937F938F939F93AF93A8
:1018F000BF93EF93FF93F894A0E0B2E09396ED913D
:10190000FC9194970190F081E02D91968C9119951E
:101910007894FF91EF91BF91AF919F918F917F91BB
:101920006F915F914F913F912F910F900BBE0F9050
:101930000FBE0F901F9018951F920F920FB60F9227
:1019400011240BB60F922F933F934F935F936F9396
:101950007F938F939F93AF93BF93EF93FF93F894ED
:10196000A0E0B2E05896ED91FC9159970190F0817A
:10197000E02D56968C9119957894FF91EF91BF9137
:10198000AF919F918F917F916F915F914F913F9117
:101990002F910F900BBE0F900FBE0F901F901895B8
:1019A0001F920F920FB60F9211240BB60F922F9326
:1019B0003F934F935F936F937F938F939F93AF93D7
:1019C000BF93EF93FF93F894A0E0B2E01296ED91ED
:1019D000FC9113970190F081E02D8C9119957894EA
:1019E000FF91EF91BF91AF919F918F917F916F91F7
:1019F0005F914F913F912F910F900BBE0F900FBEB3
:101A00000F901F9018951F920F920FB60F921124EE
:101A10000BB60F922F933F934F935F936F937F93E8
:101A20008F939F93AF93BF93EF93FF93F894A0E0AE
:101A3000B2E01D96ED91FC911E970190F081E02D92
:101A40001B968C9119957894FF91EF91BF91AF916E
:101A50009F918F917F916F915F914F913F912F91C6
:101A60000F900BBE0F900FBE0F901F9018951F92F6
:101A70000F920FB60F9211240F900FBE0F901F9070
:101A800018951F920F920FB60F9211240F900FBE50
:101A90000F901F901895F89480911804982F7894BF
:101AA00056B552955F70907F92958F708295850F95
:101AB00008958F93809118048395809318048F91D3
:101AC0001895000018950F931F93CF93DF93EC01A7
:101AD0008B010E94CE051C821B821E821D821886ED
:101AE0001F821A8619861C861B861E861D86188AEA
:101AF0001F86198A1A8A1A830983DF91CF911F9151
:101B00000F9108950F931F93CF93DF93EC01062F4E
:101B1000142F0E94CE051C821B821E821D821886F5
:101B20001F821A8619861C861B861E861D86188AA9
:101B30001F86198A1A8A09831A83DF91CF911F9110
:101B40000F910895CF93DF93EC0169810E94D50531
:101B50006BE6CE010E94FB0560E0CE010E94FB0512
:101B6000CE01DF91CF910C94F705CF93DF93EC0179
:101B700069810E94D5056BE6CE010E94FB056A8152
:101B8000CE010E944707682F6064CE010E94FB05CA
:101B9000CE01DF91CF910C94F7050F931F93CF9354
:101BA000DF938C01EB016981CE010E94D5056BE3C7
:101BB000CE010E94FB056A81CE010E94D505CE01AF
:101BC0000E9433078C83CE010E9433078B83CE01A2
:101BD0000E9433078E83CE010E9433078D83CE018E
:101BE0000E9433078887CE010E9433078F83CE017E
:101BF0000E9433078A87CE010E9433078987CE016E
:101C00000E9433078C87CE010E9433078B87CE0159
:101C10000E9433078E87CE010E9433078D87CE0145
:101C20000E943307888BCE010E943D078F878EE08C
:101C3000FE013396D80101900D928A95E1F7C80113
:101C4000DF91CF911F910F910895DF92EF92FF9254
:101C50000F931F93CF93DF93CDB7DEB72E970FB6B9
:101C6000F894DEBF0FBECDBF8C017B01D42ECE0118
:101C700001960E94CD0DF70163817481072E000C3F
:101C8000880B990B0E949C2420E030E040E858E348
:101C90000E945725F8016083718382839383F70143
:101CA00065817681072E000C880B990B0E949C247D
:101CB00020E030E040E858E30E945725F8016483B3
:101CC000758386839783F70167817085072E000CE3
:101CD000880B990B0E949C2420E030E040E858E3F8
:101CE0000E945725F8016087718782879387F701E3
:101CF00063857485072E000C880B990B0E949C2429
:101D00002DEC3CEC4CE152E40E94572520E03FEFE3
:101D10004FE757E40E94F923F801608B718B828BA7
:101D2000938BF70165857685072E000C880B990B40
:101D30000E949C242DEC3CEC4CE152E40E9457257F
:101D400020E03FEF4FE757E40E94F923F801648B4E
:101D5000758B868B978BF70167857089072E000C32
:101D6000880B990B0E949C242DEC3CEC4CE152E436
:101D70000E94572520E03FEF4FE757E40E94F923E8
:101D8000F801608F718F828F938FF7016185728563
:101D9000072E000C880B990B0E949C2420E030E059
:101DA0004AEA53E40E94F92328EB3EE142E152E47F
:101DB0000E941B23F1E0DF1651F0DF16A0F022E0B5
:101DC000D21216C023E333E948E853E40AC026E6FA
:101DD00036E646EE5FE30E94572520E030E040E023
:101DE00052E40E941B23F8016487758786879787D2
:101DF000C8012E960FB6F894DEBF0FBECDBFDF919F
:101E0000CF911F910F91FF90EF90DF900895CF93A6
:101E1000DF93EC01660F660F660F698B69810E9484
:101E2000D5056CE1CE010E94FB056989CE010E94B7
:101E3000FB05CE01DF91CF910C94F705FC01818960
:101E40000895CF93DF93EC01660F660F660F6A8BE0
:101E500069810E94D5056BE1CE010E94FB056A896C
:101E6000CE010E94FB05CE01DF91CF910C94F705C6
:101E7000FC01828908950895DC011296ED91FC9190
:101E80001397408121E030E0C90118960C9002C000
:101E9000880F991F0A94E2F7842B80830895DC0150
:101EA0001296ED91FC91139718963C91208181E058
:101EB00090E001C0880F3A95EAF7662311F0822B73
:101EC00002C08095822380830895DC011296ED91F3
:101ED000FC911397408121E030E0B90118960C90F5
:101EE00002C0660F771F0A94E2F7CB018095842326
:101EF00080830895DC011296ED91FC911397408147
:101F000021E030E0C90118960C9002C0880F991F9B
:101F10000A94E2F7842780830895DC01ED91FC9117
:101F2000119718965C91613051F4208181E090E026
:101F300001C0880F5A95EAF7822B8083089540816B
:101F400021E030E001C0220F5A95EAF720952423C2
:101F50002083623011F40C943C0F08950F931F936B
:101F6000CF93DF93CDB7DEB7AC970FB6F894DEBF53
:101F70000FBECDBF2FEF3FEFDC0117963C932E93A2
:101F800016972FEF30E01B963C932E931A971D96D1
:101F90003C932E931C971F963C932E931E9751961D
:101FA0003C932E93509753963C932E93529755966D
:101FB0003C932E93549757963C932E93569759964D
:101FC0003C932E9358975B963C932E935A975D962D
:101FD0003C932E935C972CE0EBEDF2E0DE019196C2
:101FE00001900D922A95E1F720E2E7EEF2E0DE01A2
:101FF000119601900D922A95E1F7B5E06B9F900143
:102000001124F901E953FC4FA591B491FC01B5836A
:10201000A4838D010F5F1F4F118300831296B3833A
:10202000A283F901E753FC4FE491DC011896EC938D
:1020300026533C4FF901A591B491FC01B3A3A2A38F
:1020400064A3F90165917491F90175FF33C025917D
:10205000349153E0DC0119965C931997F901EE274E
:10206000FC71EF2FFF27E69521E030E02C0F3D1F9C
:10207000E20FF31F20A131A11B963C932E931A97D8
:10208000B9016F5F7F4F1D967C936E931C976F5FB6
:102090007F4F53967C936E9352976E5F7F4F1F9640
:1020A0007C936E931E972A5F3F4F55963C932E93D9
:1020B00054971DC0549157FF1AC054E0DC01199683
:1020C0005C93199725913491F901E877FF27F695EC
:1020D000E795F695E79521E030E02C0F3D1FE20FE4
:1020E000F31F2081318117963C932E931697642F0E
:1020F000AC960FB6F894DEBF0FBECDBFDF91CF9187
:102100001F910F910C948D0F8F929F92AF92BF925F
:10211000CF92DF92EF92FF921F93CF93DF93EC0168
:102120008985833009F074C0122FCB01BA010E9457
:102130009A249B01AC0160E070E080E89FE30E947C
:10214000F9232DEB37E346E853E30E94F9230E947D
:102150006B246B017C017F8F6E8F80E090E00E948A
:102160009A244B015C01612F70E080E090E00E94B6
:102170009A2420E030E048EC52E40E94F923A501C3
:1021800094010E9457259B01AC01C501B4010E9436
:102190001A230E946B2479A368A3EC89FD89D1825C
:1021A000C0828AA19BA188279370892F9927AA852D
:1021B000BB858130910579F040F0029791F4369615
:1021C000F98BE88B8C918C600BC03296F98BE88B85
:1021D0008C91806C05C03496F98BE88B8C91806370
:1021E0008C93E889F98988A199A191838083EA85F4
:1021F000FB85808182608083EC85FD85808188619C
:102200008083EC85FD8580818160808381E001C0D1
:1022100080E0DF91CF911F91FF90EF90DF90CF9002
:10222000BF90AF909F908F900895CF92DF92EF92E2
:10223000FF921F93CF93DF93EC01162F8985823095
:1022400051F1833009F041C06E8D7F8D80E090E0C8
:102250000E949A246B017C01612F70E080E090E085
:102260000E949A2420E030E048EC52E40E94F923D6
:10227000A70196010E9457259B01AC01C701B60139
:102280000E941A230E946B2479A368A3E889F98924
:102290007183608318C070E080E090E00E949C240D
:1022A00023E333E343E250EC0E94572520E030E083
:1022B0004FE753E40E941B230E946B2468A379A379
:1022C000EC8DFD8D608381E001C080E0DF91CF91D6
:1022D0001F91FF90EF90DF90CF9008958F929F9283
:1022E000AF92BF92CF92DF92EF92FF92CF93DF93A4
:1022F000EC017B018E8D9F8D68A179A10E94FE2249
:1023000080E090E00E949A244B015C01B70180E0DC
:1023100090E00E949A249B01AC0160E070E080E8AC
:102320009FE30E94F9232DEB37E346E853E30E9435
:10233000F9230E946B246B017C017F8F6E8F80E0FC
:1023400090E00E949A24A50194010E94F9230E9422
:102350006B2479A368A38985833061F4EC89FD89B6
:10236000D182C082E889F98988A199A1918380836B
:1023700081E001C080E0DF91CF91FF90EF90DF908E
:10238000CF90BF90AF909F908F900895DC011496EE
:10239000ED91FC911597208130E0F90118960C9091
:1023A00002C0F595E7950A94E2F7CF018170089590
:1023B000FC013185332341F1868197818F3FFFEF07
:1023C0009F0721F170E0722B862B972B20917A00CA
:1023D000211106C020917A002068422B40937A0098
:1023E00020917A0090937B0080937C0080917A000A
:1023F000806480937A0080917A0086FDFCCF809182
:1024000078009091790008958FEF9FEF08950895D7
:10241000FC0184A10895CF92DF92EF92FF92CF93B7
:10242000DF93EC016E8D7F8D80E090E00E949A2416
:102430006B017C0168A179A180E090E00E949A2460
:102440009B01AC01C701B6010E941A2320E030E0D5
:1024500048EC52E40E945725A70196010E94F923F7
:102460000E946B24862FDF91CF91FF90EF90DF9039
:10247000CF900895FC0180850895FC0184819581A9
:102480000895CB01BA010E949A249B01AC0160E03F
:1024900070E080E89FE30E94F9232DEB37E346E8E4
:1024A00053E30E94F9230E946B24CB010895EF921D
:1024B000FF921F93CF93DF93EC01122FFC01E35F98
:1024C000FE4F0190F081E02D1082FC01E15FFE4F94
:1024D000E080F180CB01BA010E949A249B01AC01FB
:1024E00060E074E284E799E40E94F92320E030E0A0
:1024F00040E85FE30E941A230E94C4250E946B24D7
:10250000F7016083FE01E75FFE4F0190F081E02D4F
:1025100088E18083FE01E55FFE4F0190F081E02DB0
:1025200086E08083FE01ED5EFE4F108340E051E0C7
:102530006FEF70E0CE010E942329FE01ED5FFE4F98
:10254000D183C0833296D183C083339781E0808367
:10255000CC5EDE4F19821882DF91CF911F91FF90E0
:10256000EF900895CF93DF93FC01E95FFE4FA081C8
:10257000B181EC01CF5EDE4F2C9127FF04C0E881D2
:10258000F9812081F9CFDF91CF910895FC01E75FB8
:10259000FE4F0190F081E02D8081662321F080685C
:1025A0008083789408958F77808308959395FC01B4
:1025B00060830895CF93DF93FC01EB5FFE4F208192
:1025C00031812F5F3F4FAC0141505F4F421753079E
:1025D00018F03183208302C091838083A081B18170
:1025E000EC01CD5FDE4F28813981A217B30739F4A2
:1025F0001197A817B90728F45183408304C06C933E
:1026000002C0B183A083DF91CF910895FC01ED5FFB
:10261000FE4F20813181260F311D318320830895A3
:10262000FC01EF5FFE4F608338960190F081E02D52
:10263000808180688083789408958C5E9E4FFC0131
:102640007183608308958C5E9E4FDC01ED91FC9157
:10265000309709F0199408958F5F9E4FFC01808197
:102660000895DC01AD5FBE4FFC01EB5FFE4F81E0E2
:102670004D915C91208131814217530709F480E02C
:102680000895895F9E4FDC01ED91FC918081881F48
:102690008827881F08959395FC0180810895FC0187
:1026A000E95FFE4F0190F081E02D208127FFFDCFF3
:1026B000FC01EF5EFE4F0190F081E02D80810895D6
:1026C000EF92FF920F931F93CF93DF937C018B01C7
:1026D000D42FC0E0C7010E944F132C2F30E091E0AF
:1026E0009C0FF801E20FF31F8D1313C08AE0808363
:1026F000F801E90FF11D8DE08083CE5FF801EC0F4A
:10270000F11D1082DF91CF911F910F91FF90EF90FB
:1027100008958083C92FDECFCF93DF93DC01AE5FB6
:10272000BE4F1C92FC01ED5FFE4F208131812F5F77
:102730003F4FAC0141505F4F4217530718F03183B0
:10274000208302C0918380830190F081E02DEC0111
:10275000CB5FDE4F88819981E817F90711F081E09E
:102760008C938081DF91CF9108958D5E9E4FFC0107
:1027700080810895CF93DF9320E0DC01A95FBE4FF5
:10278000EC01CF5EDE4FFB01E20FF11D3081332300
:1027900059F0ED91FC911197408145FFFDCFE88103
:1027A000F98130832F5FEFCFDF91CF910895CF93E1
:1027B000DF93CDB7DEB7DA950FB6F894DEBF0FBE64
:1027C000CDBFAE01465F5E4FC85FDE4F6881798145
:1027D000C850D140CE0101960E94AF29BE016F5F63
:1027E0007F4FCA5FDE4F88819981C650D1400E94D9
:1027F000BA13D3950FB6F894DEBF0FBECDBFDF91ED
:10280000CF91089521E333E03F932F939F938F93CC
:102810000E94D7130F900F900F900F9008951F9262
:102820000F920FB60F9211240BB60F921F932F9396
:102830003F934F935F936F937F938F939F93AF9348
:10284000BF93CF93DF93EF93FF9380911F049091F9
:102850002004892B41F586E191E00E94D702FC011A
:10286000E95FFE4F20EC30E031832083329621EC8B
:1028700030E031832083329622EC30E031832083B4
:10288000329625EC30E031832083329624EC30E020
:1028900031832083329626EC30E03183208390937D
:1028A000200480931F04C0911F04D0912004109134
:1028B000C600612FCE010E94DA12FE01F3958081DD
:1028C000811119C0CE010E942313FF91EF91DF9176
:1028D000CF91BF91AF919F918F917F916F915F91B8
:1028E0004F913F912F911F910F900BBE0F900FBEF4
:1028F0000F901F9018951093C600E4CF1F920F926F
:102900000FB60F9211240BB60F921F932F933F9384
:102910004F935F936F937F938F939F93AF93BF93E7
:10292000CF93DF93EF93FF93809121049091220442
:10293000892B41F586E191E00E94D702FC01E95F15
:10294000FE4F28EC30E031832083329629EC30E0D2
:102950003183208332962AEC30E031832083329613
:102960002DEC30E03183208332962CEC30E0318343
:10297000208332962EEC30E0318320839093220422
:1029800080932104C0912104D09122041091CE00A3
:10299000612FCE010E94DA12FE01F3958081811130
:1029A00019C0CE010E942313FF91EF91DF91CF91C7
:1029B000BF91AF919F918F917F916F915F914F9157
:1029C0003F912F911F910F900BBE0F900FBE0F9054
:1029D0001F9018951093CE00E4CF1F920F920FB660
:1029E0000F9211240BB60F921F932F933F934F9387
:1029F0005F936F937F938F939F93AF93BF93CF9387
:102A0000DF93EF93FF938091230490912404892B0B
:102A100041F586E191E00E94D702FC01E95FFE4F9B
:102A200020ED30E031832083329621ED30E0318398
:102A30002083329622ED30E031832083329625EDDB
:102A400030E031832083329624ED30E031832083DF
:102A5000329626ED30E031832083909324048093D6
:102A60002304C0912304D09124041091D600612F37
:102A7000CE010E94DA12FE01F3958081811119C006
:102A8000CE010E942313FF91EF91DF91CF91BF916F
:102A9000AF919F918F917F916F915F914F913F91F6
:102AA0002F911F910F900BBE0F900FBE0F901F9094
:102AB00018951093D600E4CF1F920F920FB60F9285
:102AC00011240BB60F920F931F932F933F934F93A5
:102AD0005F936F937F938F939F93AF93BF93CF93A6
:102AE000EF93FF938091250490912604892B41F563
:102AF00086E191E00E94D702FC01E95FFE4F20E3EE
:102B000031E031832083329621E331E03183208329
:102B1000329622E331E031832083329625E331E09F
:102B200031832083329624E331E03183208332964F
:102B300026E331E03183208390932604809325049B
:102B40000091250410912604C09136016C2FC80114
:102B50000E94DA12F801F395808181111BC0C8012F
:102B60000E942313C093C600FF91EF91CF91BF91B4
:102B7000AF919F918F917F916F915F914F913F9115
:102B80002F911F910F910F900BBE0F900FBE0F90C2
:102B90001F901895C0933601E2CF8CB580648CBD30
:102BA00008958CB58F7B8CBD0895FC0163AB8CB50B
:102BB0008C7F8CBD8DB58E7F8DBD8DB523A922FBFD
:102BC000992790F9982B9DBD9CB583A98370892B7B
:102BD0008CBD0895FC0183A90895FC0164AB9CB5EC
:102BE0009F7D9CBD2CB594A930E2939FC001112418
:102BF000822B8CBD0895FC0184A90895FC0165AB6E
:102C00009CB5977F9CBD2CB595A938E0939FC001DA
:102C10001124822B8CBD0895FC0185A90895FC0127
:102C200066AB9CB59B7F9CBD2CB596A934E0939F69
:102C3000C0011124822B8CBD0895AF92BF92DF9208
:102C4000EF92FF920F931F93CF93DF93EC015B0101
:102C5000F22E032FE42ED52E8FEF9FEF998B888BCA
:102C60008FEF90E09D8B8C8B9F8B8E8B998F888FB5
:102C70009B8F8A8F9D8F8C8F9F8F8E8F99A388A318
:102C80009BA38AA39DA38CA39FA38EA31AAA19AA70
:102C900080E090E00E94152698AB8FA71BAA1CAA83
:102CA0001DAA1EAA8FEF8E838F838887898785E26E
:102CB000E0E0F0E0DE011A9601900D928A95E1F7CE
:102CC00087E3F501DE0101900D928A95E1F71CBCC6
:102CD000EA81FB81208181E090E0AC010F8002C09D
:102CE000440F551F0A94E2F7088402C0880F991F09
:102CF0000A94E2F7842B822B80835E018AE0A80E7F
:102D0000B11C61E0C5010E948D0FC5010E943C0FFE
:102D100010E0812F90E029A93AA98217930798F42F
:102D200085E2189F500111248FA598A961E08A0DB2
:102D30009B1D0E948D0F8FA598A98A0D9B1D0E9437
:102D40003C0F1F5FE6CF6D2DCE010E940F166E2D3A
:102D5000CE010E94FE156F2DCE010E94D515602F69
:102D6000CE010E94ED158CB580618CBDCE01DF9146
:102D7000CF911F910F91FF90EF90DF90BF90AF9098
:102D80000C94CD15FC0186A90895262F30E02F5F05
:102D90003F4FFC0141A952A94217530748F087A5AC
:102DA00090A9F5E26F9F800D911D11240C94650F81
:102DB0000895262F30E02F5F3F4FFC0141A952A913
:102DC0004217530748F087A590A9F5E26F9F800D41
:102DD000911D11240C943C0F08956EBD0DB407FE97
:102DE000FDCF0895CF92DF92EF92FF920F931F9342
:102DF000CF938C017B016A01C0E08C2F90E08C1591
:102E00009D0548F4F701E80FF91F6081C8010E9491
:102E1000ED16CF5FF2CFCF911F910F91FF90EF9002
:102E2000DF90CF9008950DB407FEFDCF8EB50895C5
:102E3000AF92BF92CF92DF92EF92FF921F93CF9308
:102E4000DF937C016B015A0110E0812F90E08A151D
:102E50009B0548F4E601C80FD91FC7010E9413174C
:102E600088831F5FF2CFDF91CF911F91FF90EF908A
:102E7000DF90CF90BF90AF9008956EBD0DB407FE68
:102E8000FDCF8EB508959F92AF92BF92CF92DF9201
:102E9000EF92FF920F931F93CF93DF938C015B010F
:102EA0007A016901912C892D90E08C159D0568F4BB
:102EB000E501C80FD91FF701E80FF91F6081C801AC
:102EC0000E943D1788839394EECFDF91CF911F919D
:102ED0000F91FF90EF90DF90CF90BF90AF909F90B9
:102EE000089570E06F5F7F4F21E0FC0181A992A9F6
:102EF0008617970708F420E0822F0895FC01F395C8
:102F00008FEF86838783808781870895EF92FF9272
:102F10000F931F93CF93DF93CDB7DEB72A970FB6EA
:102F2000F894DEBF0FBECDBFE982FA820B831C830B
:102F30002D833E834F83588769877A87DC01B39559
:102F40002AE0FE01319601900D922A95E1F71CBC12
:102F500014B81DBCFC01EE5FFE4FE080F180AC01B7
:102F6000495F5E4F21E030E0B901DA010C9002C008
:102F7000660F771F0A94E2F74F5F5F4F8901DA010E
:102F80000C9002C0000F111F0A94E2F7602BAC01F5
:102F9000475F5E4F8901DA010C9002C0000F111FDC
:102FA0000A94E2F7A801462B4095D7014C93019073
:102FB000F081E02D4081DC01AA5FBE4F0C9002C081
:102FC000220F331F0A94E2F7242B20832CB52F7E87
:102FD0002CBD2CB520642CBDFC01E65FFE4F118298
:102FE00010822A960FB6F894DEBF0FBECDBFDF91D8
:102FF000CF911F910F91FF90EF9008956F927F9264
:103000008F92AF92CF92EF92FF920F931F93CF9335
:10301000DF93CDB7DEB764970FB6F894DEBF0FBE6F
:10302000CDBF0B871C872D873E874F87588B698BB9
:103030007A8B8B8B9C8B8091120490911304892B3B
:1030400029F58AE0FE013B96DE01119601900D9272
:103050008A95E1F781E191E00E94D7023C011F923D
:10306000812C84E0A82EC12CE980FA800B811C8180
:103070002D813E814F81588569857A85C3010E94E3
:10308000861770921304609212040F9080911204BC
:103090009091130464960FB6F894DEBF0FBECDBFB7
:1030A000DF91CF911F910F91FF90EF90CF90AF9054
:1030B0008F907F906F9008958CB5662321F0806883
:1030C0008CBD789408958F778CBD08956EBD0DB436
:1030D00007FEFDCF0895CF92DF92EF92FF920F93FC
:1030E0001F93CF938C017B016A01C0E08C2F90E08D
:1030F0008C159D0548F4F701E80FF91F6081C801A0
:103100000E946618CF5FF2CFCF911F910F91FF9071
:10311000EF90DF90CF9008950DB407FEFDCF8EB5F0
:103120000895AF92BF92CF92DF92EF92FF921F93DA
:10313000CF93DF937C016B015A0110E0812F90E067
:103140008A159B0548F4E601C80FD91FC7010E94E4
:103150008C1888831F5FF2CFDF91CF911F91FF9072
:10316000EF90DF90CF90BF90AF900895FC01F39562
:103170000190F081E02D2081FC01E75FFE4F80810E
:1031800030E0082E02C0359527950A94E2F72170A9
:10319000332791E0292702C0359527958A95E2F7D4
:1031A00081E0232B09F480E008952CB520682CBD24
:1031B0007894FC01E65FFE4F718360830895865F1B
:1031C0009E4FDC01ED91FC91309711F0862F199400
:1031D0000895CF93DF93FC01E25FFE4F20813181A0
:1031E0002F5F3F4FAC0141505F4F4217530718F01C
:1031F0003183208302C091838083A081B181EC015F
:10320000C45FDE4F28813981A217B30739F41197C3
:10321000A817B90728F45183408304C06C9302C0F7
:10322000B183A083DF91CF910895CF93DF93DC0129
:10323000A05FBE4F1C92FC01E45FFE4F20813181F4
:103240002F5F3F4FAC0141505F4F4217530718F0BB
:103250003183208302C0918380830190F081E02D2F
:10326000EC01C25FDE4F88819981E817F90711F000
:1032700081E08C938081DF91CF910895DC01A45F80
:10328000BE4FFC01E25FFE4F81E04D915C912081D9
:1032900031814217530709F480E008951F920F927D
:1032A0000FB60F9211240BB60F920F931F932F930B
:1032B0003F934F935F936F937F938F939F93AF93BE
:1032C000BF93EF93FF93CF93DF93CDB7DEB72A97EA
:1032D000DEBFCDBF8FEF8F83888789878A8709817B
:1032E0001A812B813C814D815E816FEF7FEF9FEFD3
:1032F0000E94FE178C018EB589836981C8010E94E6
:10330000E9186981C8010E94DF182A960FB6F8945F
:10331000DEBF0FBECDBFDF91CF91FF91EF91BF9187
:10332000AF919F918F917F916F915F914F913F915D
:103330002F911F910F910F900BBE0F900FBE0F900A
:103340001F90189514BC15BC16BC8FEF87BD84B5B3
:10335000826084BD85B585BD82E080936E007894DF
:1033600081E080931A04089580911A04811102C0AB
:103370000E94A21910921B0410921C0410921D04AA
:1033800010921E0485B5816085BD089585B5887F3E
:1033900085BD08956091190470E080E090E0089583
:1033A00020FD09C0FC0123FD05C022FF02C073837C
:1033B000628351834083089544FD17C046FD17C0C2
:1033C000AB01BC01DA01FB01AA0FBB1FEE1FFF1FFF
:1033D0001094D1F74A0F5B1F6E1F7F1FCB01BA01FC
:1033E000660F771F881F991F09C033E001C034E0C2
:1033F000660F771F881F991F3150D1F7620F711D1B
:10340000811D911D08950F931F93CF93DF938C011E
:10341000C8010E943529EC0197FD08C00E94F328DD
:10342000892BB1F7B801CE010E94D829CE01DF91D6
:10343000CF911F910F9108958F929F92AF92BF925B
:10344000CF92DF92EF92FF920F931F93CF93DF9370
:103450007C018B016A01D22F0E9435299C01332700
:103460002B32310521F02D32310559F4D06801504D
:10347000110911F480E06BC0C7010E94352997FD46
:10348000F9CFCD2FCD7F2D2F207319F5803309F57E
:10349000580181E0A81AB10809F445C0C7010E948B
:1034A000352997FD40C09C012F7D332728353105F4
:1034B00051F4C26402501109B1F1C7010E943529CB
:1034C00097FF07C030C0D6FF02C0C26001C0C26112
:1034D0008501812C912C540120ED280F283080F09B
:1034E000C4FF04C0B7010E94D8291AC02A3040F096
:1034F000C6FFF8CF2F7D3FEE320F363098F72750BA
:103500004C2FC501B4010E94DC194B015C01C26063
:103510000150110959F0C7010E94352997FFDCCFEE
:10352000C1FD04C0A7CF812C912C5401C7FF08C056
:10353000B094A09490948094811C911CA11CB11C07
:103540002C2FB501A401C6010E94D01981E0DF91A2
:10355000CF911F910F91FF90EF90DF90CF90BF9090
:10356000AF909F908F9008954F925F926F927F924D
:103570008F929F92AF92BF92CF92DF92EF92FF9283
:103580000F931F93CF93DF93CDB7DEB7A0970FB6FE
:10359000F894DEBF0FBECDBF5C014B017A018E01F6
:1035A0000F5F1F4F680180E2F80111928A95E9F7D9
:1035B000F501538040E050E0612C90E0712CA1E0D7
:1035C000B0E0F90153FC859153FE81918F01482EA3
:1035D0009F01811103C080E090E096C08E3519F400
:1035E0004115510551F1672D70E0641775073CF4E2
:1035F0008D3561F18D3219F4992311F103C09923AE
:1036000009F46DC0842D869586958695F601E80FA0
:10361000F11D842D87708D0102C0000F111F8A9546
:10362000E2F7C8019081892B8083641459F0461415
:1036300010F44394E7CF4A94E5CF7724739403C002
:1036400091E001C090E04F5F5F4FBBCF992319F02D
:103650008E8180628E83711003C07724739419C0A9
:10366000F6019E012F5D3F4F8081809581932E173B
:103670003F07D1F7F2CFE114F10431F0F701808375
:10368000B7016F5F7F4F7B0171E0871A9108712C42
:10369000F9F0C5010E94352997FD18C0FC01FF27EC
:1036A00023E0F595E7952A95E1F7EC0DFD1D2081C6
:1036B00030E0AC014770552702C0359527954A95F3
:1036C000E2F720FDD8CFB5010E94D829711083CF31
:1036D000E114F10411F0F7011082C80115C0682F40
:1036E000669566956695F601E60FF11D682F677081
:1036F0008D0102C0000F111F6A95E2F7B8017081B9
:10370000672B6083682E9FCFA0960FB6F894DEBF1C
:103710000FBECDBFDF91CF911F910F91FF90EF9022
:10372000DF90CF90BF90AF909F908F907F906F90E1
:103730005F904F9008952F923F924F925F926F92B9
:103740007F929F92AF92BF92CF92DF92EF92FF92C1
:103750000F931F93CF93DF936C018B011A010E948B
:103760003529EC0199278B32910529F08D9781F449
:1037700030E8932E01C0912C0150110911F480E022
:103780000CC1C6010E943529EC0197FF02C0F7CF9A
:10379000912CCE010E94FC288936910531F08E369D
:1037A000910599F5CEE2D2E002C0C1E3D2E02196C4
:1037B000FE013197B490BB20C9F00150110991F07E
:1037C000C6010E9435297C0197FD0CC00E94FC288F
:1037D0009927EB2DF0E08E179F0749F3B601C7013B
:1037E0000E94D829C453D24051F603C0C153D240DD
:1037F00029F080E090E0A0E8BFE704C080E090E01E
:10380000A0ECBFE7BC01CD01B8C0412C512C320166
:10381000E12CF12C2C2F20532A3010F5E92DE260F9
:10382000BE2E892D887092FE06C0811120C0FFEF48
:10383000EF1AFF0A1CC0882319F081E0E81AF1088A
:1038400040E2C301B2010E94DC192B013C0168393E
:1038500079498949994158F0F92DF660BF2E07C082
:103860002E3F89F493FC0FC0292D2860B22E015001
:10387000110941F0C6010E943529EC019B2C97FFEC
:10388000C9CF01C09B2C91FE7ACFCE018F7D9927A5
:103890008534910509F042C0580181E0A81AB108A9
:1038A00009F46DCFC6010E943529EC0197FD67CF61
:1038B00099278B32910529F08D9769F4E92DE06104
:1038C0009E2E5801F2E0AF1AB10809F458CFC60194
:1038D0000E943529EC01CE01C0970A9708F04FCF1E
:1038E0008501A12CB12CB501BB0C880B990B2C2F99
:1038F000205340E20E94DC195B010150110939F0AC
:10390000C6010E943529EC01C0970A9760F394FE26
:1039100003C0B194A194B108EA0CFB1C012B31F057
:10392000D7FD04C0B601CE010E94D829C301B2015F
:103930000E949A24F7FE06C0F194E194F108CDE4C8
:10394000D2E002C0C5E6D2E06E0128E1C21AD10879
:1039500000E210E0E016F10650F0FE0125913591ED
:10396000459154910E945725E01AF10AF3CF24970C
:1039700016950795CC16DD0669F797FE05C0DC01A4
:10398000CB01B058BC01CD012114310429F0F10163
:10399000608371838283938381E0DF91CF911F9154
:1039A0000F91FF90EF90DF90CF90BF90AF909F90DE
:1039B0007F906F905F904F903F902F9008956F92FF
:1039C0007F928F929F92AF92BF92CF92DF92EF92AF
:1039D000FF920F931F93CF93DF935C01EB014A019A
:1039E000FC0117821682612CF5010381FE0103FDA3
:1039F000859103FF8191182FEF01882309F40FC1EE
:103A000090E00E94F328892B21F0C5010E94031A3F
:103A1000EBCF153241F4FE0103FD159103FF119127
:103A2000EF01153281F4C5010E94352997FDF5C0DB
:103A3000412F50E09C01332724173507A9F2B50127
:103A40000E94D829ECC01A3241F403FD159103FFFE
:103A50001191EF017724739401C0712CE12CF12CAA
:103A600020ED210F2A3088F4F72DF2607F2EB70168
:103A700080E090E040E20E94DC197B01FE0103FD42
:103A8000159103FF1191EF01EBCF71FE04C0E1141A
:103A9000F10421F4C4C0EE24EA94FE2C183619F087
:103AA0001C3661F014C0FE0103FD159103FF119156
:103AB000EF01183661F4872D8860782E972D946079
:103AC000792EFE0103FD159103FF1191EF011123E2
:103AD00009F4A5C0612F70E08CE192E00E940429F6
:103AE000892B09F49CC070FC07C0F401C080D18010
:103AF000C40102964C0102C0C12CD12C1E3651F4D7
:103B0000F5014681578160E070E0272DC6010E94D3
:103B1000D0196ACF1336B9F471FC03C0EE24E394D4
:103B2000F12CC5010E94352997FD77C0C114D1043D
:103B300029F0F6018083C60101966C0191E0E91A33
:103B4000F10879F766C01B3559F49E01A601B7014B
:103B5000C5010E94B41AEC01892B09F05AC054C067
:103B6000C5010E94031A97FD58C01F36E1F140F4C9
:103B70001436A9F11936D1F1183509F03EC02BC021
:103B80001337A9F018F4103731F137C0153739F170
:103B9000183709F132C0C114D10429F0F6010083AD
:103BA000C60101966C0191E0E91AF10871F0C501B6
:103BB0000E9435298C0197FD08C00E94F328892BAB
:103BC00051F3B501C8010E94D829C114D10409F1EB
:103BD000F60110821EC0F72DF0647F2E07C0872DDE
:103BE0008062782E03C0972D9061792E272DA60133
:103BF000B701C5010E941C1A05C0A601B701C50185
:103C00000E949B1B811105C0F5018381807329F4FB
:103C100006C070FCE9CE6394E7CE662019F0862DCD
:103C200090E002C08FEF9FEFDF91CF911F910F9136
:103C3000FF90EF90DF90CF90BF90AF909F908F90CC
:103C40007F906F9008952F923F924F925F926F9264
:103C50007F928F929F92AF92BF92CF92DF92EF921C
:103C6000FF920F931F93CF93DF93CDB7DEB760978B
:103C70000FB6F894DEBF0FBECDBF7C011B016A01F9
:103C8000FC0117821682838181FF44C39E012F5F4E
:103C90003F4F3901F7019381F10193FD859193FF26
:103CA00081911F01882309F431C3853239F493FDD2
:103CB000859193FF81911F01853239F4B70190E01E
:103CC0000E94732956016501E5CF10E0512C912C1B
:103CD000FFE1F915D8F08B3279F038F4803279F0C1
:103CE0008332A1F4F92DF0612EC08D3261F0803362
:103CF00069F4292D21602DC0392D3260932E892D34
:103D00008460982E2AC0E92DE86015C097FC2DC06C
:103D100020ED280F2A3088F496FE06C03AE0139F63
:103D2000200D1124122F19C08AE0589E200D112455
:103D3000522EE92DE0629E2E10C08E3231F496FC98
:103D4000E5C2F92DF0649F2E08C08C3621F4292D90
:103D50002068922E02C0883641F4F10193FD8591CE
:103D600093FF81911F018111B3CF9BEB980F93308B
:103D700020F4992D9061805E07C09BE9980F9330E5
:103D800008F066C1992D9F7E96FF16E09F73992ECD
:103D9000853619F49064992E08C0863621F4392F9F
:103DA0003068932E02C01111115097FE07C01C33CA
:103DB00050F444244394410E27E00BC0183038F0EF
:103DC00027E017E005C027E09CE3492E02C0212F21
:103DD000412C560184E0A80EB11CF601608171816E
:103DE00082819381042DA3010E941B286C01F9811B
:103DF000FC87F0FF02C0F3FF06C091FC06C092FEF4
:103E000006C000E205C00DE203C00BE201C000E005
:103E10008C858C7019F001115AC29BC297FE10C09C
:103E20004C0CFC85F4FF04C08A81813309F44A9468
:103E3000141474F528E0241578F588E0482E2CC079
:103E400096FC2AC0812F90E08C159D059CF03CEFDC
:103E5000C3163FEFD30674F0892D8068982E0AC0F0
:103E6000E2E0F0E0EC0FFD1FE10FF11D80818033F7
:103E700019F411501111F4CF97FE0EC0442443944D
:103E8000410E812F90E0C816D9062CF41C1904C0ED
:103E90004424439401C010E097FE06C01C141D0486
:103EA00034F4C601019605C085E090E002C081E0CF
:103EB00090E001110196112331F0212F30E02F5FA6
:103EC0003F4F820F931F252D30E08217930714F484
:103ED000581A01C0512C892D897049F4552039F0A8
:103EE000B70180E290E00E9473295A94F7CF002333
:103EF00029F0B701802F90E00E94732993FC09C03C
:103F0000552039F0B70180E390E00E9473295A945C
:103F1000F7CF97FE4CC04601D7FE02C0812C912CF2
:103F2000C60188199909F301E80FF91FFE87ED878B
:103F3000960124193109388B2F87012F10E0119534
:103F4000019511093FEF8316930629F4B7018EE21C
:103F500090E00E947329C814D9044CF08F85988989
:103F60008815990524F4ED85FE85818101C080E3E3
:103F7000F1E08F1A91082D853E852F5F3F4F3E87D8
:103F80002D87801691062CF0B70190E00E947329CE
:103F9000D9CFC814D90441F49A81963320F49533CB
:103FA00019F43C8534FF81E3B70190E04EC08A816B
:103FB000813319F09C859F7E9C87B70190E00E9419
:103FC0007329111105C094FC18C085E690E017C054
:103FD000B7018EE290E00E9473291E5F82E001E04B
:103FE000080FF301E80FF11D8081B70190E00E94F6
:103FF0007329802F0113F3CFE6CF85E490E0B7015A
:104000000E947329D7FC06C0C114D10441F4EC8589
:10401000E4FF05C0D194C194D1088DE201C08BE2C8
:10402000B70190E00E94732980E32AE0C216D10410
:104030002CF08F5FFAE0CF1AD108F7CFB70190E0EC
:104040000E947329B701C601C0960E94732954C10A
:10405000833631F0833779F0833509F056C020C0BC
:10406000560132E0A30EB11CF6018081898301E084
:1040700010E0630112C05601F2E0AF0EB11CF60170
:10408000C080D18096FE03C0612F70E002C06FEF48
:104090007FEFC6010E942A298C01F92DFF7714C0F9
:1040A000560122E0A20EB11CF601C080D18096FE1E
:1040B00003C0612F70E002C06FEF7FEFC6010E9466
:1040C0000F298C01F92DF0689F2EF3FD1AC0852D64
:1040D00090E008171907A8F4B70180E290E00E9469
:1040E00073295A94F4CFF60197FC859197FE81913C
:1040F0006F01B70190E00E94732951105A9401504A
:1041000011090115110579F7F7C0843611F08936C8
:1041100061F5560197FE09C024E0A20EB11CF6011C
:1041200060817181828193810AC0F2E0AF0EB11C7F
:10413000F60160817181072E000C880B990BF92D17
:10414000FF769F2E97FF09C0909580957095619599
:104150007F4F8F4F9F4FF0689F2E2AE030E0A301E2
:104160000E94F129C82EC6183FC0092D853721F4B9
:104170000F7E2AE030E01DC0097F8F3691F018F4E1
:10418000883559F0C3C0803719F0883711F0BEC0A8
:10419000006104FF09C0046007C094FE08C0066007
:1041A00006C028E030E005C020E130E002C020E198
:1041B00032E0560107FF09C084E0A80EB11CF601E9
:1041C000608171818281938108C0F2E0AF0EB11CE1
:1041D000F6016081718180E090E0A3010E94F129E5
:1041E000C82EC6180F77902E96FE0BC0092D0E7F95
:1041F000C11650F494FE0AC092FC08C0092D0E7E30
:1042000005C0DC2C092D03C0DC2C01C0D12E04FF1D
:104210000DC0FE01EC0DF11D8081803311F4097E8B
:1042200009C002FF06C0D394D39404C0802F8678BF
:1042300009F0D39403FD11C000FF06C01C2DD51456
:1042400080F4150D1D190DC0D51458F4B70180E286
:1042500090E00E947329D394F7CFD51410F45D1821
:1042600001C0512C04FF10C0B70180E390E00E9410
:10427000732902FF17C001FD03C088E790E002C068
:1042800088E590E0B7010CC0802F867859F001FFD7
:1042900002C08BE201C080E207FD8DE2B70190E031
:1042A0000E947329C11638F4B70180E390E00E94A0
:1042B00073291150F7CFCA94F301EC0DF11D8081E1
:1042C000B70190E00E947329C110F5CF15C0F4E04A
:1042D000F51560F584E0581A93FE1FC0011127C040
:1042E0002C8523FF2AC00AE111E0392D3071932E6D
:1042F000F8018491811124C0552009F4E4CCB70160
:1043000080E290E00E9473295A94F6CFF7018681EB
:10431000978126C08FEF9FEF23C0B70180E290E026
:104320000E9473295A945110F8CFD8CF512CB7015D
:10433000802F90E00E947329D3CF0EE111E0D5CFFA
:1043400091108052B70190E00E9473290F5F1F4FB8
:10435000CFCF23E0251510F483E0BDCF512CC0CF83
:1043600060960FB6F894DEBF0FBECDBFDF91CF9140
:104370001F910F91FF90EF90DF90CF90BF90AF9083
:104380009F908F907F906F905F904F903F902F9075
:104390000895FC018FEF9FEF978386838FEF90E066
:1043A000938782879587848797878687918B808B71
:1043B000938B828B958B848B978B868B918F808F41
:1043C000938F828F958F848F0895E1ECF3E01182B3
:1043D000108213821282158214821782168211862D
:1043E0001086138612861586148617861686118AFD
:1043F000108A138A128A158A148A178A168A118ECD
:10440000108E138E128E158E148E178E168E11A28C
:1044100010A213A212A215A214A217A216A211A6EC
:1044200010A610920104109200041092030410923E
:1044300002041092050410920404109207041092D2
:104440000604109209041092080410920B041092B2
:104450000A0487E0E6E9F2E0A9E8B3E001900D92F2
:104460008A95E1F787E0EFE8F2E0A0E9B3E0019098
:104470000D928A95E1F787E0E8E8F2E0A7E9B3E07A
:1044800001900D928A95E1F787E0E1E8F2E0AEE96C
:10449000B3E001900D928A95E1F787E0E7E5F2E05D
:1044A000A5EAB3E001900D928A95E1F787E0EEE589
:1044B000F2E0ACEAB3E001900D928A95E1F787E073
:1044C000E5E6F2E0A3EBB3E001900D928A95E1F707
:1044D00087E0ECE6F2E0AAEBB3E001900D928A955A
:1044E000E1F787E0EDE9F2E0A1E5B3E001900D929C
:1044F0008A95E1F787E0E4EAF2E0A8E5B3E001900D
:104500000D928A95E1F787E0EBEAF2E0AFE5B3E0E0
:1045100001900D928A95E1F787E0E2EBF2E0A6E6E2
:10452000B3E001900D928A95E1F787E0E9EBF2E0C4
:10453000ADE6B3E001900D928A95E1F787E0E0ECFB
:10454000F2E0A4E7B3E001900D928A95E1F787E0ED
:10455000E7ECF2E0ABE7B3E001900D928A95E1F76A
:1045600087E0EEECF2E0A2E8B3E001900D928A95CC
:10457000E1F787E0EAE7F2E0A3E4B3E001900D920F
:104580008A95E1F787E0E3E7F2E0AAE4B3E001907F
:104590000D928A95E1F783B18093420380910301E4
:1045A0008093410380910601809340030895CF9347
:1045B000DF93CDB7DEB7A5970FB6F894DEBF0FBE79
:1045C000CDBF41E06DE0CE0101960E94AE0FCE015D
:1045D00001960E947A0F2FEF89E698E121508040E2
:1045E0009040E1F700C00000F2CF10921B0410923F
:1045F0001C0410921D0410921E040895AA1BBB1BDC
:1046000051E107C0AA1FBB1FA617B70710F0A61BD2
:10461000B70B881F991F5A95A9F780959095BC01F3
:10462000CD010895EE0FFF1F881F8BBF0790F691F5
:10463000E02D19945058BB27AA270E9432230C94CE
:1046400015250E94072538F00E940E2520F039F428
:104650009F3F19F426F40C94DD240EF4E095E7FB5B
:104660000C94D724E92F0E94262558F3BA17620725
:1046700073078407950720F079F4A6F50C94482574
:104680000EF4E0950B2EBA2FA02D0B01B90190016D
:104690000C01CA01A0011124FF27591B99F0593FB1
:1046A00050F4503E68F11A16F040A22F232F342FF9
:1046B0004427585FF3CF469537952795A795F04047
:1046C0005395C9F77EF41F16BA0B620B730B840B5C
:1046D000BAF09150A1F0FF0FBB1F661F771F881F14
:1046E000C2F70EC0BA0F621F731F841F48F487956C
:1046F00077956795B795F7959E3F08F0B0CF93955E
:10470000880F08F09927EE0F9795879508950E94D6
:10471000072560F080E891E009F49EEF0E940E25E5
:1047200028F040E851E071F45EEF0CC00C94DD24F9
:104730000C944825E92FE0780E94262540F3092EA5
:10474000052AB1F3261737074807590738F00E2E08
:1047500007F8E02569F0E025E0640AC0EF6307F898
:10476000009407FADB01B9019D01DC01CA01AD012A
:10477000EF930E9410240E9415250E94CA235F9186
:10478000552339F02BED3FE049E450FD49EC0C9402
:104790001B230895DF93DD27B92FBF7740E85FE340
:1047A0001616170648075B0718F4D92F0E944F25E5
:1047B0009F938F937F936F930E94E825E4EEF0E040
:1047C0000E94E0240E9415252F913F914F915F9107
:1047D0000E946A25DD2351F09058A2EA2AED3FE0BD
:1047E00049EC5FE3D0785D270E943223DF910C947F
:1047F00015250E940D240C9415250E940E2558F0B5
:104800000E94072540F029F45F3F29F00C94D7243B
:1048100051110C9449250C94DD240E94262568F33F
:104820009923B1F3552391F3951B550BBB27AA2769
:1048300062177307840738F09F5F5F4F220F331FA3
:10484000441FAA1FA9F335D00E2E3AF0E0E832D06B
:1048500091505040E695001CCAF72BD0FE2F29D06E
:10486000660F771F881FBB1F261737074807AB0740
:10487000B0E809F0BB0B802DBF01FF2793585F4FB5
:104880003AF09E3F510578F00C94D7240C944925BA
:104890005F3FE4F3983ED4F3869577956795B79597
:1048A000F7959F5FC9F7880F911D9695879597F9A2
:1048B0000895E1E0660F771F881FBB1F621773071B
:1048C0008407BA0720F0621B730B840BBA0BEE1F30
:1048D00088F7E09508950E942E2588F09F5798F05C
:1048E000B92F9927B751B0F0E1F0660F771F881FF5
:1048F000991F1AF0BA95C9F714C0B13091F00E940F
:104900004825B1E008950C944825672F782F882713
:10491000B85F39F0B93FCCF3869577956795B39535
:10492000D9F73EF490958095709561957F4F8F4FA4
:104930009F4F0895E89409C097FB3EF490958095A9
:10494000709561957F4F8F4F9F4F9923A9F0F92F55
:1049500096E9BB279395F695879577956795B795D3
:10496000F111F8CFFAF4BB0F11F460FF1BC06F5FB9
:104970007F4F8F4F9F4F16C0882311F096E911C0CB
:10498000772321F09EE8872F762F05C0662371F0EC
:1049900096E8862F70E060E02AF09A95660F771F00
:1049A000881FDAF7880F9695879597F9089597F9F4
:1049B0009F6780E870E060E008959FEF80EC0895C5
:1049C000DF93CF931F930F93FF92EF92DF927B01C0
:1049D0008C01689406C0DA2EEF010E946A25FE0160
:1049E000E894A5912591359145915591A6F3EF0154
:1049F0000E943223FE019701A801DA9469F7DF9043
:104A0000EF90FF900F911F91CF91DF9108950024B7
:104A10000A941616170618060906089500240A9423
:104A200012161306140605060895092E0394000CA9
:104A300011F4882352F0BB0F40F4BF2B11F460FF38
:104A400004C06F5F7F4F8F4F9F4F089557FD905861
:104A5000440F551F59F05F3F71F04795880F97FB42
:104A6000991F61F09F3F79F08795089512161306FC
:104A70001406551FF2CF4695F1DF08C0161617062B
:104A80001806991FF1CF8695710561050894089560
:104A9000E894BB2766277727CB0197F908959B01F8
:104AA000AC0160E070E080E89FE30C94F9230E9481
:104AB0006A250C9415250E94072538F00E940E25C2
:104AC00020F0952311F00C94D7240C94DD241124AC
:104AD0000C9449250E94262570F3959FC1F3950FEC
:104AE00050E0551F629FF001729FBB27F00DB11D72
:104AF000639FAA27F00DB11DAA1F649F6627B00D02
:104B0000A11D661F829F2227B00DA11D621F739FEA
:104B1000B00DA11D621F839FA00D611D221F749FF8
:104B20003327A00D611D231F849F600D211D822F3F
:104B3000762F6A2F11249F5750409AF0F1F0882366
:104B40004AF0EE0FFF1FBB1F661F771F881F915093
:104B50005040A9F79E3F510580F00C94D7240C9447
:104B600049255F3FE4F3983ED4F3869577956795A2
:104B7000B795F795E7959F5FC1F7FE2B880F911DBD
:104B80009695879597F908950E942E25E8F09E370F
:104B9000E8F09639B8F49E3848F4672F782F8827C4
:104BA000985FF9CF86957795679593959539D0F36A
:104BB000B62FB1706B0F711D811D20F4879577950D
:104BC000679593950C94EC250C9407260C94492535
:104BD0009B01AC010C945725882371F4772321F0B5
:104BE0009850872B762F07C0662311F499270DC0A4
:104BF0009051862B70E060E02AF09A95660F771F3F
:104C0000881FDAF7880F9695879597F908959F3F43
:104C100031F0915020F4879577956795B795880F77
:104C2000911D9695879597F908950F931F93CF93AC
:104C3000DF938230910510F482E090E0E091290446
:104C4000F0912A0420E030E0A0E0B0E0309719F1C4
:104C5000408151810281138148175907C8F0841798
:104C6000950769F4109731F012960C9312971396EA
:104C70001C9327C00093290410932A0422C02115F5
:104C8000310519F04217530718F49A01BD01EF01DD
:104C9000DF01F801DBCF21153105F9F0281B390BB5
:104CA0002430310580F48A819B816115710521F0E2
:104CB000FB019383828304C090932A048093290488
:104CC000FE01329644C0FE01E20FF31F81939193DF
:104CD00022503109398328833AC02091270430912A
:104CE0002804232B41F42091D7023091D80230932D
:104CF0002804209327042091D5023091D602211553
:104D0000310541F42DB73EB74091D9025091DA02F6
:104D1000241B350BE0912704F0912804E217F307D8
:104D2000A0F42E1B3F0B2817390778F0AC014E5F1B
:104D30005F4F2417350748F04E0F5F1F509328042C
:104D4000409327048193919302C0E0E0F0E0CF010B
:104D5000DF91CF911F910F910895CF93DF9300972B
:104D600009F481C0FC01329713821282A0912904B8
:104D7000B0912A04109781F420813181820F931F12
:104D800020912704309128042817390751F5F09312
:104D90002804E093270467C0ED0120E030E0CE173F
:104DA000DF0740F44A815B819E0141155105F1F016
:104DB000EA01F5CFD383C28340815181840F951FCF
:104DC000C817D90759F488819981840F951F0296D5
:104DD000918380838A819B8193838283211531050E
:104DE00029F4F0932A04E09329043DC0E901FB83F0
:104DF000EA8349915991C40FD51FEC17FD0761F45F
:104E000080819181840F951F0296E901998388839F
:104E1000828193819B838A83E0E0F0E012968D91FA
:104E20009C911397009719F0FD01DC01F7CF8D914C
:104E30009C9111979D012E5F3F4F820F931F2091F0
:104E40002704309128042817390769F4309729F48A
:104E500010922A041092290402C013821282B09385
:104E60002804A0932704DF91CF9108956F927F9239
:104E70008F929F92AF92BF92CF92DF92EF92FF926A
:104E80000F931F93CF93DF93009789F4CB01DF91AA
:104E9000CF911F910F91FF90EF90DF90CF90BF9037
:104EA000AF909F908F907F906F900C941526FC018F
:104EB000E60FF71F9C0122503109E217F30708F4AF
:104EC000A9C0EC01D9010D911C9111970617170784
:104ED000B0F00530110508F49BC0C801049786178F
:104EE000970708F495C002501109061B170B019390
:104EF00011936D937C93CF010E94AD2689C05B0115
:104F0000A01AB10A4C01800E911EA0912904B09103
:104F10002A04612C712CE12CF12C109709F446C065
:104F20008D919C911197A815B905B1F56C0142E0DE
:104F3000C40ED11CCA14DB0478F14C018A189B08FA
:104F4000640142E0C40ED11C1296BC9012971396D5
:104F5000AC91B5E0CB16D10440F0B282A38391822C
:104F60008082D9016D937C9309C00E5F1F4F800F23
:104F7000911FF90191838083EB2DFA2FE114F10445
:104F800031F0D7011396FC93EE93129741C0F09342
:104F90002A04E09329043CC06816790608F43C0111
:104FA0007D0112960D90BC91A02DB7CF8091270462
:104FB0009091280488169906E1F466167706C8F4DD
:104FC0008091D5029091D602009741F48DB79EB79B
:104FD0004091D9025091DA02841B950BE817F9072A
:104FE000C8F4F0932804E0932704F90171836083E7
:104FF0000FC0CB010E9415267C01009759F0A80133
:10500000BE010E941A29CE010E94AD26C70104C02C
:10501000CE0102C080E090E0DF91CF911F910F910F
:10502000FF90EF90DF90CF90BF90AF909F908F90C8
:105030007F906F900895283008F027E03327DA0139
:10504000990F311D87FD916000966105710539F456
:1050500032602E5F3D9330E32A95E1F708959F3F3C
:1050600030F080387105610509F03C5F3C5F3D938D
:10507000913008F08068911DDF93CF931F930F93B9
:10508000FF92EF92192F987F9695E92F9695969516
:10509000E90FFF27E458FE4F99273327EE24FF241A
:1050A000A701E70105900894079428F4360FE71E3E
:1050B000F81E491F511D660F771F881F991F069400
:1050C000A1F70590079428F4E70EF81E491F561F14
:1050D000C11D770F881F991F661F0694A1F70590C1
:1050E000079428F4F80E491F561FC71FD11D880FBB
:1050F000991F661F771F0694A1F70590079420F467
:10510000490F561FC71FD81F990F661F771F881F8B
:105110000694A9F784911095177041F0D695C7951C
:1051200057954795F794E7941A95C1F7E2E2F1E0B5
:1051300068941590159135916591959105907FE250
:105140007395E118F10A430B560BC90BD009C0F750
:10515000E10CF11E431F561FC91FD01D7EF4703392
:1051600011F48A95E6CFE894015030F0080F0AF464
:105170000027021708F4202F2395022F7A3328F0F6
:1051800079E37D932A95E9F710C07D932A9589F6F6
:10519000069497956795379517951794E118F10A36
:1051A000430B560BC90BD00998F023957E9173954C
:1051B0007A3308F070E37C932013B8F77E91706126
:1051C0007D9330F0839571E37D9370E32A95E1F749
:1051D0001124EF90FF900F911F91CF91DF919927AC
:1051E00087FD9095089591110C944F2A803219F003
:1051F00089508550C8F708959111089581548A51B6
:1052000008F4805E855A0895FC010590061621F089
:105210000020D9F7C00108953197CF010895FC010E
:105220000590615070400110D8F7809590958E0FD1
:105230009F1F0895FB01DC0102C001900D924150B7
:105240005040D8F70895DC0101C06D9341505040A3
:10525000E0F70895FC016150704001900110D8F70B
:10526000809590958E0F9F1F0895CF93DF93EC014B
:105270002B8120FF33C026FF0AC02F7B2B838E811A
:105280009F8101969F838E838A8190E029C022FFAF
:105290000FC0E881F9818081082E000C990B0097DE
:1052A00019F420622B831AC03196F983E8830EC06B
:1052B000EA85FB85199597FF09C02B81019611F0AE
:1052C00080E201C080E1822B8B8308C02E813F8168
:1052D0002F5F3F4F3F832E83992702C08FEF9FEFB1
:1052E000DF91CF9108950F931F93CF93DF93FB012D
:1052F000238121FD03C08FEF9FEF2CC022FF16C03A
:1053000046815781248135814217530744F4A08197
:10531000B1819D012F5F3F4F318320838C93268184
:1053200037812F5F3F4F3783268314C08B01EC01F9
:10533000FB010084F185E02D1995892BE1F6D80158
:1053400016968D919C911797019617969C938E9324
:105350001697CE01DF91CF911F910F9108950F9372
:105360001F93CF93DF93CDB7DEB72E970FB6F89488
:10537000DEBF0FBECDBF8C0186E08C831A8309830C
:105380008FEF9FE79E838D83CE0101960E94231E9F
:10539000EF81F885E00FF11F10822E960FB6F8947A
:1053A000DEBF0FBECDBFDF91CF911F910F9108954A
:1053B000FB01238120FF12C026FD10C08F3F3FEF6D
:1053C000930761F082832F7D2064238326813781B8
:1053D0002150310937832683992708958FEF9FEF56
:1053E0000895FA01AA27283051F1203181F1E8947B
:1053F0006F936E7F6E5F7F4F8F4F9F4FAF4FB1E0C8
:105400003ED0B4E03CD0670F781F891F9A1FA11DC2
:10541000680F791F8A1F911DA11D6A0F711D811DC3
:10542000911DA11D20D009F468943F912AE0269F88
:1054300011243019305D3193DEF6CF010895462FE7
:105440004770405D4193B3E00FD0C9F7F6CF462FC8
:105450004F70405D4A3318F0495D31FD4052419331
:1054600002D0A9F7EACFB4E0A695979587957795EE
:105470006795BA95C9F700976105710508959B0175
:10548000AC010A2E06945795479537952795BA95FE
:10549000C9F7620F731F841F951FA01D08959927D8
:0854A00088270895F894FFCF5E
:1054A800020108041004000102030403010A0411A4
:1054B800040004080C05120006040F04004080C014
:1054C80003130004040E0400102030021400020428
:1054D8000D040004080C01150000040C040001026E
:1054E8000300000100C103EB03010003C303EC0345
:1054F800060100C503ED030A0004C703F4030B000B
:1055080005C903F5030C0006CB03F6030D0007CD10
:1055180003F7030E0102CF03EF030F0101D103EEDE
:1055280003320003D303F303330002D503F2033439
:105538000001D703F103350000D903F0033E020050
:10554800DB03F8033F0201DD03F903400202DF0336
:10555800FA03410203E103FB03420204E303FC03F1
:10556800430205E503FD03440206E703FE03450283
:1055780007E903FF0300002B04200024008000B08B
:10558800009000A0002001000001000200030004B8
:1055980000050006000700000801080208030804C7
:1055A80008050806080708416C6C75707061746F0F
:1055B8006F204C4F570D0A00416C6C757070617408
:1055C8006F6F0D0A005420686967682025640D0A0A
:0C55D800001B5B313B31481B5B324A007A
:00000001FF
