:100000000C94B4020C94A6070C94DA070C940E0816
:100010000C9442080C9476080C94A9080C94E708F8
:100020000C94DD080C941B060C949A060C9415078E
:100030000C94E5020C94E5020C94E5020C943F1438
:100040000C94E5020C94E5020C94E5020C94E50294
:100050000C94E5020C94E5020C94E5020C94D71480
:100060000C94E5020C94F3120C94E5020C94E50256
:100070000C94E5020C94E5020C94E5020C94E50264
:100080000C94E5020C94E5020C94E5020C94E50254
:100090000C9425130C94E5020C94E5020C94E502F3
:1000A0000C94E5020C94E5020C94E5020C94E50234
:1000B0000C94E5020C94E5020C94E5020C94E50224
:1000C0000C94E5020C94E5020C94E5020C94571391
:1000D0000C94E5020C94E5020C9489130C94E5024F
:1000E0000C94E502791D7C1D861D901D9A1DA41D92
:1000F000AE1DB81DC21DCC1DD61DE01DEA1DF41D90
:10010000FE1D081E0C94CF1F0C94E01D0C94A41D22
:100110000C94791D0C94221E0C94FE1D0C94EA1D67
:100120000C94081E0C94C21D0C94D61D0C94131E26
:100130000C94CC1D0C947C1D0C94861D0C94B81D45
:100140000C944E1F0C949A1D0C94901D0C94F41D4D
:100150000C94AE1D6E616E00696E660000407A10F0
:10016000F35A00A0724E18090010A5D4E80000E868
:100170007648170000E40B54020000CA9A3B0000C6
:1001800000E1F505000080969800000040420F0055
:100190000000A08601000000102700000000E80316
:1001A000000000006400000000000A0000000000E1
:1001B0000100000000002C76D888DC674F0823DFA0
:1001C000C1DFAE59E1B1B796E5E3E453C63AE65173
:1001D000997696E8E6C28426EB898C9B62ED407C9A
:1001E0006FFCEFBC9C9F40F2BAA56FA5F490055A36
:1001F0002AF75C936B6CF9676DC11BFCE0E40D475B
:10020000FEF520E6B500D0ED902E0300943577057D
:100210000080841E080000204E0A000000C80C3335
:100220003333330F986E12831141EF8D2114893BC4
:10023000E65516CFFEE6DB18D1844B381BF77C1D44
:10024000901DA4BBE424203284725E228100C9F197
:1002500024ECA1E53D276364696E6F70737578586F
:100260005B65666745464700616E006E66696E694C
:10027000747900CDCCCC3D0AD7233C17B7D1387761
:10028000CC2B329595E6241FB14F0A000020410087
:1002900000C84200401C4620BCBE4CCA1B0E5AAED1
:1002A000C59D742C000004002C000104002C0004E7
:1002B000002D2C0005002E32000500212C0003002B
:1002C0002C00010300300001040031000105003260
:1002D0000001060029230004002823000500242330
:1002E0000006002523000700260301010700030183
:1002F00000070000010106000001000600290003BC
:100300000500290002050029000100002900000065
:10031000002000000000200001000020000200007A
:100320002000030000200004000020000500002041
:10033000000600002000070000260007000026003D
:100340000600002600050000260004000026000329
:100350000000260002000026000100002600000028
:1003600000290007000032000200003200010000F6
:100370003200000000090107000009010600000921
:1003800001050036090104003509010300340901A3
:100390000200000901010000090100000023000320
:1003A00000002300020000230001000023000000E1
:1003B000002F000080002F000188002F0002900015
:1003C0002F000398002F0004A0002F0005A8002F85
:1003D0000006B0002F0007B800060100C0000601AB
:1003E00001C800060102D000060103D8000601047E
:1003F000E000060105E800060106F000060107F826
:10040000002C000004002C000104002C0004002D2E
:100410002C0005002E32000500212C0003002C00CA
:100420000103003000010400310001050032000129
:1004300006002923000400282300050024230006C9
:100440000025230007002603010107000301000720
:10045000000001010600000100060029000305005C
:1004600029000205002900010000290000000020E9
:100470000000000020000100002000020000200019
:1004800003000020000400002000050000200006FA
:1004900000002000070000260007000026000600DC
:1004A00000260005000026000400002600030000CE
:1004B000260002000026000100002600000000299E
:1004C000000700003200020000320001000032008C
:1004D00000000009010700000901060000090105EC
:1004E0000036090104003509010300340901020046
:1004F00000090101000009010000002300030000C1
:100500002300020000230001000023000000002F50
:10051000000080002F000188002F000290002F00B3
:100520000398002F0004A0002F0005A8002F00064C
:10053000B0002F0007B800060100C000060101C886
:1005400000060102D000060103D800060104E00005
:10055000060105E800060106F000060107F80000A4
:10056000131E221E4E1FCF1F11241FBECFEFD1E23C
:10057000DEBFCDBF00E00CBF13E0A0E0B2E0EEEACA
:10058000FDE400E00BBF02C007900D92AE3DB10745
:10059000D9F72AE0AEEDB3E001C01D92A938B20749
:1005A000E1F712E0C4EBD2E000E006C021970109B8
:1005B000802FFE010E942420C03BD10780E0080765
:1005C000A9F70E94141F0C94D5260C94000080916A
:1005D000E0030895CF93E091DE03F091DF03C08143
:1005E0008C2F8F702C2F207330E094E03595279559
:1005F0009A95E1F72230310589F023303105C9F1B0
:100600002130310521F0F8940E94691D2BC095B16D
:10061000905895B9F8940E94401D24C0F8948130F8
:1006200099F058F08230B9F08330E1F4E0910002A3
:10063000F09101028091040614C0E0910002F09153
:100640000102809101060DC0E0910002F0910102CB
:100650008091020606C0E0910002F09101028091B3
:100660000306808378948C2F881F8827881F8F5FCC
:1006700043C0C7FF1BC0F894E091DE03F091DF0395
:100680009181813059F038F0823059F0833059F43B
:1006900090930E0608C090930B0605C090930C062D
:1006A00002C090930D06789482E026C0F8948130C1
:1006B00099F058F08230B9F08330E1F4E091000213
:1006C000F091010280910E0614C0E0910002F091B9
:1006D000010280910B060DC0E0910002F091010231
:1006E00080910C0606C0E0910002F0910102809119
:1006F0000D068083789481E0CF910895CF93C82F21
:100700008091DE039091DF030097D9F06091E003C0
:100710007091E1036F5F7F4F7093E1036093E0039B
:100720000E94A0239093DF038093DE03009749F09B
:100730002091E0033091E103FC01E20FF31F3197B8
:10074000C0830E94EA02682F70E04091E00350915C
:10075000E10346175707E0F0461B570B5093E103A0
:100760004093E0038091DE039091DF03680F791FCF
:100770000E948D256091E0037091E1038091DE037A
:100780009091DF030E94A0239093DF038093DE0308
:10079000CF9108950E94050F0C947E03FC0181E027
:1007A00090E02081222311F080E090E0089521E084
:1007B000FC0120830895089508950C947F220C94E1
:1007C0001723CF93DF93EB01DA019091230298175F
:1007D00009F48EC0891760F090912E02891302C02F
:1007E000E4E001C0EFEF90913902891312C014C008
:1007F00090911802891302C0E2E001C0EFEF9091DE
:100800000D02891301C0E1E090910202891709F4F9
:1008100071C0EF3F11F42DC0E5E08BE0E89FF001DF
:100820001124EE5FFD4F818111968C931197848185
:10083000958115969C938E931497868116968C932A
:100840001697878117968C931797808518968C93A7
:100850001897818519968C93199782851A968C938F
:100860001A978281938113969C938E93129782E0BC
:1008700043C090918A02891721F1891728F0A1E9D4
:10088000B2E0EFEF9AE014C0EFEF9AE027E091506A
:10089000299FD0011124AC5BBD4F3C91831301C053
:1008A000E92F9111F4CF0AC02C91821729F01796E5
:1008B0009F5F9531C9F702C0E92FF9CFEF3F11F4DF
:1008C00015C0EAE087E0E89FF0011124EC5BFD4FE2
:1008D0008181898382818A83858196819E838D83AC
:1008E000838194819C838B8381E006C080E004C077
:1008F000E3E093CFE0E091CFDF91CF910895CF92E5
:10090000DF92FF920F931F93CF93DF93CDB7DEB7A4
:1009100062970FB6F894DEBF0FBECDBF182F062F1B
:100920006A01AE014F5F5F4FBE01645F7F4F0E945F
:10093000E103813021F0823009F447C078C08D8511
:10094000813049F1A8F08230C1F58091680084605F
:100950008093680020916D0081E090E00E8402C0D9
:10096000880F991F0A94E2F7822B80936D0025C0AF
:100970008091680081608093680020916B0081E025
:1009800090E00E8402C0880F991F0A94E2F7822B30
:1009900080936B0012C08091680082608093680031
:1009A00020916C0081E090E00E8402C0880F991FB6
:1009B0000A94E2F7822B80936C00EF85F889D1824C
:1009C000C082E989FA89008330C0F894013049F087
:1009D00020F0023021F0053029F4F88403C0F984B6
:1009E00001C0FA848A81882341F0813059F48091D2
:1009F0006A008F2980936A0005C0809169008F2961
:100A0000809369002DB381E090E00B8402C0880FD1
:100A1000991F0A94E2F7822B8DBBEB81FC81D18276
:100A2000C082ED81FE81F082789481E01CC00430A8
:100A3000C9F425E0129FC0011124FC01EB55FD4FC4
:100A40002491FC01ED55FD4FA591B49112963C9176
:100A5000129781E090E001C0880F2A95EAF7832B76
:100A600012968C9380E062960FB6F894DEBF0FBEAC
:100A7000CDBFDF91CF911F910F91FF90DF90CF906D
:100A80000895CF93DF93CDB7DEB762970FB6F89492
:100A9000DEBF0FBECDBFAE014F5F5F4FBE01645FD3
:100AA0007F4F0E94E103813019F08230C9F153C0B9
:100AB0008D85813029F198F0823091F520916D007B
:100AC00081E090E00E8402C0880F991F0A94E2F73B
:100AD0008095822380936D0080916D0021C02091CC
:100AE0006B0081E090E00E8402C0880F991F0A9489
:100AF000E2F78095822380936B0080916B0010C099
:100B000020916C0081E090E00E8402C0880F991F54
:100B10000A94E2F78095822380936C0080916C00A8
:100B20009DB321E030E0A9010B8402C0440F551FA2
:100B30000A94E2F7842F809589238DBB8DB30B84B3
:100B400002C0220F331F0A94E2F790E028233923D2
:100B500081E0232B09F080E062960FB6F894DEBFA7
:100B60000FBECDBFDF91CF910895EF920F93CF933A
:100B7000DF931F92CDB7DEB7FC01DA01922F802FF1
:100B8000E982633061F128F4613049F0623089F024
:100B90004CC0643071F1653009F441C046C02C91FD
:100BA00030E002C0359527959A95E2F720FF3DC0C9
:100BB00036C06C9121E030E0092E02C0220F331FB5
:100BC0000A94E2F770E0A901462357239A0102C074
:100BD000359527959A95E2F7232B39F520C02C916E
:100BE00030E002C0359527959A95E2F720FF17C0AF
:100BF00015C06C9121E030E0092E02C0220F331F96
:100C00000A94E2F770E0A901462357239A0102C033
:100C1000359527959A95E2F7232B09F499810F9042
:100C2000DF91CF910F91EF9019940F90DF91CF91B9
:100C30000F91EF9008951F920F920FB60F9211240B
:100C40000BB60F92EF920F932F933F934F935F93B7
:100C50006F937F938F939F93AF93BF93EF93FF9384
:100C6000CF93DF931F92CDB7DEB793B18091E403AA
:100C70008927898383B18093E40320E030E0898170
:100C800090E0022E02C0959587950A94E2F780FFC6
:100C900033C067E0629FD001639FB00D1124A55D52
:100CA000BB4F1396ED91FC911497808191814091F7
:100CB000470250914802E41BF50BF595E7956E9FAE
:100CC000A0016F9F500D1124FA01EC5BFD4F0081D4
:100CD00045E0049FF0011124ED55FD4F45915491DD
:100CE0001596ED91FC9116976081009759F0E09070
:100CF000E4030E94B50506C02F5F3F4F2830310541
:100D000009F0BDCF0F90DF91CF91FF91EF91BF918F
:100D1000AF919F918F917F916F915F914F913F9193
:100D20002F910F91EF900F900BBE0F900FBE0F9071
:100D30001F9018951F920F920FB60F9211240BB6A9
:100D40000F92EF920F932F933F934F935F936F9375
:100D50007F938F939F93AF93BF93EF93FF93CF9323
:100D6000DF931F92CDB7DEB7909103018091E3032B
:100D700089278983809103018093E303898180FD22
:100D800007C0898181FF39C081E090E021E003C084
:100D900080E090E020E037E0389FD001399FB00D2F
:100DA0001124AB51BC4F1396ED91FC9114978081A7
:100DB00091814091470250914802E41BF50BF59553
:100DC000E7953E9FA0013F9F500D1124FA01EC5B77
:100DD000FD4F008135E0039FF0011124ED55FD4FDB
:100DE000459154911596ED91FC911697608100976D
:100DF00021F0E090E3030E94B5050F90DF91CF91C1
:100E0000FF91EF91BF91AF919F918F917F916F91E2
:100E10005F914F913F912F910F91EF900F900BBEEB
:100E20000F900FBE0F901F9018951F920F920FB644
:100E30000F9211240BB60F92AF92BF92CF92DF9216
:100E4000EF92FF920F931F932F933F934F935F93D4
:100E50006F937F938F939F93AF93BF93EF93FF9382
:100E6000CF93DF931F92CDB7DEB7909106018091AB
:100E7000E20389278983809106018093E20333EF9F
:100E8000A32E33E0B32EC12CD12C17E045E0F42E75
:100E9000898190E00C2C02C0959587950A94E2F721
:100EA00080FF2BC0D5011396ED91FC9114978081A2
:100EB00091812091470230914802E21BF30BF59596
:100EC000E7951E9F90011F9F300D1124F901EC5BE7
:100ED000FD4F0081F09EF0011124ED55FD4F45912D
:100EE0005491009751F0E090E2031596ED91FC913A
:100EF00016972C2D60810E94B505BFEFCB1ADB0A37
:100F000087E0A80EB11CA8E0CA16D10409F0C0CF32
:100F10000F90DF91CF91FF91EF91BF91AF919F9192
:100F20008F917F916F915F914F913F912F911F9181
:100F30000F91FF90EF90DF90CF90BF90AF900F9008
:100F40000BBE0F900FBE0F901F9018951F920F921F
:100F50000FB60F9211240BB60F922F933F934F931E
:100F60005F936F937F938F939F93AF93BF93EF9311
:100F7000FF93F894A2E0B2E0D996ED91FC91DA9754
:100F80000190F081E02DD7968C9119957894FF917E
:100F9000EF91BF91AF919F918F917F916F915F91F1
:100FA0004F913F912F910F900BBE0F900FBE0F905E
:100FB0001F9018951F920F920FB60F9211240BB627
:100FC0000F922F933F934F935F936F937F938F93E2
:100FD0009F93AF93BF93EF93FF93F894A2E0B2E097
:100FE0009E96ED91FC919F970190F081E02D9C964B
:100FF0008C9119957894FF91EF91BF91AF919F914A
:101000008F917F916F915F914F913F912F910F90B1
:101010000BBE0F900FBE0F901F9018951F920F924E
:101020000FB60F9211240BB60F922F933F934F934D
:101030005F936F937F938F939F93AF93BF93EF9340
:10104000FF93F894A2E0B2E09396ED91FC9194970F
:101050000190F081E02D91968C9119957894FF91F3
:10106000EF91BF91AF919F918F917F916F915F9120
:101070004F913F912F910F900BBE0F900FBE0F908D
:101080001F9018951F920F920FB60F9211240BB656
:101090000F922F933F934F935F936F937F938F9311
:1010A0009F93AF93BF93EF93FF93F894A2E0B2E0C6
:1010B0005896ED91FC9159970190F081E02D56964C
:1010C0008C9119957894FF91EF91BF91AF919F9179
:1010D0008F917F916F915F914F913F912F910F90E1
:1010E0000BBE0F900FBE0F901F9018951F920F927E
:1010F0000FB60F9211240BB60F922F933F934F937D
:101100005F936F937F938F939F93AF93BF93EF936F
:10111000FF93F894A2E0B2E01296ED91FC91139740
:101120000190F081E02D8C9119957894FF91EF91C9
:10113000BF91AF919F918F917F916F915F914F91EF
:101140003F912F910F900BBE0F900FBE0F901F90ED
:1011500018951F920F920FB60F9211240BB60F9293
:101160002F933F934F935F936F937F938F939F93AF
:10117000AF93BF93EF93FF93F894A2E0B2E01D9674
:10118000ED91FC911E970190F081E02D1B968C91C2
:1011900019957894FF91EF91BF91AF919F918F91A5
:1011A0007F916F915F914F913F912F910F900BBE67
:1011B0000F900FBE0F901F9018951F920F920FB6B1
:1011C0000F9211240F900FBE0F901F9018951F9231
:1011D0000F920FB60F9211240F900FBE0F901F9019
:1011E0001895F89420E047E060E484EB94E00E94D6
:1011F000780D90932706809326067894089561E0F1
:101200008CED95E00E949D0A85E38A95F1F7000038
:101210008CED95E00E94B30A61E082E995E00E94BE
:101220009D0A85E38A95F1F7000082E995E00E9426
:10123000B30A61E088E495E00E949D0A85E38A95FF
:10124000F1F7000088E495E00E94B30A61E08EEFB8
:1012500094E00E949D0A85E38A95F1F700008EEFE5
:1012600094E00C94B30ACF93C82F87EB95E00E94CB
:10127000360E8C1329C087EB95E00E94660D8823FB
:1012800059F00E94A5146093520670935306809300
:10129000540690935506A5C0F8940E94A514209179
:1012A00052063091530640915406509155060E94C3
:1012B000382020E030E048E652E40E94A5200E9459
:1012C000172160930F068CC08DE695E00E94360EC4
:1012D000C81329C08DE695E00E94660D882359F059
:1012E0000E94A51460934E0670934F06809350069B
:1012F0009093510676C0F8940E94A51420914E0652
:1013000030914F0640915006509151060E9438206E
:1013100020E030E048E652E40E94A5200E94172118
:10132000609310065DC083E295E00E94360EC813FC
:1013300029C083E295E00E94660D882359F00E943F
:10134000A51460934A0670934B0680934C069093C5
:101350004D0647C0F8940E94A51420914A0630918A
:101360004B0640914C0650914D060E94382020E0DB
:1013700030E048E652E40E94A5200E9417216093C5
:1013800011062EC089ED94E00E94360EC81329C0C4
:1013900089ED94E00E94660D882359F00E94A514FF
:1013A00060934606709347068093480690934906DB
:1013B00018C0F8940E94A514209146063091470663
:1013C00040914806509149060E94382020E030E0C4
:1013D00048E652E40E94A5200E941721609312065D
:1013E0007894CF9108950895CF93DF93CDB7DEB76A
:1013F000DA950FB6F894DEBF0FBECDBF8091B10075
:101400008B7F8093B10089E093E09F938F930E943C
:101410005E0F0F900F90CE0101967C010AE081E1F2
:10142000C82E83E0D82E10E00E943F0F8823E1F3FE
:101430000E94050F8823C1F3F701E10FF11D80839E
:10144000883019F4912F192FEFCF91E0910F8D3043
:10145000D1F7F701E90FF11D00831E5FF701E10FDE
:10146000F11D1082FF92EF92DF92CF920E945E0FE9
:101470000F900F900F900F90D6CFCF93DF93CDB7F3
:10148000DEB7DA950FB6F894DEBF0FBECDBF809100
:10149000B1008B7F8093B1008FE193E09F938F9396
:1014A0000E945E0F0F900F90CE0101967C010DE01F
:1014B0008CE1C82E83E0D82E10E00E94B71288235A
:1014C000E1F30E947F128823C1F3F701E10FF11DC0
:1014D0008083883019F4912F192FEFCF91E0910F6D
:1014E0008A30D1F7F701E90FF11D00831E5FF70184
:1014F000E10FF11D108246E050E065E273E0C701A4
:101500000E949F25892BC1F6FF92EF92DF92CF9226
:101510000E945E0F0F900F900F900F90CDCF8F9184
:101520001F928F938CE293E09F938F930E945E0FA4
:101530000F900F900F900F900895DC011296ED918F
:10154000FC91139718963C91208181E090E001C0B6
:10155000880F3A95EAF7662311F0822B02C0809536
:10156000822380830895DC011296ED91FC911397FC
:10157000408121E030E0B90118960C9002C0660F5E
:10158000771F0A94E2F7CB01809584238083089526
:10159000DC011296ED91FC911397408121E030E03F
:1015A000C90118960C9002C0880F991F0A94E2F79F
:1015B000842780830895CF93DF93FC01A081B181BC
:1015C0004085613051F42C9181E090E001C0880F9A
:1015D0004A95EAF7822B8C931AC09C9121E030E067
:1015E000E90102C0CC0FDD1F4A95E2F78C2F8095F0
:1015F00089238C93623059F4A281B3818C91008449
:1016000002C0220F331F0A94E2F7282B2C93DF919C
:10161000CF9108950F931F93CF93DF93CDB7DEB78C
:10162000AC970FB6F894DEBF0FBECDBF2FEF3FEFE4
:10163000DC0117963C932E93169719961C921997D6
:101640002FEF30E01B963C932E931A971D963C93F8
:101650002E931C971F963C932E931E9751963C9366
:101660002E93509753963C932E93529755963C93B6
:101670002E93549757963C932E93569759963C9396
:101680002E9358975B963C932E935A975D963C9376
:101690002E935C972CE0EDEDF2E0DE019196019047
:1016A0000D922A95E1F720E2E9EEF2E0DE011196D3
:1016B00001900D922A95E1F7B5E06B9F90011124FE
:1016C000F901EF5FFB4FA591B491FC01B583A483B1
:1016D0008D010F5F1F4F118300831296B383A28386
:1016E000F901ED5FFB4FE491DC011896EC932C5F60
:1016F0003B4FF901A591B491FC01B3A3A2A364A34C
:10170000F90165917491F90175FF33C02591349108
:1017100053E0DC0119965C931997F901EE27FC71EF
:10172000EF2FFF27E69521E030E02C0F3D1FE20F61
:10173000F31F20A131A11B963C932E931A97B90158
:101740006F5F7F4F1D967C936E931C976F5F7F4FEB
:1017500053967C936E9352976E5F7F4F1F967C9348
:101760006E931E972A5F3F4F55963C932E93549746
:101770001DC0549157FF1AC054E0DC0119965C93C8
:10178000199725913491F901E877FF27F695E795A8
:10179000F695E79521E030E02C0F3D1FE20FF31F97
:1017A0002081318117963C932E931697642FAC9627
:1017B0000FB6F894DEBF0FBECDBFDF91CF911F9162
:1017C0000F910C94DB0A8F929F92AF92BF92CF92AF
:1017D000DF92EF92FF921F93CF93DF93EC01142FD0
:1017E0008985823021F0833009F440C0B2C0642F73
:1017F00070E080E090E00E94482123E333E343E27D
:1018000050EC0E94122220E030E04FE753E40E94A7
:1018100039200E94172168A379A3EC8DFD8D608388
:101820008AA19BA183709927EE89FF89009751F0C7
:10183000019781F48A8D9B8D02969D8F8C8F80817C
:10184000806307C08A8D9B8D01969D8F8C8F8081D0
:10185000806C8083EE89FF89808181608083E88D40
:10186000F98D80818083E88DF98D6FC080E090E0F4
:101870000E9446219B01AC0160E070E080E89FE39C
:101880000E94A5202DEB37E346E853E30E94A520F4
:101890000E9417216B017C017F8F6E8F80E090E0AA
:1018A0000E9446214B015C01612F70E080E090E0D6
:1018B0000E94462120E030E048EC52E40E94A5203E
:1018C000A50194010E9412229B01AC01C501B40143
:1018D0000E9438200E94172179A368A3EC89FD8912
:1018E000D182C082A889B98988A199A111969C93B7
:1018F0008E938AA19BA188279370892F9927AA8507
:10190000BB858130910579F040F0029791F43696CD
:10191000F98BE88B8C918C600BC03296F98BE88B3D
:101920008C91806C05C03496F98BE88B8C91806328
:101930008C93EA85FB85808182608083EC85FD85C0
:10194000808188618083EC85FD85808181608083D2
:1019500001C080E0DF91CF911F91FF90EF90DF9069
:10196000CF90BF90AF909F908F900895CF92DF92CD
:10197000EF92FF921F93CF93DF93EC01162F89858F
:10198000823051F1833009F040C06E8D7F8D80E050
:1019900090E00E9446216B017C01612F70E080E0A5
:1019A00090E00E94462120E030E048EC52E40E94A2
:1019B000A520A70196010E9412229B01AC01C7013C
:1019C000B6010E9438200E94172179A368A3E889F4
:1019D000F989718360831BC070E080E090E00E9411
:1019E000482123E333E343E250EC0E94122220E03B
:1019F00030E04FE753E40E9439200E94172168A38A
:101A000079A3EC8DFD8D608302C080E000C0DF9182
:101A1000CF911F91FF90EF90DF90CF9008958F921C
:101A20009F92AF92BF92CF92DF92EF92FF92CF93AD
:101A3000DF93EC017B018E8D9F8D68A179A10E94BF
:101A4000EE1F80E090E00E9446214B015C01B7014F
:101A500080E090E00E9446219B01AC0160E070E0D4
:101A600080E89FE30E94A5202DEB37E346E853E38F
:101A70000E94A5200E9417216B017C017F8F6E8F31
:101A800080E090E00E944621A50194010E94A520DB
:101A90000E94172179A368A38985833059F4EC89C2
:101AA000FD89D182C082E889F98988A199A19183B1
:101AB000808301C080E0DF91CF91FF90EF90DF90B5
:101AC000CF90BF90AF909F908F900895DC011496B7
:101AD000ED91FC911597208130E0F90118960C905A
:101AE00002C0F595E7950A94E2F7CF018170089559
:101AF000FC013185332341F1868197818F3FFFEFD0
:101B00009F0721F170E0722B862B972B20917A0092
:101B1000211106C020917A002868422B40937A0058
:101B200020917A0090937B0080937C0080917A00D2
:101B3000806480937A0080917A0086FDFCCF80914A
:101B400078009091790008958FEF9FEF0895CF93DB
:101B5000DF93EC018D818F938C818F938CE393E0E5
:101B60009F938F930E94A81189818F9388818F936F
:101B700088E493E09F938F930E94A8118B818F93A9
:101B80008A818F9384E593E09F938F930E94A8119D
:101B900088851F928F9381E693E09F938F930E9495
:101BA000A8118AA19BA12DB73EB7205F3F4F0FB66A
:101BB000F8943EBF0FBE2DBF95FF36C080E793E07F
:101BC0009F938F930E94A8118AA19BA188279C7143
:101BD000892F869586951F928F9385E893E09F9332
:101BE0008F930E94A8110F900F900F900F900F905D
:101BF0000F908AA19BA188279370892F9927813004
:101C0000910549F028F0029771F58CEA93E005C040
:101C100082E993E002C08FE993E09F938F930E9443
:101C2000A8110F900F901FC087FF1DC089EB93E094
:101C30009F938F930E94A8118AA19BA188779927CF
:101C400023E0969587952A95E1F79F938F938EECE5
:101C500093E09F938F930E94A8110F900F900F9085
:101C60000F900F900F90DF91CF910895FC0184A108
:101C7000089580E090E00E9446219B01AC0160E065
:101C800070E080E89FE30E94A5202DEB37E346E853
:101C900053E30E94A5200E941721CB0108950F93C2
:101CA0001F93CF93DF938B019C01EA0160E472E400
:101CB0008FE090E0A90198010E940220DA01C90199
:101CC0000197A109B109892F9A2FAB2FBB278093C8
:101CD000C50021502093C40088E18093C10086E0B4
:101CE0008093C200D0937309C093720988E799E08A
:101CF000909377098093760989E799E09093750925
:101D00008093740981E080937009DF91CF911F91D6
:101D10000F9108958091C000881F8827881F08951B
:101D20008091C00087FFFCCF8091C60008950F937B
:101D30001F93CF93DF938C01D62FC0E00E94900EAB
:101D40002C2F30E091E09C0FF801E20FF31F8D1370
:101D500011C08AE08083F801E90FF11D8DE08083D6
:101D6000CE5FF801EC0FF11D1082DF91CF911F9132
:101D70000F9108958083C92FE1CF8091C00087FF24
:101D800003C08091C600F9CF0895882321F0809187
:101D9000C100806803C08091C1008F778093C1002B
:101DA0000895809171090895809371090895209193
:101DB0007409309175092F5F3F4F9AE02737390733
:101DC00019F010F028E739E0309375092093740971
:101DD00020917409309175094091760950917709E5
:101DE0002417350761F42150310999E02837390764
:101DF00010F427E73AE03093750920937409E091D5
:101E00007409F09175098083089580917609909105
:101E1000770901962AE08737920719F010F088E7D2
:101E200099E09093770980937609E0917609F09193
:101E3000770980917409909175098E179F0730F486
:101E4000909377098093760980E0089580811082CD
:101E5000089580936F09882329F08091C1008068DC
:101E60008093C100089581E090916F09911101C0A4
:101E700080E008958091720990917309089581E03E
:101E80004091760950917709209174093091750934
:101E90004217530709F480E00895AC0190E0FA017D
:101EA000E90FF11D2081222341F08091C00085FFC0
:101EB000FCCF2093C6009F5FF2CF0895CF93DF93AE
:101EC000CDB7DEB7DA950FB6F894DEBF0FBECDBF43
:101ED000AE014A5F5E4FFA0161917191AF01CE018F
:101EE00001960E943226CE0101960E944D0FD39595
:101EF0000FB6F894DEBF0FBECDBFDF91CF9108952E
:101F00000F931F93CF93DF938B019C01EA0160E451
:101F100072E48FE090E0A90198010E940220DA01AA
:101F2000C9010197A109B109892F9A2FAB2FBB27AE
:101F30008093CD0021502093CC0088E18093C9008C
:101F400086E08093CA00D0936A08C09369088FE640
:101F500098E090936E0880936D0880E798E09093E6
:101F60006C0880936B08DF91CF911F910F910895BA
:101F70008091C800881F8827881F08958091C80015
:101F800087FFFCCF8091CE0008950F931F93CF93CE
:101F9000DF938C01D62FC0E00E94BE0F2C2F30E0C3
:101FA00091E09C0FF801E20FF31F8D1311C08AE03E
:101FB0008083F801E90FF11D8DE08083CE5FF80189
:101FC000EC0FF11D1082DF91CF911F910F910895B9
:101FD0008083C92FE1CF8091C80087FF03C0809123
:101FE000CE00F9CF0895882321F08091C900806840
:101FF00003C08091C9008F778093C90008958091B4
:1020000068080895809368080895E0916B08F0913E
:102010006C08808380916B0890916C08019629E090
:102020008E36920719F010F08FE698E090936C08C6
:1020300080936B0880916B0890916C0820916D08DB
:1020400030916E088217930759F4019728E08F3674
:10205000920710F48EE699E090936C0880936B08D9
:102060000895E0916D08F0916E08819129E0EE36B7
:10207000F20709F028F4F0936E08E0936D0806C0AB
:102080002FE638E030936E0820936D0820916D089C
:1020900030916E0840916B0850916C0824173507F9
:1020A00089F4C901019728E08F36920710F48EE673
:1020B00099E090936E0880936D08E0916D08F0911F
:1020C0006E088081089580936708089581E090915B
:1020D0006708911101C080E008958091690890918E
:1020E0006A080895AC0190E0FA01E90FF11D208122
:1020F000222341F08091C80085FFFCCF2093CE00C1
:102100009F5FF2CF0895CF93DF93CDB7DEB7DA9517
:102110000FB6F894DEBF0FBECDBFAE014A5F5E4F73
:10212000FA0161917191AF01CE0101960E943226B0
:10213000CE0101960E947210D3950FB6F894DEBFBF
:102140000FBECDBFDF91CF9108950F931F93CF9313
:10215000DF938B019C01EA0160E472E48FE090E080
:10216000A90198010E940220DA01C9010197A10981
:10217000B109892F9A2FAB2FBB278093D50021500F
:102180002093D40088E18093D10086E08093D20030
:10219000D0936207C093610787E697E09093660744
:1021A0008093650788E697E09093640780936307C0
:1021B000DF91CF911F910F9108958091D000881FDA
:1021C0008827881F08958091D00087FFFCCF8091D9
:1021D000D60008950F931F93CF93DF938C01D62FD2
:1021E000C0E00E94E3102C2F30E091E09C0FF8013A
:1021F000E20FF31F8D1311C08AE08083F801E90F0D
:10220000F11D8DE08083CE5FF801EC0FF11D10828F
:10221000DF91CF911F910F9108958083C92FE1CF56
:102220008091D00087FF03C08091D600F9CF089538
:10223000882321F08091D100806803C08091D10073
:102240008F778093D10008958091600708958093DF
:1022500060070895E0916307F0916407808380919F
:10226000630790916407019628E08636920719F07B
:1022700010F087E697E0909364078093630780915E
:102280006307909164072091650730916607821774
:10229000930759F4019727E08736920710F486E6F2
:1022A00098E090936407809363070895E091650731
:1022B000F0916607819128E0E636F20709F028F4EC
:1022C000F0936607E093650706C027E637E0309392
:1022D0006607209365072091650730916607409156
:1022E0006307509164072417350789F4C9010197E2
:1022F00027E08736920710F486E698E09093660709
:1023000080936507E0916507F091660780810895E5
:1023100080935F07E1EDF0E080818068808308951D
:1023200081E090915F07911101C080E00895809154
:102330006107909162070895FC019191992339F00A
:102340008091D00085FFFCCF9093D600F6CF089502
:10235000CF93DF93CDB7DEB7DA950FB6F894DEBF33
:102360000FBECDBFAE014A5F5E4FFA016191719120
:10237000AF01CE0101960E943226CE0101960E9445
:102380009C11D3950FB6F894DEBF0FBECDBFDF9181
:10239000CF9108950F931F93CF93DF938B019C01EF
:1023A000EA0160E472E48FE090E0A90198010E94E4
:1023B0000220DA01C9010197A109B109892F9A2FD9
:1023C000AB2FBB278093350121502093340188E146
:1023D0008093310186E080933201D0935A06C093F6
:1023E00059068FE596E090935E0680935D0680E641
:1023F00096E090935C0680935B0610925706DF91FF
:10240000CF911F910F91089580913001881F8827E7
:10241000881F08958091300187FFFCCF809136019D
:1024200008950F931F93CF93DF938C01D62FC0E0B5
:102430000E940A122C2F30E091E09C0FF801E20F6D
:10244000F31F8D1311C08AE08083F801E90FF11D9D
:102450008DE08083CE5FF801EC0FF11D1082DF91DB
:10246000CF911F910F9108958083C92FE1CF809163
:10247000300187FF03C080913601F9CF089588238A
:1024800021F080913101806803C0809131018F7704
:1024900080933101089580915806089580935806DD
:1024A000089520915B0630915C062F5F3F4F97E0C7
:1024B0002E35390719F010F02FE536E030935C0621
:1024C00020935B0620915B0630915C0640915D068F
:1024D00050915E062417350761F42150310996E0CA
:1024E0002F35390710F42EE537E030935C06209342
:1024F0005B06E0915B06F0915C0680830895809115
:102500005D0690915E06019627E08E35920719F0E0
:1025100010F08FE596E090935E0680935D06E09163
:102520005D06F0915E0680915B0690915C068E17C9
:102530009F0730F490935E0680935D0680E00895D7
:1025400080811082089580935606E1E3F1E0808156
:1025500080688083089581E090915606911101C0B2
:1025600080E008958091590690915A06089581E07F
:1025700040915D0650915E0620915B0630915C06AD
:102580004217530709F480E00895FC0191919923C3
:1025900039F08091300185FFFCCF90933601F6CF62
:1025A0000895CF93DF93CDB7DEB7DA950FB6F894E1
:1025B000DEBF0FBECDBFAE014A5F5E4FFA01619133
:1025C0007191AF01CE0101960E943226CE01019693
:1025D0000E94C512D3950FB6F894DEBF0FBECDBFD3
:1025E000DF91CF9108951F920F920FB60F92112491
:1025F0000BB60F922F933F934F935F936F937F93FD
:102600008F939F93AF93BF93CF93EF93FF93C0911B
:10261000C6008C2F0E94D70E809171098111C09342
:10262000C600FF91EF91CF91BF91AF919F918F9194
:102630007F916F915F914F913F912F910F900BBEC2
:102640000F900FBE0F901F9018951F920F920FB60C
:102650000F9211240BB60F922F933F934F935F93DA
:102660006F937F938F939F93AF93BF93CF93EF938A
:10267000FF93C091CE008C2F0E94051080916808B6
:102680008111C093CE00FF91EF91CF91BF91AF9197
:102690009F918F917F916F915F914F913F912F917A
:1026A0000F900BBE0F900FBE0F901F9018951F92AA
:1026B0000F920FB60F9211240BB60F922F933F93E8
:1026C0004F935F936F937F938F939F93AF93BF933A
:1026D000CF93EF93FF93C091D6008C2F0E942A11C5
:1026E000809160078111C093D600FF91EF91CF9147
:1026F000BF91AF919F918F917F916F915F914F911A
:102700003F912F910F900BBE0F900FBE0F901F9017
:1027100018951F920F920FB60F9211240BB60F92BD
:102720002F933F934F935F936F937F938F939F93D9
:10273000AF93BF93CF93EF93FF93C09136018C2F4C
:102740000E945112809158068111C0933601FF9169
:10275000EF91CF91BF91AF919F918F917F916F91A9
:102760005F914F913F912F910F900BBE0F900FBE35
:102770000F901F9018951092B000E1EBF0E01082DE
:102780001092B2008FEF8093B30084E68093B40080
:10279000808187608083E0E7F0E0808181608083D2
:1027A0000895CF93DF932091810A3091820A2115F9
:1027B000310511F1EC016091830A7091840A6F5F19
:1027C0007F4F7093840A6093830A660F771FC90155
:1027D0000E94A0239093820A8093810A009761F05F
:1027E000E091830AF091840AE150F048EE0FFF1F58
:1027F000E80FF91FD183C083DF91CF9108954091F5
:10280000830A5091840A4115510509F1415051093B
:102810005093840A4093830A8091810A9091820A9E
:10282000440F551FBC016E5F7F4F0E948D25609144
:10283000830A7091840A660F771F8091810A9091B4
:10284000820A0E94A0239093820A8093810A0895AD
:10285000E1EBF0E08081887F80830895E1EBF0E098
:102860008081876080830895880F991FE091810A95
:10287000F091820AE80FF91F8081918108951F92DB
:102880000F920FB60F9211240BB60F922F933F9316
:102890004F935F936F937F938F939F93AF93BF9368
:1028A000CF93DF93EF93FF930E942814E091810A66
:1028B000F091820AC081D181209711F0FE01199513
:1028C0000E94FF13CE010E94D1130E942E14FF918B
:1028D000EF91DF91CF91BF91AF919F918F917F91B8
:1028E0006F915F914F913F912F910F900BBE0F9081
:1028F0000FBE0F901F90189514BC15BC16BC81E03C
:1029000080936E0078948093780A08958091780A75
:10291000811102C00E947C141092790A10927A0AE6
:1029200010927B0A10927C0A10927D0A10927E0A05
:1029300010927F0A1092800A85B5816085BD16BC11
:10294000089585B5887F85BD0895CF92DF92EF9277
:10295000FF92CF93C6B52091790A30917A0A4091BF
:102960007B0A50917C0A60917D0A70917E0A809169
:102970007F0A9091800A0E9483216B017C016C2F59
:1029800070E080E090E00E94482120E030E040E8E4
:102990005DE30E9412229B01AC01C701B6010E94B7
:1029A0003920CF91FF90EF90DF90CF9008951F9244
:1029B0000F920FB60F9211242F933F934F935F9373
:1029C0006F937F938F939F93AF932091790A309168
:1029D0007A0A40917B0A50917C0A60917D0A70913D
:1029E0007E0A80917F0A9091800AA0E10E942C20AB
:1029F0002093790A30937A0A40937B0A50937C0A99
:102A000060937D0A70937E0A80937F0A9093800A78
:102A1000AF919F918F917F916F915F914F913F9176
:102A20002F910F900FBE0F901F90189520FD09C099
:102A3000FC0123FD05C022FF02C073836283518322
:102A40004083089544FD17C046FD17C0AB01BC018B
:102A5000DA01FB01AA0FBB1FEE1FFF1F1094D1F775
:102A60004A0F5B1F6E1F7F1FCB01BA01660F771FD6
:102A7000881F991F09C033E001C034E0660F771F3B
:102A8000881F991F3150D1F7620F711D811D911D53
:102A900008950F931F93CF93DF938C01C8010E9479
:102AA000B825EC0197FD08C00E945D25892BB1F780
:102AB000B801CE010E945B26CE01DF91CF911F911C
:102AC0000F9108958F929F92AF92BF92CF92DF9213
:102AD000EF92FF920F931F93CF93DF937C018B01B3
:102AE0006A01D22F0E94B8259C0133272B32310571
:102AF00021F02D32310559F4D0680150110911F43B
:102B000080E06BC0C7010E94B82597FDF9CFCD2F9B
:102B1000CD7F2D2F207319F5803309F5580181E001
:102B2000A81AB10809F445C0C7010E94B82597FD4D
:102B300040C09C012F7D33272835310551F4C264F4
:102B400002501109B1F1C7010E94B82597FF07C0D3
:102B500030C0D6FF02C0C26001C0C2618501812CB5
:102B6000912C540120ED280F283080F0C4FF04C0C0
:102B7000B7010E945B261AC02A3040F0C6FFF8CF8A
:102B80002F7D3FEE320F363098F727504C2FC5017E
:102B9000B4010E9422154B015C01C2600150110971
:102BA00059F0C7010E94B82597FFDCCFC1FD04C0D2
:102BB000A7CF812C912C5401C7FF08C0B094A094DA
:102BC00090948094811C911CA11CB11C2C2FB501E8
:102BD000A401C6010E94161581E0DF91CF911F91DB
:102BE0000F91FF90EF90DF90CF90BF90AF909F90AC
:102BF0008F9008954F925F926F927F928F929F92E3
:102C0000AF92BF92CF92DF92EF92FF920F931F93FA
:102C1000CF93DF93CDB7DEB7A0970FB6F894DEBFA2
:102C20000FBECDBF5C014B017A018E010F5F1F4FBC
:102C3000680180E2F80111928A95E9F7F501538065
:102C400040E050E0612C90E0712CA1E0B0E0F9018F
:102C500053FC859153FE81918F01482E9F01811174
:102C600003C080E090E096C08E3519F441155105FF
:102C700051F1672D70E0641775073CF48D3561F1F3
:102C80008D3219F4992311F103C0992309F46DC011
:102C9000842D869586958695F601E80FF11D842D85
:102CA00087708D0102C0000F111F8A95E2F7C801DD
:102CB0009081892B8083641459F0461410F4439456
:102CC000E7CF4A94E5CF7724739403C091E001C025
:102CD00090E04F5F5F4FBBCF992319F08E818062E8
:102CE0008E83711003C07724739419C0F6019E017E
:102CF0002F5D3F4F8081809581932E173F07D1F73D
:102D0000F2CFE114F10431F0F7018083B7016F5F76
:102D10007F4F7B0171E0871A9108712CF9F0C50192
:102D20000E94B82597FD18C0FC01FF2723E0F59508
:102D3000E7952A95E1F7EC0DFD1D208130E0AC010F
:102D40004770552702C0359527954A95E2F720FD33
:102D5000D8CFB5010E945B26711083CFE114F10436
:102D600011F0F7011082C80115C0682F66956695AD
:102D70006695F601E60FF11D682F67708D0102C0A0
:102D8000000F111F6A95E2F7B8017081672B60830D
:102D9000682E9FCFA0960FB6F894DEBF0FBECDBFB2
:102DA000DF91CF911F910F91FF90EF90DF90CF9027
:102DB000BF90AF909F908F907F906F905F904F905B
:102DC00008952F923F924F925F926F927F929F92BF
:102DD000AF92BF92CF92DF92EF92FF920F931F9329
:102DE000CF93DF936C018B011A010E94B825EC018F
:102DF00099278B32910529F08D9781F430E8932E35
:102E000001C0912C0150110911F480E00CC1C601E0
:102E10000E94B825EC0197FF02C0F7CF912CCE019C
:102E20000E9466258936910531F08E36910599F517
:102E3000C8E6D2E002C0CBE6D2E02196FE0131978F
:102E4000B490BB20C9F00150110991F0C6010E9455
:102E5000B8257C0197FD0CC00E9466259927EB2DB3
:102E6000F0E08E179F0749F3B601C7010E945B2669
:102E7000CE56D24051F603C0CB56D24029F080E066
:102E800090E0A0E8BFE704C080E090E0A0ECBFE7DE
:102E9000BC01CD01B8C0412C512C3201E12CF12CE8
:102EA0002C2F20532A3010F5E92DE260BE2E892DFB
:102EB000887092FE06C0811120C0FFEFEF1AFF0A52
:102EC0001CC0882319F081E0E81AF10840E2C30130
:102ED000B2010E9422152B013C01683979498949C8
:102EE000994158F0F92DF660BF2E07C02E3F89F4A6
:102EF00093FC0FC0292D2860B22E0150110941F01A
:102F0000C6010E94B825EC019B2C97FFC9CF01C0D8
:102F10009B2C91FE7ACFCE018F7D99278534910528
:102F200009F042C0580181E0A81AB10809F46DCF38
:102F3000C6010E94B825EC0197FD67CF99278B3217
:102F4000910529F08D9769F4E92DE0619E2E5801D5
:102F5000F2E0AF1AB10809F458CFC6010E94B825B3
:102F6000EC01CE01C0970A9708F04FCF8501A12C44
:102F7000B12CB501BB0C880B990B2C2F205340E2D0
:102F80000E9422155B010150110939F0C6010E940F
:102F9000B825EC01C0970A9760F394FE03C0B19482
:102FA000A194B108EA0CFB1C012B31F0D7FD04C041
:102FB000B601CE010E945B26C301B2010E944621E8
:102FC000F7FE06C0F194E194F108C7E8D2E002C030
:102FD000CFE9D2E06E0128E1C21AD10800E210E088
:102FE000E016F10650F0FE0125913591459154917E
:102FF0000E941222E01AF10AF3CF24971695079542
:10300000CC16DD0669F797FE05C0DC01CB01B05890
:10301000BC01CD012114310429F0F10160837183D9
:103020008283938381E0DF91CF911F910F91FF9075
:10303000EF90DF90CF90BF90AF909F907F906F9078
:103040005F904F903F902F9008956F927F928F9254
:103050009F92AF92BF92CF92DF92EF92FF920F9327
:103060001F93CF93DF935C01EB014A01FC011782B0
:103070001682612CF5010381FE0103FD859103FF9A
:103080008191182FEF01882309F40FC190E00E946D
:103090005D25892B21F0C5010E944915EBCF153222
:1030A00041F4FE0103FD159103FF1191EF0115326B
:1030B00081F4C5010E94B82597FDF5C0412F50E06D
:1030C0009C01332724173507A9F2B5010E945B261E
:1030D000ECC01A3241F403FD159103FF1191EF0189
:1030E0007724739401C0712CE12CF12C20ED210F79
:1030F0002A3088F4F72DF2607F2EB70180E090E04F
:1031000040E20E9422157B01FE0103FD159103FFA1
:103110001191EF01EBCF71FE04C0E114F10421F431
:10312000C4C0EE24EA94FE2C183619F01C3661F067
:1031300014C0FE0103FD159103FF1191EF01183634
:1031400061F4872D8860782E972D9460792EFE018A
:1031500003FD159103FF1191EF01112309F4A5C09F
:10316000612F70E086E592E00E946E25892B09F4BC
:103170009CC070FC07C0F401C080D180C4010296DD
:103180004C0102C0C12CD12C1E3651F4F5014681F0
:10319000578160E070E0272DC6010E9416156ACFA6
:1031A0001336B9F471FC03C0EE24E394F12CC5018D
:1031B0000E94B82597FD77C0C114D10429F0F6010B
:1031C0008083C60101966C0191E0E91AF10879F754
:1031D00066C01B3559F49E01A601B701C5010E94C6
:1031E000FA15EC01892B09F05AC054C0C5010E94A0
:1031F000491597FD58C01F36E1F140F41436A9F186
:103200001936D1F1183509F03EC02BC01337A9F09B
:1032100018F4103731F137C0153739F1183709F183
:1032200032C0C114D10429F0F6010083C601019611
:103230006C0191E0E91AF10871F0C5010E94B8250E
:103240008C0197FD08C00E945D25892B51F3B501C3
:10325000C8010E945B26C114D10409F1F601108255
:103260001EC0F72DF0647F2E07C0872D8062782E58
:1032700003C0972D9061792E272DA601B701C501B6
:103280000E94621505C0A601B701C5010E94E116A2
:10329000811105C0F5018381807329F406C070FC9B
:1032A000E9CE6394E7CE662019F0862D90E002C047
:1032B0008FEF9FEFDF91CF911F910F91FF90EF90D4
:1032C000DF90CF90BF90AF909F908F907F906F9046
:1032D00008952F923F924F925F926F927F928F92BA
:1032E0009F92AF92BF92CF92DF92EF92FF920F9395
:1032F0001F93CF93DF93CDB7DEB760970FB6F894E7
:10330000DEBF0FBECDBF7C011B016A01FC0117822D
:103310001682838181FF44C39E012F5F3F4F390195
:10332000F7019381F10193FD859193FF81911F0135
:10333000882309F431C3853239F493FD859193FFD5
:1033400081911F01853239F4B70190E00E94F62582
:1033500056016501E5CF10E0512C912CFFE1F915E4
:10336000D8F08B3279F038F4803279F08332A1F4DE
:10337000F92DF0612EC08D3261F0803369F4292D72
:1033800021602DC0392D3260932E892D8460982EB6
:103390002AC0E92DE86015C097FC2DC020ED280F4C
:1033A0002A3088F496FE06C03AE0139F200D1124BF
:1033B000122F19C08AE0589E200D1124522EE92D9B
:1033C000E0629E2E10C08E3231F496FCE5C2F92DDB
:1033D000F0649F2E08C08C3621F4292D2068922E8F
:1033E00002C0883641F4F10193FD859193FF8191EC
:1033F0001F018111B3CF9BEB980F933020F4992DCF
:103400009061805E07C09BE9980F933008F066C119
:10341000992D9F7E96FF16E09F73992E853619F49D
:103420009064992E08C0863621F4392F3068932E87
:1034300002C01111115097FE07C01C3350F44424F0
:103440004394410E27E00BC0183038F027E017E016
:1034500005C027E09CE3492E02C0212F412C5601D4
:1034600084E0A80EB11CF601608171818281938194
:10347000042DA3010E9485246C01F981FC87F0FFD3
:1034800002C0F3FF06C091FC06C092FE06C000E237
:1034900005C00DE203C00BE201C000E08C858C701A
:1034A00019F001115AC29BC297FE10C04C0CFC854A
:1034B000F4FF04C08A81813309F44A94141474F52A
:1034C00028E0241578F588E0482E2CC096FC2AC008
:1034D000812F90E08C159D059CF03CEFC3163FEFCB
:1034E000D30674F0892D8068982E0AC0E2E0F0E0DF
:1034F000EC0FFD1FE10FF11D8081803319F4115095
:103500001111F4CF97FE0EC044244394410E812F35
:1035100090E0C816D9062CF41C1904C04424439426
:1035200001C010E097FE06C01C141D0434F4C6014F
:10353000019605C085E090E002C081E090E00111B5
:103540000196112331F0212F30E02F5F3F4F820F82
:10355000931F252D30E08217930714F4581A01C0E9
:10356000512C892D897049F4552039F0B70180E23A
:1035700090E00E94F6255A94F7CF002329F0B70176
:10358000802F90E00E94F62593FC09C0552039F069
:10359000B70180E390E00E94F6255A94F7CF97FE9A
:1035A0004CC04601D7FE02C0812C912CC60188195F
:1035B0009909F301E80FF91FFE87ED879601241999
:1035C0003109388B2F87012F10E0119501951109D2
:1035D0003FEF8316930629F4B7018EE290E00E9434
:1035E000F625C814D9044CF08F859889881599055B
:1035F00024F4ED85FE85818101C080E3F1E08F1A1E
:1036000091082D853E852F5F3F4F3E872D87801681
:1036100091062CF0B70190E00E94F625D9CFC8148E
:10362000D90441F49A81963320F4953319F43C85FA
:1036300034FF81E3B70190E04EC08A81813319F0F5
:103640009C859F7E9C87B70190E00E94F625111112
:1036500005C094FC18C085E690E017C0B7018EE263
:1036600090E00E94F6251E5F82E001E0080FF30162
:10367000E80FF11D8081B70190E00E94F625802FB0
:103680000113F3CFE6CF85E490E0B7010E94F62561
:10369000D7FC06C0C114D10441F4EC85E4FF05C099
:1036A000D194C194D1088DE201C08BE2B70190E0C2
:1036B0000E94F62580E32AE0C216D1042CF08F5F29
:1036C000FAE0CF1AD108F7CFB70190E00E94F625B3
:1036D000B701C601C0960E94F62554C1833631F069
:1036E000833779F0833509F056C020C0560132E0A7
:1036F000A30EB11CF6018081898301E010E0630113
:1037000012C05601F2E0AF0EB11CF601C080D180AC
:1037100096FE03C0612F70E002C06FEF7FEFC6011D
:103720000E94AD258C01F92DFF7714C0560122E0CF
:10373000A20EB11CF601C080D18096FE03C0612F9D
:1037400070E002C06FEF7FEFC6010E9479258C0107
:10375000F92DF0689F2EF3FD1AC0852D90E0081713
:103760001907A8F4B70180E290E00E94F6255A9468
:10377000F4CFF60197FC859197FE81916F01B70117
:1037800090E00E94F62551105A940150110901153C
:10379000110579F7F7C0843611F0893661F55601C5
:1037A00097FE09C024E0A20EB11CF6016081718170
:1037B000828193810AC0F2E0AF0EB11CF6016081F4
:1037C0007181072E000C880B990BF92DFF769F2E27
:1037D00097FF09C090958095709561957F4F8F4FA9
:1037E0009F4FF0689F2E2AE030E0A3010E947426CC
:1037F000C82EC6183FC0092D853721F40F7E2AE058
:1038000030E01DC0097F8F3691F018F4883559F0EB
:10381000C3C0803719F0883711F0BEC0006104FFC3
:1038200009C0046007C094FE08C0066006C028E016
:1038300030E005C020E130E002C020E132E0560176
:1038400007FF09C084E0A80EB11CF60160817181F8
:103850008281938108C0F2E0AF0EB11CF601608155
:10386000718180E090E0A3010E947426C82EC618E2
:103870000F77902E96FE0BC0092D0E7FC11650F4C7
:1038800094FE0AC092FC08C0092D0E7E05C0DC2CF7
:10389000092D03C0DC2C01C0D12E04FF0DC0FE0198
:1038A000EC0DF11D8081803311F4097E09C002FF07
:1038B00006C0D394D39404C0802F867809F0D394A3
:1038C00003FD11C000FF06C01C2DD51480F4150D9A
:1038D0001D190DC0D51458F4B70180E290E00E9484
:1038E000F625D394F7CFD51410F45D1801C0512CF0
:1038F00004FF10C0B70180E390E00E94F62502FFAC
:1039000017C001FD03C088E790E002C088E590E0A1
:10391000B7010CC0802F867859F001FF02C08BE2FE
:1039200001C080E207FD8DE2B70190E00E94F6251C
:10393000C11638F4B70180E390E00E94F6251150DB
:10394000F7CFCA94F301EC0DF11D8081B70190E02F
:103950000E94F625C110F5CF15C0F4E0F51560F50D
:1039600084E0581A93FE1FC0011127C02C8523FF45
:103970002AC004E511E0392D3071932EF8018491AD
:10398000811124C0552009F4E4CCB70180E290E015
:103990000E94F6255A94F6CFF7018681978126C0BA
:1039A0008FEF9FEF23C0B70180E290E00E94F625E1
:1039B0005A945110F8CFD8CF512CB701802F90E0F6
:1039C0000E94F625D3CF08E511E0D5CF91108052A3
:1039D000B70190E00E94F6250F5F1F4FCFCF23E085
:1039E000251510F483E0BDCF512CC0CF60960FB6E3
:1039F000F894DEBF0FBECDBFDF91CF911F910F9125
:103A0000FF90EF90DF90CF90BF90AF909F908F90FE
:103A10007F906F905F904F903F902F9008958230ED
:103A2000C9F028F4882341F0813069F0089583308B
:103A3000C1F08430E9F00895E0910002F0910102B4
:103A4000809105061BC0E0910002F0910102809177
:103A5000060614C0E0910002F09101028091070671
:103A60000DC0E0910002F09101028091080606C0AD
:103A7000E0910002F091010280910906808308958F
:103A80009091C00095FFFCCF813069F028F0823022
:103A900089F08330B1F00895E0910002F0910102C5
:103AA00080910F0614C0E0910002F0910102809114
:103AB00010060DC0E0910002F09101028091110604
:103AC00006C0E0910002F09101028091120680830D
:103AD000089590E08031910508F0A4C0FC01A09108
:103AE0000002B09101028827EE58FF4F8F4F0C94CF
:103AF00024208091270620C0809129068C93E09194
:103B00000002F0910102809128068BC080912B0663
:103B10008C93E0910002F091010280912A0681C00D
:103B200080912D068C93E0910002F091010280912A
:103B30002C0677C080912F068C93E0910002F091C3
:103B40000102809126066DC0809130068C93E09131
:103B50000002F09101028091300663C0809133062B
:103B60008C93E0910002F09101028091320659C0DD
:103B7000809135068C93E0910002F09101028091D2
:103B800034064FC0809137068C93E0910002F0918B
:103B900001028091360645C0809139068C93E091F0
:103BA0000002F0910102809138063BC080913B06F3
:103BB0008C93E0910002F091010280913A0631C0AD
:103BC00080913D068C93E0910002F091010280917A
:103BD0003C0627C080913F068C93E0910002F09153
:103BE000010280913E061DC0809141068C93E091B8
:103BF0000002F09101028091400613C080914306BB
:103C00008C93E0910002F09101028091420609C07C
:103C1000809145068C93E0910002F0910102809121
:103C2000440680830895CF93DF93CEEDD3E01B82CB
:103C30001A8280E090E00E947F2299838883DF913E
:103C4000CF910895E3E6F4E011821082138212828C
:103C500015821482178216821186108613861286A8
:103C60001586148617861686118A108A138A128A78
:103C7000158A148A178A168A118E108E138E128E48
:103C8000158E148E178E168E11A210A213A212A2D8
:103C900015A214A217A216A211A610A61092A30490
:103CA0001092A2041092A5041092A4041092A704EA
:103CB0001092A6041092A9041092A8041092AB04CA
:103CC0001092AA041092AD041092AC0487E0E8E9C7
:103CD000F2E0ABE2B4E001900D928A95E1F787E063
:103CE000E1E9F2E0A2E3B4E001900D928A95E1F7F8
:103CF00087E0EAE8F2E0A9E3B4E001900D928A954A
:103D0000E1F787E0E3E8F2E0A0E4B4E001900D928F
:103D10008A95E1F787E0E9E5F2E0A7E4B4E00190F5
:103D20000D928A95E1F787E0E0E6F2E0AEE4B4E0D8
:103D300001900D928A95E1F787E0E7E6F2E0A5E5CC
:103D4000B4E001900D928A95E1F787E0EEE6F2E0AB
:103D5000ACE5B4E001900D928A95E1F787E0EFE9D8
:103D6000F2E0A3EFB3E001900D928A95E1F787E0CE
:103D7000E6EAF2E0AAEFB3E001900D928A95E1F74E
:103D800087E0EDEAF2E0A1E0B4E001900D928A95BF
:103D9000E1F787E0E4EBF2E0A8E0B4E001900D92F7
:103DA0008A95E1F787E0EBEBF2E0AFE0B4E0019059
:103DB0000D928A95E1F787E0E2ECF2E0A6E1B4E04B
:103DC00001900D928A95E1F787E0E9ECF2E0ADE130
:103DD000B4E001900D928A95E1F787E0E0EDF2E022
:103DE000A4E2B4E001900D928A95E1F787E0ECE758
:103DF000F2E0A5EEB3E001900D928A95E1F787E03D
:103E0000E5E7F2E0ACEEB3E001900D928A95E1F7C0
:103E100083B18093E403809103018093E303809155
:103E200006018093E20308950E94861440E050E06A
:103E300060E472E48FE090E00E944F0E40E050E0BA
:103E400060E472E48FE090E00E94A51080E00E94A0
:103E5000D40E80E00E94C50E80E00E94290F0E94CF
:103E6000BD0EC6E3D3E020E047E060E484EB94E0DD
:103E70000E94780D9F938F93DF93CF930E94A81198
:103E80009FEF29E688E1915020408040E1F700C093
:103E900000000F900F900F900F90E5CFE1E0F6E05B
:103EA0001082118212821382148215821682178266
:103EB0001086118612861386148615861686178636
:103EC000108A118A128A138A148A158A168A178A06
:103ED000108E118E128E148E138E158E168E178ED6
:103EE00011A210A212A216A215A210A617A212A623
:103EF00011A614A613A616A615A610AA17A612AAEE
:103F000011AA14AA13AA16AA15AA10AE17AA12AEBD
:103F100011AE14AE13AE16AE15AE1092410610924D
:103F200040061092430610924206109245061092E7
:103F3000440641E069E08CED95E00E940A0B40E008
:103F400065E487EB95E00E940A0B41E068E082E9B6
:103F500095E00E940A0B40E064E48DE695E00E9443
:103F60000A0B41E067E088E495E00E940A0B40E01C
:103F700063E483E295E00E940A0B41E066E08EEF85
:103F800094E00E940A0B40E062E489ED94E00E9414
:103F90000A0B40E066E384EB94E00C940A0BCF93A9
:103FA000DF93C1E8DAE01B821A8280E090E00E9491
:103FB0007F22998388831092790A10927A0A10924C
:103FC0007B0A10927C0A10927D0A10927E0A10924F
:103FD0007F0A1092800ADF91CF910895AA1BBB1B24
:103FE00051E107C0AA1FBB1FA617B70710F0A61BF9
:103FF000B70B881F991F5A95A9F780959095BC011A
:10400000CD010895A1E21A2EAA1BBB1BFD010DC014
:10401000AA1FBB1FEE1FFF1FA217B307E407F50778
:1040200020F0A21BB30BE40BF50B661F771F881F54
:10403000991F1A9469F760957095809590959B01EA
:10404000AC01BD01CF010895EE0FFF1F881F8BBF8C
:104050000790F691E02D19940024A7FD00942A0FF3
:10406000301D401D501D601D701D801D901D089548
:104070005058BB27AA270E9450200C94D8210E9498
:10408000CA2138F00E94D12120F039F49F3F19F461
:1040900026F40C94C7210EF4E095E7FB0C94C121A3
:1040A000E92F0E94E92158F3BA17620773078407C2
:1040B000950720F079F4A6F50C940B220EF4E09508
:1040C0000B2EBA2FA02D0B01B90190010C01CA01D2
:1040D000A0011124FF27591B99F0593F50F4503E7D
:1040E00068F11A16F040A22F232F342F4427585F6F
:1040F000F3CF469537952795A795F0405395C9F787
:104100007EF41F16BA0B620B730B840BBAF091503E
:10411000A1F0FF0FBB1F661F771F881FC2F70EC0DD
:10412000BA0F621F731F841F48F4879577956795B0
:10413000B795F7959E3F08F0B0CF9395880F08F09C
:104140009927EE0F9795879508950E94B9200C94B2
:10415000D8210E94D12158F00E94CA2140F029F4B0
:104160005F3F29F00C94C12151110C940C220C9446
:10417000C7210E94E92168F39923B1F3552391F3F4
:10418000951B550BBB27AA2762177307840738F0C6
:104190009F5F5F4F220F331F441FAA1FA9F335D023
:1041A0000E2E3AF0E0E832D091505040E695001CD7
:1041B000CAF72BD0FE2F29D0660F771F881FBB1F91
:1041C000261737074807AB07B0E809F0BB0B802D6F
:1041D000BF01FF2793585F4F3AF09E3F510578F09B
:1041E0000C94C1210C940C225F3FE4F3983ED4F36D
:1041F000869577956795B795F7959F5FC9F7880F6F
:10420000911D9695879597F90895E1E0660F771FC0
:10421000881FBB1F621773078407BA0720F0621B51
:10422000730B840BBA0BEE1F88F7E09508950E947C
:10423000F12188F09F5798F0B92F9927B751B0F026
:10424000E1F0660F771F881F991F1AF0BA95C9F71A
:1042500014C0B13091F00E940B22B1E008950C948B
:104260000B22672F782F8827B85F39F0B93FCCF33E
:10427000869577956795B395D9F73EF49095809597
:10428000709561957F4F8F4F9F4F0895E89409C0B7
:1042900097FB3EF490958095709561957F4F8F4F79
:1042A0009F4F9923A9F0F92F96E9BB279395F6958F
:1042B000879577956795B795F111F8CFFAF4BB0F0D
:1042C00011F460FF1BC06F5F7F4F8F4F9F4F16C071
:1042D000882311F096E911C0772321F09EE8872FFB
:1042E000762F05C0662371F096E8862F70E060E0B7
:1042F0002AF09A95660F771F881FDAF7880F969530
:10430000879597F90895E894F92F96EBFF2381F0AC
:10431000121613061406440B9395F6958795779518
:10432000679557954040FF23B9F71BC0992708951B
:10433000882351F49850D2F7872B762F652F542F6E
:10434000432F322F20E0B1F3121613061406440B4C
:1043500088233AF09A95440F551F661F771F881FD0
:10436000CAF755234AF4440F551F11F460FF04C0E7
:104370006F5F7F4F8F4F9F4F880F9695879597F967
:10438000089597F99F6780E870E060E008959FEFD7
:1043900080EC089500240A941616170618060906DC
:1043A000089500240A9412161306140605060895AB
:1043B000092E0394000C11F4882352F0BB0F40F433
:1043C000BF2B11F460FF04C06F5F7F4F8F4F9F4F73
:1043D000089557FD9058440F551F59F05F3F71F0F5
:1043E0004795880F97FB991F61F09F3F79F087955C
:1043F0000895121613061406551FF2CF4695F1DFE5
:1044000008C0161617061806991FF1CF8695710574
:10441000610508940895E894BB2766277727CB01A8
:1044200097F908950E9425220C94D8210E94CA2150
:1044300038F00E94D12120F0952311F00C94C12175
:104440000C94C72111240C940C220E94E92170F3D2
:10445000959FC1F3950F50E0551F629FF001729F29
:10446000BB27F00DB11D639FAA27F00DB11DAA1F38
:10447000649F6627B00DA11D661F829F2227B00D85
:10448000A11D621F739FB00DA11D621F839FA00D10
:10449000611D221F749F3327A00D611D231F849F60
:1044A000600D211D822F762F6A2F11249F575040B7
:1044B0009AF0F1F088234AF0EE0FFF1FBB1F661F32
:1044C000771F881F91505040A9F79E3F510580F0FB
:1044D0000C94C1210C940C225F3FE4F3983ED4F37A
:1044E000869577956795B795F795E7959F5FC1F79F
:1044F000FE2B880F911D9695879597F908950F9338
:104500001F93CF93DF938230910510F482E090E007
:10451000E091870AF091880A20E030E0A0E0B0E066
:10452000309719F140815181028113814817590751
:10453000C8F08417950769F4109731F012960C9320
:10454000129713961C9327C00093870A1093880A2A
:1045500022C02115310519F04217530718F49A01AA
:10456000BD01EF01DF01F801DBCF21153105F9F0C5
:10457000281B390B2430310580F48A819B81611519
:10458000710521F0FB019383828304C09093880A14
:104590008093870AFE01329644C0FE01E20FF31FAA
:1045A0008193919322503109398328833AC0209115
:1045B000850A3091860A232B41F42091D90230914B
:1045C000DA023093860A2093850A2091D70230912F
:1045D000D8022115310541F42DB73EB74091DB02D9
:1045E0005091DC02241B350BE091850AF091860A7C
:1045F000E217F307A0F42E1B3F0B2817390778F0BA
:10460000AC014E5F5F4F2417350748F04E0F5F1F18
:104610005093860A4093850A8193919302C0E0E00B
:10462000F0E0CF01DF91CF911F910F910895CF93CB
:10463000DF93009709F481C0FC0132971382128244
:10464000A091870AB091880A109781F42081318166
:10465000820F931F2091850A3091860A2817390707
:1046600051F5F093860AE093850A67C0ED0120E0DA
:1046700030E0CE17DF0740F44A815B819E0141158F
:104680005105F1F0EA01F5CFD383C2834081518116
:10469000840F951FC817D90759F488819981840F11
:1046A000951F0296918380838A819B819383828365
:1046B0002115310529F4F093880AE093870A3DC05B
:1046C000E901FB83EA8349915991C40FD51FEC1787
:1046D000FD0761F480819181840F951F0296E901A5
:1046E00099838883828193819B838A83E0E0F0E0D1
:1046F00012968D919C911397009719F0FD01DC01A2
:10470000F7CF8D919C9111979D012E5F3F4F820FA6
:10471000931F2091850A3091860A2817390769F47A
:10472000309729F41092880A1092870A02C01382E7
:104730001282B093860AA093850ADF91CF910895E3
:104740006F927F928F929F92AF92BF92CF92DF92A1
:10475000EF92FF920F931F93CF93DF93009789F40B
:10476000CB01DF91CF911F910F91FF90EF90DF90E0
:10477000CF90BF90AF909F908F907F906F900C9450
:104780007F22FC01E60FF71F9C0122503109E2173E
:10479000F30708F4A9C0EC01D9010D911C91119700
:1047A00006171707B0F00530110508F49BC0C801C3
:1047B00004978617970708F495C002501109061B45
:1047C000170B019311936D937C93CF010E941723D4
:1047D00089C05B01A01AB10A4C01800E911EA09104
:1047E000870AB091880A612C712CE12CF12C10976A
:1047F00009F446C08D919C911197A815B905B1F5A2
:104800006C0142E0C40ED11CCA14DB0478F14C01E7
:104810008A189B08640142E0C40ED11C1296BC9019
:1048200012971396AC91B5E0CB16D10440F0B2824A
:10483000A38391828082D9016D937C9309C00E5F1E
:104840001F4F800F911FF90191838083EB2DFA2F69
:10485000E114F10431F0D7011396FC93EE93129713
:1048600041C0F093880AE093870A3CC06816790635
:1048700008F43C017D0112960D90BC91A02DB7CF9C
:104880008091850A9091860A88169906E1F4661649
:104890007706C8F48091D7029091D802009741F42E
:1048A0008DB79EB74091DB025091DC02841B950BC3
:1048B000E817F907C8F4F093860AE093850AF9012E
:1048C000718360830FC0CB010E947F227C0100971F
:1048D00059F0A801BE010E948425CE010E94172331
:1048E000C70104C0CE0102C080E090E0DF91CF910B
:1048F0001F910F91FF90EF90DF90CF90BF90AF90FE
:104900009F908F907F906F900895283008F027E057
:104910003327DA01990F311D87FD916000966105FB
:10492000710539F432602E5F3D9330E32A95E1F74B
:1049300008959F3F30F080387105610509F03C5FB4
:104940003C5F3D93913008F08068911DDF93CF93D9
:104950001F930F93FF92EF92192F987F9695E92F4F
:1049600096959695E90FFF27EA54FE4F992733272E
:10497000EE24FF24A701E70105900894079428F48A
:10498000360FE71EF81E491F511D660F771F881F3F
:10499000991F0694A1F70590079428F4E70EF81ED6
:1049A000491F561FC11D770F881F991F661F069448
:1049B000A1F70590079428F4F80E491F561FC71F4A
:1049C000D11D880F991F661F771F0694A1F70590C8
:1049D000079420F4490F561FC71FD81F990F661F51
:1049E000771F881F0694A9F784911095177041F0DE
:1049F000D695C79557954795F794E7941A95C1F7BB
:104A0000ECE5F1E0689415901591359165919591DB
:104A100005907FE27395E118F10A430B560BC90B21
:104A2000D009C0F7E10CF11E431F561FC91FD01D4E
:104A30007EF4703311F48A95E6CFE894015030F09B
:104A4000080F0AF40027021708F4202F2395022FDD
:104A50007A3328F079E37D932A95E9F710C07D93A6
:104A60002A9589F606949795679537951795179423
:104A7000E118F10A430B560BC90BD00998F02395A6
:104A80007E9173957A3308F070E37C932013B8F726
:104A90007E9170617D9330F0839571E37D9370E337
:104AA0002A95E1F71124EF90FF900F911F91CF917C
:104AB000DF91992787FD9095089591110C94D22646
:104AC000803219F089508550C8F7089591110895E2
:104AD00081548A5108F4805E855A0895FC0105903E
:104AE000061621F00020D9F7C00108953197CF01B3
:104AF0000895FC010590615070400110D8F7809531
:104B000090958E0F9F1F0895FB01DC0102C001905C
:104B10000D9241505040D8F708956817790768F40E
:104B2000FB01DC01E40FF51FA40FB51F02C00290CA
:104B30000E9241505040D8F708950C948425FB0103
:104B4000DC014150504030F08D910190801919F4F2
:104B50000020B9F7881B990B0895FC016150704043
:104B600001900110D8F7809590958E0F9F1F0895A2
:104B7000CF93DF93EC012B8120FF33C026FF0AC0C7
:104B80002F7B2B838E819F8101969F838E838A81C9
:104B900090E029C022FF0FC0E881F9818081082EB2
:104BA000000C990B009719F420622B831AC03196E0
:104BB000F983E8830EC0EA85FB85199597FF09C044
:104BC0002B81019611F080E201C080E1822B8B8362
:104BD00008C02E813F812F5F3F4F3F832E8399274F
:104BE00002C08FEF9FEFDF91CF9108950F931F9336
:104BF000CF93DF93FB01238121FD03C08FEF9FEF54
:104C00002CC022FF16C0468157812481358142176E
:104C1000530744F4A081B1819D012F5F3F4F318341
:104C200020838C93268137812F5F3F4F37832683E4
:104C300014C08B01EC01FB010084F185E02D199576
:104C4000892BE1F6D80116968D919C9117970196C4
:104C500017969C938E931697CE01DF91CF911F915B
:104C60000F9108950F931F93CF93DF93CDB7DEB7C6
:104C70002E970FB6F894DEBF0FBECDBF8C0186E035
:104C80008C831A8309838FEF9FE79E838D83CE01E8
:104C900001960E946919EF81F885E00FF11F1082DB
:104CA0002E960FB6F894DEBF0FBECDBFDF91CF9129
:104CB0001F910F910895FB01238120FF12C026FD53
:104CC00010C08F3F3FEF930761F082832F7D2064F8
:104CD0002383268137812150310937832683992701
:104CE00008958FEF9FEF0895FA01AA27283051F118
:104CF000203181F1E8946F936E7F6E5F7F4F8F4F0D
:104D00009F4FAF4FB1E03ED0B4E03CD0670F781F6B
:104D1000891F9A1FA11D680F791F8A1F911DA11D50
:104D20006A0F711D811D911DA11D20D009F4689489
:104D30003F912AE0269F11243019305D3193DEF631
:104D4000CF010895462F4770405D4193B3E00FD0E7
:104D5000C9F7F6CF462F4F70405D4A3318F0495DD2
:104D600031FD4052419302D0A9F7EACFB4E0A695B5
:104D70009795879577956795BA95C9F700976105D7
:104D8000710508959B01AC010A2E0694579547952D
:104D900037952795BA95C9F7620F731F841F951F22
:0E4DA000A01D0895992788270895F894FFCF45
:104DAE00C6000201AA04B20400010203040301AC0E
:104DBE0004B3040004080C051200A804B10400405A
:104DCE0080C0031300A604B00400102030021400AB
:104DDE00A404AF040004080C011500A204AE0400E4
:104DEE000102030000010063048D04010003650449
:104DFE008E0406010067048F040A000469049604F9
:104E0E000B00056B0497040C00066D0498040D004E
:104E1E00076F0499040E0102710491040F010173CE
:104E2E000490043200037504950433000277049451
:104E3E0004340001790493043500007B0492043E8F
:104E4E0002007D049A043F02017F049B044002028B
:104E5E0081049C0441020383049D044202048504E0
:104E6E009E0443020587049F044402068904A0049D
:104E7E004502078B04A1040000890A20002400804B
:104E8E0000B0009000A0002001000001000200030D
:104E9E0000040005000600070000080108020803D0
:104EAE000804080508060807085368656C6C0D0AA7
:104EBE0000596F752077726F74653A20257300471D
:104ECE0050530D0A00244750524D43004461746FF5
:104EDE002025640D0A00256C660D0A0050494E7897
:104EEE00093A2025700D0A0044445278093A2025CB
:104EFE00700D0A00504F525478093A2025700D0A51
:104F0E000052656720626974093A2025640D0A0013
:104F1E0050696E2069732050574D20456E61626C4A
:104F2E0065640D0A0054696D6572093A2025640D99
:104F3E000A004F7574707574093A20410D0A004FBE
:104F4E007574707574093A20420D0A004F757470AD
:104F5E007574093A20430D0A0050696E206973205A
:104F6E0041444320456E61626C65640D0A004368DE
:0E4F7E00616E6E656C093A2025640D0A000014
:00000001FF
