:100000000C94B8020C94B3070C94E7070C941B08EB
:100010000C944F080C9483080C94B6080C94F408C4
:100020000C94EA080C9428060C94A7060C9422075A
:100030000C943C0A0C94E9020C94E9020C941914F7
:100040000C94E9020C94E9020C94E9020C94E90284
:100050000C94E9020C94E9020C94E9020C94CB1480
:100060000C94E9020C94DB120C94E9020C94E90262
:100070000C94E9020C94E9020C94E9020C94E90254
:100080000C94E9020C94E9020C94E9020C94E90244
:100090000C940D130C94E9020C94E9020C94E902FF
:1000A0000C94E9020C94E9020C94E9020C94E90224
:1000B0000C94E9020C94E9020C94E9020C94E90214
:1000C0000C94E9020C94E9020C94E9020C943F139D
:1000D0000C94E9020C94E9020C9471130C94E9025B
:1000E0000C94E902441D471D511D5B1D651D6F1DCC
:1000F000791D831D8D1D971DA11DAB1DB51DBF1D38
:10010000C91DD31D0C94BF1D0C94C91D0C948D1DCD
:100110000C9429090C94651D0C94831D0C94FE0805
:100120000C94191F0C94ED1D0C94471D0C94441D48
:100130000C94A11D0C94B51D0C94D31D0C946F1D33
:100140000C94AB1D0C94511D0C945B1D0C94971DCD
:100150000C94DE1D0C94791D0C94701F6E616E0062
:10016000696E660000407A10F35A00A0724E1809BA
:100170000010A5D4E80000E87648170000E40B540E
:10018000020000CA9A3B000000E1F50500008096DD
:100190009800000040420F000000A086010000000F
:1001A000102700000000E8030000000064000000C9
:1001B00000000A00000000000100000000002C7692
:1001C000D888DC674F0823DFC1DFAE59E1B1B796AD
:1001D000E5E3E453C63AE651997696E8E6C284260A
:1001E000EB898C9B62ED407C6FFCEFBC9C9F40F2E6
:1001F000BAA56FA5F490055A2AF75C936B6CF96762
:100200006DC11BFCE0E40D47FEF520E6B500D0ED26
:10021000902E0300943577050080841E080000208E
:100220004E0A000000C80C333333330F986E12832C
:100230001141EF8D2114893BE65516CFFEE6DB1800
:10024000D1844B381BF77C1D901DA4BBE4242032C5
:1002500084725E228100C9F124ECA1E53D2763642C
:10026000696E6F70737578585B65666745464700C1
:10027000616E006E66696E69747900CDCCCC3D0A02
:10028000D7233C17B7D13877CC2B329595E6241F6E
:10029000B14F0A000020410000C84200401C462027
:1002A000BCBE4CCA1B0E5AAEC59D742C0000040087
:1002B0002C000104002C0004002D2C0005002E321F
:1002C000000500212C0003002C0001030030000178
:1002D000040031000105003200010600292300045A
:1002E0000028230005002423000600252300070022
:1002F00026030101070003010007000001010600B9
:10030000000100060029000305002900020500295C
:100310000001000029000000002000000000200073
:100320000100002000020000200003000020000463
:10033000000020000500002000060000200007004B
:100340000026000700002600060000260005000029
:1003500026000400002600030000260002000026FC
:100360000001000026000000002900070000320004
:100370000200003200010000320000000009010705
:10038000000009010600000901050036090104000A
:1003900035090103003409010200000901010000D0
:1003A00009010000002300030000230002000023D5
:1003B0000001000023000000002F000080002F003B
:1003C0000188002F000290002F000398002F0004E6
:1003D000A0002F0005A8002F0006B0002F0007B8CE
:1003E00000060100C000060101C800060102D0009D
:1003F000060103D800060104E000060105E8000636
:100400000106F000060107F8002C000004002C0093
:100410000104002C0004002D2C0005002E320005E4
:1004200000212C0003002C00010300300001040017
:1004300031000105003200010600292300040028D4
:1004400023000500242300060025230007002603BF
:10045000010107000301000700000101060000017F
:1004600000060029000305002900020500290001FB
:100470000000290000000020000000002000010012
:100480000020000200002000030000200004000003
:1004900020000500002000060000200007000026C4
:1004A00000070000260006000026000500002600C8
:1004B00004000026000300002600020000260001C0
:1004C00000002600000000290007000032000200A2
:1004D00000320001000032000000000901070000A6
:1004E000090106000009010500360901040035096B
:1004F00001030034090102000009010100000901A3
:10050000000000230003000023000200002300017C
:10051000000023000000002F000080002F00018851
:10052000002F000290002F000398002F0004A0006D
:100530002F0005A8002F0006B0002F0007B8000606
:100540000100C000060101C800060102D00006013A
:1005500003D800060104E000060105E800060106D4
:10056000F000060107F80000DE1DED1D191F701FC9
:1005700011241FBECFEFD1E2DEBFCDBF00E00CBF24
:1005800013E0A0E0B2E0ECEEFDE400E00BBF02C03F
:1005900007900D92A239B107D9F729E0A2E9B3E09B
:1005A00001C01D92A133B207E1F712E0C8EBD2E01F
:1005B00000E006C021970109802FFE010E94D91F8B
:1005C000C43BD10780E00807A9F70E94DF1E0C9406
:1005D000F4260C940000809194030895CF93E09149
:1005E0009203F0919303C0818C2F8F702C2F207376
:1005F00030E094E0359527959A95E1F72230310562
:10060000D1F02330310509F441C02130310521F00A
:10061000F8940E94341D33C0F894813029F020F002
:10062000823011F0833059F5E0910002F09101021F
:100630008091C00423C0F894813099F058F0823042
:10064000B9F08330E1F4E0910002F0910102809171
:10065000B50414C0E0910002F09101028091B2044F
:100660000DC0E0910002F09101028091B30406C038
:10067000E0910002F09101028091B40480837894AB
:100680008C2F881F8827881F8F5F43C0C7FF1BC020
:10069000F894E0919203F09193039181813059F0A5
:1006A00038F0823059F0833059F49093BF0408C079
:1006B0009093BC0405C09093BD0402C09093BE0407
:1006C000789482E026C0F894813099F058F0823016
:1006D000B9F08330E1F4E0910002F09101028091E1
:1006E000BF0414C0E0910002F09101028091BC04AB
:1006F0000DC0E0910002F09101028091BD0406C09E
:10070000E0910002F09101028091BE048083789410
:1007100081E0CF910895CF93C82F8091920390915B
:1007200093030097D9F060919403709195036F5FE4
:100730007F4F70939503609394030E948523909359
:10074000930380939203009749F020919403309192
:100750009503FC01E20FF31F3197C0830E94EE0264
:10076000682F70E040919403509195034617570706
:10077000E0F0461B570B50939503409394038091F0
:10078000920390919303680F791F0E9472256091E4
:1007900094037091950380919203909193030E942A
:1007A00085239093930380939203CF9108950E94A1
:1007B000E20E0C948B03FC0181E090E02081222367
:1007C00011F080E090E0089521E0FC01208308957D
:1007D000089508950C9464220C94FC22CF93DF9327
:1007E000EB01DA0190912302981709F48EC0891762
:1007F00060F090912E02891302C0E4E001C0EFEF97
:1008000090913902891312C014C090911802891373
:1008100002C0E2E001C0EFEF90910D02891301C028
:10082000E1E090910202891709F471C0EF3F11F4E1
:100830002DC0E5E08BE0E89FF0011124EE5FFD4F55
:10084000818111968C9311978481958115969C9343
:100850008E931497868116968C9316978781179698
:100860008C931797808518968C9318978185199685
:100870008C93199782851A968C931A97828193810B
:1008800013969C938E93129782E043C090918A02B4
:10089000891721F1891728F0A1E9B2E0EFEF9AE07A
:1008A00014C0EFEF9AE027E09150299FD001112466
:1008B000AC5BBD4F3C91831301C0E92F9111F4CF84
:1008C0000AC02C91821729F017969F5F9531C9F7BE
:1008D00002C0E92FF9CFEF3F11F415C0EAE087E03D
:1008E000E89FF0011124EC5BFD4F818189838281B7
:1008F0008A83858196819E838D83838194819C8365
:100900008B8381E006C080E004C0E3E093CFE0E0A9
:1009100091CFDF91CF910895CF92DF92FF920F9305
:100920001F93CF93DF93CDB7DEB762970FB6F894DE
:10093000DEBF0FBECDBF182F062F6A01AE014F5F7D
:100940005F4FBE01645F7F4F0E94EE03813021F054
:10095000823009F447C078C08D85813049F1A8F014
:100960008230C1F580916800846080936800209196
:100970006D0081E090E00E8402C0880F991F0A94F8
:10098000E2F7822B80936D0025C080916800816022
:100990008093680020916B0081E090E00E8402C09B
:1009A000880F991F0A94E2F7822B80936B0012C084
:1009B0008091680082608093680020916C0081E0E3
:1009C00090E00E8402C0880F991F0A94E2F7822BF0
:1009D00080936C00EF85F889D182C082E989FA8919
:1009E000008330C0F894013049F020F0023021F04B
:1009F000053029F4F88403C0F98401C0FA848A819F
:100A0000882341F0813059F480916A008F298093C6
:100A10006A0005C0809169008F29809369002DB319
:100A200081E090E00B8402C0880F991F0A94E2F7DE
:100A3000822B8DBBEB81FC81D182C082ED81FE8156
:100A4000F082789481E01CC00430C9F425E0129F44
:100A5000C0011124FC01E355FD4F2491FC01E55533
:100A6000FD4FA591B49112963C91129781E090E0D0
:100A700001C0880F2A95EAF7832B12968C9380E0A9
:100A800062960FB6F894DEBF0FBECDBFDF91CF9157
:100A90001F910F91FF90DF90CF900895CF93DF9338
:100AA000CDB7DEB762970FB6F894DEBF0FBECDBFED
:100AB000AE014F5F5F4FBE01645F7F4F0E94EE0348
:100AC000813019F08230C9F153C08D85813029F110
:100AD00098F0823091F520916D0081E090E00E84D5
:100AE00002C0880F991F0A94E2F7809582238093B1
:100AF0006D0080916D0021C020916B0081E090E03D
:100B00000E8402C0880F991F0A94E2F78095822311
:100B100080936B0080916B0010C020916C0081E08D
:100B200090E00E8402C0880F991F0A94E2F7809526
:100B3000822380936C0080916C009DB321E030E0B3
:100B4000A9010B8402C0440F551F0A94E2F7842FB9
:100B5000809589238DBB8DB30B8402C0220F331F78
:100B60000A94E2F790E02823392381E0232B09F04F
:100B700080E062960FB6F894DEBF0FBECDBFDF9166
:100B8000CF910895EF920F93CF93DF931F92CDB73C
:100B9000DEB7FC01DA01922F802FE982633061F128
:100BA00028F4613049F0623089F04CC0643071F152
:100BB000653009F441C046C02C9130E002C0359543
:100BC00027959A95E2F720FF3DC036C06C9121E051
:100BD00030E0092E02C0220F331F0A94E2F770E0C2
:100BE000A901462357239A0102C0359527959A9566
:100BF000E2F7232B39F520C02C9130E002C0359567
:100C000027959A95E2F720FF17C015C06C9121E057
:100C100030E0092E02C0220F331F0A94E2F770E081
:100C2000A901462357239A0102C0359527959A9525
:100C3000E2F7232B09F499810F90DF91CF910F9167
:100C4000EF9019940F90DF91CF910F91EF9008954D
:100C50001F920F920FB60F9211240BB60F92EF92C4
:100C60000F932F933F934F935F936F937F938F9344
:100C70009F93AF93BF93EF93FF93CF93DF931F9215
:100C8000CDB7DEB793B1809198038927898383B16B
:100C90008093980320E030E0898190E0022E02C02A
:100CA000959587950A94E2F780FF33C067E0629FCD
:100CB000D001639FB00D1124A152BC4F1396ED914A
:100CC000FC91149780819181409147025091480294
:100CD000E41BF50BF595E7956E9FA0016F9F500DF6
:100CE0001124FA01EC5BFD4F008145E0049FF00107
:100CF0001124E555FD4F459154911596ED91FC91C8
:100D000016976081009759F0E09098030E94C20501
:100D100006C02F5F3F4F2830310509F0BDCF0F903F
:100D2000DF91CF91FF91EF91BF91AF919F918F9103
:100D30007F916F915F914F913F912F910F91EF9024
:100D40000F900BBE0F900FBE0F901F9018951F9223
:100D50000F920FB60F9211240BB60F92EF920F93D2
:100D60002F933F934F935F936F937F938F939F93B3
:100D7000AF93BF93EF93FF93CF93DF931F92CDB7C2
:100D8000DEB7909103018091970389278983809131
:100D9000030180939703898180FD07C0898181FFCA
:100DA00039C081E090E021E003C080E090E020E0E5
:100DB00037E0389FD001399FB00D1124A756BC4FA2
:100DC0001396ED91FC911497808191814091470297
:100DD00050914802E41BF50BF595E7953E9FA00165
:100DE0003F9F500D1124FA01EC5BFD4F008135E06F
:100DF000039FF0011124E555FD4F4591549115963F
:100E0000ED91FC9116976081009721F0E090970397
:100E10000E94C2050F90DF91CF91FF91EF91BF919A
:100E2000AF919F918F917F916F915F914F913F9182
:100E30002F910F91EF900F900BBE0F900FBE0F9060
:100E40001F9018951F920F920FB60F9211240BB698
:100E50000F92AF92BF92CF92DF92EF92FF920F93D9
:100E60001F932F933F934F935F936F937F938F9332
:100E70009F93AF93BF93EF93FF93CF93DF931F9213
:100E8000CDB7DEB7909106018091960389278983BB
:100E9000809106018093960337EAA32E33E0B32EA8
:100EA000C12CD12C17E045E0F42E898190E00C2C68
:100EB00002C0959587950A94E2F780FF2BC0D50173
:100EC0001396ED91FC9114978081918120914702B6
:100ED00030914802E21BF30BF595E7951E9F9001B8
:100EE0001F9F300D1124F901EC5BFD4F0081F09E36
:100EF000F0011124E555FD4F45915491009751F0B3
:100F0000E09096031596ED91FC9116972C2D60813B
:100F10000E94C205BFEFCB1ADB0A87E0A80EB11C06
:100F2000A8E0CA16D10409F0C0CF0F90DF91CF918D
:100F3000FF91EF91BF91AF919F918F917F916F91B1
:100F40005F914F913F912F911F910F91FF90EF90E3
:100F5000DF90CF90BF90AF900F900BBE0F900FBE61
:100F60000F901F9018951F920F920FB60F92112499
:100F70000BB60F922F933F934F935F936F937F9393
:100F80008F939F93AF93BF93EF93FF93F894A2E057
:100F9000B2E0D996ED91FC91DA970190F081E02DC5
:100FA000D7968C9119957894FF91EF91BF91AF915D
:100FB0009F918F917F916F915F914F913F912F9171
:100FC0000F900BBE0F900FBE0F901F9018951F92A1
:100FD0000F920FB60F9211240BB60F922F933F93DF
:100FE0004F935F936F937F938F939F93AF93BF9331
:100FF000EF93FF93F894A2E0B2E09E96ED91FC91FE
:101000009F970190F081E02D9C968C911995789492
:10101000FF91EF91BF91AF919F918F917F916F91D0
:101020005F914F913F912F910F900BBE0F900FBE8C
:101030000F901F9018951F920F920FB60F921124C8
:101040000BB60F922F933F934F935F936F937F93C2
:101050008F939F93AF93BF93EF93FF93F894A2E086
:10106000B2E09396ED91FC9194970190F081E02D80
:1010700091968C9119957894FF91EF91BF91AF91D2
:101080009F918F917F916F915F914F913F912F91A0
:101090000F900BBE0F900FBE0F901F9018951F92D0
:1010A0000F920FB60F9211240BB60F922F933F930E
:1010B0004F935F936F937F938F939F93AF93BF9360
:1010C000EF93FF93F894A2E0B2E05896ED91FC9173
:1010D00059970190F081E02D56968C91199578944E
:1010E000FF91EF91BF91AF919F918F917F916F9100
:1010F0005F914F913F912F910F900BBE0F900FBEBC
:101100000F901F9018951F920F920FB60F921124F7
:101110000BB60F922F933F934F935F936F937F93F1
:101120008F939F93AF93BF93EF93FF93F894A2E0B5
:10113000B2E01296ED91FC9113970190F081E02DB1
:101140008C9119957894FF91EF91BF91AF919F91F8
:101150008F917F916F915F914F913F912F910F9060
:101160000BBE0F900FBE0F901F9018951F920F92FD
:101170000FB60F9211240BB60F922F933F934F93FC
:101180005F936F937F938F939F93AF93BF93EF93EF
:10119000FF93F894A2E0B2E01D96ED91FC911E97AA
:1011A0000190F081E02D1B968C9119957894FF9118
:1011B000EF91BF91AF919F918F917F916F915F91CF
:1011C0004F913F912F910F900BBE0F900FBE0F903C
:1011D0001F9018951F920F920FB60F9211240F9027
:1011E0000FBE0F901F9018951F920F920FB60F927F
:1011F00011240F900FBE0F901F901895EDB7FEB7FA
:10120000808190E003969F938F9389E093E09F9372
:101210008F930E943B0F0F900F900F900F9080E0E4
:10122000CBE1D3E011E0180F1F928F93DF93CF93A0
:101230000E943B0F9FEF29E688E1915020408040BB
:10124000E1F700C000000F900F900F900F90812FDA
:10125000E9CFCDB7DEB7888190E003969F938F9357
:1012600089E093E09F938F930E943B0FFE0133969A
:1012700019950F900F900F900F9080E0C1E3D3E08D
:1012800011E0180F1F928F93DF93CF930E943B0FB3
:101290009FEF23ED80E3915020408040E1F700C0B4
:1012A00000000F900F900F900F90812FE9CF61E019
:1012B0008DE894E00E946D0A85E38A95F1F70000BD
:1012C0008DE894E00C94830ACF93C82F88E694E0CD
:1012D0000E947E0D8C1329C088E694E00E94360D92
:1012E000882359F00E9499146093F7047093F804CE
:1012F0008093F9049093FA0418C0F8940E9499140A
:101300002091F7043091F8044091F9045091FA04C7
:101310000E94ED1F20E030E048E652E40E945F208A
:101320000E94D8206093C0047894CF9108950895C6
:10133000CF93DF93CDB7DEB7DA950FB6F894DEBF63
:101340000FBECDBF8091B1008B7F8093B10088E448
:1013500093E09F938F930E943B0F0F900F90CE01CD
:1013600001967C010AE080E5C82E83E0D82E10E0CB
:101370000E941C0F8823E1F30E94E20E8823C1F330
:10138000F701E10FF11D8083883019F4912F192F97
:10139000EFCF91E0910F8D30D1F7F701E90FF11DFB
:1013A00000831E5FF701E10FF11D1082FF92EF92A3
:1013B000DF92CF920E943B0F0F900F900F900F90F3
:1013C000D6CFCF93DF93CDB7DEB7DA950FB6F894CB
:1013D000DEBF0FBECDBF8091B1008B7F8093B10087
:1013E0008EE593E09F938F930E943B0F0F900F9099
:1013F000CE0101967C010DE08BE5C82E83E0D82E4E
:1014000010E00E949F128823E1F30E946512882356
:10141000C1F3F701E10FF11D8083883019F4912F9A
:10142000192FEFCF91E0910F8A30D1F7F701E90F33
:10143000F11D00831E5FF701E10FF11D108246E0F0
:1014400050E064E673E0C7010E948F25892BC1F646
:10145000FF92EF92DF92CF920E943B0F0F900F907E
:101460000F900F90CDCFF89414BEE0E6F0E088E145
:1014700080831082789408951F920F920FB60F9276
:1014800011240BB60F922F933F934F935F936F935B
:101490007F938F939F93AF93BF93EF93FF9385B108
:1014A000805885B988E793E09F938F930E943B0F04
:1014B0000F900F90FF91EF91BF91AF919F918F91FE
:1014C0007F916F915F914F913F912F910F900BBE44
:1014D0000F900FBE0F901F901895DC011296ED91A2
:1014E000FC91139718963C91208181E090E001C017
:1014F000880F3A95EAF7662311F0822B02C0809597
:10150000822380830895DC011296ED91FC9113975C
:10151000408121E030E0B90118960C9002C0660FBE
:10152000771F0A94E2F7CB01809584238083089586
:10153000DC011296ED91FC911397408121E030E09F
:10154000C90118960C9002C0880F991F0A94E2F7FF
:10155000842780830895CF93DF93FC01A081B1811C
:101560004085613051F42C9181E090E001C0880FFA
:101570004A95EAF7822B8C931AC09C9121E030E0C7
:10158000E90102C0CC0FDD1F4A95E2F78C2F809550
:1015900089238C93623059F4A281B3818C910084A9
:1015A00002C0220F331F0A94E2F7282B2C93DF91FD
:1015B000CF9108950F931F93CF93DF93CDB7DEB7ED
:1015C000AC970FB6F894DEBF0FBECDBF2FEF3FEF45
:1015D000DC0117963C932E93169719961C92199737
:1015E0002FEF30E01B963C932E931A971D963C9359
:1015F0002E931C971F963C932E931E9751963C93C7
:101600002E93509753963C932E93529755963C9316
:101610002E93549757963C932E93569759963C93F6
:101620002E9358975B963C932E935A975D963C93D6
:101630002E935C972CE0EDEDF2E0DE0191960190A7
:101640000D922A95E1F720E2E9EEF2E0DE01119633
:1016500001900D922A95E1F7B5E06B9F900111245E
:10166000F901E75FFB4FA591B491FC01B583A48319
:101670008D010F5F1F4F118300831296B383A283E6
:10168000F901E55FFB4FE491DC011896EC93245FD0
:101690003B4FF901A591B491FC01B3A3A2A364A3AC
:1016A000F90165917491F90175FF33C02591349169
:1016B00053E0DC0119965C931997F901EE27FC7150
:1016C000EF2FFF27E69521E030E02C0F3D1FE20FC2
:1016D000F31F20A131A11B963C932E931A97B901B9
:1016E0006F5F7F4F1D967C936E931C976F5F7F4F4C
:1016F00053967C936E9352976E5F7F4F1F967C93A9
:101700006E931E972A5F3F4F55963C932E935497A6
:101710001DC0549157FF1AC054E0DC0119965C9328
:10172000199725913491F901E877FF27F695E79508
:10173000F695E79521E030E02C0F3D1FE20FF31FF7
:101740002081318117963C932E931697642FAC9687
:101750000FB6F894DEBF0FBECDBFDF91CF911F91C2
:101760000F910C94AB0A8F929F92AF92BF92CF923F
:10177000DF92EF92FF921F93CF93DF93EC01142F30
:101780008985823021F0833009F440C0B2C0642FD3
:1017900070E080E090E00E94092123E333E343E21C
:1017A00050EC0E94F72120E030E04FE753E40E9424
:1017B000EE1F0E94D82068A379A3EC8DFD8D608375
:1017C0008AA19BA183709927EE89FF89009751F028
:1017D000019781F48A8D9B8D02969D8F8C8F8081DD
:1017E000806307C08A8D9B8D01969D8F8C8F808131
:1017F000806C8083EE89FF89808181608083E88DA1
:10180000F98D80818083E88DF98D6FC080E090E054
:101810000E9407219B01AC0160E070E080E89FE33B
:101820000E945F202DEB37E346E853E30E945F20E0
:101830000E94D8206B017C017F8F6E8F80E090E04A
:101840000E9407214B015C01612F70E080E090E075
:101850000E94072120E030E048EC52E40E945F2023
:10186000A50194010E94F7219B01AC01C501B401BF
:101870000E94ED1F0E94D82079A368A3EC89FD89FE
:10188000D182C082A889B98988A199A111969C9317
:101890008E938AA19BA188279370892F9927AA8567
:1018A000BB858130910579F040F0029791F436962E
:1018B000F98BE88B8C918C600BC03296F98BE88B9E
:1018C0008C91806C05C03496F98BE88B8C91806389
:1018D0008C93EA85FB85808182608083EC85FD8521
:1018E000808188618083EC85FD8580818160808333
:1018F00001C080E0DF91CF911F91FF90EF90DF90CA
:10190000CF90BF90AF909F908F900895CF92DF922D
:10191000EF92FF921F93CF93DF93EC01162F8985EF
:10192000823051F1833009F040C06E8D7F8D80E0B0
:1019300090E00E9407216B017C01612F70E080E044
:1019400090E00E94072120E030E048EC52E40E9441
:101950005F20A70196010E94F7219B01AC01C701FE
:10196000B6010E94ED1F0E94D82079A368A3E889E0
:10197000F989718360831BC070E080E090E00E9471
:10198000092123E333E343E250EC0E94F72120E0F6
:1019900030E04FE753E40E94EE1F0E94D82068A376
:1019A00079A3EC8DFD8D608302C080E000C0DF91E3
:1019B000CF911F91FF90EF90DF90CF9008958F927D
:1019C0009F92AF92BF92CF92DF92EF92FF92CF930E
:1019D000DF93EC017B018E8D9F8D68A179A10E9420
:1019E0008F1F80E090E00E9407214B015C01B7014E
:1019F00080E090E00E9407219B01AC0160E070E074
:101A000080E89FE30E945F202DEB37E346E853E335
:101A10000E945F200E94D8206B017C017F8F6E8F17
:101A200080E090E00E940721A50194010E945F20C0
:101A30000E94D82079A368A38985833059F4EC8962
:101A4000FD89D182C082E889F98988A199A1918311
:101A5000808301C080E0DF91CF91FF90EF90DF9015
:101A6000CF90BF90AF909F908F900895DC01149617
:101A7000ED91FC911597208130E0F90118960C90BA
:101A800002C0F595E7950A94E2F7CF0181700895B9
:101A9000FC013185332361F1868197818F3FFFEF10
:101AA0009F0731F170E0722B682B792B80917A00BF
:101AB000811106C080917A008868482B40937A0093
:101AC00080917A0070937B0060937C0080917A0013
:101AD000806480937A0080917A0086FDFCCF6091CB
:101AE00078007091790080E090E00E9407210895CD
:101AF00060E07FEF8FE797E408950895FC0184A1EB
:101B0000089580E090E00E9407219B01AC0160E015
:101B100070E080E89FE30E945F202DEB37E346E80A
:101B200053E30E945F200E94D820CB0108950895BE
:101B3000089508958F929F92AF92BF92CF92DF92B5
:101B4000EF92FF920F931F93CF93DF93CDB7DEB742
:101B500060970FB6F894DEBF0FBECDBF6B017C015E
:101B60005A010E94D120962E872E20E030E0A90154
:101B7000C701B6010E945A2087FF05C020E030E06F
:101B800048EC52EC04C020E030E048EC52E4C701DD
:101B9000B6010E94F7210E94D120CB0164E670E0DB
:101BA0000E94A31F8E010F5F1F4F8A30910538F4EA
:101BB0009F938F938F929F928EE793E006C09F939F
:101BC0008F938F929F9285E893E09F938F931F93BB
:101BD0000F930E9422260FB6F894DEBF0FBECDBF32
:101BE000B801C5010E94842560960FB6F894DEBF47
:101BF0000FBECDBFDF91CF911F910F91FF90EF905E
:101C0000DF90CF90BF90AF909F908F900895CF932B
:101C1000DF93CDB7DEB7DA950FB6F894DEBF0FBE0F
:101C2000CDBFBC0181E090E00E94A31F072E000CF5
:101C3000880B990B0E940921AE014F5F5F4F0E94F4
:101C40009A0D80E090E0D3950FB6F894DEBF0FBEFA
:101C5000CDBFDF91CF9108950F931F93CF93DF9363
:101C60008B019C01EA0160E472E48FE090E0A9013D
:101C700098010E94B71FDA01C9010197A109B109B2
:101C8000892F9A2FAB2FBB278093C500215020931B
:101C9000C40088E18093C10086E08093C200D093A5
:101CA0001808C09317088DE198E090931C08809362
:101CB0001B088EE198E090931A088093190881E040
:101CC00080931508DF91CF911F910F910895809116
:101CD000C000881F8827881F08958091C00087FF53
:101CE000FCCF8091C60008950F931F93CF93DF938D
:101CF0008C01D62FC0E00E946D0E2C2F30E091E0B9
:101D00009C0FF801E20FF31F8D1311C08AE080834E
:101D1000F801E90FF11D8DE08083CE5FF801EC0F33
:101D2000F11D1082DF91CF911F910F910895808353
:101D3000C92FE1CF8091C00087FF03C08091C6000A
:101D4000F9CF0895882321F08091C100806803C0F5
:101D50008091C1008F778093C1000895809116080B
:101D600008958093160808952091190830911A0853
:101D70002F5F3F4F99E02C31390719F010F02DE11A
:101D800038E030931A0820931908209119083091EF
:101D90001A0840911B0850911C082417350761F45C
:101DA0002150310998E02D31390710F42CE139E048
:101DB00030931A0820931908E0911908F0911A0835
:101DC0008083089580911B0890911C08019629E05A
:101DD0008C31920719F010F08DE198E090931C0877
:101DE00080931B08E0911B08F0911C088091190852
:101DF00090911A088E179F0730F490931C088093D7
:101E00001B0880E008958081108208958093140853
:101E1000882329F08091C10080688093C1000895D3
:101E200081E090911408911101C080E008958091A3
:101E3000170890911808089581E040911B0850916F
:101E40001C082091190830911A084217530709F409
:101E500080E00895AC0190E0FA01E90FF11D2081C6
:101E6000222341F08091C00085FFFCCF2093C60063
:101E70009F5FF2CF0895CF93DF93CDB7DEB7DA95AA
:101E80000FB6F894DEBF0FBECDBFAE014A5F5E4F06
:101E9000FA0161917191AF01CE0101960E94512624
:101EA000CE0101960E942A0FD3950FB6F894DEBF9B
:101EB0000FBECDBFDF91CF9108950F931F93CF93A6
:101EC000DF938B019C01EA0160E472E48FE090E013
:101ED000A90198010E94B71FDA01C9010197A10960
:101EE000B109892F9A2FAB2FBB278093CD002150AA
:101EF0002093CC0088E18093C90086E08093CA00DB
:101F0000D0930F07C0930E0784E197E090931307D7
:101F10008093120785E197E0909311078093100753
:101F2000DF91CF911F910F9108958091C800881F74
:101F30008827881F08958091C80087FFFCCF809173
:101F4000CE0008950F931F93CF93DF938C01D62F6C
:101F5000C0E00E949B0F2C2F30E091E09C0FF80115
:101F6000E20FF31F8D1311C08AE08083F801E90F9F
:101F7000F11D8DE08083CE5FF801EC0FF11D108222
:101F8000DF91CF911F910F9108958083C92FE1CFE9
:101F90008091C80087FF03C08091CE00F9CF0895DB
:101FA000882321F08091C900806803C08091C90016
:101FB0008F778093C900089580910D0708958093CD
:101FC0000D070895E0911007F0911107808380912B
:101FD000100790911107019628E08331920719F0BC
:101FE00010F084E197E0909311078093100780919F
:101FF0001007909111072091120730911307821753
:10200000930759F4019727E08431920710F483E194
:1020100098E090931107809310070895E0911207BC
:10202000F0911307819128E0E331F20709F028F4D9
:10203000F0931307E093120706C024E137E03093D2
:102040001307209312072091120730911307409134
:102050001007509111072417350789F4C90101971A
:1020600027E08431920710F483E198E090931307FE
:1020700080931207E0911207F09113078081089571
:1020800080930C07882329F08091C9008068809391
:10209000C900089581E090910C07911101C080E082
:1020A000089580910E0790910F070895AC0190E07C
:1020B000FA01E90FF11D2081222341F08091C8002F
:1020C00085FFFCCF2093CE009F5FF2CF0895CF9382
:1020D000DF93CDB7DEB7DA950FB6F894DEBF0FBE4B
:1020E000CDBFAE014A5F5E4FFA0161917191AF01C0
:1020F000CE0101960E945126CE0101960E945610F3
:10210000D3950FB6F894DEBF0FBECDBFDF91CF9150
:1021100008950F931F93CF93DF938B019C01EA01E6
:1021200060E472E48FE090E0A90198010E94B71F7B
:10213000DA01C9010197A109B109892F9A2FAB2FA3
:10214000BB278093D50021502093D40088E1809351
:10215000D10086E08093D200D0930706C093060694
:102160008CE096E090930B0680930A068DE096E053
:102170009093090680930806DF91CF911F910F91EC
:1021800008958091D000881F8827881F0895809126
:10219000D00087FFFCCF8091D60008950F931F9346
:1021A000CF93DF938C01D62FC0E00E94C7102C2F55
:1021B00030E091E09C0FF801E20FF31F8D1311C086
:1021C0008AE08083F801E90FF11D8DE08083CE5F06
:1021D000F801EC0FF11D1082DF91CF911F910F914B
:1021E00008958083C92FE1CF8091D00087FF03C07D
:1021F0008091D600F9CF0895882321F08091D100F5
:10220000806803C08091D1008F778093D1000895BA
:10221000809105060895809305060895E0910806CB
:10222000F091090680838091080690910906019635
:1022300027E08B30920719F010F08CE096E0909335
:10224000090680930806809108069091090620915E
:102250000A0630910B068217930759F4019726E07E
:102260008C30920710F48BE097E0909309068093EE
:1022700008060895E0910A06F0910B06819127E087
:10228000EB30F20709F028F4F0930B06E0930A060E
:1022900006C02CE036E030930B0620930A0620910E
:1022A0000A0630910B064091080650910906241742
:1022B000350789F4C901019726E08C30920710F4A4
:1022C0008BE097E090930B0680930A06E0910A0654
:1022D000F0910B068081089580930406882329F0ED
:1022E0008091D10080688093D100089581E0909121
:1022F0000406911101C080E0089580910606909136
:1023000007060895FC019191992339F08091D0003E
:1023100085FFFCCF9093D600F6CF0895CF93DF933F
:10232000CDB7DEB7DA950FB6F894DEBF0FBECDBFDE
:10233000AE014A5F5E4FFA0161917191AF01CE012A
:1023400001960E945126CE0101960E948211D395DA
:102350000FB6F894DEBF0FBECDBFDF91CF910895C9
:102360000F931F93CF93DF938B019C01EA0160E4ED
:1023700072E48FE090E0A90198010E94B71FDA0192
:10238000C9010197A109B109892F9A2FAB2FBB274A
:102390008093350121502093340188E180933101ED
:1023A00086E080933201D093FF04C093FE0484E062
:1023B00095E0909303058093020585E095E0909366
:1023C0000105809300051092FC04DF91CF911F91CD
:1023D0000F91089580913001881F8827881F0895E4
:1023E0008091300187FFFCCF8091360108950F93D3
:1023F0001F93CF93DF938C01D62FC0E00E94F01182
:102400002C2F30E091E09C0FF801E20FF31F8D13A9
:1024100011C08AE08083F801E90FF11D8DE080830F
:10242000CE5FF801EC0FF11D1082DF91CF911F916B
:102430000F9108958083C92FE1CF8091300187FFEC
:1024400003C080913601F9CF0895882321F080914F
:102450003101806803C0809131018F778093310111
:1024600008958091FD0408958093FD0408952091BE
:102470000005309101052F5F3F4F96E0233039076B
:1024800019F010F024E035E03093010520930005A9
:1024900020910005309101054091020550910305FE
:1024A0002417350761F42150310995E024303907AC
:1024B00010F423E036E03093010520930005E0910D
:1024C0000005F091010580830895809102059091A7
:1024D0000305019626E08330920719F010F084E09E
:1024E00095E09093030580930205E0910205F09139
:1024F000030580910005909101058E179F0730F428
:10250000909303058093020580E0089580811082F6
:1025100008958093FB04882329F08091310180681D
:1025200080933101089581E09091FB04911101C0E5
:1025300080E008958091FE049091FF04089581E069
:10254000409102055091030520910005309101054D
:102550004217530709F480E00895FC0191919923F3
:1025600039F08091300185FFFCCF90933601F6CF92
:102570000895CF93DF93CDB7DEB7DA950FB6F89411
:10258000DEBF0FBECDBFAE014A5F5E4FFA01619163
:102590007191AF01CE0101960E945126CE010196A4
:1025A0000E94AD12D3950FB6F894DEBF0FBECDBF1B
:1025B000DF91CF9108951F920F920FB60F921124C1
:1025C0000BB60F922F933F934F935F936F937F932D
:1025D0008F939F93AF93BF93CF93EF93FF93C0914C
:1025E000C6008C2F0E94B40E809116088111C093F2
:1025F000C600FF91EF91CF91BF91AF919F918F91C5
:102600007F916F915F914F913F912F910F900BBEF2
:102610000F900FBE0F901F9018951F920F920FB63C
:102620000F9211240BB60F922F933F934F935F930A
:102630006F937F938F939F93AF93BF93CF93EF93BA
:10264000FF93C091CE008C2F0E94E20F80910D0766
:102650008111C093CE00FF91EF91CF91BF91AF91C7
:102660009F918F917F916F915F914F913F912F91AA
:102670000F900BBE0F900FBE0F901F9018951F92DA
:102680000F920FB60F9211240BB60F922F933F9318
:102690004F935F936F937F938F939F93AF93BF936A
:1026A000CF93EF93FF93C091D6008C2F0E940E1111
:1026B000809105068111C093D600FF91EF91CF91D3
:1026C000BF91AF919F918F917F916F915F914F914A
:1026D0003F912F910F900BBE0F900FBE0F901F9048
:1026E00018951F920F920FB60F9211240BB60F92EE
:1026F0002F933F934F935F936F937F938F939F930A
:10270000AF93BF93CF93EF93FF93C09136018C2F7C
:102710000E9437128091FD048111C0933601FF9110
:10272000EF91CF91BF91AF919F918F917F916F91D9
:102730005F914F913F912F910F900BBE0F900FBE65
:102740000F901F90189581E080937000789487E037
:102750008093B1000895CF93DF93209127093091A2
:1027600028092115310511F1EC01609129097091B9
:102770002A096F5F7F4F70932A0960932909660FBA
:10278000771FC9010E948523909328098093270908
:10279000009761F0E0912909F0912A09E150F04891
:1027A000EE0FFF1FE80FF91FD183C083DF91CF9198
:1027B00008954091290950912A094115510509F1BF
:1027C0004150510950932A094093290980912709C2
:1027D00090912809440F551FBC016E5F7F4F0E94E6
:1027E00072256091290970912A09660F771F8091DF
:1027F0002709909128090E948523909328098093A6
:1028000027090895E1EBF0E08081887F80830895B7
:10281000E1EBF0E08081876080830895880F991F45
:10282000E0912709F0912809E80FF91F8081918133
:10283000089578941F920F920FB60F9211240BB641
:102840000F922F933F934F935F936F937F938F9349
:102850009F93AF93BF93CF93DF93EF93FF938091B9
:102860002B0990912C0901968032910529F09093C3
:102870002C0980932B091FC010922C0910922B0950
:102880008BE893E09F938F930E943B0F0E9402146A
:10289000E0912709F0912809C081D1810F900F9014
:1028A000209711F0FE0119950E94D913CE010E94C4
:1028B000AB130E940814FF91EF91DF91CF91BF916C
:1028C000AF919F918F917F916F915F914F913F91C8
:1028D0002F910F900BBE0F900FBE0F901F90189569
:1028E00014BC15BC16BC81E080936E007894809374
:1028F0001D09089580911D09811102C00E94701464
:1029000010921E0910921F0910922009109221099D
:10291000109222091092230910922409109225097D
:1029200085B5816085BD16BC089585B5887F85BD58
:102930000895CF92DF92EF92FF92CF93C6B5209188
:102940001E0930911F094091200950912109609181
:1029500022097091230980912409909125090E94F0
:1029600044216B017C016C2F70E080E090E00E94BC
:10297000092120E030E040E85DE30E94F7219B015F
:10298000AC01C701B6010E94EE1FCF91FF90EF90FE
:10299000DF90CF9008951F920F920FB60F921124DF
:1029A0002F933F934F935F936F937F938F939F9357
:1029B000AF9320911E0930911F0940912009509139
:1029C0002109609122097091230980912409909135
:1029D0002509A0E10E94E11F20931E0930931F09E1
:1029E0004093200950932109609322097093230991
:1029F0008093240990932509AF919F918F917F91A6
:102A00006F915F914F913F912F910F900FBE0F905B
:102A10001F90189520FD09C0FC0123FD05C022FF71
:102A200002C07383628351834083089544FD17C0BD
:102A300046FD17C0AB01BC01DA01FB01AA0FBB1FA9
:102A4000EE1FFF1F1094D1F74A0F5B1F6E1F7F1FF1
:102A5000CB01BA01660F771F881F991F09C033E0A9
:102A600001C034E0660F771F881F991F3150D1F7DE
:102A7000620F711D811D911D08950F931F93CF93B8
:102A8000DF938C01C8010E94A825EC0197FD08C0C6
:102A90000E944225892BB1F7B801CE010E947A2607
:102AA000CE01DF91CF911F910F9108958F929F9248
:102AB000AF92BF92CF92DF92EF92FF920F931F934C
:102AC000CF93DF937C018B016A01D22F0E94A8254E
:102AD0009C0133272B32310521F02D32310559F479
:102AE000D0680150110911F480E06BC0C7010E9449
:102AF000A82597FDF9CFCD2FCD7F2D2F207319F568
:102B0000803309F5580181E0A81AB10809F445C0DD
:102B1000C7010E94A82597FD40C09C012F7D332747
:102B20002835310551F4C26402501109B1F1C701D1
:102B30000E94A82597FF07C030C0D6FF02C0C26020
:102B400001C0C2618501812C912C540120ED280F18
:102B5000283080F0C4FF04C0B7010E947A261AC052
:102B60002A3040F0C6FFF8CF2F7D3FEE320F3630CF
:102B700098F727504C2FC501B4010E9416154B0140
:102B80005C01C2600150110959F0C7010E94A825DB
:102B900097FFDCCFC1FD04C0A7CF812C912C54013D
:102BA000C7FF08C0B094A09490948094811C911C9D
:102BB000A11CB11C2C2FB501A401C6010E940A154D
:102BC00081E0DF91CF911F910F91FF90EF90DF9007
:102BD000CF90BF90AF909F908F9008954F925F924B
:102BE0006F927F928F929F92AF92BF92CF92DF921D
:102BF000EF92FF920F931F93CF93DF93CDB7DEB782
:102C0000A0970FB6F894DEBF0FBECDBF5C014B019D
:102C10007A018E010F5F1F4F680180E2F801119267
:102C20008A95E9F7F501538040E050E0612C90E08F
:102C3000712CA1E0B0E0F90153FC859153FE819124
:102C40008F01482E9F01811103C080E090E096C063
:102C50008E3519F44115510551F1672D70E0641757
:102C600075073CF48D3561F18D3219F4992311F11A
:102C700003C0992309F46DC0842D869586958695A9
:102C8000F601E80FF11D842D87708D0102C0000F41
:102C9000111F8A95E2F7C8019081892B8083641403
:102CA00059F0461410F44394E7CF4A94E5CF7724C3
:102CB000739403C091E001C090E04F5F5F4FBBCFC2
:102CC000992319F08E8180628E83711003C077245E
:102CD000739419C0F6019E012F5D3F4F808180954E
:102CE00081932E173F07D1F7F2CFE114F10431F0B1
:102CF000F7018083B7016F5F7F4F7B0171E0871A17
:102D00009108712CF9F0C5010E94A82597FD18C003
:102D1000FC01FF2723E0F595E7952A95E1F7EC0DF7
:102D2000FD1D208130E0AC014770552702C035956C
:102D300027954A95E2F720FDD8CFB5010E947A2663
:102D4000711083CFE114F10411F0F7011082C80172
:102D500015C0682F669566956695F601E60FF11D1C
:102D6000682F67708D0102C0000F111F6A95E2F78E
:102D7000B8017081672B6083682E9FCFA0960FB635
:102D8000F894DEBF0FBECDBFDF91CF911F910F91A1
:102D9000FF90EF90DF90CF90BF90AF909F908F907B
:102DA0007F906F905F904F9008952F923F924F9237
:102DB0005F926F927F929F92AF92BF92CF92DF927B
:102DC000EF92FF920F931F93CF93DF936C018B01D0
:102DD0001A010E94A825EC0199278B32910529F050
:102DE0008D9781F430E8932E01C0912C0150110988
:102DF00011F480E00CC1C6010E94A825EC0197FFE8
:102E000002C0F7CF912CCE010E944B258936910547
:102E100031F08E36910599F5C0E7D2E002C0C3E7E4
:102E2000D2E02196FE013197B490BB20C9F0015049
:102E3000110991F0C6010E94A8257C0197FD0CC0E4
:102E40000E944B259927EB2DF0E08E179F0749F341
:102E5000B601C7010E947A26C657D24051F603C078
:102E6000C357D24029F080E090E0A0E8BFE704C05B
:102E700080E090E0A0ECBFE7BC01CD01B8C0412CE0
:102E8000512C3201E12CF12C2C2F20532A3010F53B
:102E9000E92DE260BE2E892D887092FE06C0811158
:102EA00020C0FFEFEF1AFF0A1CC0882319F081E051
:102EB000E81AF10840E2C301B2010E9416152B0185
:102EC0003C01683979498949994158F0F92DF660F2
:102ED000BF2E07C02E3F89F493FC0FC0292D286018
:102EE000B22E0150110941F0C6010E94A825EC0143
:102EF0009B2C97FFC9CF01C09B2C91FE7ACFCE01AE
:102F00008F7D99278534910509F042C0580181E0F1
:102F1000A81AB10809F46DCFC6010E94A825EC01DA
:102F200097FD67CF99278B32910529F08D9769F42A
:102F3000E92DE0619E2E5801F2E0AF1AB10809F4C4
:102F400058CFC6010E94A825EC01CE01C0970A9770
:102F500008F04FCF8501A12CB12CB501BB0C880B1B
:102F6000990B2C2F205340E20E9416155B01015053
:102F7000110939F0C6010E94A825EC01C0970A97F3
:102F800060F394FE03C0B194A194B108EA0CFB1C59
:102F9000012B31F0D7FD04C0B601CE010E947A2684
:102FA000C301B2010E940721F7FE06C0F194E1942B
:102FB000F108CFE8D2E002C0C7EAD2E06E0128E112
:102FC000C21AD10800E210E0E016F10650F0FE014E
:102FD00025913591459154910E94F721E01AF10A0B
:102FE000F3CF249716950795CC16DD0669F797FE63
:102FF00005C0DC01CB01B058BC01CD012114310466
:1030000029F0F101608371838283938381E0DF91F2
:10301000CF911F910F91FF90EF90DF90CF90BF90D5
:10302000AF909F907F906F905F904F903F902F90C8
:1030300008956F927F928F929F92AF92BF92CF929C
:10304000DF92EF92FF920F931F93CF93DF935C0178
:10305000EB014A01FC0117821682612CF501038104
:10306000FE0103FD859103FF8191182FEF01882355
:1030700009F40FC190E00E944225892B21F0C5017F
:103080000E943D15EBCF153241F4FE0103FD159171
:1030900003FF1191EF01153281F4C5010E94A825AB
:1030A00097FDF5C0412F50E09C01332724173507C9
:1030B000A9F2B5010E947A26ECC01A3241F403FD50
:1030C000159103FF1191EF017724739401C0712CC6
:1030D000E12CF12C20ED210F2A3088F4F72DF2603D
:1030E0007F2EB70180E090E040E20E9416157B0140
:1030F000FE0103FD159103FF1191EF01EBCF71FE6E
:1031000004C0E114F10421F4C4C0EE24EA94FE2CBE
:10311000183619F01C3661F014C0FE0103FD15913C
:1031200003FF1191EF01183661F4872D8860782E26
:10313000972D9460792EFE0103FD159103FF1191E7
:10314000EF01112309F4A5C0612F70E08EE592E034
:103150000E945325892B09F49CC070FC07C0F40120
:10316000C080D180C40102964C0102C0C12CD12C78
:103170001E3651F4F5014681578160E070E0272D3D
:10318000C6010E940A156ACF1336B9F471FC03C058
:10319000EE24E394F12CC5010E94A82597FD77C089
:1031A000C114D10429F0F6018083C60101966C0197
:1031B00091E0E91AF10879F766C01B3559F49E01D0
:1031C000A601B701C5010E94EE15EC01892B09F09B
:1031D0005AC054C0C5010E943D1597FD58C01F3606
:1031E000E1F140F41436A9F11936D1F1183509F09E
:1031F0003EC02BC01337A9F018F4103731F137C097
:10320000153739F1183709F132C0C114D10429F04A
:10321000F6010083C60101966C0191E0E91AF108FC
:1032200071F0C5010E94A8258C0197FD08C00E947D
:103230004225892B51F3B501C8010E947A26C11499
:10324000D10409F1F60110821EC0F72DF0647F2E23
:1032500007C0872D8062782E03C0972D9061792E4C
:10326000272DA601B701C5010E94561505C0A6016C
:10327000B701C5010E94D516811105C0F5018381F2
:10328000807329F406C070FCE9CE6394E7CE662013
:1032900019F0862D90E002C08FEF9FEFDF91CF9164
:1032A0001F910F91FF90EF90DF90CF90BF90AF9064
:1032B0009F908F907F906F9008952F923F924F92A2
:1032C0005F926F927F928F929F92AF92BF92CF92B6
:1032D000DF92EF92FF920F931F93CF93DF93CDB7BF
:1032E000DEB760970FB6F894DEBF0FBECDBF7C018E
:1032F0001B016A01FC0117821682838181FF44C38E
:103300009E012F5F3F4F3901F7019381F10193FD3A
:10331000859193FF81911F01882309F431C3853280
:1033200039F493FD859193FF81911F01853239F422
:10333000B70190E00E94E62556016501E5CF10E057
:10334000512C912CFFE1F915D8F08B3279F038F43B
:10335000803279F08332A1F4F92DF0612EC08D32E4
:1033600061F0803369F4292D21602DC0392D326040
:10337000932E892D8460982E2AC0E92DE86015C00F
:1033800097FC2DC020ED280F2A3088F496FE06C049
:103390003AE0139F200D1124122F19C08AE0589E85
:1033A000200D1124522EE92DE0629E2E10C08E3287
:1033B00031F496FCE5C2F92DF0649F2E08C08C36DE
:1033C00021F4292D2068922E02C0883641F4F101A3
:1033D00093FD859193FF81911F018111B3CF9BEBE9
:1033E000980F933020F4992D9061805E07C09BE97F
:1033F000980F933008F066C1992D9F7E96FF16E0D6
:103400009F73992E853619F49064992E08C08636DC
:1034100021F4392F3068932E02C01111115097FEFC
:1034200007C01C3350F444244394410E27E00BC0E2
:10343000183038F027E017E005C027E09CE3492E5C
:1034400002C0212F412C560184E0A80EB11CF601C8
:103450006081718182819381042DA3010E946A247D
:103460006C01F981FC87F0FF02C0F3FF06C091FCFC
:1034700006C092FE06C000E205C00DE203C00BE2EA
:1034800001C000E08C858C7019F001115AC29BC2FA
:1034900097FE10C04C0CFC85F4FF04C08A81813378
:1034A00009F44A94141474F528E0241578F588E09A
:1034B000482E2CC096FC2AC0812F90E08C159D05CB
:1034C0009CF03CEFC3163FEFD30674F0892D806863
:1034D000982E0AC0E2E0F0E0EC0FFD1FE10FF11DB5
:1034E0008081803319F411501111F4CF97FE0EC072
:1034F00044244394410E812F90E0C816D9062CF441
:103500001C1904C04424439401C010E097FE06C077
:103510001C141D0434F4C601019605C085E090E03A
:1035200002C081E090E001110196112331F0212FBA
:1035300030E02F5F3F4F820F931F252D30E0821721
:10354000930714F4581A01C0512C892D897049F43D
:10355000552039F0B70180E290E00E94E6255A94A8
:10356000F7CF002329F0B701802F90E00E94E625D5
:1035700093FC09C0552039F0B70180E390E00E9428
:10358000E6255A94F7CF97FE4CC04601D7FE02C0FD
:10359000812C912CC60188199909F301E80FF91FB4
:1035A000FE87ED87960124193109388B2F87012F6B
:1035B00010E01195019511093FEF8316930629F448
:1035C000B7018EE290E00E94E625C814D9044CF0C1
:1035D0008F8598898815990524F4ED85FE8581816C
:1035E00001C080E3F1E08F1A91082D853E852F5FA1
:1035F0003F4F3E872D87801691062CF0B70190E053
:103600000E94E625D9CFC814D90441F49A81963393
:1036100020F4953319F43C8534FF81E3B70190E041
:103620004EC08A81813319F09C859F7E9C87B701AB
:1036300090E00E94E625111105C094FC18C085E6B3
:1036400090E017C0B7018EE290E00E94E6251E5F71
:1036500082E001E0080FF301E80FF11D8081B7015E
:1036600090E00E94E625802F0113F3CFE6CF85E49A
:1036700090E0B7010E94E625D7FC06C0C114D10432
:1036800041F4EC85E4FF05C0D194C194D1088DE2EA
:1036900001C08BE2B70190E00E94E62580E32AE0BA
:1036A000C216D1042CF08F5FFAE0CF1AD108F7CF01
:1036B000B70190E00E94E625B701C601C0960E94BE
:1036C000E62554C1833631F0833779F0833509F02C
:1036D00056C020C0560132E0A30EB11CF601808115
:1036E000898301E010E0630112C05601F2E0AF0EE1
:1036F000B11CF601C080D18096FE03C0612F70E03E
:1037000002C06FEF7FEFC6010E949D258C01F92D4D
:10371000FF7714C0560122E0A20EB11CF601C08052
:10372000D18096FE03C0612F70E002C06FEF7FEF83
:10373000C6010E945E258C01F92DF0689F2EF3FDD5
:103740001AC0852D90E008171907A8F4B70180E288
:1037500090E00E94E6255A94F4CFF60197FC8591FB
:1037600097FE81916F01B70190E00E94E62551100C
:103770005A94015011090115110579F7F7C08436E3
:1037800011F0893661F5560197FE09C024E0A20EBA
:10379000B11CF60160817181828193810AC0F2E0DF
:1037A000AF0EB11CF60160817181072E000C880BF1
:1037B000990BF92DFF769F2E97FF09C09095809564
:1037C000709561957F4F8F4F9F4FF0689F2E2AE035
:1037D00030E0A3010E949326C82EC6183FC0092DD1
:1037E000853721F40F7E2AE030E01DC0097F8F3637
:1037F00091F018F4883559F0C3C0803719F0883734
:1038000011F0BEC0006104FF09C0046007C094FE4F
:1038100008C0066006C028E030E005C020E130E0C6
:1038200002C020E132E0560107FF09C084E0A80E83
:10383000B11CF601608171818281938108C0F2E040
:10384000AF0EB11CF6016081718180E090E0A301B0
:103850000E949326C82EC6180F77902E96FE0BC096
:10386000092D0E7FC11650F494FE0AC092FC08C0C8
:10387000092D0E7E05C0DC2C092D03C0DC2C01C0F7
:10388000D12E04FF0DC0FE01EC0DF11D80818033AF
:1038900011F4097E09C002FF06C0D394D39404C07A
:1038A000802F867809F0D39403FD11C000FF06C075
:1038B0001C2DD51480F4150D1D190DC0D51458F408
:1038C000B70180E290E00E94E625D394F7CFD514AB
:1038D00010F45D1801C0512C04FF10C0B70180E343
:1038E00090E00E94E62502FF17C001FD03C088E7B3
:1038F00090E002C088E590E0B7010CC0802F867888
:1039000059F001FF02C08BE201C080E207FD8DE2A9
:10391000B70190E00E94E625C11638F4B70180E3B4
:1039200090E00E94E6251150F7CFCA94F301EC0D08
:10393000F11D8081B70190E00E94E625C110F5CF0E
:1039400015C0F4E0F51560F584E0581A93FE1FC029
:10395000011127C02C8523FF2AC00CE511E0392D69
:103960003071932EF8018491811124C0552009F4FF
:10397000E4CCB70180E290E00E94E6255A94F6CFAD
:10398000F7018681978126C08FEF9FEF23C0B70193
:1039900080E290E00E94E6255A945110F8CFD8CFEB
:1039A000512CB701802F90E00E94E625D3CF00E68E
:1039B00011E0D5CF91108052B70190E00E94E6252A
:1039C0000F5F1F4FCFCF23E0251510F483E0BDCF4D
:1039D000512CC0CF60960FB6F894DEBF0FBECDBF9E
:1039E000DF91CF911F910F91FF90EF90DF90CF90DB
:1039F000BF90AF909F908F907F906F905F904F900F
:103A00003F902F9008958230C9F028F4882341F028
:103A1000813069F008958330C1F08430E9F0089571
:103A2000E0910002F09101028091B6041BC0E09188
:103A30000002F09101028091B70414C0E0910002ED
:103A4000F09101028091B8040DC0E0910002F09164
:103A500001028091B90406C0E0910002F0910102D8
:103A60008091BA048083089590E08031910508F038
:103A7000A4C0FC01A0910002B09101028827EE5879
:103A8000FF4F8F4F0C94D91F8091D80420C0809194
:103A9000DA048C93E0910002F09101028091D90444
:103AA0008BC08091DC048C93E0910002F0910102C4
:103AB0008091DB0481C08091DE048C93E091000250
:103AC000F09101028091DD0477C08091E0048C9335
:103AD000E0910002F09101028091D7046DC08091C5
:103AE000E1048C93E0910002F09101028091E104E5
:103AF00063C08091E4048C93E0910002F091010294
:103B00008091E30459C08091E6048C93E091000217
:103B1000F09101028091E5044FC08091E8048C93FC
:103B2000E0910002F09101028091E70445C080918C
:103B3000EA048C93E0910002F09101028091E90483
:103B40003BC08091EC048C93E0910002F091010263
:103B50008091EB0431C08091EE048C93E0910002DF
:103B6000F09101028091ED0427C08091F0048C93C4
:103B7000E0910002F09101028091EF041DC080915C
:103B8000F2048C93E0910002F09101028091F10423
:103B900013C08091F4048C93E0910002F091010233
:103BA0008091F30409C08091F6048C93E0910002A7
:103BB000F09101028091F50480830895CF93DF9303
:103BC000C2E9D3E01B821A8280E090E00E94642266
:103BD00099838883DF91CF910895E7E1F4E0118222
:103BE0001082138212821582148217821682118625
:103BF0001086138612861586148617861686118AF5
:103C0000108A138A128A158A148A178A168A118EC4
:103C1000108E138E128E158E148E178E168E11A284
:103C200010A213A212A215A214A217A216A211A6E4
:103C300010A6109257041092560410925904109234
:103C4000580410925B0410925A0410925D04109272
:103C50005C0410925F0410925E0410926104109252
:103C6000600487E0E8E9F2E0AFEDB3E001900D9287
:103C70008A95E1F787E0E1E9F2E0A6EEB3E0019092
:103C80000D928A95E1F787E0EAE8F2E0ADEEB3E065
:103C900001900D928A95E1F787E0E3E8F2E0A4EF66
:103CA000B3E001900D928A95E1F787E0E9E5F2E053
:103CB000ABEFB3E001900D928A95E1F787E0E0E683
:103CC000F2E0A2E0B4E001900D928A95E1F787E07E
:103CD000E7E6F2E0A9E0B4E001900D928A95E1F701
:103CE00087E0EEE6F2E0A0E1B4E001900D928A9563
:103CF000E1F787E0EFE9F2E0A7EAB3E001900D9287
:103D00008A95E1F787E0E6EAF2E0AEEAB3E00190F7
:103D10000D928A95E1F787E0EDEAF2E0A5EBB3E0DA
:103D200001900D928A95E1F787E0E4EBF2E0ACEBCD
:103D3000B3E001900D928A95E1F787E0EBEBF2E0BA
:103D4000A3ECB3E001900D928A95E1F787E0E2ECF5
:103D5000F2E0AAECB3E001900D928A95E1F787E0DA
:103D6000E9ECF2E0A1EDB3E001900D928A95E1F764
:103D700087E0E0EDF2E0A8EDB3E001900D928A95C6
:103D8000E1F787E0ECE7F2E0A9E9B3E001900D92FA
:103D90008A95E1F787E0E5E7F2E0A0EAB3E0019079
:103DA0000D928A95E1F783B1809398038091030186
:103DB0008093970380910601809396030895CF9393
:103DC000DF93CDB7DEB7A5970FB6F894DEBF0FBE71
:103DD000CDBF0E947A1440E050E060E472E48FE0CE
:103DE00090E00E942C0E80E00E94B10E80E00E94C4
:103DF000A20E80E00E94060F8EEF98E00E94AB13A7
:103E000089E299E00E94AB1340E066E3CE0101969F
:103E10000E94DA0A0BE613E01F930F930E943B0FF8
:103E20008FE39CE90197F1F700C000000F900F901D
:103E3000F3CFE2EBF4E0108211821282138214823B
:103E400015821682178210861186128613861486B2
:103E5000158616861786108A118A128A138A148A82
:103E6000158A168A178A108E118E128E148E138E52
:103E7000158E168E178E11A210A212A216A215A2CE
:103E800010A617A212A611A614A613A616A615A66A
:103E900010AA17A612AA11AA14AA13AA16AA15AA3A
:103EA00010AE17AA12AE11AE14AE13AE16AE15AE0A
:103EB0001092F2041092F1041092F4041092F304A0
:103EC0001092F6041092F50441E068E08DE894E069
:103ED0000E94DA0A40E065E388E694E00C94DA0A8E
:103EE000CF93DF93C7E2D9E01B821A8280E090E093
:103EF0000E9464229983888310921E0910921F09E0
:103F0000109220091092210910922209109223097F
:103F10001092240910922509DF91CF910895AA1BD0
:103F2000BB1B51E107C0AA1FBB1FA617B70710F0A4
:103F3000A61BB70B881F991F5A95A9F780959095D6
:103F4000BC01CD01089597FB072E16F4009407D00D
:103F500077FD09D00E948F1F07FC05D03EF4909595
:103F600081959F4F0895709561957F4F0895A1E2C7
:103F70001A2EAA1BBB1BFD010DC0AA1FBB1FEE1FE3
:103F8000FF1FA217B307E407F50720F0A21BB30B2E
:103F9000E40BF50B661F771F881F991F1A9469F7AA
:103FA00060957095809590959B01AC01BD01CF0106
:103FB0000895EE0FFF1F881F8BBF0790F691E02D2D
:103FC00019940024A7FD00942A0F301D401D501D98
:103FD000601D701D801D901D08955058BB27AA2795
:103FE0000E9405200C94BD210E94AF2138F00E9450
:103FF000B62120F039F49F3F19F426F40C94AC213B
:104000000EF4E095E7FB0C94A621E92F0E94CE2147
:1040100058F3BA17620773078407950720F079F4FD
:10402000A6F50C94F0210EF4E0950B2EBA2FA02DDE
:104030000B01B90190010C01CA01A0011124FF2755
:10404000591B99F0593F50F4503E68F11A16F04050
:10405000A22F232F342F4427585FF3CF469537954F
:104060002795A795F0405395C9F77EF41F16BA0B14
:10407000620B730B840BBAF09150A1F0FF0FBB1FC2
:10408000661F771F881FC2F70EC0BA0F621F731F0B
:10409000841F48F4879577956795B795F7959E3F68
:1040A00008F0B0CF9395880F08F09927EE0F9795F9
:1040B000879508950E94822108F481E008950E9466
:1040C00073200C94BD210E94B62158F00E94AF21AC
:1040D00040F029F45F3F29F00C94A62151110C9473
:1040E000F1210C94AC210E94CE2168F39923B1F305
:1040F000552391F3951B550BBB27AA27621773070E
:10410000840738F09F5F5F4F220F331F441FAA1FA1
:10411000A9F335D00E2E3AF0E0E832D0915050405D
:10412000E695001CCAF72BD0FE2F29D0660F771F0B
:10413000881FBB1F261737074807AB07B0E809F0F1
:10414000BB0B802DBF01FF2793585F4F3AF09E3F76
:10415000510578F00C94A6210C94F1215F3FE4F313
:10416000983ED4F3869577956795B795F7959F5FB9
:10417000C9F7880F911D9695879597F90895E1E005
:10418000660F771F881FBB1F621773078407BA0764
:1041900020F0621B730B840BBA0BEE1F88F7E095BF
:1041A00008950E94D8206894B1110C94F1210895CB
:1041B0000E94D62188F09F5798F0B92F9927B751C0
:1041C000B0F0E1F0660F771F881F991F1AF0BA95BB
:1041D000C9F714C0B13091F00E94F021B1E0089508
:1041E0000C94F021672F782F8827B85F39F0B93FFA
:1041F000CCF3869577956795B395D9F73EF490956E
:104200008095709561957F4F8F4F9F4F0895E894EB
:1042100009C097FB3EF490958095709561957F4F0E
:104220008F4F9F4F9923A9F0F92F96E9BB279395BC
:10423000F695879577956795B795F111F8CFFAF4CC
:10424000BB0F11F460FF1BC06F5F7F4F8F4F9F4FFD
:1042500016C0882311F096E911C0772321F09EE85B
:10426000872F762F05C0662371F096E8862F70E0C1
:1042700060E02AF09A95660F771F881FDAF7880F9B
:104280009695879597F90895E894F92F96EBFF2373
:1042900081F0121613061406440B9395F695879534
:1042A0007795679557954040FF23B9F71BC099272D
:1042B0000895882351F49850D2F7872B762F652FD5
:1042C000542F432F322F20E0B1F312161306140699
:1042D000440B88233AF09A95440F551F661F771FA9
:1042E000881FCAF755234AF4440F551F11F460FF85
:1042F00004C06F5F7F4F8F4F9F4F880F96958795B4
:1043000097F90895990F0008550FAA0BE0E8FEEF02
:1043100016161706E807F907C0F012161306E40789
:10432000F50798F0621B730B840B950B39F40A2682
:1043300061F0232B242B252B21F408950A2609F460
:10434000A140A6958FEF811D811D089597F99F6764
:1043500080E870E060E008959FEF80EC089500240D
:104360000A941616170618060906089500240A94DA
:1043700012161306140605060895092E0394000C60
:1043800011F4882352F0BB0F40F4BF2B11F460FFEF
:1043900004C06F5F7F4F8F4F9F4F089557FD905818
:1043A000440F551F59F05F3F71F04795880F97FBF9
:1043B000991F61F09F3F79F08795089512161306B3
:1043C0001406551FF2CF4695F1DF08C016161706E2
:1043D0001806991FF1CF8695710561050894089517
:1043E000E894BB2766277727CB0197F908950E94A9
:1043F0000A220C94BD210E94AF2138F00E94B62100
:1044000020F0952311F00C94A6210C94AC211124DA
:104410000C94F1210E94CE2170F3959FC1F3950F6A
:1044200050E0551F629FF001729FBB27F00DB11D38
:10443000639FAA27F00DB11DAA1F649F6627B00DC8
:10444000A11D661F829F2227B00DA11D621F739FB1
:10445000B00DA11D621F839FA00D611D221F749FBF
:104460003327A00D611D231F849F600D211D822F06
:10447000762F6A2F11249F5750409AF0F1F088232D
:104480004AF0EE0FFF1FBB1F661F771F881F91505A
:104490005040A9F79E3F510580F00C94A6210C9442
:1044A000F1215F3FE4F3983ED4F3869577956795C5
:1044B000B795F795E7959F5FC1F7FE2B880F911D84
:1044C0009695879597F908950F931F93CF93DF9350
:1044D0008230910510F482E090E0E0912F09F09194
:1044E000300920E030E0A0E0B0E0309719F14081E1
:1044F00051810281138148175907C8F08417950725
:1045000069F4109731F012960C93129713961C933E
:1045100027C000932F091093300922C021153105BF
:1045200019F04217530718F49A01BD01EF01DF019A
:10453000F801DBCF21153105F9F0281B390B2430A8
:10454000310580F48A819B816115710521F0FB01A1
:104550009383828304C09093300980932F09FE01D6
:10456000329644C0FE01E20FF31F819391932250D3
:104570003109398328833AC020912D0930912E09C1
:10458000232B41F42091D9023091DA0230932E0985
:1045900020932D092091D7023091D80221153105A1
:1045A00041F42DB73EB74091DB025091DC02241B51
:1045B000350BE0912D09F0912E09E217F307A0F4D5
:1045C0002E1B3F0B2817390778F0AC014E5F5F4F69
:1045D0002417350748F04E0F5F1F50932E09409364
:1045E0002D098193919302C0E0E0F0E0CF01DF91CB
:1045F000CF911F910F910895CF93DF93009709F406
:1046000081C0FC01329713821282A0912F09B091D0
:104610003009109781F420813181820F931F2091FE
:104620002D0930912E092817390751F5F0932E09DD
:10463000E0932D0967C0ED0120E030E0CE17DF07E1
:1046400040F44A815B819E0141155105F1F0EA0178
:10465000F5CFD383C28340815181840F951FC81742
:10466000D90759F488819981840F951F0296918307
:1046700080838A819B81938382832115310529F46C
:10468000F0933009E0932F093DC0E901FB83EA83F1
:1046900049915991C40FD51FEC17FD0761F4808132
:1046A0009181840F951F0296E90199838883828105
:1046B00093819B838A83E0E0F0E012968D919C9138
:1046C0001397009719F0FD01DC01F7CF8D919C91B4
:1046D00011979D012E5F3F4F820F931F20912D094F
:1046E00030912E092817390769F4309729F4109270
:1046F000300910922F0902C013821282B0932E0942
:10470000A0932D09DF91CF9108956F927F928F92A0
:104710009F92AF92BF92CF92DF92EF92FF920F9350
:104720001F93CF93DF93009789F4CB01DF91CF9153
:104730001F910F91FF90EF90DF90CF90BF90AF90BF
:104740009F908F907F906F900C946422FC01E60FF5
:10475000F71F9C0122503109E217F30708F4A9C0A2
:10476000EC01D9010D911C91119706171707B0F0B4
:104770000530110508F49BC0C801049786179707F8
:1047800008F495C002501109061B170B01931193F1
:104790006D937C93CF010E94FC2289C05B01A01A1B
:1047A000B10A4C01800E911EA0912F09B0913009E1
:1047B000612C712CE12CF12C109709F446C08D91DD
:1047C0009C911197A815B905B1F56C0142E0C40E92
:1047D000D11CCA14DB0478F14C018A189B086401CF
:1047E00042E0C40ED11C1296BC9012971396AC9165
:1047F000B5E0CB16D10440F0B282A38391828082CF
:10480000D9016D937C9309C00E5F1F4F800F911FDC
:10481000F90191838083EB2DFA2FE114F10431F03B
:10482000D7011396FC93EE93129741C0F093300991
:10483000E0932F093CC06816790608F43C017D011D
:1048400012960D90BC91A02DB7CF80912D0990911B
:104850002E0988169906E1F466167706C8F4809149
:10486000D7029091D802009741F48DB79EB740913E
:10487000DB025091DC02841B950BE817F907C8F4A2
:10488000F0932E09E0932D09F901718360830FC025
:10489000CB010E9464227C01009759F0A801BE015F
:1048A0000E946925CE010E94FC22C70104C0CE01EE
:1048B00002C080E090E0DF91CF911F910F91FF90B7
:1048C000EF90DF90CF90BF90AF909F908F907F90B0
:1048D0006F900895283008F027E03327DA01990F08
:1048E000311D87FD916000966105710539F43260D4
:1048F0002E5F3D9330E32A95E1F708959F3F30F016
:1049000080387105610509F03C5F3C5F3D93913053
:1049100008F08068911DDF93CF931F930F93FF9250
:10492000EF92192F987F9695E92F96959695E90F16
:10493000FF27E254FE4F99273327EE24FF24A701D7
:10494000E70105900894079428F4360FE71EF81E37
:10495000491F511D660F771F881F991F0694A1F7E5
:104960000590079428F4E70EF81E491F561FC11D35
:10497000770F881F991F661F0694A1F7059007946B
:1049800028F4F80E491F561FC71FD11D880F991F05
:10499000661F771F0694A1F70590079420F4490F2E
:1049A000561FC71FD81F990F661F771F881F0694B1
:1049B000A9F784911095177041F0D695C795579532
:1049C0004795F794E7941A95C1F7E4E6F1E0689407
:1049D0001590159135916591959105907FE27395AC
:1049E000E118F10A430B560BC90BD009C0F7E10CD3
:1049F000F11E431F561FC91FD01D7EF4703311F4E2
:104A00008A95E6CFE894015030F0080F0AF40027A9
:104A1000021708F4202F2395022F7A3328F079E328
:104A20007D932A95E9F710C07D932A9589F606941F
:104A300097956795379517951794E118F10A430BE9
:104A4000560BC90BD00998F023957E9173957A3354
:104A500008F070E37C932013B8F77E9170617D932A
:104A600030F0839571E37D9370E32A95E1F711248B
:104A7000EF90FF900F911F91CF91DF91992787FDC4
:104A80009095089591110C94F126803219F0895077
:104A90008550C8F708959111089581548A5108F4FA
:104AA000805E855A0895FC010590061621F00020CD
:104AB000D9F7C00108953197CF010895FC01059001
:104AC000615070400110D8F7809590958E0F9F1F10
:104AD0000895FB01DC0102C001900D92415050404D
:104AE000D8F708956817790768F4FB01DC01E40F33
:104AF000F51FA40FB51F02C002900E924150504006
:104B0000D8F708950C946925FB01DC010D90002075
:104B1000E9F7119701900D920020E1F70895FB014C
:104B2000DC014150504030F08D910190801919F412
:104B30000020B9F7881B990B0895FC016150704063
:104B400001900110D8F7809590958E0F9F1F0895C2
:104B5000CF93DF93EC012B8120FF33C026FF0AC0E7
:104B60002F7B2B838E819F8101969F838E838A81E9
:104B700090E029C022FF0FC0E881F9818081082ED2
:104B8000000C990B009719F420622B831AC0319600
:104B9000F983E8830EC0EA85FB85199597FF09C064
:104BA0002B81019611F080E201C080E1822B8B8382
:104BB00008C02E813F812F5F3F4F3F832E8399276F
:104BC00002C08FEF9FEFDF91CF9108950F931F9356
:104BD000CF93DF93FB01238121FD03C08FEF9FEF74
:104BE0002CC022FF16C0468157812481358142178F
:104BF000530744F4A081B1819D012F5F3F4F318362
:104C000020838C93268137812F5F3F4F3783268304
:104C100014C08B01EC01FB010084F185E02D199596
:104C2000892BE1F6D80116968D919C9117970196E4
:104C300017969C938E931697CE01DF91CF911F917B
:104C40000F9108950F931F93CF93DF93CDB7DEB7E6
:104C50002E970FB6F894DEBF0FBECDBF0E891F8909
:104C600086E08C831A8309838FEF9FE79E838D8371
:104C7000AE01465E5F4F688D798DCE0101960E9430
:104C80005D19EF81F885E00FF11F10822E960FB6A7
:104C9000F894DEBF0FBECDBFDF91CF911F910F9172
:104CA00008950F931F93CF93DF93CDB7DEB72E9761
:104CB0000FB6F894DEBF0FBECDBF8C0186E08C83AB
:104CC0001A8309838FEF9FE79E838D83CE01019620
:104CD0000E945D19EF81F885E00FF11F10822E967A
:104CE0000FB6F894DEBF0FBECDBFDF91CF911F91FD
:104CF0000F910895FB01238120FF12C026FD10C0F3
:104D00008F3F3FEF930761F082832F7D20642383E1
:104D100026813781215031093783268399270895C9
:104D20008FEF9FEF0895FA01AA27283051F1203123
:104D300081F1E8946F936E7F6E5F7F4F8F4F9F4F2F
:104D4000AF4FB1E03ED0B4E03CD0670F781F891F71
:104D50009A1FA11D680F791F8A1F911DA11D6A0F3F
:104D6000711D811D911DA11D20D009F468943F91F2
:104D70002AE0269F11243019305D3193DEF6CF01F1
:104D80000895462F4770405D4193B3E00FD0C9F7B7
:104D9000F6CF462F4F70405D4A3318F0495D31FD24
:104DA0004052419302D0A9F7EACFB4E0A695979577
:104DB000879577956795BA95C9F70097610571054D
:104DC00008959B01AC010A2E069457954795379597
:104DD0002795BA95C9F7620F731F841F951FA01DF1
:0C4DE0000895992788270895F894FFCFC4
:104DEC00C60002015E0466040001020304030160B4
:104DFC000467040004080C0512005C046504004000
:104E0C0080C00313005A0464040010203002140004
:104E1C00580463040004080C0115005604620400D5
:104E2C0001020300000100170441040100031904EE
:104E3C0042040601001B0443040A00041D044A0436
:104E4C000B00051F044B040C000621044C040D0040
:104E5C000723044D040E0102250445040F0101270C
:104E6C00044404320003290449043300022B04488F
:104E7C00043400012D0447043500002F0446043E81
:104E8C00020031044E043F020133044F044002027D
:104E9C00350450044102033704510442020439041E
:104EAC0052044302053B0453044402063D045404DB
:104EBC004502073F045504000031092000240080FE
:104ECC0000B0009000A000200100000100020003CF
:104EDC000004000500060007000008010802080392
:104EEC000804080508060807084261736520706FFE
:104EFC00696E7465722025700D0A0056616C7565BB
:104F0C00206F6620706970706F203A2025640D0A3E
:104F1C000056616C7565206F6620706970706F311A
:104F2C00203A2025640D0A005368656C6C0D0A004C
:104F3C00596F752077726F74653A2025730047504E
:104F4C00530D0A00244750524D43004461746120B4
:104F5C003A20256C660D0A005744540D0A0025644E
:104F6C002E3025750025642E2575006F76660D0A8A
:024F7C00000033
:00000001FF
